{
  "contractName": "CompanyNFT",
  "abi": [
    {
      "inputs": [
        {
          "internalType": "address",
          "name": "_tradeContract",
          "type": "address"
        }
      ],
      "stateMutability": "nonpayable",
      "type": "constructor"
    },
    {
      "inputs": [
        {
          "internalType": "address",
          "name": "sender",
          "type": "address"
        },
        {
          "internalType": "uint256",
          "name": "tokenId",
          "type": "uint256"
        },
        {
          "internalType": "address",
          "name": "owner",
          "type": "address"
        }
      ],
      "name": "ERC721IncorrectOwner",
      "type": "error"
    },
    {
      "inputs": [
        {
          "internalType": "address",
          "name": "operator",
          "type": "address"
        },
        {
          "internalType": "uint256",
          "name": "tokenId",
          "type": "uint256"
        }
      ],
      "name": "ERC721InsufficientApproval",
      "type": "error"
    },
    {
      "inputs": [
        {
          "internalType": "address",
          "name": "approver",
          "type": "address"
        }
      ],
      "name": "ERC721InvalidApprover",
      "type": "error"
    },
    {
      "inputs": [
        {
          "internalType": "address",
          "name": "operator",
          "type": "address"
        }
      ],
      "name": "ERC721InvalidOperator",
      "type": "error"
    },
    {
      "inputs": [
        {
          "internalType": "address",
          "name": "owner",
          "type": "address"
        }
      ],
      "name": "ERC721InvalidOwner",
      "type": "error"
    },
    {
      "inputs": [
        {
          "internalType": "address",
          "name": "receiver",
          "type": "address"
        }
      ],
      "name": "ERC721InvalidReceiver",
      "type": "error"
    },
    {
      "inputs": [
        {
          "internalType": "address",
          "name": "sender",
          "type": "address"
        }
      ],
      "name": "ERC721InvalidSender",
      "type": "error"
    },
    {
      "inputs": [
        {
          "internalType": "uint256",
          "name": "tokenId",
          "type": "uint256"
        }
      ],
      "name": "ERC721NonexistentToken",
      "type": "error"
    },
    {
      "anonymous": false,
      "inputs": [
        {
          "indexed": true,
          "internalType": "address",
          "name": "owner",
          "type": "address"
        },
        {
          "indexed": true,
          "internalType": "address",
          "name": "approved",
          "type": "address"
        },
        {
          "indexed": true,
          "internalType": "uint256",
          "name": "tokenId",
          "type": "uint256"
        }
      ],
      "name": "Approval",
      "type": "event"
    },
    {
      "anonymous": false,
      "inputs": [
        {
          "indexed": true,
          "internalType": "address",
          "name": "owner",
          "type": "address"
        },
        {
          "indexed": true,
          "internalType": "address",
          "name": "operator",
          "type": "address"
        },
        {
          "indexed": false,
          "internalType": "bool",
          "name": "approved",
          "type": "bool"
        }
      ],
      "name": "ApprovalForAll",
      "type": "event"
    },
    {
      "anonymous": false,
      "inputs": [
        {
          "indexed": false,
          "internalType": "address",
          "name": "companyAddress",
          "type": "address"
        },
        {
          "indexed": false,
          "internalType": "string",
          "name": "name",
          "type": "string"
        }
      ],
      "name": "CompanyRegistered",
      "type": "event"
    },
    {
      "anonymous": false,
      "inputs": [
        {
          "indexed": false,
          "internalType": "address",
          "name": "companyAddress",
          "type": "address"
        },
        {
          "indexed": false,
          "internalType": "uint256",
          "name": "tokenId",
          "type": "uint256"
        }
      ],
      "name": "ImpressionIncreased",
      "type": "event"
    },
    {
      "anonymous": false,
      "inputs": [
        {
          "indexed": false,
          "internalType": "uint256",
          "name": "tokenId",
          "type": "uint256"
        }
      ],
      "name": "NFTBurned",
      "type": "event"
    },
    {
      "anonymous": false,
      "inputs": [
        {
          "indexed": false,
          "internalType": "address",
          "name": "companyAddress",
          "type": "address"
        },
        {
          "indexed": false,
          "internalType": "uint256",
          "name": "tokenId",
          "type": "uint256"
        },
        {
          "indexed": false,
          "internalType": "string",
          "name": "name",
          "type": "string"
        },
        {
          "indexed": false,
          "internalType": "uint256",
          "name": "duration",
          "type": "uint256"
        }
      ],
      "name": "NFTReleased",
      "type": "event"
    },
    {
      "anonymous": false,
      "inputs": [
        {
          "indexed": true,
          "internalType": "address",
          "name": "from",
          "type": "address"
        },
        {
          "indexed": true,
          "internalType": "address",
          "name": "to",
          "type": "address"
        },
        {
          "indexed": true,
          "internalType": "uint256",
          "name": "tokenId",
          "type": "uint256"
        }
      ],
      "name": "Transfer",
      "type": "event"
    },
    {
      "inputs": [
        {
          "internalType": "address",
          "name": "to",
          "type": "address"
        },
        {
          "internalType": "uint256",
          "name": "tokenId",
          "type": "uint256"
        }
      ],
      "name": "approve",
      "outputs": [],
      "stateMutability": "nonpayable",
      "type": "function"
    },
    {
      "inputs": [
        {
          "internalType": "address",
          "name": "owner",
          "type": "address"
        }
      ],
      "name": "balanceOf",
      "outputs": [
        {
          "internalType": "uint256",
          "name": "",
          "type": "uint256"
        }
      ],
      "stateMutability": "view",
      "type": "function"
    },
    {
      "inputs": [
        {
          "internalType": "address",
          "name": "",
          "type": "address"
        }
      ],
      "name": "companies",
      "outputs": [
        {
          "internalType": "address payable",
          "name": "companyAddress",
          "type": "address"
        },
        {
          "internalType": "string",
          "name": "name",
          "type": "string"
        }
      ],
      "stateMutability": "view",
      "type": "function"
    },
    {
      "inputs": [
        {
          "internalType": "uint256",
          "name": "tokenId",
          "type": "uint256"
        }
      ],
      "name": "getApproved",
      "outputs": [
        {
          "internalType": "address",
          "name": "",
          "type": "address"
        }
      ],
      "stateMutability": "view",
      "type": "function"
    },
    {
      "inputs": [
        {
          "internalType": "address",
          "name": "owner",
          "type": "address"
        },
        {
          "internalType": "address",
          "name": "operator",
          "type": "address"
        }
      ],
      "name": "isApprovedForAll",
      "outputs": [
        {
          "internalType": "bool",
          "name": "",
          "type": "bool"
        }
      ],
      "stateMutability": "view",
      "type": "function"
    },
    {
      "inputs": [],
      "name": "name",
      "outputs": [
        {
          "internalType": "string",
          "name": "",
          "type": "string"
        }
      ],
      "stateMutability": "view",
      "type": "function"
    },
    {
      "inputs": [],
      "name": "nextTokenId",
      "outputs": [
        {
          "internalType": "uint256",
          "name": "",
          "type": "uint256"
        }
      ],
      "stateMutability": "view",
      "type": "function"
    },
    {
      "inputs": [
        {
          "internalType": "uint256",
          "name": "",
          "type": "uint256"
        }
      ],
      "name": "nfts",
      "outputs": [
        {
          "internalType": "string",
          "name": "name",
          "type": "string"
        },
        {
          "internalType": "uint256",
          "name": "duration",
          "type": "uint256"
        },
        {
          "internalType": "uint256",
          "name": "price",
          "type": "uint256"
        },
        {
          "internalType": "bool",
          "name": "isOwned",
          "type": "bool"
        },
        {
          "internalType": "uint256",
          "name": "popularityIndex",
          "type": "uint256"
        },
        {
          "internalType": "uint256",
          "name": "creationTime",
          "type": "uint256"
        }
      ],
      "stateMutability": "view",
      "type": "function"
    },
    {
      "inputs": [
        {
          "internalType": "uint256",
          "name": "tokenId",
          "type": "uint256"
        }
      ],
      "name": "ownerOf",
      "outputs": [
        {
          "internalType": "address",
          "name": "",
          "type": "address"
        }
      ],
      "stateMutability": "view",
      "type": "function"
    },
    {
      "inputs": [
        {
          "internalType": "address",
          "name": "",
          "type": "address"
        }
      ],
      "name": "popularityIndex",
      "outputs": [
        {
          "internalType": "uint256",
          "name": "",
          "type": "uint256"
        }
      ],
      "stateMutability": "view",
      "type": "function"
    },
    {
      "inputs": [
        {
          "internalType": "address",
          "name": "from",
          "type": "address"
        },
        {
          "internalType": "address",
          "name": "to",
          "type": "address"
        },
        {
          "internalType": "uint256",
          "name": "tokenId",
          "type": "uint256"
        }
      ],
      "name": "safeTransferFrom",
      "outputs": [],
      "stateMutability": "nonpayable",
      "type": "function"
    },
    {
      "inputs": [
        {
          "internalType": "address",
          "name": "from",
          "type": "address"
        },
        {
          "internalType": "address",
          "name": "to",
          "type": "address"
        },
        {
          "internalType": "uint256",
          "name": "tokenId",
          "type": "uint256"
        },
        {
          "internalType": "bytes",
          "name": "data",
          "type": "bytes"
        }
      ],
      "name": "safeTransferFrom",
      "outputs": [],
      "stateMutability": "nonpayable",
      "type": "function"
    },
    {
      "inputs": [
        {
          "internalType": "address",
          "name": "operator",
          "type": "address"
        },
        {
          "internalType": "bool",
          "name": "approved",
          "type": "bool"
        }
      ],
      "name": "setApprovalForAll",
      "outputs": [],
      "stateMutability": "nonpayable",
      "type": "function"
    },
    {
      "inputs": [
        {
          "internalType": "bytes4",
          "name": "interfaceId",
          "type": "bytes4"
        }
      ],
      "name": "supportsInterface",
      "outputs": [
        {
          "internalType": "bool",
          "name": "",
          "type": "bool"
        }
      ],
      "stateMutability": "view",
      "type": "function"
    },
    {
      "inputs": [],
      "name": "symbol",
      "outputs": [
        {
          "internalType": "string",
          "name": "",
          "type": "string"
        }
      ],
      "stateMutability": "view",
      "type": "function"
    },
    {
      "inputs": [
        {
          "internalType": "uint256",
          "name": "tokenId",
          "type": "uint256"
        }
      ],
      "name": "tokenURI",
      "outputs": [
        {
          "internalType": "string",
          "name": "",
          "type": "string"
        }
      ],
      "stateMutability": "view",
      "type": "function"
    },
    {
      "inputs": [],
      "name": "tradeContract",
      "outputs": [
        {
          "internalType": "address",
          "name": "",
          "type": "address"
        }
      ],
      "stateMutability": "view",
      "type": "function"
    },
    {
      "inputs": [
        {
          "internalType": "address",
          "name": "from",
          "type": "address"
        },
        {
          "internalType": "address",
          "name": "to",
          "type": "address"
        },
        {
          "internalType": "uint256",
          "name": "tokenId",
          "type": "uint256"
        }
      ],
      "name": "transferFrom",
      "outputs": [],
      "stateMutability": "nonpayable",
      "type": "function"
    },
    {
      "inputs": [
        {
          "internalType": "string",
          "name": "_name",
          "type": "string"
        }
      ],
      "name": "registerCompany",
      "outputs": [],
      "stateMutability": "nonpayable",
      "type": "function"
    },
    {
      "inputs": [
        {
          "internalType": "string",
          "name": "_name",
          "type": "string"
        },
        {
          "internalType": "uint256",
          "name": "_duration",
          "type": "uint256"
        },
        {
          "internalType": "uint256",
          "name": "_price",
          "type": "uint256"
        }
      ],
      "name": "releaseNFT",
      "outputs": [],
      "stateMutability": "nonpayable",
      "type": "function"
    },
    {
      "inputs": [
        {
          "internalType": "uint256",
          "name": "tokenId",
          "type": "uint256"
        }
      ],
      "name": "burnNFT",
      "outputs": [],
      "stateMutability": "nonpayable",
      "type": "function"
    },
    {
      "inputs": [
        {
          "internalType": "uint256",
          "name": "tokenId",
          "type": "uint256"
        }
      ],
      "name": "impression",
      "outputs": [],
      "stateMutability": "nonpayable",
      "type": "function"
    },
    {
      "inputs": [
        {
          "internalType": "uint256",
          "name": "tokenId",
          "type": "uint256"
        },
        {
          "internalType": "bool",
          "name": "isOwned",
          "type": "bool"
        }
      ],
      "name": "updateNFTStatus",
      "outputs": [],
      "stateMutability": "nonpayable",
      "type": "function"
    }
  ],
  "bytecode": "0x608060405234801561000f575f80fd5b5060405161345838038061345883398181016040528101906100319190610169565b6040518060400160405280600b81526020017f436f6d70616e794e616d650000000000000000000000000000000000000000008152506040518060400160405280600381526020017f434e4d0000000000000000000000000000000000000000000000000000000000815250815f90816100ab91906103ce565b5080600190816100bb91906103ce565b5050508060095f6101000a81548173ffffffffffffffffffffffffffffffffffffffff021916908373ffffffffffffffffffffffffffffffffffffffff1602179055505f600a819055505061049d565b5f80fd5b5f73ffffffffffffffffffffffffffffffffffffffff82169050919050565b5f6101388261010f565b9050919050565b6101488161012e565b8114610152575f80fd5b50565b5f815190506101638161013f565b92915050565b5f6020828403121561017e5761017d61010b565b5b5f61018b84828501610155565b91505092915050565b5f81519050919050565b7f4e487b71000000000000000000000000000000000000000000000000000000005f52604160045260245ffd5b7f4e487b71000000000000000000000000000000000000000000000000000000005f52602260045260245ffd5b5f600282049050600182168061020f57607f821691505b602082108103610222576102216101cb565b5b50919050565b5f819050815f5260205f209050919050565b5f6020601f8301049050919050565b5f82821b905092915050565b5f600883026102847fffffffffffffffffffffffffffffffffffffffffffffffffffffffffffffffff82610249565b61028e8683610249565b95508019841693508086168417925050509392505050565b5f819050919050565b5f819050919050565b5f6102d26102cd6102c8846102a6565b6102af565b6102a6565b9050919050565b5f819050919050565b6102eb836102b8565b6102ff6102f7826102d9565b848454610255565b825550505050565b5f90565b610313610307565b61031e8184846102e2565b505050565b5b81811015610341576103365f8261030b565b600181019050610324565b5050565b601f8211156103865761035781610228565b6103608461023a565b8101602085101561036f578190505b61038361037b8561023a565b830182610323565b50505b505050565b5f82821c905092915050565b5f6103a65f198460080261038b565b1980831691505092915050565b5f6103be8383610397565b9150826002028217905092915050565b6103d782610194565b67ffffffffffffffff8111156103f0576103ef61019e565b5b6103fa82546101f8565b610405828285610345565b5f60209050601f831160018114610436575f8415610424578287015190505b61042e85826103b3565b865550610495565b601f19841661044486610228565b5f5b8281101561046b57848901518255600182019150602085019450602081019050610446565b868310156104885784890151610484601f891682610397565b8355505b6001600288020188555050505b505050505050565b612fae806104aa5f395ff3fe608060405234801561000f575f80fd5b506004361061014a575f3560e01c806347282a2a116100c1578063a22cb4651161007a578063a22cb465146103ae578063b88d4fde146103ca578063c87b56dd146103e6578063e76caad214610416578063e985e9c514610446578063ffa640d8146104765761014a565b806347282a2a146102da5780634827c7a5146102f65780636352211e1461031257806370a082311461034257806375794a3c1461037257806395d89b41146103905761014a565b8063204a0b8d11610113578063204a0b8d1461020457806323b872dd14610220578063265aa6211461023c5780632890e0d714610271578063355e6ce81461028d57806342842e0e146102be5761014a565b80625441941461014e57806301ffc9a71461016a57806306fdde031461019a578063081812fc146101b8578063095ea7b3146101e8575b5f80fd5b6101686004803603810190610163919061219d565b610494565b005b610184600480360381019061017f9190612239565b610661565b604051610191919061227e565b60405180910390f35b6101a2610742565b6040516101af91906122f7565b60405180910390f35b6101d260048036038101906101cd919061234a565b6107d1565b6040516101df91906123b4565b60405180910390f35b61020260048036038101906101fd91906123f7565b6107ec565b005b61021e60048036038101906102199190612435565b610802565b005b61023a600480360381019061023591906124a1565b6109f7565b005b6102566004803603810190610251919061234a565b610af6565b60405161026896959493929190612500565b60405180910390f35b61028b6004803603810190610286919061234a565b610bc0565b005b6102a760048036038101906102a29190612566565b610cca565b6040516102b59291906125b1565b60405180910390f35b6102d860048036038101906102d391906124a1565b610d8f565b005b6102f460048036038101906102ef9190612609565b610dae565b005b610310600480360381019061030b919061234a565b610e6c565b005b61032c6004803603810190610327919061234a565b610fb2565b60405161033991906123b4565b60405180910390f35b61035c60048036038101906103579190612566565b610fc3565b6040516103699190612647565b60405180910390f35b61037a611079565b6040516103879190612647565b60405180910390f35b61039861107f565b6040516103a591906122f7565b60405180910390f35b6103c860048036038101906103c39190612660565b61110f565b005b6103e460048036038101906103df919061273c565b611125565b005b61040060048036038101906103fb919061234a565b611142565b60405161040d91906122f7565b60405180910390f35b610430600480360381019061042b9190612566565b6111a8565b60405161043d9190612647565b60405180910390f35b610460600480360381019061045b91906127bc565b6111bd565b60405161046d919061227e565b60405180910390f35b61047e61124b565b60405161048b91906123b4565b60405180910390f35b5f73ffffffffffffffffffffffffffffffffffffffff1660065f3373ffffffffffffffffffffffffffffffffffffffff1673ffffffffffffffffffffffffffffffffffffffff1681526020019081526020015f205f015f9054906101000a900473ffffffffffffffffffffffffffffffffffffffff1673ffffffffffffffffffffffffffffffffffffffff1614610560576040517f08c379a000000000000000000000000000000000000000000000000000000000815260040161055790612844565b60405180910390fd5b60405180604001604052803373ffffffffffffffffffffffffffffffffffffffff1681526020018281525060065f3373ffffffffffffffffffffffffffffffffffffffff1673ffffffffffffffffffffffffffffffffffffffff1681526020019081526020015f205f820151815f015f6101000a81548173ffffffffffffffffffffffffffffffffffffffff021916908373ffffffffffffffffffffffffffffffffffffffff16021790555060208201518160010190816106219190612a5c565b509050507f76686aa361308f4a08557cca1a847299ce61e5602a3495cd359a599a1dca438c3382604051610656929190612b2b565b60405180910390a150565b5f7f80ac58cd000000000000000000000000000000000000000000000000000000007bffffffffffffffffffffffffffffffffffffffffffffffffffffffff1916827bffffffffffffffffffffffffffffffffffffffffffffffffffffffff1916148061072b57507f5b5e139f000000000000000000000000000000000000000000000000000000007bffffffffffffffffffffffffffffffffffffffffffffffffffffffff1916827bffffffffffffffffffffffffffffffffffffffffffffffffffffffff1916145b8061073b575061073a82611270565b5b9050919050565b60605f80546107509061288f565b80601f016020809104026020016040519081016040528092919081815260200182805461077c9061288f565b80156107c75780601f1061079e576101008083540402835291602001916107c7565b820191905f5260205f20905b8154815290600101906020018083116107aa57829003601f168201915b5050505050905090565b5f6107db826112d9565b506107e58261135f565b9050919050565b6107fe82826107f9611398565b61139f565b5050565b5f73ffffffffffffffffffffffffffffffffffffffff1660065f3373ffffffffffffffffffffffffffffffffffffffff1673ffffffffffffffffffffffffffffffffffffffff1681526020019081526020015f205f015f9054906101000a900473ffffffffffffffffffffffffffffffffffffffff1673ffffffffffffffffffffffffffffffffffffffff16036108ce576040517f08c379a00000000000000000000000000000000000000000000000000000000081526004016108c590612ba3565b60405180910390fd5b5f600a549050600a5f8154809291906108e690612bee565b919050555061091660095f9054906101000a900473ffffffffffffffffffffffffffffffffffffffff16826113b1565b6040518060c001604052808581526020018481526020018381526020015f151581526020015f81526020014281525060075f8381526020019081526020015f205f820151815f0190816109699190612a5c565b5060208201518160010155604082015181600201556060820151816003015f6101000a81548160ff0219169083151502179055506080820151816004015560a082015181600501559050507f2fc8798258bbd6b1aa66d8289a3e9f14b6ba6ecc128fea8136df9ed7c8c0ef69338286866040516109e99493929190612c35565b60405180910390a150505050565b5f73ffffffffffffffffffffffffffffffffffffffff168273ffffffffffffffffffffffffffffffffffffffff1603610a67575f6040517f64a0ae92000000000000000000000000000000000000000000000000000000008152600401610a5e91906123b4565b60405180910390fd5b5f610a7a8383610a75611398565b6114a4565b90508373ffffffffffffffffffffffffffffffffffffffff168173ffffffffffffffffffffffffffffffffffffffff1614610af0578382826040517f64283d7b000000000000000000000000000000000000000000000000000000008152600401610ae793929190612c7f565b60405180910390fd5b50505050565b6007602052805f5260405f205f91509050805f018054610b159061288f565b80601f0160208091040260200160405190810160405280929190818152602001828054610b419061288f565b8015610b8c5780601f10610b6357610100808354040283529160200191610b8c565b820191905f5260205f20905b815481529060010190602001808311610b6f57829003601f168201915b505050505090806001015490806002015490806003015f9054906101000a900460ff16908060040154908060050154905086565b3373ffffffffffffffffffffffffffffffffffffffff16610be082610fb2565b73ffffffffffffffffffffffffffffffffffffffff1614610c36576040517f08c379a0000000000000000000000000000000000000000000000000000000008152600401610c2d90612cfe565b60405180910390fd5b610c3f816116af565b60075f8281526020019081526020015f205f8082015f610c5f9190611ff8565b600182015f9055600282015f9055600382015f6101000a81549060ff0219169055600482015f9055600582015f905550507f3c176691ca154a2f6fe978a2a633a33ee77dbe2902e67a75400720845a4b2ce181604051610cbf9190612647565b60405180910390a150565b6006602052805f5260405f205f91509050805f015f9054906101000a900473ffffffffffffffffffffffffffffffffffffffff1690806001018054610d0e9061288f565b80601f0160208091040260200160405190810160405280929190818152602001828054610d3a9061288f565b8015610d855780601f10610d5c57610100808354040283529160200191610d85565b820191905f5260205f20905b815481529060010190602001808311610d6857829003601f168201915b5050505050905082565b610da983838360405180602001604052805f815250611125565b505050565b60095f9054906101000a900473ffffffffffffffffffffffffffffffffffffffff1673ffffffffffffffffffffffffffffffffffffffff163373ffffffffffffffffffffffffffffffffffffffff1614610e3d576040517f08c379a0000000000000000000000000000000000000000000000000000000008152600401610e3490612d66565b60405180910390fd5b8060075f8481526020019081526020015f206003015f6101000a81548160ff0219169083151502179055505050565b5f73ffffffffffffffffffffffffffffffffffffffff16610e8c82610fb2565b73ffffffffffffffffffffffffffffffffffffffff1603610ee2576040517f08c379a0000000000000000000000000000000000000000000000000000000008152600401610ed990612dce565b60405180910390fd5b5f60065f610eef84610fb2565b73ffffffffffffffffffffffffffffffffffffffff1673ffffffffffffffffffffffffffffffffffffffff1681526020019081526020015f205f015f9054906101000a900473ffffffffffffffffffffffffffffffffffffffff16905060075f8381526020019081526020015f206004015f815480929190610f7090612bee565b91905055507f6dee9015d3eb3d147ae0b4fafdfc062172ef0885c919b29fca2d5f7be01de2968183604051610fa6929190612dec565b60405180910390a15050565b5f610fbc826112d9565b9050919050565b5f8073ffffffffffffffffffffffffffffffffffffffff168273ffffffffffffffffffffffffffffffffffffffff1603611034575f6040517f89c62b6400000000000000000000000000000000000000000000000000000000815260040161102b91906123b4565b60405180910390fd5b60035f8373ffffffffffffffffffffffffffffffffffffffff1673ffffffffffffffffffffffffffffffffffffffff1681526020019081526020015f20549050919050565b600a5481565b60606001805461108e9061288f565b80601f01602080910402602001604051908101604052809291908181526020018280546110ba9061288f565b80156111055780601f106110dc57610100808354040283529160200191611105565b820191905f5260205f20905b8154815290600101906020018083116110e857829003601f168201915b5050505050905090565b61112161111a611398565b8383611731565b5050565b6111308484846109f7565b61113c8484848461189a565b50505050565b606061114d826112d9565b505f611157611a4c565b90505f8151116111755760405180602001604052805f8152506111a0565b8061117f84611a62565b604051602001611190929190612e4d565b6040516020818303038152906040525b915050919050565b6008602052805f5260405f205f915090505481565b5f60055f8473ffffffffffffffffffffffffffffffffffffffff1673ffffffffffffffffffffffffffffffffffffffff1681526020019081526020015f205f8373ffffffffffffffffffffffffffffffffffffffff1673ffffffffffffffffffffffffffffffffffffffff1681526020019081526020015f205f9054906101000a900460ff16905092915050565b60095f9054906101000a900473ffffffffffffffffffffffffffffffffffffffff1681565b5f7f01ffc9a7000000000000000000000000000000000000000000000000000000007bffffffffffffffffffffffffffffffffffffffffffffffffffffffff1916827bffffffffffffffffffffffffffffffffffffffffffffffffffffffff1916149050919050565b5f806112e483611b2c565b90505f73ffffffffffffffffffffffffffffffffffffffff168173ffffffffffffffffffffffffffffffffffffffff160361135657826040517f7e27328900000000000000000000000000000000000000000000000000000000815260040161134d9190612647565b60405180910390fd5b80915050919050565b5f60045f8381526020019081526020015f205f9054906101000a900473ffffffffffffffffffffffffffffffffffffffff169050919050565b5f33905090565b6113ac8383836001611b65565b505050565b5f73ffffffffffffffffffffffffffffffffffffffff168273ffffffffffffffffffffffffffffffffffffffff1603611421575f6040517f64a0ae9200000000000000000000000000000000000000000000000000000000815260040161141891906123b4565b60405180910390fd5b5f61142d83835f6114a4565b90505f73ffffffffffffffffffffffffffffffffffffffff168173ffffffffffffffffffffffffffffffffffffffff161461149f575f6040517f73c6ac6e00000000000000000000000000000000000000000000000000000000815260040161149691906123b4565b60405180910390fd5b505050565b5f806114af84611b2c565b90505f73ffffffffffffffffffffffffffffffffffffffff168373ffffffffffffffffffffffffffffffffffffffff16146114f0576114ef818486611d24565b5b5f73ffffffffffffffffffffffffffffffffffffffff168173ffffffffffffffffffffffffffffffffffffffff161461157b5761152f5f855f80611b65565b600160035f8373ffffffffffffffffffffffffffffffffffffffff1673ffffffffffffffffffffffffffffffffffffffff1681526020019081526020015f205f82825403925050819055505b5f73ffffffffffffffffffffffffffffffffffffffff168573ffffffffffffffffffffffffffffffffffffffff16146115fa57600160035f8773ffffffffffffffffffffffffffffffffffffffff1673ffffffffffffffffffffffffffffffffffffffff1681526020019081526020015f205f82825401925050819055505b8460025f8681526020019081526020015f205f6101000a81548173ffffffffffffffffffffffffffffffffffffffff021916908373ffffffffffffffffffffffffffffffffffffffff160217905550838573ffffffffffffffffffffffffffffffffffffffff168273ffffffffffffffffffffffffffffffffffffffff167fddf252ad1be2c89b69c2b068fc378daa952ba7f163c4a11628f55a4df523b3ef60405160405180910390a4809150509392505050565b5f6116bb5f835f6114a4565b90505f73ffffffffffffffffffffffffffffffffffffffff168173ffffffffffffffffffffffffffffffffffffffff160361172d57816040517f7e2732890000000000000000000000000000000000000000000000000000000081526004016117249190612647565b60405180910390fd5b5050565b5f73ffffffffffffffffffffffffffffffffffffffff168273ffffffffffffffffffffffffffffffffffffffff16036117a157816040517f5b08ba1800000000000000000000000000000000000000000000000000000000815260040161179891906123b4565b60405180910390fd5b8060055f8573ffffffffffffffffffffffffffffffffffffffff1673ffffffffffffffffffffffffffffffffffffffff1681526020019081526020015f205f8473ffffffffffffffffffffffffffffffffffffffff1673ffffffffffffffffffffffffffffffffffffffff1681526020019081526020015f205f6101000a81548160ff0219169083151502179055508173ffffffffffffffffffffffffffffffffffffffff168373ffffffffffffffffffffffffffffffffffffffff167f17307eab39ab6107e8899845ad3d59bd9653f200f220920489ca2b5937696c318360405161188d919061227e565b60405180910390a3505050565b5f8373ffffffffffffffffffffffffffffffffffffffff163b1115611a46578273ffffffffffffffffffffffffffffffffffffffff1663150b7a026118dd611398565b8685856040518563ffffffff1660e01b81526004016118ff9493929190612ec2565b6020604051808303815f875af192505050801561193a57506040513d601f19601f820116820180604052508101906119379190612f20565b60015b6119bb573d805f8114611968576040519150601f19603f3d011682016040523d82523d5f602084013e61196d565b606091505b505f8151036119b357836040517f64a0ae920000000000000000000000000000000000000000000000000000000081526004016119aa91906123b4565b60405180910390fd5b805181602001fd5b63150b7a0260e01b7bffffffffffffffffffffffffffffffffffffffffffffffffffffffff1916817bffffffffffffffffffffffffffffffffffffffffffffffffffffffff191614611a4457836040517f64a0ae92000000000000000000000000000000000000000000000000000000008152600401611a3b91906123b4565b60405180910390fd5b505b50505050565b606060405180602001604052805f815250905090565b60605f6001611a7084611de7565b0190505f8167ffffffffffffffff811115611a8e57611a8d612079565b5b6040519080825280601f01601f191660200182016040528015611ac05781602001600182028036833780820191505090505b5090505f82602001820190505b600115611b21578080600190039150507f3031323334353637383961626364656600000000000000000000000000000000600a86061a8153600a8581611b1657611b15612f4b565b5b0494505f8503611acd575b819350505050919050565b5f60025f8381526020019081526020015f205f9054906101000a900473ffffffffffffffffffffffffffffffffffffffff169050919050565b8080611b9d57505f73ffffffffffffffffffffffffffffffffffffffff168273ffffffffffffffffffffffffffffffffffffffff1614155b15611ccf575f611bac846112d9565b90505f73ffffffffffffffffffffffffffffffffffffffff168373ffffffffffffffffffffffffffffffffffffffff1614158015611c1657508273ffffffffffffffffffffffffffffffffffffffff168173ffffffffffffffffffffffffffffffffffffffff1614155b8015611c295750611c2781846111bd565b155b15611c6b57826040517fa9fbf51f000000000000000000000000000000000000000000000000000000008152600401611c6291906123b4565b60405180910390fd5b8115611ccd57838573ffffffffffffffffffffffffffffffffffffffff168273ffffffffffffffffffffffffffffffffffffffff167f8c5be1e5ebec7d5bd14f71427d1e84f3dd0314c0f7b2291e5b200ac8c7c3b92560405160405180910390a45b505b8360045f8581526020019081526020015f205f6101000a81548173ffffffffffffffffffffffffffffffffffffffff021916908373ffffffffffffffffffffffffffffffffffffffff16021790555050505050565b611d2f838383611f38565b611de2575f73ffffffffffffffffffffffffffffffffffffffff168373ffffffffffffffffffffffffffffffffffffffff1603611da357806040517f7e273289000000000000000000000000000000000000000000000000000000008152600401611d9a9190612647565b60405180910390fd5b81816040517f177e802f000000000000000000000000000000000000000000000000000000008152600401611dd9929190612dec565b60405180910390fd5b505050565b5f805f90507a184f03e93ff9f4daa797ed6e38ed64bf6a1f0100000000000000008310611e43577a184f03e93ff9f4daa797ed6e38ed64bf6a1f0100000000000000008381611e3957611e38612f4b565b5b0492506040810190505b6d04ee2d6d415b85acef81000000008310611e80576d04ee2d6d415b85acef81000000008381611e7657611e75612f4b565b5b0492506020810190505b662386f26fc100008310611eaf57662386f26fc100008381611ea557611ea4612f4b565b5b0492506010810190505b6305f5e1008310611ed8576305f5e1008381611ece57611ecd612f4b565b5b0492506008810190505b6127108310611efd576127108381611ef357611ef2612f4b565b5b0492506004810190505b60648310611f205760648381611f1657611f15612f4b565b5b0492506002810190505b600a8310611f2f576001810190505b80915050919050565b5f8073ffffffffffffffffffffffffffffffffffffffff168373ffffffffffffffffffffffffffffffffffffffff1614158015611fef57508273ffffffffffffffffffffffffffffffffffffffff168473ffffffffffffffffffffffffffffffffffffffff161480611fb05750611faf84846111bd565b5b80611fee57508273ffffffffffffffffffffffffffffffffffffffff16611fd68361135f565b73ffffffffffffffffffffffffffffffffffffffff16145b5b90509392505050565b5080546120049061288f565b5f825580601f106120155750612032565b601f0160209004905f5260205f20908101906120319190612035565b5b50565b5b8082111561204c575f815f905550600101612036565b5090565b5f604051905090565b5f80fd5b5f80fd5b5f80fd5b5f80fd5b5f601f19601f8301169050919050565b7f4e487b71000000000000000000000000000000000000000000000000000000005f52604160045260245ffd5b6120af82612069565b810181811067ffffffffffffffff821117156120ce576120cd612079565b5b80604052505050565b5f6120e0612050565b90506120ec82826120a6565b919050565b5f67ffffffffffffffff82111561210b5761210a612079565b5b61211482612069565b9050602081019050919050565b828183375f83830152505050565b5f61214161213c846120f1565b6120d7565b90508281526020810184848401111561215d5761215c612065565b5b612168848285612121565b509392505050565b5f82601f83011261218457612183612061565b5b813561219484826020860161212f565b91505092915050565b5f602082840312156121b2576121b1612059565b5b5f82013567ffffffffffffffff8111156121cf576121ce61205d565b5b6121db84828501612170565b91505092915050565b5f7fffffffff0000000000000000000000000000000000000000000000000000000082169050919050565b612218816121e4565b8114612222575f80fd5b50565b5f813590506122338161220f565b92915050565b5f6020828403121561224e5761224d612059565b5b5f61225b84828501612225565b91505092915050565b5f8115159050919050565b61227881612264565b82525050565b5f6020820190506122915f83018461226f565b92915050565b5f81519050919050565b5f82825260208201905092915050565b8281835e5f83830152505050565b5f6122c982612297565b6122d381856122a1565b93506122e38185602086016122b1565b6122ec81612069565b840191505092915050565b5f6020820190508181035f83015261230f81846122bf565b905092915050565b5f819050919050565b61232981612317565b8114612333575f80fd5b50565b5f8135905061234481612320565b92915050565b5f6020828403121561235f5761235e612059565b5b5f61236c84828501612336565b91505092915050565b5f73ffffffffffffffffffffffffffffffffffffffff82169050919050565b5f61239e82612375565b9050919050565b6123ae81612394565b82525050565b5f6020820190506123c75f8301846123a5565b92915050565b6123d681612394565b81146123e0575f80fd5b50565b5f813590506123f1816123cd565b92915050565b5f806040838503121561240d5761240c612059565b5b5f61241a858286016123e3565b925050602061242b85828601612336565b9150509250929050565b5f805f6060848603121561244c5761244b612059565b5b5f84013567ffffffffffffffff8111156124695761246861205d565b5b61247586828701612170565b935050602061248686828701612336565b925050604061249786828701612336565b9150509250925092565b5f805f606084860312156124b8576124b7612059565b5b5f6124c5868287016123e3565b93505060206124d6868287016123e3565b92505060406124e786828701612336565b9150509250925092565b6124fa81612317565b82525050565b5f60c0820190508181035f83015261251881896122bf565b905061252760208301886124f1565b61253460408301876124f1565b612541606083018661226f565b61254e60808301856124f1565b61255b60a08301846124f1565b979650505050505050565b5f6020828403121561257b5761257a612059565b5b5f612588848285016123e3565b91505092915050565b5f61259b82612375565b9050919050565b6125ab81612591565b82525050565b5f6040820190506125c45f8301856125a2565b81810360208301526125d681846122bf565b90509392505050565b6125e881612264565b81146125f2575f80fd5b50565b5f81359050612603816125df565b92915050565b5f806040838503121561261f5761261e612059565b5b5f61262c85828601612336565b925050602061263d858286016125f5565b9150509250929050565b5f60208201905061265a5f8301846124f1565b92915050565b5f806040838503121561267657612675612059565b5b5f612683858286016123e3565b9250506020612694858286016125f5565b9150509250929050565b5f67ffffffffffffffff8211156126b8576126b7612079565b5b6126c182612069565b9050602081019050919050565b5f6126e06126db8461269e565b6120d7565b9050828152602081018484840111156126fc576126fb612065565b5b612707848285612121565b509392505050565b5f82601f83011261272357612722612061565b5b81356127338482602086016126ce565b91505092915050565b5f805f806080858703121561275457612753612059565b5b5f612761878288016123e3565b9450506020612772878288016123e3565b935050604061278387828801612336565b925050606085013567ffffffffffffffff8111156127a4576127a361205d565b5b6127b08782880161270f565b91505092959194509250565b5f80604083850312156127d2576127d1612059565b5b5f6127df858286016123e3565b92505060206127f0858286016123e3565b9150509250929050565b7f436f6d70616e7920616c726561647920726567697374657265640000000000005f82015250565b5f61282e601a836122a1565b9150612839826127fa565b602082019050919050565b5f6020820190508181035f83015261285b81612822565b9050919050565b7f4e487b71000000000000000000000000000000000000000000000000000000005f52602260045260245ffd5b5f60028204905060018216806128a657607f821691505b6020821081036128b9576128b8612862565b5b50919050565b5f819050815f5260205f209050919050565b5f6020601f8301049050919050565b5f82821b905092915050565b5f6008830261291b7fffffffffffffffffffffffffffffffffffffffffffffffffffffffffffffffff826128e0565b61292586836128e0565b95508019841693508086168417925050509392505050565b5f819050919050565b5f61296061295b61295684612317565b61293d565b612317565b9050919050565b5f819050919050565b61297983612946565b61298d61298582612967565b8484546128ec565b825550505050565b5f90565b6129a1612995565b6129ac818484612970565b505050565b5b818110156129cf576129c45f82612999565b6001810190506129b2565b5050565b601f821115612a14576129e5816128bf565b6129ee846128d1565b810160208510156129fd578190505b612a11612a09856128d1565b8301826129b1565b50505b505050565b5f82821c905092915050565b5f612a345f1984600802612a19565b1980831691505092915050565b5f612a4c8383612a25565b9150826002028217905092915050565b612a6582612297565b67ffffffffffffffff811115612a7e57612a7d612079565b5b612a88825461288f565b612a938282856129d3565b5f60209050601f831160018114612ac4575f8415612ab2578287015190505b612abc8582612a41565b865550612b23565b601f198416612ad2866128bf565b5f5b82811015612af957848901518255600182019150602085019450602081019050612ad4565b86831015612b165784890151612b12601f891682612a25565b8355505b6001600288020188555050505b505050505050565b5f604082019050612b3e5f8301856123a5565b8181036020830152612b5081846122bf565b90509392505050565b7f436f6d70616e79206e6f742072656769737465726564000000000000000000005f82015250565b5f612b8d6016836122a1565b9150612b9882612b59565b602082019050919050565b5f6020820190508181035f830152612bba81612b81565b9050919050565b7f4e487b71000000000000000000000000000000000000000000000000000000005f52601160045260245ffd5b5f612bf882612317565b91507fffffffffffffffffffffffffffffffffffffffffffffffffffffffffffffffff8203612c2a57612c29612bc1565b5b600182019050919050565b5f608082019050612c485f8301876123a5565b612c5560208301866124f1565b8181036040830152612c6781856122bf565b9050612c7660608301846124f1565b95945050505050565b5f606082019050612c925f8301866123a5565b612c9f60208301856124f1565b612cac60408301846123a5565b949350505050565b7f4e6f7420746865206f776e6572000000000000000000000000000000000000005f82015250565b5f612ce8600d836122a1565b9150612cf382612cb4565b602082019050919050565b5f6020820190508181035f830152612d1581612cdc565b9050919050565b7f556e617574686f72697a656400000000000000000000000000000000000000005f82015250565b5f612d50600c836122a1565b9150612d5b82612d1c565b602082019050919050565b5f6020820190508181035f830152612d7d81612d44565b9050919050565b7f4e465420646f6573206e6f7420657869737400000000000000000000000000005f82015250565b5f612db86012836122a1565b9150612dc382612d84565b602082019050919050565b5f6020820190508181035f830152612de581612dac565b9050919050565b5f604082019050612dff5f8301856123a5565b612e0c60208301846124f1565b9392505050565b5f81905092915050565b5f612e2782612297565b612e318185612e13565b9350612e418185602086016122b1565b80840191505092915050565b5f612e588285612e1d565b9150612e648284612e1d565b91508190509392505050565b5f81519050919050565b5f82825260208201905092915050565b5f612e9482612e70565b612e9e8185612e7a565b9350612eae8185602086016122b1565b612eb781612069565b840191505092915050565b5f608082019050612ed55f8301876123a5565b612ee260208301866123a5565b612eef60408301856124f1565b8181036060830152612f018184612e8a565b905095945050505050565b5f81519050612f1a8161220f565b92915050565b5f60208284031215612f3557612f34612059565b5b5f612f4284828501612f0c565b91505092915050565b7f4e487b71000000000000000000000000000000000000000000000000000000005f52601260045260245ffdfea2646970667358221220dc2ebfb9ca86af5496422a71403a66ea634b0daa4457a0c5f93a76afd7fe131064736f6c634300081a0033",
  "immutableReferences": {},
  "source": "// SPDX-License-Identifier: MIT\npragma solidity >=0.8.2 <0.9.0;\n\nimport \"@openzeppelin/contracts/token/ERC721/ERC721.sol\";\n\ncontract CompanyNFT is ERC721 {\n    struct Company {\n        address payable companyAddress;\n        string name;\n    }\n\n    mapping(address => Company) public companies;\n    mapping(uint256 => CompanyNFT.NFTInfo) public nfts;\n    mapping(address => uint256) public popularityIndex;\n    address public tradeContract;\n    uint256 public nextTokenId;\n\n    event CompanyRegistered(address companyAddress, string name);\n    event NFTReleased(address companyAddress, uint256 tokenId, string name, uint256 duration);\n    event NFTBurned(uint256 tokenId);\n    event ImpressionIncreased(address companyAddress, uint256 tokenId);\n\n    struct NFTInfo {\n        string name;\n        uint256 duration;\n        uint256 price;\n        bool isOwned;\n        uint256 popularityIndex;\n        uint256 creationTime;\n    }\n\n    constructor(address _tradeContract) ERC721(\"CompanyName\", \"CNM\") {\n        tradeContract = _tradeContract;\n        nextTokenId = 0;\n    }\n\n    function registerCompany(string memory _name) public {\n        require(companies[msg.sender].companyAddress == address(0), \"Company already registered\");\n        companies[msg.sender] = Company(payable(msg.sender), _name);\n        emit CompanyRegistered(msg.sender, _name);\n    }\n\n    function releaseNFT(string memory _name, uint256 _duration, uint256 _price) public {\n        require(companies[msg.sender].companyAddress != address(0), \"Company not registered\");\n        uint256 tokenId = nextTokenId; // Use the current value of nextTokenId\n        nextTokenId++;\n        _mint(tradeContract, tokenId);\n\n        nfts[tokenId] = NFTInfo(_name, _duration, _price, false, 0,block.timestamp);\n        emit NFTReleased(msg.sender, tokenId, _name, _duration);\n    }\n\n    function burnNFT(uint256 tokenId) external {\n        require(ownerOf(tokenId) == msg.sender, \"Not the owner\");\n\n        _burn(tokenId);\n        delete nfts[tokenId];\n        emit NFTBurned(tokenId);\n    }\n\n    function impression(uint256 tokenId) external {\n        require(ownerOf(tokenId) != address(0), \"NFT does not exist\");\n        address companyAddress = companies[ownerOf(tokenId)].companyAddress;\n        nfts[tokenId].popularityIndex++;\n        emit ImpressionIncreased(companyAddress, tokenId);\n    }\n    function updateNFTStatus(uint256 tokenId, bool isOwned) external {\n    require(msg.sender == tradeContract, \"Unauthorized\");\n    nfts[tokenId].isOwned = isOwned;\n}\n}\n",
  "sourcePath": "E:\\Blockchain\\defi-staking-app-starter\\src\\contracts\\CompanyNFThandle.sol",
  "compiler": {
    "name": "solc",
    "version": "0.8.26+commit.8a97fa7a.Emscripten.clang"
  },
  "schemaVersion": "3.4.16",
  "updatedAt": "2024-05-30T11:30:14.789Z",
  "devdoc": {
    "errors": {
      "ERC721IncorrectOwner(address,uint256,address)": [
        {
          "details": "Indicates an error related to the ownership over a particular token. Used in transfers.",
          "params": {
            "owner": "Address of the current owner of a token.",
            "sender": "Address whose tokens are being transferred.",
            "tokenId": "Identifier number of a token."
          }
        }
      ],
      "ERC721InsufficientApproval(address,uint256)": [
        {
          "details": "Indicates a failure with the `operator`s approval. Used in transfers.",
          "params": {
            "operator": "Address that may be allowed to operate on tokens without being their owner.",
            "tokenId": "Identifier number of a token."
          }
        }
      ],
      "ERC721InvalidApprover(address)": [
        {
          "details": "Indicates a failure with the `approver` of a token to be approved. Used in approvals.",
          "params": {
            "approver": "Address initiating an approval operation."
          }
        }
      ],
      "ERC721InvalidOperator(address)": [
        {
          "details": "Indicates a failure with the `operator` to be approved. Used in approvals.",
          "params": {
            "operator": "Address that may be allowed to operate on tokens without being their owner."
          }
        }
      ],
      "ERC721InvalidOwner(address)": [
        {
          "details": "Indicates that an address can't be an owner. For example, `address(0)` is a forbidden owner in EIP-20. Used in balance queries.",
          "params": {
            "owner": "Address of the current owner of a token."
          }
        }
      ],
      "ERC721InvalidReceiver(address)": [
        {
          "details": "Indicates a failure with the token `receiver`. Used in transfers.",
          "params": {
            "receiver": "Address to which tokens are being transferred."
          }
        }
      ],
      "ERC721InvalidSender(address)": [
        {
          "details": "Indicates a failure with the token `sender`. Used in transfers.",
          "params": {
            "sender": "Address whose tokens are being transferred."
          }
        }
      ],
      "ERC721NonexistentToken(uint256)": [
        {
          "details": "Indicates a `tokenId` whose `owner` is the zero address.",
          "params": {
            "tokenId": "Identifier number of a token."
          }
        }
      ]
    },
    "events": {
      "Approval(address,address,uint256)": {
        "details": "Emitted when `owner` enables `approved` to manage the `tokenId` token."
      },
      "ApprovalForAll(address,address,bool)": {
        "details": "Emitted when `owner` enables or disables (`approved`) `operator` to manage all of its assets."
      },
      "Transfer(address,address,uint256)": {
        "details": "Emitted when `tokenId` token is transferred from `from` to `to`."
      }
    },
    "kind": "dev",
    "methods": {
      "approve(address,uint256)": {
        "details": "See {IERC721-approve}."
      },
      "balanceOf(address)": {
        "details": "See {IERC721-balanceOf}."
      },
      "getApproved(uint256)": {
        "details": "See {IERC721-getApproved}."
      },
      "isApprovedForAll(address,address)": {
        "details": "See {IERC721-isApprovedForAll}."
      },
      "name()": {
        "details": "See {IERC721Metadata-name}."
      },
      "ownerOf(uint256)": {
        "details": "See {IERC721-ownerOf}."
      },
      "safeTransferFrom(address,address,uint256)": {
        "details": "See {IERC721-safeTransferFrom}."
      },
      "safeTransferFrom(address,address,uint256,bytes)": {
        "details": "See {IERC721-safeTransferFrom}."
      },
      "setApprovalForAll(address,bool)": {
        "details": "See {IERC721-setApprovalForAll}."
      },
      "supportsInterface(bytes4)": {
        "details": "See {IERC165-supportsInterface}."
      },
      "symbol()": {
        "details": "See {IERC721Metadata-symbol}."
      },
      "tokenURI(uint256)": {
        "details": "See {IERC721Metadata-tokenURI}."
      },
      "transferFrom(address,address,uint256)": {
        "details": "See {IERC721-transferFrom}."
      }
    },
    "version": 1
  },
  "userdoc": {
    "kind": "user",
    "methods": {},
    "version": 1
  }
}