{
  "contractName": "CompanyNFT",
  "abi": [
    {
      "inputs": [
        {
          "internalType": "address",
          "name": "_rewardToken",
          "type": "address"
        }
      ],
      "stateMutability": "nonpayable",
      "type": "constructor"
    },
    {
      "inputs": [
        {
          "internalType": "address",
          "name": "sender",
          "type": "address"
        },
        {
          "internalType": "uint256",
          "name": "tokenId",
          "type": "uint256"
        },
        {
          "internalType": "address",
          "name": "owner",
          "type": "address"
        }
      ],
      "name": "ERC721IncorrectOwner",
      "type": "error"
    },
    {
      "inputs": [
        {
          "internalType": "address",
          "name": "operator",
          "type": "address"
        },
        {
          "internalType": "uint256",
          "name": "tokenId",
          "type": "uint256"
        }
      ],
      "name": "ERC721InsufficientApproval",
      "type": "error"
    },
    {
      "inputs": [
        {
          "internalType": "address",
          "name": "approver",
          "type": "address"
        }
      ],
      "name": "ERC721InvalidApprover",
      "type": "error"
    },
    {
      "inputs": [
        {
          "internalType": "address",
          "name": "operator",
          "type": "address"
        }
      ],
      "name": "ERC721InvalidOperator",
      "type": "error"
    },
    {
      "inputs": [
        {
          "internalType": "address",
          "name": "owner",
          "type": "address"
        }
      ],
      "name": "ERC721InvalidOwner",
      "type": "error"
    },
    {
      "inputs": [
        {
          "internalType": "address",
          "name": "receiver",
          "type": "address"
        }
      ],
      "name": "ERC721InvalidReceiver",
      "type": "error"
    },
    {
      "inputs": [
        {
          "internalType": "address",
          "name": "sender",
          "type": "address"
        }
      ],
      "name": "ERC721InvalidSender",
      "type": "error"
    },
    {
      "inputs": [
        {
          "internalType": "uint256",
          "name": "tokenId",
          "type": "uint256"
        }
      ],
      "name": "ERC721NonexistentToken",
      "type": "error"
    },
    {
      "anonymous": false,
      "inputs": [
        {
          "indexed": true,
          "internalType": "address",
          "name": "owner",
          "type": "address"
        },
        {
          "indexed": true,
          "internalType": "address",
          "name": "approved",
          "type": "address"
        },
        {
          "indexed": true,
          "internalType": "uint256",
          "name": "tokenId",
          "type": "uint256"
        }
      ],
      "name": "Approval",
      "type": "event"
    },
    {
      "anonymous": false,
      "inputs": [
        {
          "indexed": true,
          "internalType": "address",
          "name": "owner",
          "type": "address"
        },
        {
          "indexed": true,
          "internalType": "address",
          "name": "operator",
          "type": "address"
        },
        {
          "indexed": false,
          "internalType": "bool",
          "name": "approved",
          "type": "bool"
        }
      ],
      "name": "ApprovalForAll",
      "type": "event"
    },
    {
      "anonymous": false,
      "inputs": [
        {
          "indexed": false,
          "internalType": "address",
          "name": "companyAddress",
          "type": "address"
        },
        {
          "indexed": false,
          "internalType": "string",
          "name": "name",
          "type": "string"
        }
      ],
      "name": "CompanyRegistered",
      "type": "event"
    },
    {
      "anonymous": false,
      "inputs": [
        {
          "indexed": false,
          "internalType": "uint256",
          "name": "tokenId",
          "type": "uint256"
        }
      ],
      "name": "NFTBurned",
      "type": "event"
    },
    {
      "anonymous": false,
      "inputs": [
        {
          "indexed": false,
          "internalType": "address",
          "name": "companyAddress",
          "type": "address"
        },
        {
          "indexed": false,
          "internalType": "uint256",
          "name": "tokenId",
          "type": "uint256"
        },
        {
          "indexed": false,
          "internalType": "string",
          "name": "name",
          "type": "string"
        },
        {
          "indexed": false,
          "internalType": "uint256",
          "name": "duration",
          "type": "uint256"
        }
      ],
      "name": "NFTReleased",
      "type": "event"
    },
    {
      "anonymous": false,
      "inputs": [
        {
          "indexed": true,
          "internalType": "address",
          "name": "from",
          "type": "address"
        },
        {
          "indexed": true,
          "internalType": "address",
          "name": "to",
          "type": "address"
        },
        {
          "indexed": true,
          "internalType": "uint256",
          "name": "tokenId",
          "type": "uint256"
        }
      ],
      "name": "Transfer",
      "type": "event"
    },
    {
      "inputs": [
        {
          "internalType": "address",
          "name": "to",
          "type": "address"
        },
        {
          "internalType": "uint256",
          "name": "tokenId",
          "type": "uint256"
        }
      ],
      "name": "approve",
      "outputs": [],
      "stateMutability": "nonpayable",
      "type": "function"
    },
    {
      "inputs": [
        {
          "internalType": "address",
          "name": "owner",
          "type": "address"
        }
      ],
      "name": "balanceOf",
      "outputs": [
        {
          "internalType": "uint256",
          "name": "",
          "type": "uint256"
        }
      ],
      "stateMutability": "view",
      "type": "function"
    },
    {
      "inputs": [
        {
          "internalType": "address",
          "name": "",
          "type": "address"
        }
      ],
      "name": "companies",
      "outputs": [
        {
          "internalType": "address payable",
          "name": "companyAddress",
          "type": "address"
        },
        {
          "internalType": "string",
          "name": "name",
          "type": "string"
        }
      ],
      "stateMutability": "view",
      "type": "function"
    },
    {
      "inputs": [
        {
          "internalType": "uint256",
          "name": "tokenId",
          "type": "uint256"
        }
      ],
      "name": "getApproved",
      "outputs": [
        {
          "internalType": "address",
          "name": "",
          "type": "address"
        }
      ],
      "stateMutability": "view",
      "type": "function"
    },
    {
      "inputs": [
        {
          "internalType": "address",
          "name": "owner",
          "type": "address"
        },
        {
          "internalType": "address",
          "name": "operator",
          "type": "address"
        }
      ],
      "name": "isApprovedForAll",
      "outputs": [
        {
          "internalType": "bool",
          "name": "",
          "type": "bool"
        }
      ],
      "stateMutability": "view",
      "type": "function"
    },
    {
      "inputs": [],
      "name": "name",
      "outputs": [
        {
          "internalType": "string",
          "name": "",
          "type": "string"
        }
      ],
      "stateMutability": "view",
      "type": "function"
    },
    {
      "inputs": [
        {
          "internalType": "uint256",
          "name": "",
          "type": "uint256"
        }
      ],
      "name": "nfts",
      "outputs": [
        {
          "internalType": "string",
          "name": "name",
          "type": "string"
        },
        {
          "internalType": "uint256",
          "name": "duration",
          "type": "uint256"
        },
        {
          "internalType": "uint256",
          "name": "burnTimestamp",
          "type": "uint256"
        },
        {
          "internalType": "uint256",
          "name": "price",
          "type": "uint256"
        }
      ],
      "stateMutability": "view",
      "type": "function"
    },
    {
      "inputs": [
        {
          "internalType": "uint256",
          "name": "tokenId",
          "type": "uint256"
        }
      ],
      "name": "ownerOf",
      "outputs": [
        {
          "internalType": "address",
          "name": "",
          "type": "address"
        }
      ],
      "stateMutability": "view",
      "type": "function"
    },
    {
      "inputs": [
        {
          "internalType": "address",
          "name": "",
          "type": "address"
        }
      ],
      "name": "popularityIndex",
      "outputs": [
        {
          "internalType": "uint256",
          "name": "",
          "type": "uint256"
        }
      ],
      "stateMutability": "view",
      "type": "function"
    },
    {
      "inputs": [],
      "name": "rewardToken",
      "outputs": [
        {
          "internalType": "address",
          "name": "",
          "type": "address"
        }
      ],
      "stateMutability": "view",
      "type": "function"
    },
    {
      "inputs": [
        {
          "internalType": "address",
          "name": "from",
          "type": "address"
        },
        {
          "internalType": "address",
          "name": "to",
          "type": "address"
        },
        {
          "internalType": "uint256",
          "name": "tokenId",
          "type": "uint256"
        }
      ],
      "name": "safeTransferFrom",
      "outputs": [],
      "stateMutability": "nonpayable",
      "type": "function"
    },
    {
      "inputs": [
        {
          "internalType": "address",
          "name": "from",
          "type": "address"
        },
        {
          "internalType": "address",
          "name": "to",
          "type": "address"
        },
        {
          "internalType": "uint256",
          "name": "tokenId",
          "type": "uint256"
        },
        {
          "internalType": "bytes",
          "name": "data",
          "type": "bytes"
        }
      ],
      "name": "safeTransferFrom",
      "outputs": [],
      "stateMutability": "nonpayable",
      "type": "function"
    },
    {
      "inputs": [
        {
          "internalType": "address",
          "name": "operator",
          "type": "address"
        },
        {
          "internalType": "bool",
          "name": "approved",
          "type": "bool"
        }
      ],
      "name": "setApprovalForAll",
      "outputs": [],
      "stateMutability": "nonpayable",
      "type": "function"
    },
    {
      "inputs": [
        {
          "internalType": "bytes4",
          "name": "interfaceId",
          "type": "bytes4"
        }
      ],
      "name": "supportsInterface",
      "outputs": [
        {
          "internalType": "bool",
          "name": "",
          "type": "bool"
        }
      ],
      "stateMutability": "view",
      "type": "function"
    },
    {
      "inputs": [],
      "name": "symbol",
      "outputs": [
        {
          "internalType": "string",
          "name": "",
          "type": "string"
        }
      ],
      "stateMutability": "view",
      "type": "function"
    },
    {
      "inputs": [
        {
          "internalType": "uint256",
          "name": "tokenId",
          "type": "uint256"
        }
      ],
      "name": "tokenURI",
      "outputs": [
        {
          "internalType": "string",
          "name": "",
          "type": "string"
        }
      ],
      "stateMutability": "view",
      "type": "function"
    },
    {
      "inputs": [
        {
          "internalType": "address",
          "name": "from",
          "type": "address"
        },
        {
          "internalType": "address",
          "name": "to",
          "type": "address"
        },
        {
          "internalType": "uint256",
          "name": "tokenId",
          "type": "uint256"
        }
      ],
      "name": "transferFrom",
      "outputs": [],
      "stateMutability": "nonpayable",
      "type": "function"
    },
    {
      "inputs": [
        {
          "internalType": "string",
          "name": "_name",
          "type": "string"
        }
      ],
      "name": "registerCompany",
      "outputs": [],
      "stateMutability": "nonpayable",
      "type": "function"
    },
    {
      "inputs": [
        {
          "internalType": "string",
          "name": "_name",
          "type": "string"
        },
        {
          "internalType": "uint256",
          "name": "_duration",
          "type": "uint256"
        },
        {
          "internalType": "uint256",
          "name": "_price",
          "type": "uint256"
        }
      ],
      "name": "releaseNFT",
      "outputs": [],
      "stateMutability": "nonpayable",
      "type": "function"
    },
    {
      "inputs": [
        {
          "internalType": "uint256",
          "name": "tokenId",
          "type": "uint256"
        }
      ],
      "name": "buyNFT",
      "outputs": [],
      "stateMutability": "nonpayable",
      "type": "function"
    },
    {
      "inputs": [],
      "name": "withdrawFunds",
      "outputs": [],
      "stateMutability": "nonpayable",
      "type": "function"
    },
    {
      "inputs": [
        {
          "internalType": "address",
          "name": "user",
          "type": "address"
        },
        {
          "internalType": "bool",
          "name": "consent",
          "type": "bool"
        }
      ],
      "name": "updateUserDataConsent",
      "outputs": [],
      "stateMutability": "nonpayable",
      "type": "function"
    }
  ],
  "bytecode": "0x608060405234801561000f575f80fd5b5060405161368238038061368283398181016040528101906100319190610162565b6040518060400160405280600b81526020017f436f6d70616e794e616d650000000000000000000000000000000000000000008152506040518060400160405280600381526020017f434e4d0000000000000000000000000000000000000000000000000000000000815250815f90816100ab91906103c7565b5080600190816100bb91906103c7565b5050508060095f6101000a81548173ffffffffffffffffffffffffffffffffffffffff021916908373ffffffffffffffffffffffffffffffffffffffff16021790555050610496565b5f80fd5b5f73ffffffffffffffffffffffffffffffffffffffff82169050919050565b5f61013182610108565b9050919050565b61014181610127565b811461014b575f80fd5b50565b5f8151905061015c81610138565b92915050565b5f6020828403121561017757610176610104565b5b5f6101848482850161014e565b91505092915050565b5f81519050919050565b7f4e487b71000000000000000000000000000000000000000000000000000000005f52604160045260245ffd5b7f4e487b71000000000000000000000000000000000000000000000000000000005f52602260045260245ffd5b5f600282049050600182168061020857607f821691505b60208210810361021b5761021a6101c4565b5b50919050565b5f819050815f5260205f209050919050565b5f6020601f8301049050919050565b5f82821b905092915050565b5f6008830261027d7fffffffffffffffffffffffffffffffffffffffffffffffffffffffffffffffff82610242565b6102878683610242565b95508019841693508086168417925050509392505050565b5f819050919050565b5f819050919050565b5f6102cb6102c66102c18461029f565b6102a8565b61029f565b9050919050565b5f819050919050565b6102e4836102b1565b6102f86102f0826102d2565b84845461024e565b825550505050565b5f90565b61030c610300565b6103178184846102db565b505050565b5b8181101561033a5761032f5f82610304565b60018101905061031d565b5050565b601f82111561037f5761035081610221565b61035984610233565b81016020851015610368578190505b61037c61037485610233565b83018261031c565b50505b505050565b5f82821c905092915050565b5f61039f5f1984600802610384565b1980831691505092915050565b5f6103b78383610390565b9150826002028217905092915050565b6103d08261018d565b67ffffffffffffffff8111156103e9576103e8610197565b5b6103f382546101f1565b6103fe82828561033e565b5f60209050601f83116001811461042f575f841561041d578287015190505b61042785826103ac565b86555061048e565b601f19841661043d86610221565b5f5b828110156104645784890151825560018201915060208501945060208101905061043f565b86831015610481578489015161047d601f891682610390565b8355505b6001600288020188555050505b505050505050565b6131df806104a35f395ff3fe608060405234801561000f575f80fd5b506004361061013f575f3560e01c806351ed8288116100b6578063b88d4fde1161007a578063b88d4fde14610371578063be0e38691461038d578063c87b56dd146103a9578063e76caad2146103d9578063e985e9c514610409578063f7c618c1146104395761013f565b806351ed8288146102bb5780636352211e146102d757806370a082311461030757806395d89b4114610337578063a22cb465146103555761013f565b8063204a0b8d11610108578063204a0b8d146101f957806323b872dd1461021557806324600fc314610231578063265aa6211461023b578063355e6ce81461026e57806342842e0e1461029f5761013f565b80625441941461014357806301ffc9a71461015f57806306fdde031461018f578063081812fc146101ad578063095ea7b3146101dd575b5f80fd5b61015d60048036038101906101589190612317565b610457565b005b610179600480360381019061017491906123b3565b610624565b60405161018691906123f8565b60405180910390f35b610197610705565b6040516101a49190612471565b60405180910390f35b6101c760048036038101906101c291906124c4565b610794565b6040516101d4919061252e565b60405180910390f35b6101f760048036038101906101f29190612571565b6107af565b005b610213600480360381019061020e91906125af565b6107c5565b005b61022f600480360381019061022a919061261b565b61096a565b005b610239610a69565b005b610255600480360381019061025091906124c4565b610a6b565b604051610265949392919061267a565b60405180910390f35b610288600480360381019061028391906126c4565b610b1d565b60405161029692919061270f565b60405180910390f35b6102b960048036038101906102b4919061261b565b610be2565b005b6102d560048036038101906102d091906124c4565b610c01565b005b6102f160048036038101906102ec91906124c4565b611048565b6040516102fe919061252e565b60405180910390f35b610321600480360381019061031c91906126c4565b611059565b60405161032e919061273d565b60405180910390f35b61033f61110f565b60405161034c9190612471565b60405180910390f35b61036f600480360381019061036a9190612780565b61119f565b005b61038b6004803603810190610386919061285c565b6111b5565b005b6103a760048036038101906103a29190612780565b6111d2565b005b6103c360048036038101906103be91906124c4565b6111d6565b6040516103d09190612471565b60405180910390f35b6103f360048036038101906103ee91906126c4565b61123c565b604051610400919061273d565b60405180910390f35b610423600480360381019061041e91906128dc565b611251565b60405161043091906123f8565b60405180910390f35b6104416112df565b60405161044e919061252e565b60405180910390f35b5f73ffffffffffffffffffffffffffffffffffffffff1660065f3373ffffffffffffffffffffffffffffffffffffffff1673ffffffffffffffffffffffffffffffffffffffff1681526020019081526020015f205f015f9054906101000a900473ffffffffffffffffffffffffffffffffffffffff1673ffffffffffffffffffffffffffffffffffffffff1614610523576040517f08c379a000000000000000000000000000000000000000000000000000000000815260040161051a90612964565b60405180910390fd5b60405180604001604052803373ffffffffffffffffffffffffffffffffffffffff1681526020018281525060065f3373ffffffffffffffffffffffffffffffffffffffff1673ffffffffffffffffffffffffffffffffffffffff1681526020019081526020015f205f820151815f015f6101000a81548173ffffffffffffffffffffffffffffffffffffffff021916908373ffffffffffffffffffffffffffffffffffffffff16021790555060208201518160010190816105e49190612b7c565b509050507f76686aa361308f4a08557cca1a847299ce61e5602a3495cd359a599a1dca438c3382604051610619929190612c4b565b60405180910390a150565b5f7f80ac58cd000000000000000000000000000000000000000000000000000000007bffffffffffffffffffffffffffffffffffffffffffffffffffffffff1916827bffffffffffffffffffffffffffffffffffffffffffffffffffffffff191614806106ee57507f5b5e139f000000000000000000000000000000000000000000000000000000007bffffffffffffffffffffffffffffffffffffffffffffffffffffffff1916827bffffffffffffffffffffffffffffffffffffffffffffffffffffffff1916145b806106fe57506106fd82611304565b5b9050919050565b60605f8054610713906129af565b80601f016020809104026020016040519081016040528092919081815260200182805461073f906129af565b801561078a5780601f106107615761010080835404028352916020019161078a565b820191905f5260205f20905b81548152906001019060200180831161076d57829003601f168201915b5050505050905090565b5f61079e8261136d565b506107a8826113f3565b9050919050565b6107c182826107bc61142c565b611433565b5050565b5f73ffffffffffffffffffffffffffffffffffffffff1660065f3373ffffffffffffffffffffffffffffffffffffffff1673ffffffffffffffffffffffffffffffffffffffff1681526020019081526020015f205f015f9054906101000a900473ffffffffffffffffffffffffffffffffffffffff1673ffffffffffffffffffffffffffffffffffffffff1603610891576040517f08c379a000000000000000000000000000000000000000000000000000000000815260040161088890612cc3565b60405180910390fd5b5f61089b30611059565b90506108a73382611445565b604051806080016040528085815260200184815260200162015180856108cd9190612d0e565b426108d89190612d4f565b81526020018381525060075f8381526020019081526020015f205f820151815f0190816109059190612b7c565b506020820151816001015560408201518160020155606082015181600301559050507f2fc8798258bbd6b1aa66d8289a3e9f14b6ba6ecc128fea8136df9ed7c8c0ef693382868660405161095c9493929190612d82565b60405180910390a150505050565b5f73ffffffffffffffffffffffffffffffffffffffff168273ffffffffffffffffffffffffffffffffffffffff16036109da575f6040517f64a0ae920000000000000000000000000000000000000000000000000000000081526004016109d1919061252e565b60405180910390fd5b5f6109ed83836109e861142c565b611538565b90508373ffffffffffffffffffffffffffffffffffffffff168173ffffffffffffffffffffffffffffffffffffffff1614610a63578382826040517f64283d7b000000000000000000000000000000000000000000000000000000008152600401610a5a93929190612dcc565b60405180910390fd5b50505050565b565b6007602052805f5260405f205f91509050805f018054610a8a906129af565b80601f0160208091040260200160405190810160405280929190818152602001828054610ab6906129af565b8015610b015780601f10610ad857610100808354040283529160200191610b01565b820191905f5260205f20905b815481529060010190602001808311610ae457829003601f168201915b5050505050908060010154908060020154908060030154905084565b6006602052805f5260405f205f91509050805f015f9054906101000a900473ffffffffffffffffffffffffffffffffffffffff1690806001018054610b61906129af565b80601f0160208091040260200160405190810160405280929190818152602001828054610b8d906129af565b8015610bd85780601f10610baf57610100808354040283529160200191610bd8565b820191905f5260205f20905b815481529060010190602001808311610bbb57829003601f168201915b5050505050905082565b610bfc83838360405180602001604052805f8152506111b5565b505050565b4260075f8381526020019081526020015f206002015411610c57576040517f08c379a0000000000000000000000000000000000000000000000000000000008152600401610c4e90612e4b565b60405180910390fd5b5f60075f8381526020019081526020015f206040518060800160405290815f82018054610c83906129af565b80601f0160208091040260200160405190810160405280929190818152602001828054610caf906129af565b8015610cfa5780601f10610cd157610100808354040283529160200191610cfa565b820191905f5260205f20905b815481529060010190602001808311610cdd57829003601f168201915b5050505050815260200160018201548152602001600282015481526020016003820154815250509050806060015160095f9054906101000a900473ffffffffffffffffffffffffffffffffffffffff1673ffffffffffffffffffffffffffffffffffffffff166370a08231336040518263ffffffff1660e01b8152600401610d82919061252e565b602060405180830381865afa158015610d9d573d5f803e3d5ffd5b505050506040513d601f19601f82011682018060405250810190610dc19190612e7d565b1015610e02576040517f08c379a0000000000000000000000000000000000000000000000000000000008152600401610df990612ef2565b60405180910390fd5b60095f9054906101000a900473ffffffffffffffffffffffffffffffffffffffff1673ffffffffffffffffffffffffffffffffffffffff166323b872dd3360065f610e4c87611048565b73ffffffffffffffffffffffffffffffffffffffff1673ffffffffffffffffffffffffffffffffffffffff1681526020019081526020015f205f015f9054906101000a900473ffffffffffffffffffffffffffffffffffffffff1684606001516040518463ffffffff1660e01b8152600401610eca93929190612f62565b6020604051808303815f875af1158015610ee6573d5f803e3d5ffd5b505050506040513d601f19601f82011682018060405250810190610f0a9190612fab565b50610f1e610f1783611048565b3384611743565b60085f60065f610f2d86611048565b73ffffffffffffffffffffffffffffffffffffffff1673ffffffffffffffffffffffffffffffffffffffff1681526020019081526020015f205f015f9054906101000a900473ffffffffffffffffffffffffffffffffffffffff1673ffffffffffffffffffffffffffffffffffffffff1673ffffffffffffffffffffffffffffffffffffffff1681526020019081526020015f205f815480929190610fd190612fd6565b91905055507f3c176691ca154a2f6fe978a2a633a33ee77dbe2902e67a75400720845a4b2ce182604051611005919061273d565b60405180910390a160075f8381526020019081526020015f205f8082015f61102d9190612172565b600182015f9055600282015f9055600382015f905550505050565b5f6110528261136d565b9050919050565b5f8073ffffffffffffffffffffffffffffffffffffffff168273ffffffffffffffffffffffffffffffffffffffff16036110ca575f6040517f89c62b640000000000000000000000000000000000000000000000000000000081526004016110c1919061252e565b60405180910390fd5b60035f8373ffffffffffffffffffffffffffffffffffffffff1673ffffffffffffffffffffffffffffffffffffffff1681526020019081526020015f20549050919050565b60606001805461111e906129af565b80601f016020809104026020016040519081016040528092919081815260200182805461114a906129af565b80156111955780601f1061116c57610100808354040283529160200191611195565b820191905f5260205f20905b81548152906001019060200180831161117857829003601f168201915b5050505050905090565b6111b16111aa61142c565b83836118ab565b5050565b6111c084848461096a565b6111cc84848484611a14565b50505050565b5050565b60606111e18261136d565b505f6111eb611bc6565b90505f8151116112095760405180602001604052805f815250611234565b8061121384611bdc565b604051602001611224929190613057565b6040516020818303038152906040525b915050919050565b6008602052805f5260405f205f915090505481565b5f60055f8473ffffffffffffffffffffffffffffffffffffffff1673ffffffffffffffffffffffffffffffffffffffff1681526020019081526020015f205f8373ffffffffffffffffffffffffffffffffffffffff1673ffffffffffffffffffffffffffffffffffffffff1681526020019081526020015f205f9054906101000a900460ff16905092915050565b60095f9054906101000a900473ffffffffffffffffffffffffffffffffffffffff1681565b5f7f01ffc9a7000000000000000000000000000000000000000000000000000000007bffffffffffffffffffffffffffffffffffffffffffffffffffffffff1916827bffffffffffffffffffffffffffffffffffffffffffffffffffffffff1916149050919050565b5f8061137883611ca6565b90505f73ffffffffffffffffffffffffffffffffffffffff168173ffffffffffffffffffffffffffffffffffffffff16036113ea57826040517f7e2732890000000000000000000000000000000000000000000000000000000081526004016113e1919061273d565b60405180910390fd5b80915050919050565b5f60045f8381526020019081526020015f205f9054906101000a900473ffffffffffffffffffffffffffffffffffffffff169050919050565b5f33905090565b6114408383836001611cdf565b505050565b5f73ffffffffffffffffffffffffffffffffffffffff168273ffffffffffffffffffffffffffffffffffffffff16036114b5575f6040517f64a0ae920000000000000000000000000000000000000000000000000000000081526004016114ac919061252e565b60405180910390fd5b5f6114c183835f611538565b90505f73ffffffffffffffffffffffffffffffffffffffff168173ffffffffffffffffffffffffffffffffffffffff1614611533575f6040517f73c6ac6e00000000000000000000000000000000000000000000000000000000815260040161152a919061252e565b60405180910390fd5b505050565b5f8061154384611ca6565b90505f73ffffffffffffffffffffffffffffffffffffffff168373ffffffffffffffffffffffffffffffffffffffff161461158457611583818486611e9e565b5b5f73ffffffffffffffffffffffffffffffffffffffff168173ffffffffffffffffffffffffffffffffffffffff161461160f576115c35f855f80611cdf565b600160035f8373ffffffffffffffffffffffffffffffffffffffff1673ffffffffffffffffffffffffffffffffffffffff1681526020019081526020015f205f82825403925050819055505b5f73ffffffffffffffffffffffffffffffffffffffff168573ffffffffffffffffffffffffffffffffffffffff161461168e57600160035f8773ffffffffffffffffffffffffffffffffffffffff1673ffffffffffffffffffffffffffffffffffffffff1681526020019081526020015f205f82825401925050819055505b8460025f8681526020019081526020015f205f6101000a81548173ffffffffffffffffffffffffffffffffffffffff021916908373ffffffffffffffffffffffffffffffffffffffff160217905550838573ffffffffffffffffffffffffffffffffffffffff168273ffffffffffffffffffffffffffffffffffffffff167fddf252ad1be2c89b69c2b068fc378daa952ba7f163c4a11628f55a4df523b3ef60405160405180910390a4809150509392505050565b5f73ffffffffffffffffffffffffffffffffffffffff168273ffffffffffffffffffffffffffffffffffffffff16036117b3575f6040517f64a0ae920000000000000000000000000000000000000000000000000000000081526004016117aa919061252e565b60405180910390fd5b5f6117bf83835f611538565b90505f73ffffffffffffffffffffffffffffffffffffffff168173ffffffffffffffffffffffffffffffffffffffff160361183157816040517f7e273289000000000000000000000000000000000000000000000000000000008152600401611828919061273d565b60405180910390fd5b8373ffffffffffffffffffffffffffffffffffffffff168173ffffffffffffffffffffffffffffffffffffffff16146118a5578382826040517f64283d7b00000000000000000000000000000000000000000000000000000000815260040161189c93929190612dcc565b60405180910390fd5b50505050565b5f73ffffffffffffffffffffffffffffffffffffffff168273ffffffffffffffffffffffffffffffffffffffff160361191b57816040517f5b08ba18000000000000000000000000000000000000000000000000000000008152600401611912919061252e565b60405180910390fd5b8060055f8573ffffffffffffffffffffffffffffffffffffffff1673ffffffffffffffffffffffffffffffffffffffff1681526020019081526020015f205f8473ffffffffffffffffffffffffffffffffffffffff1673ffffffffffffffffffffffffffffffffffffffff1681526020019081526020015f205f6101000a81548160ff0219169083151502179055508173ffffffffffffffffffffffffffffffffffffffff168373ffffffffffffffffffffffffffffffffffffffff167f17307eab39ab6107e8899845ad3d59bd9653f200f220920489ca2b5937696c3183604051611a0791906123f8565b60405180910390a3505050565b5f8373ffffffffffffffffffffffffffffffffffffffff163b1115611bc0578273ffffffffffffffffffffffffffffffffffffffff1663150b7a02611a5761142c565b8685856040518563ffffffff1660e01b8152600401611a7994939291906130cc565b6020604051808303815f875af1925050508015611ab457506040513d601f19601f82011682018060405250810190611ab1919061312a565b60015b611b35573d805f8114611ae2576040519150601f19603f3d011682016040523d82523d5f602084013e611ae7565b606091505b505f815103611b2d57836040517f64a0ae92000000000000000000000000000000000000000000000000000000008152600401611b24919061252e565b60405180910390fd5b805181602001fd5b63150b7a0260e01b7bffffffffffffffffffffffffffffffffffffffffffffffffffffffff1916817bffffffffffffffffffffffffffffffffffffffffffffffffffffffff191614611bbe57836040517f64a0ae92000000000000000000000000000000000000000000000000000000008152600401611bb5919061252e565b60405180910390fd5b505b50505050565b606060405180602001604052805f815250905090565b60605f6001611bea84611f61565b0190505f8167ffffffffffffffff811115611c0857611c076121f3565b5b6040519080825280601f01601f191660200182016040528015611c3a5781602001600182028036833780820191505090505b5090505f82602001820190505b600115611c9b578080600190039150507f3031323334353637383961626364656600000000000000000000000000000000600a86061a8153600a8581611c9057611c8f613155565b5b0494505f8503611c47575b819350505050919050565b5f60025f8381526020019081526020015f205f9054906101000a900473ffffffffffffffffffffffffffffffffffffffff169050919050565b8080611d1757505f73ffffffffffffffffffffffffffffffffffffffff168273ffffffffffffffffffffffffffffffffffffffff1614155b15611e49575f611d268461136d565b90505f73ffffffffffffffffffffffffffffffffffffffff168373ffffffffffffffffffffffffffffffffffffffff1614158015611d9057508273ffffffffffffffffffffffffffffffffffffffff168173ffffffffffffffffffffffffffffffffffffffff1614155b8015611da35750611da18184611251565b155b15611de557826040517fa9fbf51f000000000000000000000000000000000000000000000000000000008152600401611ddc919061252e565b60405180910390fd5b8115611e4757838573ffffffffffffffffffffffffffffffffffffffff168273ffffffffffffffffffffffffffffffffffffffff167f8c5be1e5ebec7d5bd14f71427d1e84f3dd0314c0f7b2291e5b200ac8c7c3b92560405160405180910390a45b505b8360045f8581526020019081526020015f205f6101000a81548173ffffffffffffffffffffffffffffffffffffffff021916908373ffffffffffffffffffffffffffffffffffffffff16021790555050505050565b611ea98383836120b2565b611f5c575f73ffffffffffffffffffffffffffffffffffffffff168373ffffffffffffffffffffffffffffffffffffffff1603611f1d57806040517f7e273289000000000000000000000000000000000000000000000000000000008152600401611f14919061273d565b60405180910390fd5b81816040517f177e802f000000000000000000000000000000000000000000000000000000008152600401611f53929190613182565b60405180910390fd5b505050565b5f805f90507a184f03e93ff9f4daa797ed6e38ed64bf6a1f0100000000000000008310611fbd577a184f03e93ff9f4daa797ed6e38ed64bf6a1f0100000000000000008381611fb357611fb2613155565b5b0492506040810190505b6d04ee2d6d415b85acef81000000008310611ffa576d04ee2d6d415b85acef81000000008381611ff057611fef613155565b5b0492506020810190505b662386f26fc10000831061202957662386f26fc10000838161201f5761201e613155565b5b0492506010810190505b6305f5e1008310612052576305f5e100838161204857612047613155565b5b0492506008810190505b612710831061207757612710838161206d5761206c613155565b5b0492506004810190505b6064831061209a57606483816120905761208f613155565b5b0492506002810190505b600a83106120a9576001810190505b80915050919050565b5f8073ffffffffffffffffffffffffffffffffffffffff168373ffffffffffffffffffffffffffffffffffffffff161415801561216957508273ffffffffffffffffffffffffffffffffffffffff168473ffffffffffffffffffffffffffffffffffffffff16148061212a57506121298484611251565b5b8061216857508273ffffffffffffffffffffffffffffffffffffffff16612150836113f3565b73ffffffffffffffffffffffffffffffffffffffff16145b5b90509392505050565b50805461217e906129af565b5f825580601f1061218f57506121ac565b601f0160209004905f5260205f20908101906121ab91906121af565b5b50565b5b808211156121c6575f815f9055506001016121b0565b5090565b5f604051905090565b5f80fd5b5f80fd5b5f80fd5b5f80fd5b5f601f19601f8301169050919050565b7f4e487b71000000000000000000000000000000000000000000000000000000005f52604160045260245ffd5b612229826121e3565b810181811067ffffffffffffffff82111715612248576122476121f3565b5b80604052505050565b5f61225a6121ca565b90506122668282612220565b919050565b5f67ffffffffffffffff821115612285576122846121f3565b5b61228e826121e3565b9050602081019050919050565b828183375f83830152505050565b5f6122bb6122b68461226b565b612251565b9050828152602081018484840111156122d7576122d66121df565b5b6122e284828561229b565b509392505050565b5f82601f8301126122fe576122fd6121db565b5b813561230e8482602086016122a9565b91505092915050565b5f6020828403121561232c5761232b6121d3565b5b5f82013567ffffffffffffffff811115612349576123486121d7565b5b612355848285016122ea565b91505092915050565b5f7fffffffff0000000000000000000000000000000000000000000000000000000082169050919050565b6123928161235e565b811461239c575f80fd5b50565b5f813590506123ad81612389565b92915050565b5f602082840312156123c8576123c76121d3565b5b5f6123d58482850161239f565b91505092915050565b5f8115159050919050565b6123f2816123de565b82525050565b5f60208201905061240b5f8301846123e9565b92915050565b5f81519050919050565b5f82825260208201905092915050565b8281835e5f83830152505050565b5f61244382612411565b61244d818561241b565b935061245d81856020860161242b565b612466816121e3565b840191505092915050565b5f6020820190508181035f8301526124898184612439565b905092915050565b5f819050919050565b6124a381612491565b81146124ad575f80fd5b50565b5f813590506124be8161249a565b92915050565b5f602082840312156124d9576124d86121d3565b5b5f6124e6848285016124b0565b91505092915050565b5f73ffffffffffffffffffffffffffffffffffffffff82169050919050565b5f612518826124ef565b9050919050565b6125288161250e565b82525050565b5f6020820190506125415f83018461251f565b92915050565b6125508161250e565b811461255a575f80fd5b50565b5f8135905061256b81612547565b92915050565b5f8060408385031215612587576125866121d3565b5b5f6125948582860161255d565b92505060206125a5858286016124b0565b9150509250929050565b5f805f606084860312156125c6576125c56121d3565b5b5f84013567ffffffffffffffff8111156125e3576125e26121d7565b5b6125ef868287016122ea565b9350506020612600868287016124b0565b9250506040612611868287016124b0565b9150509250925092565b5f805f60608486031215612632576126316121d3565b5b5f61263f8682870161255d565b93505060206126508682870161255d565b9250506040612661868287016124b0565b9150509250925092565b61267481612491565b82525050565b5f6080820190508181035f8301526126928187612439565b90506126a1602083018661266b565b6126ae604083018561266b565b6126bb606083018461266b565b95945050505050565b5f602082840312156126d9576126d86121d3565b5b5f6126e68482850161255d565b91505092915050565b5f6126f9826124ef565b9050919050565b612709816126ef565b82525050565b5f6040820190506127225f830185612700565b81810360208301526127348184612439565b90509392505050565b5f6020820190506127505f83018461266b565b92915050565b61275f816123de565b8114612769575f80fd5b50565b5f8135905061277a81612756565b92915050565b5f8060408385031215612796576127956121d3565b5b5f6127a38582860161255d565b92505060206127b48582860161276c565b9150509250929050565b5f67ffffffffffffffff8211156127d8576127d76121f3565b5b6127e1826121e3565b9050602081019050919050565b5f6128006127fb846127be565b612251565b90508281526020810184848401111561281c5761281b6121df565b5b61282784828561229b565b509392505050565b5f82601f830112612843576128426121db565b5b81356128538482602086016127ee565b91505092915050565b5f805f8060808587031215612874576128736121d3565b5b5f6128818782880161255d565b94505060206128928782880161255d565b93505060406128a3878288016124b0565b925050606085013567ffffffffffffffff8111156128c4576128c36121d7565b5b6128d08782880161282f565b91505092959194509250565b5f80604083850312156128f2576128f16121d3565b5b5f6128ff8582860161255d565b92505060206129108582860161255d565b9150509250929050565b7f436f6d70616e7920616c726561647920726567697374657265640000000000005f82015250565b5f61294e601a8361241b565b91506129598261291a565b602082019050919050565b5f6020820190508181035f83015261297b81612942565b9050919050565b7f4e487b71000000000000000000000000000000000000000000000000000000005f52602260045260245ffd5b5f60028204905060018216806129c657607f821691505b6020821081036129d9576129d8612982565b5b50919050565b5f819050815f5260205f209050919050565b5f6020601f8301049050919050565b5f82821b905092915050565b5f60088302612a3b7fffffffffffffffffffffffffffffffffffffffffffffffffffffffffffffffff82612a00565b612a458683612a00565b95508019841693508086168417925050509392505050565b5f819050919050565b5f612a80612a7b612a7684612491565b612a5d565b612491565b9050919050565b5f819050919050565b612a9983612a66565b612aad612aa582612a87565b848454612a0c565b825550505050565b5f90565b612ac1612ab5565b612acc818484612a90565b505050565b5b81811015612aef57612ae45f82612ab9565b600181019050612ad2565b5050565b601f821115612b3457612b05816129df565b612b0e846129f1565b81016020851015612b1d578190505b612b31612b29856129f1565b830182612ad1565b50505b505050565b5f82821c905092915050565b5f612b545f1984600802612b39565b1980831691505092915050565b5f612b6c8383612b45565b9150826002028217905092915050565b612b8582612411565b67ffffffffffffffff811115612b9e57612b9d6121f3565b5b612ba882546129af565b612bb3828285612af3565b5f60209050601f831160018114612be4575f8415612bd2578287015190505b612bdc8582612b61565b865550612c43565b601f198416612bf2866129df565b5f5b82811015612c1957848901518255600182019150602085019450602081019050612bf4565b86831015612c365784890151612c32601f891682612b45565b8355505b6001600288020188555050505b505050505050565b5f604082019050612c5e5f83018561251f565b8181036020830152612c708184612439565b90509392505050565b7f436f6d70616e79206e6f742072656769737465726564000000000000000000005f82015250565b5f612cad60168361241b565b9150612cb882612c79565b602082019050919050565b5f6020820190508181035f830152612cda81612ca1565b9050919050565b7f4e487b71000000000000000000000000000000000000000000000000000000005f52601160045260245ffd5b5f612d1882612491565b9150612d2383612491565b9250828202612d3181612491565b91508282048414831517612d4857612d47612ce1565b5b5092915050565b5f612d5982612491565b9150612d6483612491565b9250828201905080821115612d7c57612d7b612ce1565b5b92915050565b5f608082019050612d955f83018761251f565b612da2602083018661266b565b8181036040830152612db48185612439565b9050612dc3606083018461266b565b95945050505050565b5f606082019050612ddf5f83018661251f565b612dec602083018561266b565b612df9604083018461251f565b949350505050565b7f4e465420657870697265640000000000000000000000000000000000000000005f82015250565b5f612e35600b8361241b565b9150612e4082612e01565b602082019050919050565b5f6020820190508181035f830152612e6281612e29565b9050919050565b5f81519050612e778161249a565b92915050565b5f60208284031215612e9257612e916121d3565b5b5f612e9f84828501612e69565b91505092915050565b7f496e73756666696369656e742052657761726420746f6b656e730000000000005f82015250565b5f612edc601a8361241b565b9150612ee782612ea8565b602082019050919050565b5f6020820190508181035f830152612f0981612ed0565b9050919050565b5f612f2a612f25612f20846124ef565b612a5d565b6124ef565b9050919050565b5f612f3b82612f10565b9050919050565b5f612f4c82612f31565b9050919050565b612f5c81612f42565b82525050565b5f606082019050612f755f83018661251f565b612f826020830185612f53565b612f8f604083018461266b565b949350505050565b5f81519050612fa581612756565b92915050565b5f60208284031215612fc057612fbf6121d3565b5b5f612fcd84828501612f97565b91505092915050565b5f612fe082612491565b91507fffffffffffffffffffffffffffffffffffffffffffffffffffffffffffffffff820361301257613011612ce1565b5b600182019050919050565b5f81905092915050565b5f61303182612411565b61303b818561301d565b935061304b81856020860161242b565b80840191505092915050565b5f6130628285613027565b915061306e8284613027565b91508190509392505050565b5f81519050919050565b5f82825260208201905092915050565b5f61309e8261307a565b6130a88185613084565b93506130b881856020860161242b565b6130c1816121e3565b840191505092915050565b5f6080820190506130df5f83018761251f565b6130ec602083018661251f565b6130f9604083018561266b565b818103606083015261310b8184613094565b905095945050505050565b5f8151905061312481612389565b92915050565b5f6020828403121561313f5761313e6121d3565b5b5f61314c84828501613116565b91505092915050565b7f4e487b71000000000000000000000000000000000000000000000000000000005f52601260045260245ffd5b5f6040820190506131955f83018561251f565b6131a2602083018461266b565b939250505056fea2646970667358221220862eadd79b07ee3a4d09b282609a70308d9d851578ca0962524bef712e326c9b64736f6c634300081a0033",
  "immutableReferences": {},
  "source": "// SPDX-License-Identifier: MIT\npragma solidity >=0.8.2 <0.9.0;\n\n// Import ERC721 standard for NFTs\nimport \"@openzeppelin/contracts/token/ERC721/ERC721.sol\";\n\n// Import ERC20 interface for Reward token\nimport \"@openzeppelin/contracts/token/ERC20/IERC20.sol\";\n\ncontract CompanyNFT is ERC721 {\n    // Structure to store information about a company\n    struct Company {\n        address payable companyAddress;\n        string name;\n    }\n\n    // Mapping to store companies by their address\n    mapping(address => Company) public companies;\n\n    // Mapping to store information about each NFT\n    mapping(uint256 => NFTInfo) public nfts;\n\n    // Mapping to track popularity index for each company (NFT purchases)\n    mapping(address => uint256) public popularityIndex;\n\n    // Address of the dApp currency (Reward token) - Replace with your token address\n    address public rewardToken;\n\n    // Event emitted when a new company registers\n    event CompanyRegistered(address companyAddress, string name);\n\n    // Event emitted when a new NFT is released\n    event NFTReleased(\n        address companyAddress,\n        uint256 tokenId,\n        string name,\n        uint256 duration\n    );\n\n    // Event emitted when an NFT is burned\n    event NFTBurned(uint256 tokenId);\n\n    constructor(address _rewardToken) ERC721(\"CompanyName\", \"CNM\") {\n        rewardToken = _rewardToken;\n    }\n\n    // Function for company registration\n    function registerCompany(string memory _name) public {\n        require(\n            companies[msg.sender].companyAddress == address(0),\n            \"Company already registered\"\n        );\n        companies[msg.sender] = Company(payable(msg.sender), _name);\n        emit CompanyRegistered(msg.sender, _name);\n    }\n\n    // Function for company to release a new NFT\n    function releaseNFT(\n        string memory _name,\n        uint256 _duration,\n        // bytes memory _data,\n        uint256 _price\n    ) public {\n        require(\n            companies[msg.sender].companyAddress != address(0),\n            \"Company not registered\"\n        );\n        uint256 tokenId = balanceOf(address(this)); // Access total minted NFTs via balanceOf(this)\n        _mint(msg.sender, tokenId);\n\n        nfts[tokenId] = NFTInfo(\n            _name,\n            _duration,\n            block.timestamp + _duration * 1 days,\n            _price\n        ); // Set burn timestamp\n        emit NFTReleased(msg.sender, tokenId, _name, _duration);\n    }\n\n    // Function for user to purchase NFT (assuming Reward token integration)\n    function buyNFT(uint256 tokenId) public {\n        require(nfts[tokenId].burnTimestamp > block.timestamp, \"NFT expired\");\n        NFTInfo memory nft = nfts[tokenId];\n        require(\n            IERC20(rewardToken).balanceOf(msg.sender) >= nft.price,\n            \"Insufficient Reward tokens\"\n        );\n        IERC20(rewardToken).transferFrom(\n            msg.sender,\n            companies[ownerOf(tokenId)].companyAddress,\n            nft.price\n        ); // Transfer Reward tokens\n\n        _transfer(ownerOf(tokenId), msg.sender, tokenId); // Transfer NFT ownership\n        popularityIndex[companies[ownerOf(tokenId)].companyAddress]++; // Update popularity index\n        emit NFTBurned(tokenId);\n        delete nfts[tokenId]; // Remove NFT info after purchase\n    }\n\n    // Function for company to withdraw funds (implement access control here)\n    function withdrawFunds() public {\n        // Implement logic to check if company can withdraw and transfer funds to companyAddress\n    }\n\n    // (Optional) Function for company to update user data access consent\n    function updateUserDataConsent(address user, bool consent) public {\n        // Implement logic to update user data consent for the company\n    }\n\n    // Structure to store information about an NFT\n    struct NFTInfo {\n        string name;\n        uint256 duration;\n        uint256 burnTimestamp; // Timestamp when NFT burns\n        uint256 price; // Price of the NFT in Reward tokens\n    }\n}\n",
  "sourcePath": "E:\\Blockchain\\defi-staking-app-starter\\src\\contracts\\CompanyNFThandle.sol",
  "compiler": {
    "name": "solc",
    "version": "0.8.26+commit.8a97fa7a.Emscripten.clang"
  },
  "schemaVersion": "3.4.16",
  "updatedAt": "2024-05-29T17:04:45.542Z",
  "devdoc": {
    "errors": {
      "ERC721IncorrectOwner(address,uint256,address)": [
        {
          "details": "Indicates an error related to the ownership over a particular token. Used in transfers.",
          "params": {
            "owner": "Address of the current owner of a token.",
            "sender": "Address whose tokens are being transferred.",
            "tokenId": "Identifier number of a token."
          }
        }
      ],
      "ERC721InsufficientApproval(address,uint256)": [
        {
          "details": "Indicates a failure with the `operator`s approval. Used in transfers.",
          "params": {
            "operator": "Address that may be allowed to operate on tokens without being their owner.",
            "tokenId": "Identifier number of a token."
          }
        }
      ],
      "ERC721InvalidApprover(address)": [
        {
          "details": "Indicates a failure with the `approver` of a token to be approved. Used in approvals.",
          "params": {
            "approver": "Address initiating an approval operation."
          }
        }
      ],
      "ERC721InvalidOperator(address)": [
        {
          "details": "Indicates a failure with the `operator` to be approved. Used in approvals.",
          "params": {
            "operator": "Address that may be allowed to operate on tokens without being their owner."
          }
        }
      ],
      "ERC721InvalidOwner(address)": [
        {
          "details": "Indicates that an address can't be an owner. For example, `address(0)` is a forbidden owner in EIP-20. Used in balance queries.",
          "params": {
            "owner": "Address of the current owner of a token."
          }
        }
      ],
      "ERC721InvalidReceiver(address)": [
        {
          "details": "Indicates a failure with the token `receiver`. Used in transfers.",
          "params": {
            "receiver": "Address to which tokens are being transferred."
          }
        }
      ],
      "ERC721InvalidSender(address)": [
        {
          "details": "Indicates a failure with the token `sender`. Used in transfers.",
          "params": {
            "sender": "Address whose tokens are being transferred."
          }
        }
      ],
      "ERC721NonexistentToken(uint256)": [
        {
          "details": "Indicates a `tokenId` whose `owner` is the zero address.",
          "params": {
            "tokenId": "Identifier number of a token."
          }
        }
      ]
    },
    "events": {
      "Approval(address,address,uint256)": {
        "details": "Emitted when `owner` enables `approved` to manage the `tokenId` token."
      },
      "ApprovalForAll(address,address,bool)": {
        "details": "Emitted when `owner` enables or disables (`approved`) `operator` to manage all of its assets."
      },
      "Transfer(address,address,uint256)": {
        "details": "Emitted when `tokenId` token is transferred from `from` to `to`."
      }
    },
    "kind": "dev",
    "methods": {
      "approve(address,uint256)": {
        "details": "See {IERC721-approve}."
      },
      "balanceOf(address)": {
        "details": "See {IERC721-balanceOf}."
      },
      "getApproved(uint256)": {
        "details": "See {IERC721-getApproved}."
      },
      "isApprovedForAll(address,address)": {
        "details": "See {IERC721-isApprovedForAll}."
      },
      "name()": {
        "details": "See {IERC721Metadata-name}."
      },
      "ownerOf(uint256)": {
        "details": "See {IERC721-ownerOf}."
      },
      "safeTransferFrom(address,address,uint256)": {
        "details": "See {IERC721-safeTransferFrom}."
      },
      "safeTransferFrom(address,address,uint256,bytes)": {
        "details": "See {IERC721-safeTransferFrom}."
      },
      "setApprovalForAll(address,bool)": {
        "details": "See {IERC721-setApprovalForAll}."
      },
      "supportsInterface(bytes4)": {
        "details": "See {IERC165-supportsInterface}."
      },
      "symbol()": {
        "details": "See {IERC721Metadata-symbol}."
      },
      "tokenURI(uint256)": {
        "details": "See {IERC721Metadata-tokenURI}."
      },
      "transferFrom(address,address,uint256)": {
        "details": "See {IERC721-transferFrom}."
      }
    },
    "version": 1
  },
  "userdoc": {
    "kind": "user",
    "methods": {},
    "version": 1
  }
}