{
  "contractName": "CompanyNFT",
  "abi": [
    {
      "inputs": [
        {
          "internalType": "contract RWD",
          "name": "_rwd",
          "type": "address"
        }
      ],
      "stateMutability": "nonpayable",
      "type": "constructor"
    },
    {
      "anonymous": false,
      "inputs": [
        {
          "indexed": false,
          "internalType": "address",
          "name": "companyAddress",
          "type": "address"
        },
        {
          "indexed": false,
          "internalType": "string",
          "name": "name",
          "type": "string"
        }
      ],
      "name": "CompanyRegistered",
      "type": "event"
    },
    {
      "anonymous": false,
      "inputs": [
        {
          "indexed": false,
          "internalType": "address",
          "name": "companyAddress",
          "type": "address"
        },
        {
          "indexed": false,
          "internalType": "uint256",
          "name": "tokenId",
          "type": "uint256"
        }
      ],
      "name": "ImpressionIncreased",
      "type": "event"
    },
    {
      "anonymous": false,
      "inputs": [
        {
          "indexed": false,
          "internalType": "address",
          "name": "buyer",
          "type": "address"
        },
        {
          "indexed": false,
          "internalType": "uint256",
          "name": "tokenId",
          "type": "uint256"
        },
        {
          "indexed": false,
          "internalType": "uint256",
          "name": "price",
          "type": "uint256"
        }
      ],
      "name": "NFTBought",
      "type": "event"
    },
    {
      "anonymous": false,
      "inputs": [
        {
          "indexed": false,
          "internalType": "uint256",
          "name": "tokenId",
          "type": "uint256"
        }
      ],
      "name": "NFTBurned",
      "type": "event"
    },
    {
      "anonymous": false,
      "inputs": [
        {
          "indexed": false,
          "internalType": "address",
          "name": "companyAddress",
          "type": "address"
        },
        {
          "indexed": false,
          "internalType": "uint256",
          "name": "tokenId",
          "type": "uint256"
        },
        {
          "indexed": false,
          "internalType": "string",
          "name": "name",
          "type": "string"
        },
        {
          "indexed": false,
          "internalType": "uint256",
          "name": "duration",
          "type": "uint256"
        },
        {
          "indexed": false,
          "internalType": "uint256",
          "name": "price",
          "type": "uint256"
        }
      ],
      "name": "NFTReleased",
      "type": "event"
    },
    {
      "inputs": [
        {
          "internalType": "address",
          "name": "",
          "type": "address"
        }
      ],
      "name": "companies",
      "outputs": [
        {
          "internalType": "address payable",
          "name": "companyAddress",
          "type": "address"
        },
        {
          "internalType": "string",
          "name": "name",
          "type": "string"
        }
      ],
      "stateMutability": "view",
      "type": "function",
      "constant": true
    },
    {
      "inputs": [],
      "name": "nextTokenId",
      "outputs": [
        {
          "internalType": "uint256",
          "name": "",
          "type": "uint256"
        }
      ],
      "stateMutability": "view",
      "type": "function",
      "constant": true
    },
    {
      "inputs": [
        {
          "internalType": "uint256",
          "name": "",
          "type": "uint256"
        }
      ],
      "name": "nfts",
      "outputs": [
        {
          "internalType": "address",
          "name": "owner",
          "type": "address"
        },
        {
          "internalType": "string",
          "name": "name",
          "type": "string"
        },
        {
          "internalType": "uint256",
          "name": "duration",
          "type": "uint256"
        },
        {
          "internalType": "uint256",
          "name": "price",
          "type": "uint256"
        },
        {
          "internalType": "bool",
          "name": "isOwned",
          "type": "bool"
        },
        {
          "internalType": "uint256",
          "name": "popularityIndex",
          "type": "uint256"
        },
        {
          "internalType": "uint256",
          "name": "creationTime",
          "type": "uint256"
        }
      ],
      "stateMutability": "view",
      "type": "function",
      "constant": true
    },
    {
      "inputs": [
        {
          "internalType": "address",
          "name": "",
          "type": "address"
        }
      ],
      "name": "popularityIndex",
      "outputs": [
        {
          "internalType": "uint256",
          "name": "",
          "type": "uint256"
        }
      ],
      "stateMutability": "view",
      "type": "function",
      "constant": true
    },
    {
      "inputs": [],
      "name": "rewardToken",
      "outputs": [
        {
          "internalType": "address",
          "name": "",
          "type": "address"
        }
      ],
      "stateMutability": "view",
      "type": "function",
      "constant": true
    },
    {
      "inputs": [],
      "name": "rwd",
      "outputs": [
        {
          "internalType": "contract RWD",
          "name": "",
          "type": "address"
        }
      ],
      "stateMutability": "view",
      "type": "function",
      "constant": true
    },
    {
      "inputs": [
        {
          "internalType": "string",
          "name": "_name",
          "type": "string"
        }
      ],
      "name": "registerCompany",
      "outputs": [],
      "stateMutability": "nonpayable",
      "type": "function"
    },
    {
      "inputs": [
        {
          "internalType": "string",
          "name": "_name",
          "type": "string"
        },
        {
          "internalType": "uint256",
          "name": "_duration",
          "type": "uint256"
        },
        {
          "internalType": "uint256",
          "name": "_price",
          "type": "uint256"
        }
      ],
      "name": "releaseNFT",
      "outputs": [],
      "stateMutability": "nonpayable",
      "type": "function"
    },
    {
      "inputs": [
        {
          "internalType": "uint256",
          "name": "tokenId",
          "type": "uint256"
        }
      ],
      "name": "burnNFT",
      "outputs": [],
      "stateMutability": "nonpayable",
      "type": "function"
    },
    {
      "inputs": [
        {
          "internalType": "uint256",
          "name": "tokenId",
          "type": "uint256"
        }
      ],
      "name": "impression",
      "outputs": [],
      "stateMutability": "nonpayable",
      "type": "function"
    },
    {
      "inputs": [
        {
          "internalType": "uint256",
          "name": "tokenId",
          "type": "uint256"
        }
      ],
      "name": "buyNFT",
      "outputs": [],
      "stateMutability": "nonpayable",
      "type": "function"
    }
  ],
  "bytecode": "0x608060405234801561001057600080fd5b50604051611c73380380611c73833981810160405281019061003291906100f6565b80600560006101000a81548173ffffffffffffffffffffffffffffffffffffffff021916908373ffffffffffffffffffffffffffffffffffffffff160217905550600060048190555050610123565b600080fd5b600073ffffffffffffffffffffffffffffffffffffffff82169050919050565b60006100b182610086565b9050919050565b60006100c3826100a6565b9050919050565b6100d3816100b8565b81146100de57600080fd5b50565b6000815190506100f0816100ca565b92915050565b60006020828403121561010c5761010b610081565b5b600061011a848285016100e1565b91505092915050565b611b41806101326000396000f3fe608060405234801561001057600080fd5b50600436106100a85760003560e01c8063355e6ce811610071578063355e6ce8146101555780634827c7a51461018657806351ed8288146101a257806375794a3c146101be578063e76caad2146101dc578063f7c618c11461020c576100a8565b8062544194146100ad5780631a8972d3146100c9578063204a0b8d146100e7578063265aa621146101035780632890e0d714610139575b600080fd5b6100c760048036038101906100c29190610f8d565b61022a565b005b6100d16103ff565b6040516100de9190611055565b60405180910390f35b61010160048036038101906100fc91906110a6565b610425565b005b61011d60048036038101906101189190611115565b610661565b604051610130979695949392919061120c565b60405180910390f35b610153600480360381019061014e9190611115565b610758565b005b61016f600480360381019061016a91906112ae565b61091b565b60405161017d9291906112fc565b60405180910390f35b6101a0600480360381019061019b9190611115565b6109e7565b005b6101bc60048036038101906101b79190611115565b610b4f565b005b6101c6610d92565b6040516101d3919061132c565b60405180910390f35b6101f660048036038101906101f191906112ae565b610d98565b604051610203919061132c565b60405180910390f35b610214610db0565b6040516102219190611347565b60405180910390f35b600073ffffffffffffffffffffffffffffffffffffffff166000803373ffffffffffffffffffffffffffffffffffffffff1673ffffffffffffffffffffffffffffffffffffffff16815260200190815260200160002060000160009054906101000a900473ffffffffffffffffffffffffffffffffffffffff1673ffffffffffffffffffffffffffffffffffffffff16146102fa576040517f08c379a00000000000000000000000000000000000000000000000000000000081526004016102f1906113ae565b60405180910390fd5b60405180604001604052803373ffffffffffffffffffffffffffffffffffffffff168152602001828152506000803373ffffffffffffffffffffffffffffffffffffffff1673ffffffffffffffffffffffffffffffffffffffff16815260200190815260200160002060008201518160000160006101000a81548173ffffffffffffffffffffffffffffffffffffffff021916908373ffffffffffffffffffffffffffffffffffffffff16021790555060208201518160010190816103bf91906115d0565b509050507f76686aa361308f4a08557cca1a847299ce61e5602a3495cd359a599a1dca438c33826040516103f49291906116a2565b60405180910390a150565b600560009054906101000a900473ffffffffffffffffffffffffffffffffffffffff1681565b600073ffffffffffffffffffffffffffffffffffffffff166000803373ffffffffffffffffffffffffffffffffffffffff1673ffffffffffffffffffffffffffffffffffffffff16815260200190815260200160002060000160009054906101000a900473ffffffffffffffffffffffffffffffffffffffff1673ffffffffffffffffffffffffffffffffffffffff16036104f5576040517f08c379a00000000000000000000000000000000000000000000000000000000081526004016104ec9061171e565b60405180910390fd5b600060045490506004600081548092919061050f9061176d565b91905055506040518060e001604052803373ffffffffffffffffffffffffffffffffffffffff16815260200185815260200184815260200183815260200160001515815260200160008152602001428152506001600083815260200190815260200160002060008201518160000160006101000a81548173ffffffffffffffffffffffffffffffffffffffff021916908373ffffffffffffffffffffffffffffffffffffffff16021790555060208201518160010190816105d091906115d0565b50604082015181600201556060820151816003015560808201518160040160006101000a81548160ff02191690831515021790555060a0820151816005015560c082015181600601559050507f2de1eb6de73f73105aee362d7510f3a1b4f3ead8b50e6b1f85ba3453dffc0b8433828686866040516106539594939291906117b5565b60405180910390a150505050565b60016020528060005260406000206000915090508060000160009054906101000a900473ffffffffffffffffffffffffffffffffffffffff16908060010180546106aa906113fd565b80601f01602080910402602001604051908101604052809291908181526020018280546106d6906113fd565b80156107235780601f106106f857610100808354040283529160200191610723565b820191906000526020600020905b81548152906001019060200180831161070657829003601f168201915b5050505050908060020154908060030154908060040160009054906101000a900460ff16908060050154908060060154905087565b3373ffffffffffffffffffffffffffffffffffffffff166001600083815260200190815260200160002060000160009054906101000a900473ffffffffffffffffffffffffffffffffffffffff1673ffffffffffffffffffffffffffffffffffffffff16146107fc576040517f08c379a00000000000000000000000000000000000000000000000000000000081526004016107f39061185b565b60405180910390fd5b6001600082815260200190815260200160002060040160009054906101000a900460ff1615610860576040517f08c379a0000000000000000000000000000000000000000000000000000000008152600401610857906118c7565b60405180910390fd5b60016000828152602001908152602001600020600080820160006101000a81549073ffffffffffffffffffffffffffffffffffffffff02191690556001820160006108ab9190610dd6565b600282016000905560038201600090556004820160006101000a81549060ff02191690556005820160009055600682016000905550507f3c176691ca154a2f6fe978a2a633a33ee77dbe2902e67a75400720845a4b2ce181604051610910919061132c565b60405180910390a150565b60006020528060005260406000206000915090508060000160009054906101000a900473ffffffffffffffffffffffffffffffffffffffff1690806001018054610964906113fd565b80601f0160208091040260200160405190810160405280929190818152602001828054610990906113fd565b80156109dd5780601f106109b2576101008083540402835291602001916109dd565b820191906000526020600020905b8154815290600101906020018083116109c057829003601f168201915b5050505050905082565b6001600082815260200190815260200160002060040160009054906101000a900460ff16610a4a576040517f08c379a0000000000000000000000000000000000000000000000000000000008152600401610a4190611933565b60405180910390fd5b60008060006001600085815260200190815260200160002060000160009054906101000a900473ffffffffffffffffffffffffffffffffffffffff1673ffffffffffffffffffffffffffffffffffffffff1673ffffffffffffffffffffffffffffffffffffffff16815260200190815260200160002060000160009054906101000a900473ffffffffffffffffffffffffffffffffffffffff169050600160008381526020019081526020016000206005016000815480929190610b0d9061176d565b91905055507f6dee9015d3eb3d147ae0b4fafdfc062172ef0885c919b29fca2d5f7be01de2968183604051610b43929190611953565b60405180910390a15050565b60006001600083815260200190815260200160002090508060040160009054906101000a900460ff1615610bb8576040517f08c379a0000000000000000000000000000000000000000000000000000000008152600401610baf906119c8565b60405180910390fd5b6000670de0b6b3a76400009050600560009054906101000a900473ffffffffffffffffffffffffffffffffffffffff1673ffffffffffffffffffffffffffffffffffffffff166323b872dd336000808660000160009054906101000a900473ffffffffffffffffffffffffffffffffffffffff1673ffffffffffffffffffffffffffffffffffffffff1673ffffffffffffffffffffffffffffffffffffffff16815260200190815260200160002060000160009054906101000a900473ffffffffffffffffffffffffffffffffffffffff1660016040518463ffffffff1660e01b8152600401610caa93929190611a44565b6020604051808303816000875af1158015610cc9573d6000803e3d6000fd5b505050506040513d601f19601f82011682018060405250810190610ced9190611aa7565b50338260000160006101000a81548173ffffffffffffffffffffffffffffffffffffffff021916908373ffffffffffffffffffffffffffffffffffffffff16021790555060018260040160006101000a81548160ff0219169083151502179055507f38bb180d23818aef357ad4b3806bac3fa13c3492c0ac9d1727381fb2422aaada33848460030154604051610d8593929190611ad4565b60405180910390a1505050565b60045481565b60026020528060005260406000206000915090505481565b600360009054906101000a900473ffffffffffffffffffffffffffffffffffffffff1681565b508054610de2906113fd565b6000825580601f10610df45750610e13565b601f016020900490600052602060002090810190610e129190610e16565b5b50565b5b80821115610e2f576000816000905550600101610e17565b5090565b6000604051905090565b600080fd5b600080fd5b600080fd5b600080fd5b6000601f19601f8301169050919050565b7f4e487b7100000000000000000000000000000000000000000000000000000000600052604160045260246000fd5b610e9a82610e51565b810181811067ffffffffffffffff82111715610eb957610eb8610e62565b5b80604052505050565b6000610ecc610e33565b9050610ed88282610e91565b919050565b600067ffffffffffffffff821115610ef857610ef7610e62565b5b610f0182610e51565b9050602081019050919050565b82818337600083830152505050565b6000610f30610f2b84610edd565b610ec2565b905082815260208101848484011115610f4c57610f4b610e4c565b5b610f57848285610f0e565b509392505050565b600082601f830112610f7457610f73610e47565b5b8135610f84848260208601610f1d565b91505092915050565b600060208284031215610fa357610fa2610e3d565b5b600082013567ffffffffffffffff811115610fc157610fc0610e42565b5b610fcd84828501610f5f565b91505092915050565b600073ffffffffffffffffffffffffffffffffffffffff82169050919050565b6000819050919050565b600061101b61101661101184610fd6565b610ff6565b610fd6565b9050919050565b600061102d82611000565b9050919050565b600061103f82611022565b9050919050565b61104f81611034565b82525050565b600060208201905061106a6000830184611046565b92915050565b6000819050919050565b61108381611070565b811461108e57600080fd5b50565b6000813590506110a08161107a565b92915050565b6000806000606084860312156110bf576110be610e3d565b5b600084013567ffffffffffffffff8111156110dd576110dc610e42565b5b6110e986828701610f5f565b93505060206110fa86828701611091565b925050604061110b86828701611091565b9150509250925092565b60006020828403121561112b5761112a610e3d565b5b600061113984828501611091565b91505092915050565b600061114d82610fd6565b9050919050565b61115d81611142565b82525050565b600081519050919050565b600082825260208201905092915050565b60005b8381101561119d578082015181840152602081019050611182565b60008484015250505050565b60006111b482611163565b6111be818561116e565b93506111ce81856020860161117f565b6111d781610e51565b840191505092915050565b6111eb81611070565b82525050565b60008115159050919050565b611206816111f1565b82525050565b600060e082019050611221600083018a611154565b818103602083015261123381896111a9565b905061124260408301886111e2565b61124f60608301876111e2565b61125c60808301866111fd565b61126960a08301856111e2565b61127660c08301846111e2565b98975050505050505050565b61128b81611142565b811461129657600080fd5b50565b6000813590506112a881611282565b92915050565b6000602082840312156112c4576112c3610e3d565b5b60006112d284828501611299565b91505092915050565b60006112e682610fd6565b9050919050565b6112f6816112db565b82525050565b600060408201905061131160008301856112ed565b818103602083015261132381846111a9565b90509392505050565b600060208201905061134160008301846111e2565b92915050565b600060208201905061135c6000830184611154565b92915050565b7f436f6d70616e7920616c72656164792072656769737465726564000000000000600082015250565b6000611398601a8361116e565b91506113a382611362565b602082019050919050565b600060208201905081810360008301526113c78161138b565b9050919050565b7f4e487b7100000000000000000000000000000000000000000000000000000000600052602260045260246000fd5b6000600282049050600182168061141557607f821691505b602082108103611428576114276113ce565b5b50919050565b60008190508160005260206000209050919050565b60006020601f8301049050919050565b600082821b905092915050565b6000600883026114907fffffffffffffffffffffffffffffffffffffffffffffffffffffffffffffffff82611453565b61149a8683611453565b95508019841693508086168417925050509392505050565b60006114cd6114c86114c384611070565b610ff6565b611070565b9050919050565b6000819050919050565b6114e7836114b2565b6114fb6114f3826114d4565b848454611460565b825550505050565b600090565b611510611503565b61151b8184846114de565b505050565b5b8181101561153f57611534600082611508565b600181019050611521565b5050565b601f821115611584576115558161142e565b61155e84611443565b8101602085101561156d578190505b61158161157985611443565b830182611520565b50505b505050565b600082821c905092915050565b60006115a760001984600802611589565b1980831691505092915050565b60006115c08383611596565b9150826002028217905092915050565b6115d982611163565b67ffffffffffffffff8111156115f2576115f1610e62565b5b6115fc82546113fd565b611607828285611543565b600060209050601f83116001811461163a5760008415611628578287015190505b61163285826115b4565b86555061169a565b601f1984166116488661142e565b60005b828110156116705784890151825560018201915060208501945060208101905061164b565b8683101561168d5784890151611689601f891682611596565b8355505b6001600288020188555050505b505050505050565b60006040820190506116b76000830185611154565b81810360208301526116c981846111a9565b90509392505050565b7f436f6d70616e79206e6f74207265676973746572656400000000000000000000600082015250565b600061170860168361116e565b9150611713826116d2565b602082019050919050565b60006020820190508181036000830152611737816116fb565b9050919050565b7f4e487b7100000000000000000000000000000000000000000000000000000000600052601160045260246000fd5b600061177882611070565b91507fffffffffffffffffffffffffffffffffffffffffffffffffffffffffffffffff82036117aa576117a961173e565b5b600182019050919050565b600060a0820190506117ca6000830188611154565b6117d760208301876111e2565b81810360408301526117e981866111a9565b90506117f860608301856111e2565b61180560808301846111e2565b9695505050505050565b7f4e6f7420746865206f776e657200000000000000000000000000000000000000600082015250565b6000611845600d8361116e565b91506118508261180f565b602082019050919050565b6000602082019050818103600083015261187481611838565b9050919050565b7f4e4654206973206f776e65640000000000000000000000000000000000000000600082015250565b60006118b1600c8361116e565b91506118bc8261187b565b602082019050919050565b600060208201905081810360008301526118e0816118a4565b9050919050565b7f4e4654206973206e6f74206f776e656400000000000000000000000000000000600082015250565b600061191d60108361116e565b9150611928826118e7565b602082019050919050565b6000602082019050818103600083015261194c81611910565b9050919050565b60006040820190506119686000830185611154565b61197560208301846111e2565b9392505050565b7f4e465420697320616c7265616479206f776e6564000000000000000000000000600082015250565b60006119b260148361116e565b91506119bd8261197c565b602082019050919050565b600060208201905081810360008301526119e1816119a5565b9050919050565b60006119f382611022565b9050919050565b611a03816119e8565b82525050565b6000819050919050565b6000611a2e611a29611a2484611a09565b610ff6565b611070565b9050919050565b611a3e81611a13565b82525050565b6000606082019050611a596000830186611154565b611a6660208301856119fa565b611a736040830184611a35565b949350505050565b611a84816111f1565b8114611a8f57600080fd5b50565b600081519050611aa181611a7b565b92915050565b600060208284031215611abd57611abc610e3d565b5b6000611acb84828501611a92565b91505092915050565b6000606082019050611ae96000830186611154565b611af660208301856111e2565b611b0360408301846111e2565b94935050505056fea2646970667358221220977e1114d7024debe3d2ab1111cfa44afe0e988e19cf00dd784a7545083d879e64736f6c634300081a0033",
  "immutableReferences": {},
  "source": "// SPDX-License-Identifier: MIT\r\npragma solidity >=0.8.19 <0.9.0;\r\n\r\nimport \"./RWD.sol\";\r\n\r\ncontract CompanyNFT {\r\n    struct Company {\r\n        address payable companyAddress;\r\n        string name;\r\n    }\r\n\r\n    struct NFT {\r\n        address owner;\r\n        string name;\r\n        uint256 duration;\r\n        uint256 price;\r\n        bool isOwned;\r\n        uint256 popularityIndex;\r\n        uint256 creationTime;\r\n    }\r\n\r\n    mapping(address => Company) public companies;\r\n    mapping(uint256 => NFT) public nfts;\r\n    mapping(address => uint256) public popularityIndex;\r\n    address public rewardToken;\r\n    uint256 public nextTokenId;\r\n    RWD public rwd;\r\n\r\n    event CompanyRegistered(address companyAddress, string name);\r\n    event NFTReleased(address companyAddress, uint256 tokenId, string name, uint256 duration, uint256 price);\r\n    event NFTBurned(uint256 tokenId);\r\n    event ImpressionIncreased(address companyAddress, uint256 tokenId);\r\n    event NFTBought(address buyer, uint256 tokenId, uint256 price);\r\n\r\n    constructor(RWD _rwd) {\r\n        //rewardToken = _rewardToken;\r\n        rwd = _rwd;\r\n        nextTokenId = 0;\r\n    }\r\n\r\n    function registerCompany(string memory _name) public {\r\n        require(companies[msg.sender].companyAddress == address(0), \"Company already registered\");\r\n        companies[msg.sender] = Company(payable(msg.sender), _name);\r\n        emit CompanyRegistered(msg.sender, _name);\r\n    }\r\n\r\n    function releaseNFT(string memory _name, uint256 _duration, uint256 _price) public {\r\n        require(companies[msg.sender].companyAddress != address(0), \"Company not registered\");\r\n        uint256 tokenId = nextTokenId; // Use the current value of nextTokenId\r\n        nextTokenId++;\r\n        \r\n        nfts[tokenId] = NFT(msg.sender, _name, _duration, _price, false, 0, block.timestamp);\r\n        emit NFTReleased(msg.sender, tokenId, _name, _duration, _price);\r\n    }\r\n\r\n    function burnNFT(uint256 tokenId) external {\r\n        require(nfts[tokenId].owner == msg.sender, \"Not the owner\");\r\n        require(!nfts[tokenId].isOwned, \"NFT is owned\");\r\n        delete nfts[tokenId];\r\n        emit NFTBurned(tokenId);\r\n    }\r\n\r\n    function impression(uint256 tokenId) external {\r\n        require(nfts[tokenId].isOwned, \"NFT is not owned\");\r\n        address companyAddress = companies[nfts[tokenId].owner].companyAddress;\r\n        nfts[tokenId].popularityIndex++;\r\n        emit ImpressionIncreased(companyAddress, tokenId);\r\n    }\r\n\r\n    function buyNFT(uint256 tokenId) external {\r\n        NFT storage nft = nfts[tokenId];\r\n        require(!nft.isOwned, \"NFT is already owned\");\r\n        \r\n        // Transfer RWD tokens from buyer to the company\r\n        // require(RWD(rewardToken).transferFrom(msg.sender, companies[nft.owner].companyAddress, nft.price),\r\n        //     \"Transfer failed\");\r\n        \r\n        // Update the NFT status\r\n        uint256 dd = 1e18;\r\n        rwd.transferFrom(msg.sender,companies[nft.owner].companyAddress, 1); \r\n        nft.owner = msg.sender;\r\n        nft.isOwned = true;\r\n        \r\n        emit NFTBought(msg.sender, tokenId, nft.price);\r\n    }\r\n}\r\n",
  "sourcePath": "E:\\Blockchain\\defi-staking-app-starter\\src\\contracts\\CompanyNFThandle.sol",
  "compiler": {
    "name": "solc",
    "version": "0.8.26+commit.8a97fa7a.Emscripten.clang"
  },
  "schemaVersion": "3.4.16",
  "updatedAt": "2024-06-01T13:08:41.112Z",
  "networkType": "ethereum",
  "devdoc": {
    "kind": "dev",
    "methods": {},
    "version": 1
  },
  "userdoc": {
    "kind": "user",
    "methods": {},
    "version": 1
  }
}