{
  "contractName": "CompanyNFT",
  "abi": [
    {
      "inputs": [
        {
          "internalType": "contract IERC20",
          "name": "_rwdToken",
          "type": "address"
        },
        {
          "internalType": "address",
          "name": "_rwdTokenDeployer",
          "type": "address"
        }
      ],
      "stateMutability": "nonpayable",
      "type": "constructor"
    },
    {
      "inputs": [
        {
          "internalType": "address",
          "name": "owner",
          "type": "address"
        }
      ],
      "name": "OwnableInvalidOwner",
      "type": "error"
    },
    {
      "inputs": [
        {
          "internalType": "address",
          "name": "account",
          "type": "address"
        }
      ],
      "name": "OwnableUnauthorizedAccount",
      "type": "error"
    },
    {
      "anonymous": false,
      "inputs": [
        {
          "indexed": false,
          "internalType": "address",
          "name": "company",
          "type": "address"
        },
        {
          "indexed": false,
          "internalType": "string",
          "name": "name",
          "type": "string"
        }
      ],
      "name": "CompanyRegistered",
      "type": "event"
    },
    {
      "anonymous": false,
      "inputs": [
        {
          "indexed": false,
          "internalType": "address",
          "name": "buyer",
          "type": "address"
        },
        {
          "indexed": false,
          "internalType": "string",
          "name": "name",
          "type": "string"
        },
        {
          "indexed": false,
          "internalType": "uint256",
          "name": "price",
          "type": "uint256"
        },
        {
          "indexed": false,
          "internalType": "address",
          "name": "owner",
          "type": "address"
        }
      ],
      "name": "NFTBought",
      "type": "event"
    },
    {
      "anonymous": false,
      "inputs": [
        {
          "indexed": false,
          "internalType": "address",
          "name": "company",
          "type": "address"
        },
        {
          "indexed": false,
          "internalType": "string",
          "name": "name",
          "type": "string"
        },
        {
          "indexed": false,
          "internalType": "uint256",
          "name": "price",
          "type": "uint256"
        }
      ],
      "name": "NFTReleased",
      "type": "event"
    },
    {
      "anonymous": false,
      "inputs": [
        {
          "indexed": false,
          "internalType": "address",
          "name": "seller",
          "type": "address"
        },
        {
          "indexed": false,
          "internalType": "string",
          "name": "name",
          "type": "string"
        },
        {
          "indexed": false,
          "internalType": "uint256",
          "name": "price",
          "type": "uint256"
        },
        {
          "indexed": false,
          "internalType": "address",
          "name": "buyer",
          "type": "address"
        }
      ],
      "name": "NFTSold",
      "type": "event"
    },
    {
      "anonymous": false,
      "inputs": [
        {
          "indexed": true,
          "internalType": "address",
          "name": "previousOwner",
          "type": "address"
        },
        {
          "indexed": true,
          "internalType": "address",
          "name": "newOwner",
          "type": "address"
        }
      ],
      "name": "OwnershipTransferred",
      "type": "event"
    },
    {
      "inputs": [
        {
          "internalType": "uint256",
          "name": "",
          "type": "uint256"
        }
      ],
      "name": "nfts",
      "outputs": [
        {
          "internalType": "string",
          "name": "name",
          "type": "string"
        },
        {
          "internalType": "uint256",
          "name": "price",
          "type": "uint256"
        },
        {
          "internalType": "address",
          "name": "owner",
          "type": "address"
        },
        {
          "internalType": "address",
          "name": "RealOwner",
          "type": "address"
        },
        {
          "internalType": "bool",
          "name": "CurrentlyUnder",
          "type": "bool"
        }
      ],
      "stateMutability": "view",
      "type": "function",
      "constant": true
    },
    {
      "inputs": [],
      "name": "owner",
      "outputs": [
        {
          "internalType": "address",
          "name": "",
          "type": "address"
        }
      ],
      "stateMutability": "view",
      "type": "function",
      "constant": true
    },
    {
      "inputs": [
        {
          "internalType": "address",
          "name": "",
          "type": "address"
        }
      ],
      "name": "registeredCompanies",
      "outputs": [
        {
          "internalType": "bool",
          "name": "",
          "type": "bool"
        }
      ],
      "stateMutability": "view",
      "type": "function",
      "constant": true
    },
    {
      "inputs": [],
      "name": "renounceOwnership",
      "outputs": [],
      "stateMutability": "nonpayable",
      "type": "function"
    },
    {
      "inputs": [],
      "name": "rwdToken",
      "outputs": [
        {
          "internalType": "contract IERC20",
          "name": "",
          "type": "address"
        }
      ],
      "stateMutability": "view",
      "type": "function",
      "constant": true
    },
    {
      "inputs": [],
      "name": "rwdTokenDeployer",
      "outputs": [
        {
          "internalType": "address",
          "name": "",
          "type": "address"
        }
      ],
      "stateMutability": "view",
      "type": "function",
      "constant": true
    },
    {
      "inputs": [
        {
          "internalType": "address",
          "name": "newOwner",
          "type": "address"
        }
      ],
      "name": "transferOwnership",
      "outputs": [],
      "stateMutability": "nonpayable",
      "type": "function"
    },
    {
      "inputs": [
        {
          "internalType": "string",
          "name": "name",
          "type": "string"
        }
      ],
      "name": "registerCompany",
      "outputs": [],
      "stateMutability": "nonpayable",
      "type": "function"
    },
    {
      "inputs": [
        {
          "internalType": "string",
          "name": "name",
          "type": "string"
        },
        {
          "internalType": "uint256",
          "name": "price",
          "type": "uint256"
        }
      ],
      "name": "releaseNFT",
      "outputs": [],
      "stateMutability": "nonpayable",
      "type": "function"
    },
    {
      "inputs": [
        {
          "internalType": "uint256",
          "name": "nftIndex",
          "type": "uint256"
        }
      ],
      "name": "buyNFT",
      "outputs": [],
      "stateMutability": "nonpayable",
      "type": "function"
    },
    {
      "inputs": [
        {
          "internalType": "uint256",
          "name": "nftIndex",
          "type": "uint256"
        }
      ],
      "name": "sellNFT",
      "outputs": [],
      "stateMutability": "nonpayable",
      "type": "function"
    },
    {
      "inputs": [],
      "name": "getNFTs",
      "outputs": [
        {
          "components": [
            {
              "internalType": "string",
              "name": "name",
              "type": "string"
            },
            {
              "internalType": "uint256",
              "name": "price",
              "type": "uint256"
            },
            {
              "internalType": "address",
              "name": "owner",
              "type": "address"
            },
            {
              "internalType": "address",
              "name": "RealOwner",
              "type": "address"
            },
            {
              "internalType": "bool",
              "name": "CurrentlyUnder",
              "type": "bool"
            }
          ],
          "internalType": "struct CompanyNFT.NFT[]",
          "name": "",
          "type": "tuple[]"
        }
      ],
      "stateMutability": "view",
      "type": "function",
      "constant": true
    },
    {
      "inputs": [
        {
          "internalType": "uint256",
          "name": "index",
          "type": "uint256"
        }
      ],
      "name": "getNFT",
      "outputs": [
        {
          "components": [
            {
              "internalType": "string",
              "name": "name",
              "type": "string"
            },
            {
              "internalType": "uint256",
              "name": "price",
              "type": "uint256"
            },
            {
              "internalType": "address",
              "name": "owner",
              "type": "address"
            },
            {
              "internalType": "address",
              "name": "RealOwner",
              "type": "address"
            },
            {
              "internalType": "bool",
              "name": "CurrentlyUnder",
              "type": "bool"
            }
          ],
          "internalType": "struct CompanyNFT.NFT",
          "name": "",
          "type": "tuple"
        }
      ],
      "stateMutability": "view",
      "type": "function",
      "constant": true
    },
    {
      "inputs": [],
      "name": "nextTokenId",
      "outputs": [
        {
          "internalType": "uint256",
          "name": "",
          "type": "uint256"
        }
      ],
      "stateMutability": "view",
      "type": "function",
      "constant": true
    },
    {
      "inputs": [
        {
          "internalType": "address",
          "name": "account",
          "type": "address"
        }
      ],
      "name": "isCompanyRegistered",
      "outputs": [
        {
          "internalType": "bool",
          "name": "",
          "type": "bool"
        }
      ],
      "stateMutability": "view",
      "type": "function",
      "constant": true
    }
  ],
  "bytecode": "0x608060405234801561001057600080fd5b5060405161267d38038061267d833981810160405281019061003291906102a3565b33600073ffffffffffffffffffffffffffffffffffffffff168173ffffffffffffffffffffffffffffffffffffffff16036100a55760006040517f1e4fbdf700000000000000000000000000000000000000000000000000000000815260040161009c91906102f2565b60405180910390fd5b6100b48161013e60201b60201c565b5081600160006101000a81548173ffffffffffffffffffffffffffffffffffffffff021916908373ffffffffffffffffffffffffffffffffffffffff16021790555080600260006101000a81548173ffffffffffffffffffffffffffffffffffffffff021916908373ffffffffffffffffffffffffffffffffffffffff160217905550505061030d565b60008060009054906101000a900473ffffffffffffffffffffffffffffffffffffffff169050816000806101000a81548173ffffffffffffffffffffffffffffffffffffffff021916908373ffffffffffffffffffffffffffffffffffffffff1602179055508173ffffffffffffffffffffffffffffffffffffffff168173ffffffffffffffffffffffffffffffffffffffff167f8be0079c531659141344cd1fd0a4f28419497f9722a3daafe3b4186f6b6457e060405160405180910390a35050565b600080fd5b600073ffffffffffffffffffffffffffffffffffffffff82169050919050565b600061023282610207565b9050919050565b600061024482610227565b9050919050565b61025481610239565b811461025f57600080fd5b50565b6000815190506102718161024b565b92915050565b61028081610227565b811461028b57600080fd5b50565b60008151905061029d81610277565b92915050565b600080604083850312156102ba576102b9610202565b5b60006102c885828601610262565b92505060206102d98582860161028e565b9150509250929050565b6102ec81610227565b82525050565b600060208201905061030760008301846102e3565b92915050565b6123618061031c6000396000f3fe608060405234801561001057600080fd5b50600436106100f45760003560e01c8063715018a611610097578063af9453b811610066578063af9453b814610277578063e724e0cf14610293578063ee9cdfb3146102b1578063f2fde38b146102cd576100f4565b8063715018a61461021357806375794a3c1461021d5780637d787a241461023b5780638da5cb5b14610259576100f4565b806351ed8288116100d357806351ed82881461016757806356ea04a314610183578063576f7ea7146101b35780635f940919146101e3576100f4565b8062544194146100f9578063227212f214610115578063265aa62114610133575b600080fd5b610113600480360381019061010e919061158d565b6102e9565b005b61011d61040a565b60405161012a9190611802565b60405180910390f35b61014d60048036038101906101489190611850565b6105cc565b60405161015e9594939291906118f4565b60405180910390f35b610181600480360381019061017c9190611850565b6106e7565b005b61019d6004803603810190610198919061197a565b6109bb565b6040516101aa91906119a7565b60405180910390f35b6101cd60048036038101906101c89190611850565b610a11565b6040516101da9190611a38565b60405180910390f35b6101fd60048036038101906101f8919061197a565b610bf7565b60405161020a91906119a7565b60405180910390f35b61021b610c17565b005b610225610c2b565b6040516102329190611a5a565b60405180910390f35b610243610c38565b6040516102509190611ad4565b60405180910390f35b610261610c5e565b60405161026e9190611aef565b60405180910390f35b610291600480360381019061028c9190611b0a565b610c87565b005b61029b610ee5565b6040516102a89190611aef565b60405180910390f35b6102cb60048036038101906102c69190611850565b610f0b565b005b6102e760048036038101906102e2919061197a565b6111fd565b005b600360003373ffffffffffffffffffffffffffffffffffffffff1673ffffffffffffffffffffffffffffffffffffffff16815260200190815260200160002060009054906101000a900460ff1615610376576040517f08c379a000000000000000000000000000000000000000000000000000000000815260040161036d90611bb2565b60405180910390fd5b6001600360003373ffffffffffffffffffffffffffffffffffffffff1673ffffffffffffffffffffffffffffffffffffffff16815260200190815260200160002060006101000a81548160ff0219169083151502179055507f76686aa361308f4a08557cca1a847299ce61e5602a3495cd359a599a1dca438c33826040516103ff929190611bd2565b60405180910390a150565b60606004805480602002602001604051908101604052809291908181526020016000905b828210156105c357838290600052602060002090600402016040518060a001604052908160008201805461046190611c31565b80601f016020809104026020016040519081016040528092919081815260200182805461048d90611c31565b80156104da5780601f106104af576101008083540402835291602001916104da565b820191906000526020600020905b8154815290600101906020018083116104bd57829003601f168201915b50505050508152602001600182015481526020016002820160009054906101000a900473ffffffffffffffffffffffffffffffffffffffff1673ffffffffffffffffffffffffffffffffffffffff1673ffffffffffffffffffffffffffffffffffffffff1681526020016003820160009054906101000a900473ffffffffffffffffffffffffffffffffffffffff1673ffffffffffffffffffffffffffffffffffffffff1673ffffffffffffffffffffffffffffffffffffffff1681526020016003820160149054906101000a900460ff1615151515815250508152602001906001019061042e565b50505050905090565b600481815481106105dc57600080fd5b90600052602060002090600402016000915090508060000180546105ff90611c31565b80601f016020809104026020016040519081016040528092919081815260200182805461062b90611c31565b80156106785780601f1061064d57610100808354040283529160200191610678565b820191906000526020600020905b81548152906001019060200180831161065b57829003601f168201915b5050505050908060010154908060020160009054906101000a900473ffffffffffffffffffffffffffffffffffffffff16908060030160009054906101000a900473ffffffffffffffffffffffffffffffffffffffff16908060030160149054906101000a900460ff16905085565b600480549050811061072e576040517f08c379a000000000000000000000000000000000000000000000000000000000815260040161072590611cae565b60405180910390fd5b60006004828154811061074457610743611cce565b5b906000526020600020906004020190503373ffffffffffffffffffffffffffffffffffffffff168160020160009054906101000a900473ffffffffffffffffffffffffffffffffffffffff1673ffffffffffffffffffffffffffffffffffffffff16036107e6576040517f08c379a00000000000000000000000000000000000000000000000000000000081526004016107dd90611d49565b60405180910390fd5b600160009054906101000a900473ffffffffffffffffffffffffffffffffffffffff1673ffffffffffffffffffffffffffffffffffffffff166323b872dd338360020160009054906101000a900473ffffffffffffffffffffffffffffffffffffffff1684600101546040518463ffffffff1660e01b815260040161086d93929190611d69565b6020604051808303816000875af115801561088c573d6000803e3d6000fd5b505050506040513d601f19601f820116820180604052508101906108b09190611dcc565b6108ef576040517f08c379a00000000000000000000000000000000000000000000000000000000081526004016108e690611e45565b60405180910390fd5b338160020160006101000a81548173ffffffffffffffffffffffffffffffffffffffff021916908373ffffffffffffffffffffffffffffffffffffffff16021790555060018160030160146101000a81548160ff0219169083151502179055507fb66153ae74d7ac237b23d51280151e5c1b3b2d115088ce0eb1bc6ab3b957be7f338260000183600101548460020160009054906101000a900473ffffffffffffffffffffffffffffffffffffffff166040516109af9493929190611efe565b60405180910390a15050565b6000600360008373ffffffffffffffffffffffffffffffffffffffff1673ffffffffffffffffffffffffffffffffffffffff16815260200190815260200160002060009054906101000a900460ff169050919050565b610a196113d6565b6004805490508210610a60576040517f08c379a0000000000000000000000000000000000000000000000000000000008152600401610a5790611cae565b60405180910390fd5b60048281548110610a7457610a73611cce565b5b90600052602060002090600402016040518060a0016040529081600082018054610a9d90611c31565b80601f0160208091040260200160405190810160405280929190818152602001828054610ac990611c31565b8015610b165780601f10610aeb57610100808354040283529160200191610b16565b820191906000526020600020905b815481529060010190602001808311610af957829003601f168201915b50505050508152602001600182015481526020016002820160009054906101000a900473ffffffffffffffffffffffffffffffffffffffff1673ffffffffffffffffffffffffffffffffffffffff1673ffffffffffffffffffffffffffffffffffffffff1681526020016003820160009054906101000a900473ffffffffffffffffffffffffffffffffffffffff1673ffffffffffffffffffffffffffffffffffffffff1673ffffffffffffffffffffffffffffffffffffffff1681526020016003820160149054906101000a900460ff1615151515815250509050919050565b60036020528060005260406000206000915054906101000a900460ff1681565b610c1f611283565b610c29600061130a565b565b6000600480549050905090565b600160009054906101000a900473ffffffffffffffffffffffffffffffffffffffff1681565b60008060009054906101000a900473ffffffffffffffffffffffffffffffffffffffff16905090565b600360003373ffffffffffffffffffffffffffffffffffffffff1673ffffffffffffffffffffffffffffffffffffffff16815260200190815260200160002060009054906101000a900460ff16610d13576040517f08c379a0000000000000000000000000000000000000000000000000000000008152600401610d0a90611f96565b60405180910390fd5b60008111610d56576040517f08c379a0000000000000000000000000000000000000000000000000000000008152600401610d4d90612002565b60405180910390fd5b60046040518060a001604052808481526020018381526020013373ffffffffffffffffffffffffffffffffffffffff1681526020013373ffffffffffffffffffffffffffffffffffffffff1681526020016000151581525090806001815401808255809150506001900390600052602060002090600402016000909190919091506000820151816000019081610dec91906121af565b506020820151816001015560408201518160020160006101000a81548173ffffffffffffffffffffffffffffffffffffffff021916908373ffffffffffffffffffffffffffffffffffffffff16021790555060608201518160030160006101000a81548173ffffffffffffffffffffffffffffffffffffffff021916908373ffffffffffffffffffffffffffffffffffffffff16021790555060808201518160030160146101000a81548160ff02191690831515021790555050507e19ffc4d09b3156dffba0f03b8541ed8b1d26e2f23a22d7a8f4e54e2166615c338383604051610ed993929190612281565b60405180910390a15050565b600260009054906101000a900473ffffffffffffffffffffffffffffffffffffffff1681565b6004805490508110610f52576040517f08c379a0000000000000000000000000000000000000000000000000000000008152600401610f4990611cae565b60405180910390fd5b600060048281548110610f6857610f67611cce565b5b906000526020600020906004020190503373ffffffffffffffffffffffffffffffffffffffff168160020160009054906101000a900473ffffffffffffffffffffffffffffffffffffffff1673ffffffffffffffffffffffffffffffffffffffff161461100a576040517f08c379a00000000000000000000000000000000000000000000000000000000081526004016110019061230b565b60405180910390fd5b600160009054906101000a900473ffffffffffffffffffffffffffffffffffffffff1673ffffffffffffffffffffffffffffffffffffffff166323b872dd600260009054906101000a900473ffffffffffffffffffffffffffffffffffffffff163384600101546040518463ffffffff1660e01b815260040161108f93929190611d69565b6020604051808303816000875af11580156110ae573d6000803e3d6000fd5b505050506040513d601f19601f820116820180604052508101906110d29190611dcc565b611111576040517f08c379a000000000000000000000000000000000000000000000000000000000815260040161110890611e45565b60405180910390fd5b600260009054906101000a900473ffffffffffffffffffffffffffffffffffffffff168160020160006101000a81548173ffffffffffffffffffffffffffffffffffffffff021916908373ffffffffffffffffffffffffffffffffffffffff16021790555060008160030160146101000a81548160ff0219169083151502179055507f5f8b5fae61d038b480592fa3dcfd790849fdffe7fbd46aa3a50bac41d072a26d33826000018360010154600260009054906101000a900473ffffffffffffffffffffffffffffffffffffffff166040516111f19493929190611efe565b60405180910390a15050565b611205611283565b600073ffffffffffffffffffffffffffffffffffffffff168173ffffffffffffffffffffffffffffffffffffffff16036112775760006040517f1e4fbdf700000000000000000000000000000000000000000000000000000000815260040161126e9190611aef565b60405180910390fd5b6112808161130a565b50565b61128b6113ce565b73ffffffffffffffffffffffffffffffffffffffff166112a9610c5e565b73ffffffffffffffffffffffffffffffffffffffff1614611308576112cc6113ce565b6040517f118cdaa70000000000000000000000000000000000000000000000000000000081526004016112ff9190611aef565b60405180910390fd5b565b60008060009054906101000a900473ffffffffffffffffffffffffffffffffffffffff169050816000806101000a81548173ffffffffffffffffffffffffffffffffffffffff021916908373ffffffffffffffffffffffffffffffffffffffff1602179055508173ffffffffffffffffffffffffffffffffffffffff168173ffffffffffffffffffffffffffffffffffffffff167f8be0079c531659141344cd1fd0a4f28419497f9722a3daafe3b4186f6b6457e060405160405180910390a35050565b600033905090565b6040518060a001604052806060815260200160008152602001600073ffffffffffffffffffffffffffffffffffffffff168152602001600073ffffffffffffffffffffffffffffffffffffffff1681526020016000151581525090565b6000604051905090565b600080fd5b600080fd5b600080fd5b600080fd5b6000601f19601f8301169050919050565b7f4e487b7100000000000000000000000000000000000000000000000000000000600052604160045260246000fd5b61149a82611451565b810181811067ffffffffffffffff821117156114b9576114b8611462565b5b80604052505050565b60006114cc611433565b90506114d88282611491565b919050565b600067ffffffffffffffff8211156114f8576114f7611462565b5b61150182611451565b9050602081019050919050565b82818337600083830152505050565b600061153061152b846114dd565b6114c2565b90508281526020810184848401111561154c5761154b61144c565b5b61155784828561150e565b509392505050565b600082601f83011261157457611573611447565b5b813561158484826020860161151d565b91505092915050565b6000602082840312156115a3576115a261143d565b5b600082013567ffffffffffffffff8111156115c1576115c0611442565b5b6115cd8482850161155f565b91505092915050565b600081519050919050565b600082825260208201905092915050565b6000819050602082019050919050565b600081519050919050565b600082825260208201905092915050565b60005b8381101561163c578082015181840152602081019050611621565b60008484015250505050565b600061165382611602565b61165d818561160d565b935061166d81856020860161161e565b61167681611451565b840191505092915050565b6000819050919050565b61169481611681565b82525050565b600073ffffffffffffffffffffffffffffffffffffffff82169050919050565b60006116c58261169a565b9050919050565b6116d5816116ba565b82525050565b60008115159050919050565b6116f0816116db565b82525050565b600060a08301600083015184820360008601526117138282611648565b9150506020830151611728602086018261168b565b50604083015161173b60408601826116cc565b50606083015161174e60608601826116cc565b50608083015161176160808601826116e7565b508091505092915050565b600061177883836116f6565b905092915050565b6000602082019050919050565b6000611798826115d6565b6117a281856115e1565b9350836020820285016117b4856115f2565b8060005b858110156117f057848403895281516117d1858261176c565b94506117dc83611780565b925060208a019950506001810190506117b8565b50829750879550505050505092915050565b6000602082019050818103600083015261181c818461178d565b905092915050565b61182d81611681565b811461183857600080fd5b50565b60008135905061184a81611824565b92915050565b6000602082840312156118665761186561143d565b5b60006118748482850161183b565b91505092915050565b600082825260208201905092915050565b600061189982611602565b6118a3818561187d565b93506118b381856020860161161e565b6118bc81611451565b840191505092915050565b6118d081611681565b82525050565b6118df816116ba565b82525050565b6118ee816116db565b82525050565b600060a082019050818103600083015261190e818861188e565b905061191d60208301876118c7565b61192a60408301866118d6565b61193760608301856118d6565b61194460808301846118e5565b9695505050505050565b611957816116ba565b811461196257600080fd5b50565b6000813590506119748161194e565b92915050565b6000602082840312156119905761198f61143d565b5b600061199e84828501611965565b91505092915050565b60006020820190506119bc60008301846118e5565b92915050565b600060a08301600083015184820360008601526119df8282611648565b91505060208301516119f4602086018261168b565b506040830151611a0760408601826116cc565b506060830151611a1a60608601826116cc565b506080830151611a2d60808601826116e7565b508091505092915050565b60006020820190508181036000830152611a5281846119c2565b905092915050565b6000602082019050611a6f60008301846118c7565b92915050565b6000819050919050565b6000611a9a611a95611a908461169a565b611a75565b61169a565b9050919050565b6000611aac82611a7f565b9050919050565b6000611abe82611aa1565b9050919050565b611ace81611ab3565b82525050565b6000602082019050611ae96000830184611ac5565b92915050565b6000602082019050611b0460008301846118d6565b92915050565b60008060408385031215611b2157611b2061143d565b5b600083013567ffffffffffffffff811115611b3f57611b3e611442565b5b611b4b8582860161155f565b9250506020611b5c8582860161183b565b9150509250929050565b7f436f6d70616e7920616c72656164792072656769737465726564000000000000600082015250565b6000611b9c601a8361187d565b9150611ba782611b66565b602082019050919050565b60006020820190508181036000830152611bcb81611b8f565b9050919050565b6000604082019050611be760008301856118d6565b8181036020830152611bf9818461188e565b90509392505050565b7f4e487b7100000000000000000000000000000000000000000000000000000000600052602260045260246000fd5b60006002820490506001821680611c4957607f821691505b602082108103611c5c57611c5b611c02565b5b50919050565b7f4e465420646f6573206e6f742065786973740000000000000000000000000000600082015250565b6000611c9860128361187d565b9150611ca382611c62565b602082019050919050565b60006020820190508181036000830152611cc781611c8b565b9050919050565b7f4e487b7100000000000000000000000000000000000000000000000000000000600052603260045260246000fd5b7f596f7520616c7265616479206f776e2074686973204e46540000000000000000600082015250565b6000611d3360188361187d565b9150611d3e82611cfd565b602082019050919050565b60006020820190508181036000830152611d6281611d26565b9050919050565b6000606082019050611d7e60008301866118d6565b611d8b60208301856118d6565b611d9860408301846118c7565b949350505050565b611da9816116db565b8114611db457600080fd5b50565b600081519050611dc681611da0565b92915050565b600060208284031215611de257611de161143d565b5b6000611df084828501611db7565b91505092915050565b7f525744207472616e73666572206661696c656400000000000000000000000000600082015250565b6000611e2f60138361187d565b9150611e3a82611df9565b602082019050919050565b60006020820190508181036000830152611e5e81611e22565b9050919050565b60008190508160005260206000209050919050565b60008154611e8781611c31565b611e91818661187d565b94506001821660008114611eac5760018114611ec257611ef5565b60ff198316865281151560200286019350611ef5565b611ecb85611e65565b60005b83811015611eed57815481890152600182019150602081019050611ece565b808801955050505b50505092915050565b6000608082019050611f1360008301876118d6565b8181036020830152611f258186611e7a565b9050611f3460408301856118c7565b611f4160608301846118d6565b95945050505050565b7f596f7520617265206e6f742061207265676973746572656420636f6d70616e79600082015250565b6000611f8060208361187d565b9150611f8b82611f4a565b602082019050919050565b60006020820190508181036000830152611faf81611f73565b9050919050565b7f5072696365206d7573742062652067726561746572207468616e207a65726f00600082015250565b6000611fec601f8361187d565b9150611ff782611fb6565b602082019050919050565b6000602082019050818103600083015261201b81611fdf565b9050919050565b60006020601f8301049050919050565b600082821b905092915050565b60006008830261206f7fffffffffffffffffffffffffffffffffffffffffffffffffffffffffffffffff82612032565b6120798683612032565b95508019841693508086168417925050509392505050565b60006120ac6120a76120a284611681565b611a75565b611681565b9050919050565b6000819050919050565b6120c683612091565b6120da6120d2826120b3565b84845461203f565b825550505050565b600090565b6120ef6120e2565b6120fa8184846120bd565b505050565b5b8181101561211e576121136000826120e7565b600181019050612100565b5050565b601f8211156121635761213481611e65565b61213d84612022565b8101602085101561214c578190505b61216061215885612022565b8301826120ff565b50505b505050565b600082821c905092915050565b600061218660001984600802612168565b1980831691505092915050565b600061219f8383612175565b9150826002028217905092915050565b6121b882611602565b67ffffffffffffffff8111156121d1576121d0611462565b5b6121db8254611c31565b6121e6828285612122565b600060209050601f8311600181146122195760008415612207578287015190505b6122118582612193565b865550612279565b601f19841661222786611e65565b60005b8281101561224f5784890151825560018201915060208501945060208101905061222a565b8683101561226c5784890151612268601f891682612175565b8355505b6001600288020188555050505b505050505050565b600060608201905061229660008301866118d6565b81810360208301526122a8818561188e565b90506122b760408301846118c7565b949350505050565b7f596f752063616e206f6e6c792073656c6c20796f7572206f776e204e46540000600082015250565b60006122f5601e8361187d565b9150612300826122bf565b602082019050919050565b60006020820190508181036000830152612324816122e8565b905091905056fea2646970667358221220112452a30db84150c5de441b8797def3f6716e9a567d639332859d8bce59514764736f6c634300081a0033",
  "immutableReferences": {},
  "source": "// SPDX-License-Identifier: MIT\r\n\r\npragma solidity >=0.8.19 <0.9.0;\r\n\r\nimport \"@openzeppelin/contracts/token/ERC20/IERC20.sol\";\r\nimport \"@openzeppelin/contracts/access/Ownable.sol\";\r\n\r\ncontract CompanyNFT is Ownable {\r\n    IERC20 public rwdToken;\r\n    address public rwdTokenDeployer;\r\n\r\n    struct NFT {\r\n        string name;\r\n        uint256 price;\r\n        address owner;\r\n        address RealOwner;\r\n        bool CurrentlyUnder;\r\n    }\r\n\r\n    mapping(address => bool) public registeredCompanies;\r\n    NFT[] public nfts;\r\n\r\n    event CompanyRegistered(address company, string name);\r\n    event NFTReleased(address company, string name, uint256 price);\r\n    event NFTBought(address buyer, string name, uint256 price, address owner);\r\n    event NFTSold(address seller, string name, uint256 price, address buyer);\r\n\r\n    constructor(IERC20 _rwdToken, address _rwdTokenDeployer) Ownable(msg.sender) {\r\n    rwdToken = _rwdToken;\r\n    rwdTokenDeployer = _rwdTokenDeployer;\r\n}\r\n\r\n    modifier onlyRegisteredCompany() {\r\n        require(registeredCompanies[msg.sender], \"You are not a registered company\");\r\n        _;\r\n    }\r\n\r\n    function registerCompany(string memory name) external {\r\n        require(!registeredCompanies[msg.sender], \"Company already registered\");\r\n        registeredCompanies[msg.sender] = true;\r\n        emit CompanyRegistered(msg.sender, name);\r\n    }\r\n\r\n    function releaseNFT(string memory name, uint256 price) external onlyRegisteredCompany {\r\n        require(price > 0, \"Price must be greater than zero\");\r\n        nfts.push(NFT({\r\n            name: name,\r\n            price: price,\r\n            owner: msg.sender,\r\n            RealOwner: msg.sender,\r\n            CurrentlyUnder: false\r\n        }));\r\n        emit NFTReleased(msg.sender, name, price);\r\n    }\r\n\r\n    function buyNFT(uint256 nftIndex) external {\r\n        require(nftIndex < nfts.length, \"NFT does not exist\");\r\n        NFT storage nft = nfts[nftIndex];\r\n        require(nft.owner != msg.sender, \"You already own this NFT\");\r\n        require(rwdToken.transferFrom(msg.sender, nft.owner, nft.price), \"RWD transfer failed\");\r\n\r\n        nft.owner = msg.sender;\r\n        nft.CurrentlyUnder = true;\r\n\r\n        emit NFTBought(msg.sender, nft.name, nft.price, nft.owner);\r\n    }\r\n\r\n    function sellNFT(uint256 nftIndex) external {\r\n        require(nftIndex < nfts.length, \"NFT does not exist\");\r\n        NFT storage nft = nfts[nftIndex];\r\n        require(nft.owner == msg.sender, \"You can only sell your own NFT\");\r\n\r\n        require(rwdToken.transferFrom(rwdTokenDeployer, msg.sender, nft.price), \"RWD transfer failed\");\r\n        nft.owner = rwdTokenDeployer;\r\n        nft.CurrentlyUnder = false;\r\n        emit NFTSold(msg.sender, nft.name, nft.price, rwdTokenDeployer);\r\n    }\r\n\r\n    function getNFTs() external view returns (NFT[] memory) {\r\n        return nfts;\r\n    }\r\n\r\n    function getNFT(uint256 index) external view returns (NFT memory) {\r\n        require(index < nfts.length, \"NFT does not exist\");\r\n        return nfts[index];\r\n    }\r\n\r\n    function nextTokenId() external view returns (uint256) {\r\n        return nfts.length;\r\n    }\r\n    function isCompanyRegistered(address account) public view returns (bool) {\r\n        return registeredCompanies[account];\r\n    }\r\n}\r\n",
  "sourcePath": "E:\\Blockchain\\defi-staking-app-starter\\src\\contracts\\CompanyNFThandle.sol",
  "compiler": {
    "name": "solc",
    "version": "0.8.26+commit.8a97fa7a.Emscripten.clang"
  },
  "schemaVersion": "3.4.16",
  "updatedAt": "2024-06-02T15:41:09.046Z",
  "networkType": "ethereum",
  "devdoc": {
    "errors": {
      "OwnableInvalidOwner(address)": [
        {
          "details": "The owner is not a valid owner account. (eg. `address(0)`)"
        }
      ],
      "OwnableUnauthorizedAccount(address)": [
        {
          "details": "The caller account is not authorized to perform an operation."
        }
      ]
    },
    "kind": "dev",
    "methods": {
      "owner()": {
        "details": "Returns the address of the current owner."
      },
      "renounceOwnership()": {
        "details": "Leaves the contract without owner. It will not be possible to call `onlyOwner` functions. Can only be called by the current owner. NOTE: Renouncing ownership will leave the contract without an owner, thereby disabling any functionality that is only available to the owner."
      },
      "transferOwnership(address)": {
        "details": "Transfers ownership of the contract to a new account (`newOwner`). Can only be called by the current owner."
      }
    },
    "version": 1
  },
  "userdoc": {
    "kind": "user",
    "methods": {},
    "version": 1
  }
}