{
  "contractName": "CompanyNFT",
  "abi": [
    {
      "inputs": [
        {
          "internalType": "contract IERC20",
          "name": "_rwdToken",
          "type": "address"
        },
        {
          "internalType": "address",
          "name": "_rwdTokenDeployer",
          "type": "address"
        }
      ],
      "stateMutability": "nonpayable",
      "type": "constructor"
    },
    {
      "inputs": [
        {
          "internalType": "address",
          "name": "owner",
          "type": "address"
        }
      ],
      "name": "OwnableInvalidOwner",
      "type": "error"
    },
    {
      "inputs": [
        {
          "internalType": "address",
          "name": "account",
          "type": "address"
        }
      ],
      "name": "OwnableUnauthorizedAccount",
      "type": "error"
    },
    {
      "anonymous": false,
      "inputs": [
        {
          "indexed": false,
          "internalType": "address",
          "name": "company",
          "type": "address"
        },
        {
          "indexed": false,
          "internalType": "string",
          "name": "name",
          "type": "string"
        }
      ],
      "name": "CompanyRegistered",
      "type": "event"
    },
    {
      "anonymous": false,
      "inputs": [
        {
          "indexed": false,
          "internalType": "address",
          "name": "buyer",
          "type": "address"
        },
        {
          "indexed": false,
          "internalType": "string",
          "name": "name",
          "type": "string"
        },
        {
          "indexed": false,
          "internalType": "uint256",
          "name": "price",
          "type": "uint256"
        },
        {
          "indexed": false,
          "internalType": "address",
          "name": "owner",
          "type": "address"
        }
      ],
      "name": "NFTBought",
      "type": "event"
    },
    {
      "anonymous": false,
      "inputs": [
        {
          "indexed": false,
          "internalType": "address",
          "name": "company",
          "type": "address"
        },
        {
          "indexed": false,
          "internalType": "string",
          "name": "name",
          "type": "string"
        },
        {
          "indexed": false,
          "internalType": "uint256",
          "name": "price",
          "type": "uint256"
        }
      ],
      "name": "NFTReleased",
      "type": "event"
    },
    {
      "anonymous": false,
      "inputs": [
        {
          "indexed": false,
          "internalType": "address",
          "name": "seller",
          "type": "address"
        },
        {
          "indexed": false,
          "internalType": "string",
          "name": "name",
          "type": "string"
        },
        {
          "indexed": false,
          "internalType": "uint256",
          "name": "price",
          "type": "uint256"
        },
        {
          "indexed": false,
          "internalType": "address",
          "name": "buyer",
          "type": "address"
        }
      ],
      "name": "NFTSold",
      "type": "event"
    },
    {
      "anonymous": false,
      "inputs": [
        {
          "indexed": true,
          "internalType": "address",
          "name": "previousOwner",
          "type": "address"
        },
        {
          "indexed": true,
          "internalType": "address",
          "name": "newOwner",
          "type": "address"
        }
      ],
      "name": "OwnershipTransferred",
      "type": "event"
    },
    {
      "inputs": [
        {
          "internalType": "uint256",
          "name": "",
          "type": "uint256"
        }
      ],
      "name": "nfts",
      "outputs": [
        {
          "internalType": "string",
          "name": "name",
          "type": "string"
        },
        {
          "internalType": "uint256",
          "name": "price",
          "type": "uint256"
        },
        {
          "internalType": "address",
          "name": "owner",
          "type": "address"
        },
        {
          "internalType": "address",
          "name": "RealOwner",
          "type": "address"
        },
        {
          "internalType": "bool",
          "name": "CurrentlyUnder",
          "type": "bool"
        },
        {
          "internalType": "string",
          "name": "NftImage",
          "type": "string"
        },
        {
          "internalType": "string",
          "name": "AddImage",
          "type": "string"
        },
        {
          "internalType": "string",
          "name": "Desc",
          "type": "string"
        },
        {
          "internalType": "uint256",
          "name": "Duration",
          "type": "uint256"
        },
        {
          "internalType": "uint256",
          "name": "DateReleased",
          "type": "uint256"
        },
        {
          "internalType": "string",
          "name": "MessageToOwner",
          "type": "string"
        },
        {
          "internalType": "string",
          "name": "MessageFromOwner",
          "type": "string"
        }
      ],
      "stateMutability": "view",
      "type": "function"
    },
    {
      "inputs": [],
      "name": "owner",
      "outputs": [
        {
          "internalType": "address",
          "name": "",
          "type": "address"
        }
      ],
      "stateMutability": "view",
      "type": "function"
    },
    {
      "inputs": [
        {
          "internalType": "address",
          "name": "",
          "type": "address"
        }
      ],
      "name": "registeredCompanies",
      "outputs": [
        {
          "internalType": "bool",
          "name": "",
          "type": "bool"
        }
      ],
      "stateMutability": "view",
      "type": "function"
    },
    {
      "inputs": [],
      "name": "renounceOwnership",
      "outputs": [],
      "stateMutability": "nonpayable",
      "type": "function"
    },
    {
      "inputs": [],
      "name": "rwdToken",
      "outputs": [
        {
          "internalType": "contract IERC20",
          "name": "",
          "type": "address"
        }
      ],
      "stateMutability": "view",
      "type": "function"
    },
    {
      "inputs": [],
      "name": "rwdTokenDeployer",
      "outputs": [
        {
          "internalType": "address",
          "name": "",
          "type": "address"
        }
      ],
      "stateMutability": "view",
      "type": "function"
    },
    {
      "inputs": [
        {
          "internalType": "address",
          "name": "newOwner",
          "type": "address"
        }
      ],
      "name": "transferOwnership",
      "outputs": [],
      "stateMutability": "nonpayable",
      "type": "function"
    },
    {
      "inputs": [
        {
          "internalType": "string",
          "name": "name",
          "type": "string"
        }
      ],
      "name": "registerCompany",
      "outputs": [],
      "stateMutability": "nonpayable",
      "type": "function"
    },
    {
      "inputs": [
        {
          "internalType": "string",
          "name": "name",
          "type": "string"
        },
        {
          "internalType": "uint256",
          "name": "price",
          "type": "uint256"
        },
        {
          "internalType": "string",
          "name": "_nftImage",
          "type": "string"
        },
        {
          "internalType": "string",
          "name": "addImage",
          "type": "string"
        },
        {
          "internalType": "string",
          "name": "desc",
          "type": "string"
        },
        {
          "internalType": "uint256",
          "name": "duration",
          "type": "uint256"
        },
        {
          "internalType": "string",
          "name": "msgFrom",
          "type": "string"
        }
      ],
      "name": "releaseNFT",
      "outputs": [],
      "stateMutability": "nonpayable",
      "type": "function"
    },
    {
      "inputs": [
        {
          "internalType": "uint256",
          "name": "nftIndex",
          "type": "uint256"
        },
        {
          "internalType": "string",
          "name": "msgToOwner",
          "type": "string"
        }
      ],
      "name": "buyNFT",
      "outputs": [],
      "stateMutability": "nonpayable",
      "type": "function"
    },
    {
      "inputs": [
        {
          "internalType": "uint256",
          "name": "nftIndex",
          "type": "uint256"
        }
      ],
      "name": "sellNFT",
      "outputs": [],
      "stateMutability": "nonpayable",
      "type": "function"
    },
    {
      "inputs": [],
      "name": "getNFTs",
      "outputs": [
        {
          "components": [
            {
              "internalType": "string",
              "name": "name",
              "type": "string"
            },
            {
              "internalType": "uint256",
              "name": "price",
              "type": "uint256"
            },
            {
              "internalType": "address",
              "name": "owner",
              "type": "address"
            },
            {
              "internalType": "address",
              "name": "RealOwner",
              "type": "address"
            },
            {
              "internalType": "bool",
              "name": "CurrentlyUnder",
              "type": "bool"
            },
            {
              "internalType": "string",
              "name": "NftImage",
              "type": "string"
            },
            {
              "internalType": "string",
              "name": "AddImage",
              "type": "string"
            },
            {
              "internalType": "string",
              "name": "Desc",
              "type": "string"
            },
            {
              "internalType": "uint256",
              "name": "Duration",
              "type": "uint256"
            },
            {
              "internalType": "uint256",
              "name": "DateReleased",
              "type": "uint256"
            },
            {
              "internalType": "string",
              "name": "MessageToOwner",
              "type": "string"
            },
            {
              "internalType": "string",
              "name": "MessageFromOwner",
              "type": "string"
            }
          ],
          "internalType": "struct CompanyNFT.NFT[]",
          "name": "",
          "type": "tuple[]"
        }
      ],
      "stateMutability": "view",
      "type": "function"
    },
    {
      "inputs": [
        {
          "internalType": "uint256",
          "name": "index",
          "type": "uint256"
        }
      ],
      "name": "getNFT",
      "outputs": [
        {
          "components": [
            {
              "internalType": "string",
              "name": "name",
              "type": "string"
            },
            {
              "internalType": "uint256",
              "name": "price",
              "type": "uint256"
            },
            {
              "internalType": "address",
              "name": "owner",
              "type": "address"
            },
            {
              "internalType": "address",
              "name": "RealOwner",
              "type": "address"
            },
            {
              "internalType": "bool",
              "name": "CurrentlyUnder",
              "type": "bool"
            },
            {
              "internalType": "string",
              "name": "NftImage",
              "type": "string"
            },
            {
              "internalType": "string",
              "name": "AddImage",
              "type": "string"
            },
            {
              "internalType": "string",
              "name": "Desc",
              "type": "string"
            },
            {
              "internalType": "uint256",
              "name": "Duration",
              "type": "uint256"
            },
            {
              "internalType": "uint256",
              "name": "DateReleased",
              "type": "uint256"
            },
            {
              "internalType": "string",
              "name": "MessageToOwner",
              "type": "string"
            },
            {
              "internalType": "string",
              "name": "MessageFromOwner",
              "type": "string"
            }
          ],
          "internalType": "struct CompanyNFT.NFT",
          "name": "",
          "type": "tuple"
        }
      ],
      "stateMutability": "view",
      "type": "function"
    },
    {
      "inputs": [],
      "name": "nextTokenId",
      "outputs": [
        {
          "internalType": "uint256",
          "name": "",
          "type": "uint256"
        }
      ],
      "stateMutability": "view",
      "type": "function"
    },
    {
      "inputs": [
        {
          "internalType": "address",
          "name": "account",
          "type": "address"
        }
      ],
      "name": "isCompanyRegistered",
      "outputs": [
        {
          "internalType": "bool",
          "name": "",
          "type": "bool"
        }
      ],
      "stateMutability": "view",
      "type": "function"
    }
  ],
  "bytecode": "0x608060405234801561001057600080fd5b50604051613379380380613379833981810160405281019061003291906102a3565b33600073ffffffffffffffffffffffffffffffffffffffff168173ffffffffffffffffffffffffffffffffffffffff16036100a55760006040517f1e4fbdf700000000000000000000000000000000000000000000000000000000815260040161009c91906102f2565b60405180910390fd5b6100b48161013e60201b60201c565b5081600160006101000a81548173ffffffffffffffffffffffffffffffffffffffff021916908373ffffffffffffffffffffffffffffffffffffffff16021790555080600260006101000a81548173ffffffffffffffffffffffffffffffffffffffff021916908373ffffffffffffffffffffffffffffffffffffffff160217905550505061030d565b60008060009054906101000a900473ffffffffffffffffffffffffffffffffffffffff169050816000806101000a81548173ffffffffffffffffffffffffffffffffffffffff021916908373ffffffffffffffffffffffffffffffffffffffff1602179055508173ffffffffffffffffffffffffffffffffffffffff168173ffffffffffffffffffffffffffffffffffffffff167f8be0079c531659141344cd1fd0a4f28419497f9722a3daafe3b4186f6b6457e060405160405180910390a35050565b600080fd5b600073ffffffffffffffffffffffffffffffffffffffff82169050919050565b600061023282610207565b9050919050565b600061024482610227565b9050919050565b61025481610239565b811461025f57600080fd5b50565b6000815190506102718161024b565b92915050565b61028081610227565b811461028b57600080fd5b50565b60008151905061029d81610277565b92915050565b600080604083850312156102ba576102b9610202565b5b60006102c885828601610262565b92505060206102d98582860161028e565b9150509250929050565b6102ec81610227565b82525050565b600060208201905061030760008301846102e3565b92915050565b61305d8061031c6000396000f3fe608060405234801561001057600080fd5b50600436106100f45760003560e01c8063715018a611610097578063a55a084311610066578063a55a08431461027e578063e724e0cf1461029a578063ee9cdfb3146102b8578063f2fde38b146102d4576100f4565b8063715018a61461021a57806375794a3c146102245780637d787a24146102425780638da5cb5b14610260576100f4565b8063265aa621116100d3578063265aa6211461014f57806356ea04a31461018a578063576f7ea7146101ba5780635f940919146101ea576100f4565b8062544194146100f95780630854748a14610115578063227212f214610131575b600080fd5b610113600480360381019061010e9190611f6f565b6102f0565b005b61012f600480360381019061012a9190611fee565b610411565b005b6101396106f8565b604051610146919061231d565b60405180910390f35b6101696004803603810190610164919061233f565b610ba9565b6040516101819c9b9a999897969594939291906123e3565b60405180910390f35b6101a4600480360381019061019f91906124f3565b610f96565b6040516101b19190612520565b60405180910390f35b6101d460048036038101906101cf919061233f565b610fec565b6040516101e19190612662565b60405180910390f35b61020460048036038101906101ff91906124f3565b6114c1565b6040516102119190612520565b60405180910390f35b6102226114e1565b005b61022c6114f5565b6040516102399190612684565b60405180910390f35b61024a611502565b60405161025791906126fe565b60405180910390f35b610268611528565b6040516102759190612719565b60405180910390f35b61029860048036038101906102939190612734565b611551565b005b6102a2611874565b6040516102af9190612719565b60405180910390f35b6102d260048036038101906102cd919061233f565b61189a565b005b6102ee60048036038101906102e991906124f3565b611bad565b005b600360003373ffffffffffffffffffffffffffffffffffffffff1673ffffffffffffffffffffffffffffffffffffffff16815260200190815260200160002060009054906101000a900460ff161561037d576040517f08c379a0000000000000000000000000000000000000000000000000000000008152600401610374906128ae565b60405180910390fd5b6001600360003373ffffffffffffffffffffffffffffffffffffffff1673ffffffffffffffffffffffffffffffffffffffff16815260200190815260200160002060006101000a81548160ff0219169083151502179055507f76686aa361308f4a08557cca1a847299ce61e5602a3495cd359a599a1dca438c33826040516104069291906128ce565b60405180910390a150565b6004805490508210610458576040517f08c379a000000000000000000000000000000000000000000000000000000000815260040161044f9061294a565b60405180910390fd5b60006004838154811061046e5761046d61296a565b5b90600052602060002090600b020190503373ffffffffffffffffffffffffffffffffffffffff168160020160009054906101000a900473ffffffffffffffffffffffffffffffffffffffff1673ffffffffffffffffffffffffffffffffffffffff1603610510576040517f08c379a0000000000000000000000000000000000000000000000000000000008152600401610507906129e5565b60405180910390fd5b600160009054906101000a900473ffffffffffffffffffffffffffffffffffffffff1673ffffffffffffffffffffffffffffffffffffffff166323b872dd338360020160009054906101000a900473ffffffffffffffffffffffffffffffffffffffff1684600101546040518463ffffffff1660e01b815260040161059793929190612a05565b6020604051808303816000875af11580156105b6573d6000803e3d6000fd5b505050506040513d601f19601f820116820180604052508101906105da9190612a68565b610619576040517f08c379a000000000000000000000000000000000000000000000000000000000815260040161061090612ae1565b60405180910390fd5b338160020160006101000a81548173ffffffffffffffffffffffffffffffffffffffff021916908373ffffffffffffffffffffffffffffffffffffffff16021790555060018160030160146101000a81548160ff0219169083151502179055508181600901908161068a9190612d03565b507fb66153ae74d7ac237b23d51280151e5c1b3b2d115088ce0eb1bc6ab3b957be7f338260000183600101548460020160009054906101000a900473ffffffffffffffffffffffffffffffffffffffff166040516106eb9493929190612e59565b60405180910390a1505050565b60606004805480602002602001604051908101604052809291908181526020016000905b82821015610ba057838290600052602060002090600b02016040518061018001604052908160008201805461075090612b30565b80601f016020809104026020016040519081016040528092919081815260200182805461077c90612b30565b80156107c95780601f1061079e576101008083540402835291602001916107c9565b820191906000526020600020905b8154815290600101906020018083116107ac57829003601f168201915b50505050508152602001600182015481526020016002820160009054906101000a900473ffffffffffffffffffffffffffffffffffffffff1673ffffffffffffffffffffffffffffffffffffffff1673ffffffffffffffffffffffffffffffffffffffff1681526020016003820160009054906101000a900473ffffffffffffffffffffffffffffffffffffffff1673ffffffffffffffffffffffffffffffffffffffff1673ffffffffffffffffffffffffffffffffffffffff1681526020016003820160149054906101000a900460ff161515151581526020016004820180546108b390612b30565b80601f01602080910402602001604051908101604052809291908181526020018280546108df90612b30565b801561092c5780601f106109015761010080835404028352916020019161092c565b820191906000526020600020905b81548152906001019060200180831161090f57829003601f168201915b5050505050815260200160058201805461094590612b30565b80601f016020809104026020016040519081016040528092919081815260200182805461097190612b30565b80156109be5780601f10610993576101008083540402835291602001916109be565b820191906000526020600020905b8154815290600101906020018083116109a157829003601f168201915b505050505081526020016006820180546109d790612b30565b80601f0160208091040260200160405190810160405280929190818152602001828054610a0390612b30565b8015610a505780601f10610a2557610100808354040283529160200191610a50565b820191906000526020600020905b815481529060010190602001808311610a3357829003601f168201915b505050505081526020016007820154815260200160088201548152602001600982018054610a7d90612b30565b80601f0160208091040260200160405190810160405280929190818152602001828054610aa990612b30565b8015610af65780601f10610acb57610100808354040283529160200191610af6565b820191906000526020600020905b815481529060010190602001808311610ad957829003601f168201915b50505050508152602001600a82018054610b0f90612b30565b80601f0160208091040260200160405190810160405280929190818152602001828054610b3b90612b30565b8015610b885780601f10610b5d57610100808354040283529160200191610b88565b820191906000526020600020905b815481529060010190602001808311610b6b57829003601f168201915b5050505050815250508152602001906001019061071c565b50505050905090565b60048181548110610bb957600080fd5b90600052602060002090600b0201600091509050806000018054610bdc90612b30565b80601f0160208091040260200160405190810160405280929190818152602001828054610c0890612b30565b8015610c555780601f10610c2a57610100808354040283529160200191610c55565b820191906000526020600020905b815481529060010190602001808311610c3857829003601f168201915b5050505050908060010154908060020160009054906101000a900473ffffffffffffffffffffffffffffffffffffffff16908060030160009054906101000a900473ffffffffffffffffffffffffffffffffffffffff16908060030160149054906101000a900460ff1690806004018054610ccf90612b30565b80601f0160208091040260200160405190810160405280929190818152602001828054610cfb90612b30565b8015610d485780601f10610d1d57610100808354040283529160200191610d48565b820191906000526020600020905b815481529060010190602001808311610d2b57829003601f168201915b505050505090806005018054610d5d90612b30565b80601f0160208091040260200160405190810160405280929190818152602001828054610d8990612b30565b8015610dd65780601f10610dab57610100808354040283529160200191610dd6565b820191906000526020600020905b815481529060010190602001808311610db957829003601f168201915b505050505090806006018054610deb90612b30565b80601f0160208091040260200160405190810160405280929190818152602001828054610e1790612b30565b8015610e645780601f10610e3957610100808354040283529160200191610e64565b820191906000526020600020905b815481529060010190602001808311610e4757829003601f168201915b505050505090806007015490806008015490806009018054610e8590612b30565b80601f0160208091040260200160405190810160405280929190818152602001828054610eb190612b30565b8015610efe5780601f10610ed357610100808354040283529160200191610efe565b820191906000526020600020905b815481529060010190602001808311610ee157829003601f168201915b50505050509080600a018054610f1390612b30565b80601f0160208091040260200160405190810160405280929190818152602001828054610f3f90612b30565b8015610f8c5780601f10610f6157610100808354040283529160200191610f8c565b820191906000526020600020905b815481529060010190602001808311610f6f57829003601f168201915b505050505090508c565b6000600360008373ffffffffffffffffffffffffffffffffffffffff1673ffffffffffffffffffffffffffffffffffffffff16815260200190815260200160002060009054906101000a900460ff169050919050565b610ff4611d86565b600480549050821061103b576040517f08c379a00000000000000000000000000000000000000000000000000000000081526004016110329061294a565b60405180910390fd5b6004828154811061104f5761104e61296a565b5b90600052602060002090600b02016040518061018001604052908160008201805461107990612b30565b80601f01602080910402602001604051908101604052809291908181526020018280546110a590612b30565b80156110f25780601f106110c7576101008083540402835291602001916110f2565b820191906000526020600020905b8154815290600101906020018083116110d557829003601f168201915b50505050508152602001600182015481526020016002820160009054906101000a900473ffffffffffffffffffffffffffffffffffffffff1673ffffffffffffffffffffffffffffffffffffffff1673ffffffffffffffffffffffffffffffffffffffff1681526020016003820160009054906101000a900473ffffffffffffffffffffffffffffffffffffffff1673ffffffffffffffffffffffffffffffffffffffff1673ffffffffffffffffffffffffffffffffffffffff1681526020016003820160149054906101000a900460ff161515151581526020016004820180546111dc90612b30565b80601f016020809104026020016040519081016040528092919081815260200182805461120890612b30565b80156112555780601f1061122a57610100808354040283529160200191611255565b820191906000526020600020905b81548152906001019060200180831161123857829003601f168201915b5050505050815260200160058201805461126e90612b30565b80601f016020809104026020016040519081016040528092919081815260200182805461129a90612b30565b80156112e75780601f106112bc576101008083540402835291602001916112e7565b820191906000526020600020905b8154815290600101906020018083116112ca57829003601f168201915b5050505050815260200160068201805461130090612b30565b80601f016020809104026020016040519081016040528092919081815260200182805461132c90612b30565b80156113795780601f1061134e57610100808354040283529160200191611379565b820191906000526020600020905b81548152906001019060200180831161135c57829003601f168201915b5050505050815260200160078201548152602001600882015481526020016009820180546113a690612b30565b80601f01602080910402602001604051908101604052809291908181526020018280546113d290612b30565b801561141f5780601f106113f45761010080835404028352916020019161141f565b820191906000526020600020905b81548152906001019060200180831161140257829003601f168201915b50505050508152602001600a8201805461143890612b30565b80601f016020809104026020016040519081016040528092919081815260200182805461146490612b30565b80156114b15780601f10611486576101008083540402835291602001916114b1565b820191906000526020600020905b81548152906001019060200180831161149457829003601f168201915b5050505050815250509050919050565b60036020528060005260406000206000915054906101000a900460ff1681565b6114e9611c33565b6114f36000611cba565b565b6000600480549050905090565b600160009054906101000a900473ffffffffffffffffffffffffffffffffffffffff1681565b60008060009054906101000a900473ffffffffffffffffffffffffffffffffffffffff16905090565b600360003373ffffffffffffffffffffffffffffffffffffffff1673ffffffffffffffffffffffffffffffffffffffff16815260200190815260200160002060009054906101000a900460ff166115dd576040517f08c379a00000000000000000000000000000000000000000000000000000000081526004016115d490612ef1565b60405180910390fd5b60008611611620576040517f08c379a000000000000000000000000000000000000000000000000000000000815260040161161790612f5d565b60405180910390fd5b60046040518061018001604052808981526020018881526020013373ffffffffffffffffffffffffffffffffffffffff1681526020013373ffffffffffffffffffffffffffffffffffffffff1681526020016000151581526020018781526020018681526020018581526020018481526020014281526020016040518060200160405280600081525081526020018381525090806001815401808255809150506001900390600052602060002090600b020160009091909190915060008201518160000190816116f09190612d03565b506020820151816001015560408201518160020160006101000a81548173ffffffffffffffffffffffffffffffffffffffff021916908373ffffffffffffffffffffffffffffffffffffffff16021790555060608201518160030160006101000a81548173ffffffffffffffffffffffffffffffffffffffff021916908373ffffffffffffffffffffffffffffffffffffffff16021790555060808201518160030160146101000a81548160ff02191690831515021790555060a08201518160040190816117be9190612d03565b5060c08201518160050190816117d49190612d03565b5060e08201518160060190816117ea9190612d03565b50610100820151816007015561012082015181600801556101408201518160090190816118179190612d03565b5061016082015181600a01908161182e9190612d03565b5050507e19ffc4d09b3156dffba0f03b8541ed8b1d26e2f23a22d7a8f4e54e2166615c33888860405161186393929190612f7d565b60405180910390a150505050505050565b600260009054906101000a900473ffffffffffffffffffffffffffffffffffffffff1681565b60048054905081106118e1576040517f08c379a00000000000000000000000000000000000000000000000000000000081526004016118d89061294a565b60405180910390fd5b6000600482815481106118f7576118f661296a565b5b90600052602060002090600b020190503373ffffffffffffffffffffffffffffffffffffffff168160020160009054906101000a900473ffffffffffffffffffffffffffffffffffffffff1673ffffffffffffffffffffffffffffffffffffffff1614611999576040517f08c379a000000000000000000000000000000000000000000000000000000000815260040161199090613007565b60405180910390fd5b600160009054906101000a900473ffffffffffffffffffffffffffffffffffffffff1673ffffffffffffffffffffffffffffffffffffffff166323b872dd600260009054906101000a900473ffffffffffffffffffffffffffffffffffffffff163384600101546040518463ffffffff1660e01b8152600401611a1e93929190612a05565b6020604051808303816000875af1158015611a3d573d6000803e3d6000fd5b505050506040513d601f19601f82011682018060405250810190611a619190612a68565b611aa0576040517f08c379a0000000000000000000000000000000000000000000000000000000008152600401611a9790612ae1565b60405180910390fd5b600260009054906101000a900473ffffffffffffffffffffffffffffffffffffffff168160020160006101000a81548173ffffffffffffffffffffffffffffffffffffffff021916908373ffffffffffffffffffffffffffffffffffffffff16021790555060008160030160146101000a81548160ff02191690831515021790555060405180602001604052806000815250816009019081611b429190612d03565b507f5f8b5fae61d038b480592fa3dcfd790849fdffe7fbd46aa3a50bac41d072a26d33826000018360010154600260009054906101000a900473ffffffffffffffffffffffffffffffffffffffff16604051611ba19493929190612e59565b60405180910390a15050565b611bb5611c33565b600073ffffffffffffffffffffffffffffffffffffffff168173ffffffffffffffffffffffffffffffffffffffff1603611c275760006040517f1e4fbdf7000000000000000000000000000000000000000000000000000000008152600401611c1e9190612719565b60405180910390fd5b611c3081611cba565b50565b611c3b611d7e565b73ffffffffffffffffffffffffffffffffffffffff16611c59611528565b73ffffffffffffffffffffffffffffffffffffffff1614611cb857611c7c611d7e565b6040517f118cdaa7000000000000000000000000000000000000000000000000000000008152600401611caf9190612719565b60405180910390fd5b565b60008060009054906101000a900473ffffffffffffffffffffffffffffffffffffffff169050816000806101000a81548173ffffffffffffffffffffffffffffffffffffffff021916908373ffffffffffffffffffffffffffffffffffffffff1602179055508173ffffffffffffffffffffffffffffffffffffffff168173ffffffffffffffffffffffffffffffffffffffff167f8be0079c531659141344cd1fd0a4f28419497f9722a3daafe3b4186f6b6457e060405160405180910390a35050565b600033905090565b6040518061018001604052806060815260200160008152602001600073ffffffffffffffffffffffffffffffffffffffff168152602001600073ffffffffffffffffffffffffffffffffffffffff168152602001600015158152602001606081526020016060815260200160608152602001600081526020016000815260200160608152602001606081525090565b6000604051905090565b600080fd5b600080fd5b600080fd5b600080fd5b6000601f19601f8301169050919050565b7f4e487b7100000000000000000000000000000000000000000000000000000000600052604160045260246000fd5b611e7c82611e33565b810181811067ffffffffffffffff82111715611e9b57611e9a611e44565b5b80604052505050565b6000611eae611e15565b9050611eba8282611e73565b919050565b600067ffffffffffffffff821115611eda57611ed9611e44565b5b611ee382611e33565b9050602081019050919050565b82818337600083830152505050565b6000611f12611f0d84611ebf565b611ea4565b905082815260208101848484011115611f2e57611f2d611e2e565b5b611f39848285611ef0565b509392505050565b600082601f830112611f5657611f55611e29565b5b8135611f66848260208601611eff565b91505092915050565b600060208284031215611f8557611f84611e1f565b5b600082013567ffffffffffffffff811115611fa357611fa2611e24565b5b611faf84828501611f41565b91505092915050565b6000819050919050565b611fcb81611fb8565b8114611fd657600080fd5b50565b600081359050611fe881611fc2565b92915050565b6000806040838503121561200557612004611e1f565b5b600061201385828601611fd9565b925050602083013567ffffffffffffffff81111561203457612033611e24565b5b61204085828601611f41565b9150509250929050565b600081519050919050565b600082825260208201905092915050565b6000819050602082019050919050565b600081519050919050565b600082825260208201905092915050565b60005b838110156120b0578082015181840152602081019050612095565b60008484015250505050565b60006120c782612076565b6120d18185612081565b93506120e1818560208601612092565b6120ea81611e33565b840191505092915050565b6120fe81611fb8565b82525050565b600073ffffffffffffffffffffffffffffffffffffffff82169050919050565b600061212f82612104565b9050919050565b61213f81612124565b82525050565b60008115159050919050565b61215a81612145565b82525050565b600061018083016000830151848203600086015261217e82826120bc565b915050602083015161219360208601826120f5565b5060408301516121a66040860182612136565b5060608301516121b96060860182612136565b5060808301516121cc6080860182612151565b5060a083015184820360a08601526121e482826120bc565b91505060c083015184820360c08601526121fe82826120bc565b91505060e083015184820360e086015261221882826120bc565b91505061010083015161222f6101008601826120f5565b506101208301516122446101208601826120f5565b5061014083015184820361014086015261225e82826120bc565b91505061016083015184820361016086015261227a82826120bc565b9150508091505092915050565b60006122938383612160565b905092915050565b6000602082019050919050565b60006122b38261204a565b6122bd8185612055565b9350836020820285016122cf85612066565b8060005b8581101561230b57848403895281516122ec8582612287565b94506122f78361229b565b925060208a019950506001810190506122d3565b50829750879550505050505092915050565b6000602082019050818103600083015261233781846122a8565b905092915050565b60006020828403121561235557612354611e1f565b5b600061236384828501611fd9565b91505092915050565b600082825260208201905092915050565b600061238882612076565b612392818561236c565b93506123a2818560208601612092565b6123ab81611e33565b840191505092915050565b6123bf81611fb8565b82525050565b6123ce81612124565b82525050565b6123dd81612145565b82525050565b60006101808201905081810360008301526123fe818f61237d565b905061240d602083018e6123b6565b61241a604083018d6123c5565b612427606083018c6123c5565b612434608083018b6123d4565b81810360a0830152612446818a61237d565b905081810360c083015261245a818961237d565b905081810360e083015261246e818861237d565b905061247e6101008301876123b6565b61248c6101208301866123b6565b81810361014083015261249f818561237d565b90508181036101608301526124b4818461237d565b90509d9c50505050505050505050505050565b6124d081612124565b81146124db57600080fd5b50565b6000813590506124ed816124c7565b92915050565b60006020828403121561250957612508611e1f565b5b6000612517848285016124de565b91505092915050565b600060208201905061253560008301846123d4565b92915050565b600061018083016000830151848203600086015261255982826120bc565b915050602083015161256e60208601826120f5565b5060408301516125816040860182612136565b5060608301516125946060860182612136565b5060808301516125a76080860182612151565b5060a083015184820360a08601526125bf82826120bc565b91505060c083015184820360c08601526125d982826120bc565b91505060e083015184820360e08601526125f382826120bc565b91505061010083015161260a6101008601826120f5565b5061012083015161261f6101208601826120f5565b5061014083015184820361014086015261263982826120bc565b91505061016083015184820361016086015261265582826120bc565b9150508091505092915050565b6000602082019050818103600083015261267c818461253b565b905092915050565b600060208201905061269960008301846123b6565b92915050565b6000819050919050565b60006126c46126bf6126ba84612104565b61269f565b612104565b9050919050565b60006126d6826126a9565b9050919050565b60006126e8826126cb565b9050919050565b6126f8816126dd565b82525050565b600060208201905061271360008301846126ef565b92915050565b600060208201905061272e60008301846123c5565b92915050565b600080600080600080600060e0888a03121561275357612752611e1f565b5b600088013567ffffffffffffffff81111561277157612770611e24565b5b61277d8a828b01611f41565b975050602061278e8a828b01611fd9565b965050604088013567ffffffffffffffff8111156127af576127ae611e24565b5b6127bb8a828b01611f41565b955050606088013567ffffffffffffffff8111156127dc576127db611e24565b5b6127e88a828b01611f41565b945050608088013567ffffffffffffffff81111561280957612808611e24565b5b6128158a828b01611f41565b93505060a06128268a828b01611fd9565b92505060c088013567ffffffffffffffff81111561284757612846611e24565b5b6128538a828b01611f41565b91505092959891949750929550565b7f436f6d70616e7920616c72656164792072656769737465726564000000000000600082015250565b6000612898601a8361236c565b91506128a382612862565b602082019050919050565b600060208201905081810360008301526128c78161288b565b9050919050565b60006040820190506128e360008301856123c5565b81810360208301526128f5818461237d565b90509392505050565b7f4e465420646f6573206e6f742065786973740000000000000000000000000000600082015250565b600061293460128361236c565b915061293f826128fe565b602082019050919050565b6000602082019050818103600083015261296381612927565b9050919050565b7f4e487b7100000000000000000000000000000000000000000000000000000000600052603260045260246000fd5b7f596f7520616c7265616479206f776e2074686973204e46540000000000000000600082015250565b60006129cf60188361236c565b91506129da82612999565b602082019050919050565b600060208201905081810360008301526129fe816129c2565b9050919050565b6000606082019050612a1a60008301866123c5565b612a2760208301856123c5565b612a3460408301846123b6565b949350505050565b612a4581612145565b8114612a5057600080fd5b50565b600081519050612a6281612a3c565b92915050565b600060208284031215612a7e57612a7d611e1f565b5b6000612a8c84828501612a53565b91505092915050565b7f525744207472616e73666572206661696c656400000000000000000000000000600082015250565b6000612acb60138361236c565b9150612ad682612a95565b602082019050919050565b60006020820190508181036000830152612afa81612abe565b9050919050565b7f4e487b7100000000000000000000000000000000000000000000000000000000600052602260045260246000fd5b60006002820490506001821680612b4857607f821691505b602082108103612b5b57612b5a612b01565b5b50919050565b60008190508160005260206000209050919050565b60006020601f8301049050919050565b600082821b905092915050565b600060088302612bc37fffffffffffffffffffffffffffffffffffffffffffffffffffffffffffffffff82612b86565b612bcd8683612b86565b95508019841693508086168417925050509392505050565b6000612c00612bfb612bf684611fb8565b61269f565b611fb8565b9050919050565b6000819050919050565b612c1a83612be5565b612c2e612c2682612c07565b848454612b93565b825550505050565b600090565b612c43612c36565b612c4e818484612c11565b505050565b5b81811015612c7257612c67600082612c3b565b600181019050612c54565b5050565b601f821115612cb757612c8881612b61565b612c9184612b76565b81016020851015612ca0578190505b612cb4612cac85612b76565b830182612c53565b50505b505050565b600082821c905092915050565b6000612cda60001984600802612cbc565b1980831691505092915050565b6000612cf38383612cc9565b9150826002028217905092915050565b612d0c82612076565b67ffffffffffffffff811115612d2557612d24611e44565b5b612d2f8254612b30565b612d3a828285612c76565b600060209050601f831160018114612d6d5760008415612d5b578287015190505b612d658582612ce7565b865550612dcd565b601f198416612d7b86612b61565b60005b82811015612da357848901518255600182019150602085019450602081019050612d7e565b86831015612dc05784890151612dbc601f891682612cc9565b8355505b6001600288020188555050505b505050505050565b60008154612de281612b30565b612dec818661236c565b94506001821660008114612e075760018114612e1d57612e50565b60ff198316865281151560200286019350612e50565b612e2685612b61565b60005b83811015612e4857815481890152600182019150602081019050612e29565b808801955050505b50505092915050565b6000608082019050612e6e60008301876123c5565b8181036020830152612e808186612dd5565b9050612e8f60408301856123b6565b612e9c60608301846123c5565b95945050505050565b7f596f7520617265206e6f742061207265676973746572656420636f6d70616e79600082015250565b6000612edb60208361236c565b9150612ee682612ea5565b602082019050919050565b60006020820190508181036000830152612f0a81612ece565b9050919050565b7f5072696365206d7573742062652067726561746572207468616e207a65726f00600082015250565b6000612f47601f8361236c565b9150612f5282612f11565b602082019050919050565b60006020820190508181036000830152612f7681612f3a565b9050919050565b6000606082019050612f9260008301866123c5565b8181036020830152612fa4818561237d565b9050612fb360408301846123b6565b949350505050565b7f596f752063616e206f6e6c792073656c6c20796f7572206f776e204e46540000600082015250565b6000612ff1601e8361236c565b9150612ffc82612fbb565b602082019050919050565b6000602082019050818103600083015261302081612fe4565b905091905056fea2646970667358221220053b268bd699ab7a8962eac3aaa55f91fecd5ba553c09c46f2785af0de3453a064736f6c634300081a0033",
  "immutableReferences": {},
  "source": "// SPDX-License-Identifier: MIT\r\n\r\npragma solidity >=0.8.19 <0.9.0;\r\n\r\nimport \"@openzeppelin/contracts/token/ERC20/IERC20.sol\";\r\nimport \"@openzeppelin/contracts/access/Ownable.sol\";\r\n\r\ncontract CompanyNFT is Ownable {\r\n    IERC20 public rwdToken;\r\n    address public rwdTokenDeployer;\r\n\r\n    struct NFT {\r\n        string name; //\r\n        uint256 price; //\r\n        address owner; \r\n        address RealOwner; \r\n        bool CurrentlyUnder; \r\n        string NftImage; //\r\n        string AddImage; //\r\n        string Desc; //\r\n        uint256 Duration; //\r\n        uint256 DateReleased;\r\n        string MessageToOwner;\r\n        string MessageFromOwner;\r\n    }\r\n\r\n    mapping(address => bool) public registeredCompanies;\r\n    NFT[] public nfts;\r\n\r\n    event CompanyRegistered(address company, string name);\r\n    event NFTReleased(address company, string name, uint256 price);\r\n    event NFTBought(address buyer, string name, uint256 price, address owner);\r\n    event NFTSold(address seller, string name, uint256 price, address buyer);\r\n\r\n    constructor(IERC20 _rwdToken, address _rwdTokenDeployer) Ownable(msg.sender) {\r\n    rwdToken = _rwdToken;\r\n    rwdTokenDeployer = _rwdTokenDeployer;\r\n}\r\n\r\n    modifier onlyRegisteredCompany() {\r\n        require(registeredCompanies[msg.sender], \"You are not a registered company\");\r\n        _;\r\n    }\r\n\r\n    function registerCompany(string memory name) external {\r\n        require(!registeredCompanies[msg.sender], \"Company already registered\");\r\n        registeredCompanies[msg.sender] = true;\r\n        emit CompanyRegistered(msg.sender, name);\r\n    }\r\n\r\n    function releaseNFT(string memory name, uint256 price ,string memory _nftImage,\r\n        string memory addImage,\r\n        string memory desc,\r\n        uint256 duration,\r\n        string memory msgFrom ) external onlyRegisteredCompany {\r\n        require(price > 0, \"Price must be greater than zero\");\r\n        nfts.push(NFT({\r\n            name: name,\r\n            price: price,\r\n            owner: msg.sender,\r\n            RealOwner: msg.sender,\r\n            CurrentlyUnder: false,\r\n            NftImage: _nftImage,\r\n            AddImage: addImage,\r\n            Desc: desc,\r\n            Duration: duration,\r\n            DateReleased: block.timestamp,\r\n            MessageToOwner: \"\",\r\n            MessageFromOwner: msgFrom\r\n        }));\r\n        emit NFTReleased(msg.sender, name, price);\r\n    }\r\n\r\n    function buyNFT(uint256 nftIndex, string memory msgToOwner) external {\r\n        require(nftIndex < nfts.length, \"NFT does not exist\");\r\n        NFT storage nft = nfts[nftIndex];\r\n        require(nft.owner != msg.sender, \"You already own this NFT\");\r\n        require(rwdToken.transferFrom(msg.sender, nft.owner, nft.price), \"RWD transfer failed\");\r\n\r\n        nft.owner = msg.sender;\r\n        nft.CurrentlyUnder = true;\r\n        nft.MessageToOwner = msgToOwner;\r\n        emit NFTBought(msg.sender, nft.name, nft.price, nft.owner);\r\n    }\r\n\r\n    function sellNFT(uint256 nftIndex) external {\r\n        require(nftIndex < nfts.length, \"NFT does not exist\");\r\n        NFT storage nft = nfts[nftIndex];\r\n        require(nft.owner == msg.sender, \"You can only sell your own NFT\");\r\n\r\n        require(rwdToken.transferFrom(rwdTokenDeployer, msg.sender, nft.price), \"RWD transfer failed\");\r\n        nft.owner = rwdTokenDeployer;\r\n        nft.CurrentlyUnder = false;\r\n        nft.MessageToOwner = \"\";\r\n        emit NFTSold(msg.sender, nft.name, nft.price, rwdTokenDeployer);\r\n    }\r\n\r\n    function getNFTs() external view returns (NFT[] memory) {\r\n        return nfts;\r\n    }\r\n\r\n    function getNFT(uint256 index) external view returns (NFT memory) {\r\n        require(index < nfts.length, \"NFT does not exist\");\r\n        return nfts[index];\r\n    }\r\n\r\n    function nextTokenId() external view returns (uint256) {\r\n        return nfts.length;\r\n    }\r\n    function isCompanyRegistered(address account) public view returns (bool) {\r\n        return registeredCompanies[account];\r\n    }\r\n}\r\n",
  "sourcePath": "E:\\Blockchain\\defi-staking-app-starter\\src\\contracts\\CompanyNFThandle.sol",
  "compiler": {
    "name": "solc",
    "version": "0.8.26+commit.8a97fa7a.Emscripten.clang"
  },
  "schemaVersion": "3.4.16",
  "updatedAt": "2024-06-02T18:51:20.928Z",
  "devdoc": {
    "errors": {
      "OwnableInvalidOwner(address)": [
        {
          "details": "The owner is not a valid owner account. (eg. `address(0)`)"
        }
      ],
      "OwnableUnauthorizedAccount(address)": [
        {
          "details": "The caller account is not authorized to perform an operation."
        }
      ]
    },
    "kind": "dev",
    "methods": {
      "owner()": {
        "details": "Returns the address of the current owner."
      },
      "renounceOwnership()": {
        "details": "Leaves the contract without owner. It will not be possible to call `onlyOwner` functions. Can only be called by the current owner. NOTE: Renouncing ownership will leave the contract without an owner, thereby disabling any functionality that is only available to the owner."
      },
      "transferOwnership(address)": {
        "details": "Transfers ownership of the contract to a new account (`newOwner`). Can only be called by the current owner."
      }
    },
    "version": 1
  },
  "userdoc": {
    "kind": "user",
    "methods": {},
    "version": 1
  }
}