{
  "contractName": "CompanyNFT",
  "abi": [
    {
      "inputs": [
        {
          "internalType": "address",
          "name": "_tradeContract",
          "type": "address"
        }
      ],
      "stateMutability": "nonpayable",
      "type": "constructor"
    },
    {
      "inputs": [
        {
          "internalType": "address",
          "name": "sender",
          "type": "address"
        },
        {
          "internalType": "uint256",
          "name": "tokenId",
          "type": "uint256"
        },
        {
          "internalType": "address",
          "name": "owner",
          "type": "address"
        }
      ],
      "name": "ERC721IncorrectOwner",
      "type": "error"
    },
    {
      "inputs": [
        {
          "internalType": "address",
          "name": "operator",
          "type": "address"
        },
        {
          "internalType": "uint256",
          "name": "tokenId",
          "type": "uint256"
        }
      ],
      "name": "ERC721InsufficientApproval",
      "type": "error"
    },
    {
      "inputs": [
        {
          "internalType": "address",
          "name": "approver",
          "type": "address"
        }
      ],
      "name": "ERC721InvalidApprover",
      "type": "error"
    },
    {
      "inputs": [
        {
          "internalType": "address",
          "name": "operator",
          "type": "address"
        }
      ],
      "name": "ERC721InvalidOperator",
      "type": "error"
    },
    {
      "inputs": [
        {
          "internalType": "address",
          "name": "owner",
          "type": "address"
        }
      ],
      "name": "ERC721InvalidOwner",
      "type": "error"
    },
    {
      "inputs": [
        {
          "internalType": "address",
          "name": "receiver",
          "type": "address"
        }
      ],
      "name": "ERC721InvalidReceiver",
      "type": "error"
    },
    {
      "inputs": [
        {
          "internalType": "address",
          "name": "sender",
          "type": "address"
        }
      ],
      "name": "ERC721InvalidSender",
      "type": "error"
    },
    {
      "inputs": [
        {
          "internalType": "uint256",
          "name": "tokenId",
          "type": "uint256"
        }
      ],
      "name": "ERC721NonexistentToken",
      "type": "error"
    },
    {
      "anonymous": false,
      "inputs": [
        {
          "indexed": true,
          "internalType": "address",
          "name": "owner",
          "type": "address"
        },
        {
          "indexed": true,
          "internalType": "address",
          "name": "approved",
          "type": "address"
        },
        {
          "indexed": true,
          "internalType": "uint256",
          "name": "tokenId",
          "type": "uint256"
        }
      ],
      "name": "Approval",
      "type": "event"
    },
    {
      "anonymous": false,
      "inputs": [
        {
          "indexed": true,
          "internalType": "address",
          "name": "owner",
          "type": "address"
        },
        {
          "indexed": true,
          "internalType": "address",
          "name": "operator",
          "type": "address"
        },
        {
          "indexed": false,
          "internalType": "bool",
          "name": "approved",
          "type": "bool"
        }
      ],
      "name": "ApprovalForAll",
      "type": "event"
    },
    {
      "anonymous": false,
      "inputs": [
        {
          "indexed": false,
          "internalType": "address",
          "name": "companyAddress",
          "type": "address"
        },
        {
          "indexed": false,
          "internalType": "string",
          "name": "name",
          "type": "string"
        }
      ],
      "name": "CompanyRegistered",
      "type": "event"
    },
    {
      "anonymous": false,
      "inputs": [
        {
          "indexed": false,
          "internalType": "address",
          "name": "companyAddress",
          "type": "address"
        },
        {
          "indexed": false,
          "internalType": "uint256",
          "name": "tokenId",
          "type": "uint256"
        }
      ],
      "name": "ImpressionIncreased",
      "type": "event"
    },
    {
      "anonymous": false,
      "inputs": [
        {
          "indexed": false,
          "internalType": "uint256",
          "name": "tokenId",
          "type": "uint256"
        }
      ],
      "name": "NFTBurned",
      "type": "event"
    },
    {
      "anonymous": false,
      "inputs": [
        {
          "indexed": false,
          "internalType": "address",
          "name": "companyAddress",
          "type": "address"
        },
        {
          "indexed": false,
          "internalType": "uint256",
          "name": "tokenId",
          "type": "uint256"
        },
        {
          "indexed": false,
          "internalType": "string",
          "name": "name",
          "type": "string"
        },
        {
          "indexed": false,
          "internalType": "uint256",
          "name": "duration",
          "type": "uint256"
        }
      ],
      "name": "NFTReleased",
      "type": "event"
    },
    {
      "anonymous": false,
      "inputs": [
        {
          "indexed": true,
          "internalType": "address",
          "name": "from",
          "type": "address"
        },
        {
          "indexed": true,
          "internalType": "address",
          "name": "to",
          "type": "address"
        },
        {
          "indexed": true,
          "internalType": "uint256",
          "name": "tokenId",
          "type": "uint256"
        }
      ],
      "name": "Transfer",
      "type": "event"
    },
    {
      "inputs": [
        {
          "internalType": "address",
          "name": "to",
          "type": "address"
        },
        {
          "internalType": "uint256",
          "name": "tokenId",
          "type": "uint256"
        }
      ],
      "name": "approve",
      "outputs": [],
      "stateMutability": "nonpayable",
      "type": "function"
    },
    {
      "inputs": [
        {
          "internalType": "address",
          "name": "owner",
          "type": "address"
        }
      ],
      "name": "balanceOf",
      "outputs": [
        {
          "internalType": "uint256",
          "name": "",
          "type": "uint256"
        }
      ],
      "stateMutability": "view",
      "type": "function",
      "constant": true
    },
    {
      "inputs": [
        {
          "internalType": "address",
          "name": "",
          "type": "address"
        }
      ],
      "name": "companies",
      "outputs": [
        {
          "internalType": "address payable",
          "name": "companyAddress",
          "type": "address"
        },
        {
          "internalType": "string",
          "name": "name",
          "type": "string"
        }
      ],
      "stateMutability": "view",
      "type": "function",
      "constant": true
    },
    {
      "inputs": [
        {
          "internalType": "uint256",
          "name": "tokenId",
          "type": "uint256"
        }
      ],
      "name": "getApproved",
      "outputs": [
        {
          "internalType": "address",
          "name": "",
          "type": "address"
        }
      ],
      "stateMutability": "view",
      "type": "function",
      "constant": true
    },
    {
      "inputs": [
        {
          "internalType": "address",
          "name": "owner",
          "type": "address"
        },
        {
          "internalType": "address",
          "name": "operator",
          "type": "address"
        }
      ],
      "name": "isApprovedForAll",
      "outputs": [
        {
          "internalType": "bool",
          "name": "",
          "type": "bool"
        }
      ],
      "stateMutability": "view",
      "type": "function",
      "constant": true
    },
    {
      "inputs": [],
      "name": "name",
      "outputs": [
        {
          "internalType": "string",
          "name": "",
          "type": "string"
        }
      ],
      "stateMutability": "view",
      "type": "function",
      "constant": true
    },
    {
      "inputs": [],
      "name": "nextTokenId",
      "outputs": [
        {
          "internalType": "uint256",
          "name": "",
          "type": "uint256"
        }
      ],
      "stateMutability": "view",
      "type": "function",
      "constant": true
    },
    {
      "inputs": [
        {
          "internalType": "uint256",
          "name": "",
          "type": "uint256"
        }
      ],
      "name": "nfts",
      "outputs": [
        {
          "internalType": "string",
          "name": "name",
          "type": "string"
        },
        {
          "internalType": "uint256",
          "name": "duration",
          "type": "uint256"
        },
        {
          "internalType": "uint256",
          "name": "price",
          "type": "uint256"
        },
        {
          "internalType": "bool",
          "name": "isOwned",
          "type": "bool"
        },
        {
          "internalType": "uint256",
          "name": "popularityIndex",
          "type": "uint256"
        },
        {
          "internalType": "uint256",
          "name": "creationTime",
          "type": "uint256"
        }
      ],
      "stateMutability": "view",
      "type": "function",
      "constant": true
    },
    {
      "inputs": [
        {
          "internalType": "uint256",
          "name": "tokenId",
          "type": "uint256"
        }
      ],
      "name": "ownerOf",
      "outputs": [
        {
          "internalType": "address",
          "name": "",
          "type": "address"
        }
      ],
      "stateMutability": "view",
      "type": "function",
      "constant": true
    },
    {
      "inputs": [
        {
          "internalType": "address",
          "name": "",
          "type": "address"
        }
      ],
      "name": "popularityIndex",
      "outputs": [
        {
          "internalType": "uint256",
          "name": "",
          "type": "uint256"
        }
      ],
      "stateMutability": "view",
      "type": "function",
      "constant": true
    },
    {
      "inputs": [
        {
          "internalType": "address",
          "name": "from",
          "type": "address"
        },
        {
          "internalType": "address",
          "name": "to",
          "type": "address"
        },
        {
          "internalType": "uint256",
          "name": "tokenId",
          "type": "uint256"
        }
      ],
      "name": "safeTransferFrom",
      "outputs": [],
      "stateMutability": "nonpayable",
      "type": "function"
    },
    {
      "inputs": [
        {
          "internalType": "address",
          "name": "from",
          "type": "address"
        },
        {
          "internalType": "address",
          "name": "to",
          "type": "address"
        },
        {
          "internalType": "uint256",
          "name": "tokenId",
          "type": "uint256"
        },
        {
          "internalType": "bytes",
          "name": "data",
          "type": "bytes"
        }
      ],
      "name": "safeTransferFrom",
      "outputs": [],
      "stateMutability": "nonpayable",
      "type": "function"
    },
    {
      "inputs": [
        {
          "internalType": "address",
          "name": "operator",
          "type": "address"
        },
        {
          "internalType": "bool",
          "name": "approved",
          "type": "bool"
        }
      ],
      "name": "setApprovalForAll",
      "outputs": [],
      "stateMutability": "nonpayable",
      "type": "function"
    },
    {
      "inputs": [
        {
          "internalType": "bytes4",
          "name": "interfaceId",
          "type": "bytes4"
        }
      ],
      "name": "supportsInterface",
      "outputs": [
        {
          "internalType": "bool",
          "name": "",
          "type": "bool"
        }
      ],
      "stateMutability": "view",
      "type": "function",
      "constant": true
    },
    {
      "inputs": [],
      "name": "symbol",
      "outputs": [
        {
          "internalType": "string",
          "name": "",
          "type": "string"
        }
      ],
      "stateMutability": "view",
      "type": "function",
      "constant": true
    },
    {
      "inputs": [
        {
          "internalType": "uint256",
          "name": "tokenId",
          "type": "uint256"
        }
      ],
      "name": "tokenURI",
      "outputs": [
        {
          "internalType": "string",
          "name": "",
          "type": "string"
        }
      ],
      "stateMutability": "view",
      "type": "function",
      "constant": true
    },
    {
      "inputs": [],
      "name": "tradeContract",
      "outputs": [
        {
          "internalType": "address",
          "name": "",
          "type": "address"
        }
      ],
      "stateMutability": "view",
      "type": "function",
      "constant": true
    },
    {
      "inputs": [
        {
          "internalType": "address",
          "name": "from",
          "type": "address"
        },
        {
          "internalType": "address",
          "name": "to",
          "type": "address"
        },
        {
          "internalType": "uint256",
          "name": "tokenId",
          "type": "uint256"
        }
      ],
      "name": "transferFrom",
      "outputs": [],
      "stateMutability": "nonpayable",
      "type": "function"
    },
    {
      "inputs": [
        {
          "internalType": "string",
          "name": "_name",
          "type": "string"
        }
      ],
      "name": "registerCompany",
      "outputs": [],
      "stateMutability": "nonpayable",
      "type": "function"
    },
    {
      "inputs": [
        {
          "internalType": "string",
          "name": "_name",
          "type": "string"
        },
        {
          "internalType": "uint256",
          "name": "_duration",
          "type": "uint256"
        },
        {
          "internalType": "uint256",
          "name": "_price",
          "type": "uint256"
        }
      ],
      "name": "releaseNFT",
      "outputs": [],
      "stateMutability": "nonpayable",
      "type": "function"
    },
    {
      "inputs": [
        {
          "internalType": "uint256",
          "name": "tokenId",
          "type": "uint256"
        }
      ],
      "name": "burnNFT",
      "outputs": [],
      "stateMutability": "nonpayable",
      "type": "function"
    },
    {
      "inputs": [
        {
          "internalType": "uint256",
          "name": "tokenId",
          "type": "uint256"
        }
      ],
      "name": "impression",
      "outputs": [],
      "stateMutability": "nonpayable",
      "type": "function"
    },
    {
      "inputs": [
        {
          "internalType": "uint256",
          "name": "tokenId",
          "type": "uint256"
        },
        {
          "internalType": "bool",
          "name": "isOwned",
          "type": "bool"
        }
      ],
      "name": "updateNFTStatus",
      "outputs": [],
      "stateMutability": "nonpayable",
      "type": "function"
    }
  ],
  "bytecode": "0x608060405234801561001057600080fd5b506040516135c23803806135c283398181016040528101906100329190610172565b6040518060400160405280600b81526020017f436f6d70616e794e616d650000000000000000000000000000000000000000008152506040518060400160405280600381526020017f434e4d000000000000000000000000000000000000000000000000000000000081525081600090816100ad91906103ef565b5080600190816100bd91906103ef565b50505080600960006101000a81548173ffffffffffffffffffffffffffffffffffffffff021916908373ffffffffffffffffffffffffffffffffffffffff1602179055506000600a81905550506104c1565b600080fd5b600073ffffffffffffffffffffffffffffffffffffffff82169050919050565b600061013f82610114565b9050919050565b61014f81610134565b811461015a57600080fd5b50565b60008151905061016c81610146565b92915050565b6000602082840312156101885761018761010f565b5b60006101968482850161015d565b91505092915050565b600081519050919050565b7f4e487b7100000000000000000000000000000000000000000000000000000000600052604160045260246000fd5b7f4e487b7100000000000000000000000000000000000000000000000000000000600052602260045260246000fd5b6000600282049050600182168061022057607f821691505b602082108103610233576102326101d9565b5b50919050565b60008190508160005260206000209050919050565b60006020601f8301049050919050565b600082821b905092915050565b60006008830261029b7fffffffffffffffffffffffffffffffffffffffffffffffffffffffffffffffff8261025e565b6102a5868361025e565b95508019841693508086168417925050509392505050565b6000819050919050565b6000819050919050565b60006102ec6102e76102e2846102bd565b6102c7565b6102bd565b9050919050565b6000819050919050565b610306836102d1565b61031a610312826102f3565b84845461026b565b825550505050565b600090565b61032f610322565b61033a8184846102fd565b505050565b5b8181101561035e57610353600082610327565b600181019050610340565b5050565b601f8211156103a35761037481610239565b61037d8461024e565b8101602085101561038c578190505b6103a06103988561024e565b83018261033f565b50505b505050565b600082821c905092915050565b60006103c6600019846008026103a8565b1980831691505092915050565b60006103df83836103b5565b9150826002028217905092915050565b6103f88261019f565b67ffffffffffffffff811115610411576104106101aa565b5b61041b8254610208565b610426828285610362565b600060209050601f8311600181146104595760008415610447578287015190505b61045185826103d3565b8655506104b9565b601f19841661046786610239565b60005b8281101561048f5784890151825560018201915060208501945060208101905061046a565b868310156104ac57848901516104a8601f8916826103b5565b8355505b6001600288020188555050505b505050505050565b6130f2806104d06000396000f3fe608060405234801561001057600080fd5b506004361061014c5760003560e01c806347282a2a116100c3578063a22cb4651161007c578063a22cb465146103b1578063b88d4fde146103cd578063c87b56dd146103e9578063e76caad214610419578063e985e9c514610449578063ffa640d8146104795761014c565b806347282a2a146102dd5780634827c7a5146102f95780636352211e1461031557806370a082311461034557806375794a3c1461037557806395d89b41146103935761014c565b8063204a0b8d11610115578063204a0b8d1461020757806323b872dd14610223578063265aa6211461023f5780632890e0d714610274578063355e6ce81461029057806342842e0e146102c15761014c565b80625441941461015157806301ffc9a71461016d57806306fdde031461019d578063081812fc146101bb578063095ea7b3146101eb575b600080fd5b61016b6004803603810190610166919061224b565b610497565b005b610187600480360381019061018291906122ec565b61066e565b6040516101949190612334565b60405180910390f35b6101a5610750565b6040516101b291906123ce565b60405180910390f35b6101d560048036038101906101d09190612426565b6107e2565b6040516101e29190612494565b60405180910390f35b610205600480360381019061020091906124db565b6107fe565b005b610221600480360381019061021c919061251b565b610814565b005b61023d6004803603810190610238919061258a565b610a18565b005b61025960048036038101906102549190612426565b610b1a565b60405161026b969594939291906125ec565b60405180910390f35b61028e60048036038101906102899190612426565b610beb565b005b6102aa60048036038101906102a59190612654565b610cfe565b6040516102b89291906126a2565b60405180910390f35b6102db60048036038101906102d6919061258a565b610dca565b005b6102f760048036038101906102f291906126fe565b610dea565b005b610313600480360381019061030e9190612426565b610eac565b005b61032f600480360381019061032a9190612426565b610ffb565b60405161033c9190612494565b60405180910390f35b61035f600480360381019061035a9190612654565b61100d565b60405161036c919061273e565b60405180910390f35b61037d6110c7565b60405161038a919061273e565b60405180910390f35b61039b6110cd565b6040516103a891906123ce565b60405180910390f35b6103cb60048036038101906103c69190612759565b61115f565b005b6103e760048036038101906103e2919061283a565b611175565b005b61040360048036038101906103fe9190612426565b611192565b60405161041091906123ce565b60405180910390f35b610433600480360381019061042e9190612654565b6111fb565b604051610440919061273e565b60405180910390f35b610463600480360381019061045e91906128bd565b611213565b6040516104709190612334565b60405180910390f35b6104816112a7565b60405161048e9190612494565b60405180910390f35b600073ffffffffffffffffffffffffffffffffffffffff16600660003373ffffffffffffffffffffffffffffffffffffffff1673ffffffffffffffffffffffffffffffffffffffff16815260200190815260200160002060000160009054906101000a900473ffffffffffffffffffffffffffffffffffffffff1673ffffffffffffffffffffffffffffffffffffffff1614610568576040517f08c379a000000000000000000000000000000000000000000000000000000000815260040161055f90612949565b60405180910390fd5b60405180604001604052803373ffffffffffffffffffffffffffffffffffffffff16815260200182815250600660003373ffffffffffffffffffffffffffffffffffffffff1673ffffffffffffffffffffffffffffffffffffffff16815260200190815260200160002060008201518160000160006101000a81548173ffffffffffffffffffffffffffffffffffffffff021916908373ffffffffffffffffffffffffffffffffffffffff160217905550602082015181600101908161062e9190612b75565b509050507f76686aa361308f4a08557cca1a847299ce61e5602a3495cd359a599a1dca438c3382604051610663929190612c47565b60405180910390a150565b60007f80ac58cd000000000000000000000000000000000000000000000000000000007bffffffffffffffffffffffffffffffffffffffffffffffffffffffff1916827bffffffffffffffffffffffffffffffffffffffffffffffffffffffff1916148061073957507f5b5e139f000000000000000000000000000000000000000000000000000000007bffffffffffffffffffffffffffffffffffffffffffffffffffffffff1916827bffffffffffffffffffffffffffffffffffffffffffffffffffffffff1916145b806107495750610748826112cd565b5b9050919050565b60606000805461075f90612998565b80601f016020809104026020016040519081016040528092919081815260200182805461078b90612998565b80156107d85780601f106107ad576101008083540402835291602001916107d8565b820191906000526020600020905b8154815290600101906020018083116107bb57829003601f168201915b5050505050905090565b60006107ed82611337565b506107f7826113bf565b9050919050565b610810828261080b6113fc565b611404565b5050565b600073ffffffffffffffffffffffffffffffffffffffff16600660003373ffffffffffffffffffffffffffffffffffffffff1673ffffffffffffffffffffffffffffffffffffffff16815260200190815260200160002060000160009054906101000a900473ffffffffffffffffffffffffffffffffffffffff1673ffffffffffffffffffffffffffffffffffffffff16036108e5576040517f08c379a00000000000000000000000000000000000000000000000000000000081526004016108dc90612cc3565b60405180910390fd5b6000600a549050600a60008154809291906108ff90612d12565b9190505550610930600960009054906101000a900473ffffffffffffffffffffffffffffffffffffffff1682611416565b6040518060c0016040528085815260200184815260200183815260200160001515815260200160008152602001428152506007600083815260200190815260200160002060008201518160000190816109899190612b75565b50602082015181600101556040820151816002015560608201518160030160006101000a81548160ff0219169083151502179055506080820151816004015560a082015181600501559050507f2fc8798258bbd6b1aa66d8289a3e9f14b6ba6ecc128fea8136df9ed7c8c0ef6933828686604051610a0a9493929190612d5a565b60405180910390a150505050565b600073ffffffffffffffffffffffffffffffffffffffff168273ffffffffffffffffffffffffffffffffffffffff1603610a8a5760006040517f64a0ae92000000000000000000000000000000000000000000000000000000008152600401610a819190612494565b60405180910390fd5b6000610a9e8383610a996113fc565b61150f565b90508373ffffffffffffffffffffffffffffffffffffffff168173ffffffffffffffffffffffffffffffffffffffff1614610b14578382826040517f64283d7b000000000000000000000000000000000000000000000000000000008152600401610b0b93929190612da6565b60405180910390fd5b50505050565b6007602052806000526040600020600091509050806000018054610b3d90612998565b80601f0160208091040260200160405190810160405280929190818152602001828054610b6990612998565b8015610bb65780601f10610b8b57610100808354040283529160200191610bb6565b820191906000526020600020905b815481529060010190602001808311610b9957829003601f168201915b5050505050908060010154908060020154908060030160009054906101000a900460ff16908060040154908060050154905086565b3373ffffffffffffffffffffffffffffffffffffffff16610c0b82610ffb565b73ffffffffffffffffffffffffffffffffffffffff1614610c61576040517f08c379a0000000000000000000000000000000000000000000000000000000008152600401610c5890612e29565b60405180910390fd5b610c6a81611729565b6007600082815260200190815260200160002060008082016000610c8e9190612094565b600182016000905560028201600090556003820160006101000a81549060ff02191690556004820160009055600582016000905550507f3c176691ca154a2f6fe978a2a633a33ee77dbe2902e67a75400720845a4b2ce181604051610cf3919061273e565b60405180910390a150565b60066020528060005260406000206000915090508060000160009054906101000a900473ffffffffffffffffffffffffffffffffffffffff1690806001018054610d4790612998565b80601f0160208091040260200160405190810160405280929190818152602001828054610d7390612998565b8015610dc05780601f10610d9557610100808354040283529160200191610dc0565b820191906000526020600020905b815481529060010190602001808311610da357829003601f168201915b5050505050905082565b610de583838360405180602001604052806000815250611175565b505050565b600960009054906101000a900473ffffffffffffffffffffffffffffffffffffffff1673ffffffffffffffffffffffffffffffffffffffff163373ffffffffffffffffffffffffffffffffffffffff1614610e7a576040517f08c379a0000000000000000000000000000000000000000000000000000000008152600401610e7190612e95565b60405180910390fd5b806007600084815260200190815260200160002060030160006101000a81548160ff0219169083151502179055505050565b600073ffffffffffffffffffffffffffffffffffffffff16610ecd82610ffb565b73ffffffffffffffffffffffffffffffffffffffff1603610f23576040517f08c379a0000000000000000000000000000000000000000000000000000000008152600401610f1a90612f01565b60405180910390fd5b600060066000610f3284610ffb565b73ffffffffffffffffffffffffffffffffffffffff1673ffffffffffffffffffffffffffffffffffffffff16815260200190815260200160002060000160009054906101000a900473ffffffffffffffffffffffffffffffffffffffff169050600760008381526020019081526020016000206004016000815480929190610fb990612d12565b91905055507f6dee9015d3eb3d147ae0b4fafdfc062172ef0885c919b29fca2d5f7be01de2968183604051610fef929190612f21565b60405180910390a15050565b600061100682611337565b9050919050565b60008073ffffffffffffffffffffffffffffffffffffffff168273ffffffffffffffffffffffffffffffffffffffff16036110805760006040517f89c62b640000000000000000000000000000000000000000000000000000000081526004016110779190612494565b60405180910390fd5b600360008373ffffffffffffffffffffffffffffffffffffffff1673ffffffffffffffffffffffffffffffffffffffff168152602001908152602001600020549050919050565b600a5481565b6060600180546110dc90612998565b80601f016020809104026020016040519081016040528092919081815260200182805461110890612998565b80156111555780601f1061112a57610100808354040283529160200191611155565b820191906000526020600020905b81548152906001019060200180831161113857829003601f168201915b5050505050905090565b61117161116a6113fc565b83836117af565b5050565b611180848484610a18565b61118c8484848461191e565b50505050565b606061119d82611337565b5060006111a8611ad5565b905060008151116111c857604051806020016040528060008152506111f3565b806111d284611aec565b6040516020016111e3929190612f86565b6040516020818303038152906040525b915050919050565b60086020528060005260406000206000915090505481565b6000600560008473ffffffffffffffffffffffffffffffffffffffff1673ffffffffffffffffffffffffffffffffffffffff16815260200190815260200160002060008373ffffffffffffffffffffffffffffffffffffffff1673ffffffffffffffffffffffffffffffffffffffff16815260200190815260200160002060009054906101000a900460ff16905092915050565b600960009054906101000a900473ffffffffffffffffffffffffffffffffffffffff1681565b60007f01ffc9a7000000000000000000000000000000000000000000000000000000007bffffffffffffffffffffffffffffffffffffffffffffffffffffffff1916827bffffffffffffffffffffffffffffffffffffffffffffffffffffffff1916149050919050565b60008061134383611bba565b9050600073ffffffffffffffffffffffffffffffffffffffff168173ffffffffffffffffffffffffffffffffffffffff16036113b657826040517f7e2732890000000000000000000000000000000000000000000000000000000081526004016113ad919061273e565b60405180910390fd5b80915050919050565b60006004600083815260200190815260200160002060009054906101000a900473ffffffffffffffffffffffffffffffffffffffff169050919050565b600033905090565b6114118383836001611bf7565b505050565b600073ffffffffffffffffffffffffffffffffffffffff168273ffffffffffffffffffffffffffffffffffffffff16036114885760006040517f64a0ae9200000000000000000000000000000000000000000000000000000000815260040161147f9190612494565b60405180910390fd5b60006114968383600061150f565b9050600073ffffffffffffffffffffffffffffffffffffffff168173ffffffffffffffffffffffffffffffffffffffff161461150a5760006040517f73c6ac6e0000000000000000000000000000000000000000000000000000000081526004016115019190612494565b60405180910390fd5b505050565b60008061151b84611bba565b9050600073ffffffffffffffffffffffffffffffffffffffff168373ffffffffffffffffffffffffffffffffffffffff161461155d5761155c818486611dbc565b5b600073ffffffffffffffffffffffffffffffffffffffff168173ffffffffffffffffffffffffffffffffffffffff16146115ee5761159f600085600080611bf7565b6001600360008373ffffffffffffffffffffffffffffffffffffffff1673ffffffffffffffffffffffffffffffffffffffff168152602001908152602001600020600082825403925050819055505b600073ffffffffffffffffffffffffffffffffffffffff168573ffffffffffffffffffffffffffffffffffffffff1614611671576001600360008773ffffffffffffffffffffffffffffffffffffffff1673ffffffffffffffffffffffffffffffffffffffff168152602001908152602001600020600082825401925050819055505b846002600086815260200190815260200160002060006101000a81548173ffffffffffffffffffffffffffffffffffffffff021916908373ffffffffffffffffffffffffffffffffffffffff160217905550838573ffffffffffffffffffffffffffffffffffffffff168273ffffffffffffffffffffffffffffffffffffffff167fddf252ad1be2c89b69c2b068fc378daa952ba7f163c4a11628f55a4df523b3ef60405160405180910390a4809150509392505050565b6000611738600083600061150f565b9050600073ffffffffffffffffffffffffffffffffffffffff168173ffffffffffffffffffffffffffffffffffffffff16036117ab57816040517f7e2732890000000000000000000000000000000000000000000000000000000081526004016117a2919061273e565b60405180910390fd5b5050565b600073ffffffffffffffffffffffffffffffffffffffff168273ffffffffffffffffffffffffffffffffffffffff160361182057816040517f5b08ba180000000000000000000000000000000000000000000000000000000081526004016118179190612494565b60405180910390fd5b80600560008573ffffffffffffffffffffffffffffffffffffffff1673ffffffffffffffffffffffffffffffffffffffff16815260200190815260200160002060008473ffffffffffffffffffffffffffffffffffffffff1673ffffffffffffffffffffffffffffffffffffffff16815260200190815260200160002060006101000a81548160ff0219169083151502179055508173ffffffffffffffffffffffffffffffffffffffff168373ffffffffffffffffffffffffffffffffffffffff167f17307eab39ab6107e8899845ad3d59bd9653f200f220920489ca2b5937696c31836040516119119190612334565b60405180910390a3505050565b60008373ffffffffffffffffffffffffffffffffffffffff163b1115611acf578273ffffffffffffffffffffffffffffffffffffffff1663150b7a026119626113fc565b8685856040518563ffffffff1660e01b81526004016119849493929190612fff565b6020604051808303816000875af19250505080156119c057506040513d601f19601f820116820180604052508101906119bd9190613060565b60015b611a44573d80600081146119f0576040519150601f19603f3d011682016040523d82523d6000602084013e6119f5565b606091505b506000815103611a3c57836040517f64a0ae92000000000000000000000000000000000000000000000000000000008152600401611a339190612494565b60405180910390fd5b805181602001fd5b63150b7a0260e01b7bffffffffffffffffffffffffffffffffffffffffffffffffffffffff1916817bffffffffffffffffffffffffffffffffffffffffffffffffffffffff191614611acd57836040517f64a0ae92000000000000000000000000000000000000000000000000000000008152600401611ac49190612494565b60405180910390fd5b505b50505050565b606060405180602001604052806000815250905090565b606060006001611afb84611e80565b01905060008167ffffffffffffffff811115611b1a57611b19612120565b5b6040519080825280601f01601f191660200182016040528015611b4c5781602001600182028036833780820191505090505b509050600082602001820190505b600115611baf578080600190039150507f3031323334353637383961626364656600000000000000000000000000000000600a86061a8153600a8581611ba357611ba261308d565b5b04945060008503611b5a575b819350505050919050565b60006002600083815260200190815260200160002060009054906101000a900473ffffffffffffffffffffffffffffffffffffffff169050919050565b8080611c305750600073ffffffffffffffffffffffffffffffffffffffff168273ffffffffffffffffffffffffffffffffffffffff1614155b15611d64576000611c4084611337565b9050600073ffffffffffffffffffffffffffffffffffffffff168373ffffffffffffffffffffffffffffffffffffffff1614158015611cab57508273ffffffffffffffffffffffffffffffffffffffff168173ffffffffffffffffffffffffffffffffffffffff1614155b8015611cbe5750611cbc8184611213565b155b15611d0057826040517fa9fbf51f000000000000000000000000000000000000000000000000000000008152600401611cf79190612494565b60405180910390fd5b8115611d6257838573ffffffffffffffffffffffffffffffffffffffff168273ffffffffffffffffffffffffffffffffffffffff167f8c5be1e5ebec7d5bd14f71427d1e84f3dd0314c0f7b2291e5b200ac8c7c3b92560405160405180910390a45b505b836004600085815260200190815260200160002060006101000a81548173ffffffffffffffffffffffffffffffffffffffff021916908373ffffffffffffffffffffffffffffffffffffffff16021790555050505050565b611dc7838383611fd3565b611e7b57600073ffffffffffffffffffffffffffffffffffffffff168373ffffffffffffffffffffffffffffffffffffffff1603611e3c57806040517f7e273289000000000000000000000000000000000000000000000000000000008152600401611e33919061273e565b60405180910390fd5b81816040517f177e802f000000000000000000000000000000000000000000000000000000008152600401611e72929190612f21565b60405180910390fd5b505050565b600080600090507a184f03e93ff9f4daa797ed6e38ed64bf6a1f0100000000000000008310611ede577a184f03e93ff9f4daa797ed6e38ed64bf6a1f0100000000000000008381611ed457611ed361308d565b5b0492506040810190505b6d04ee2d6d415b85acef81000000008310611f1b576d04ee2d6d415b85acef81000000008381611f1157611f1061308d565b5b0492506020810190505b662386f26fc100008310611f4a57662386f26fc100008381611f4057611f3f61308d565b5b0492506010810190505b6305f5e1008310611f73576305f5e1008381611f6957611f6861308d565b5b0492506008810190505b6127108310611f98576127108381611f8e57611f8d61308d565b5b0492506004810190505b60648310611fbb5760648381611fb157611fb061308d565b5b0492506002810190505b600a8310611fca576001810190505b80915050919050565b60008073ffffffffffffffffffffffffffffffffffffffff168373ffffffffffffffffffffffffffffffffffffffff161415801561208b57508273ffffffffffffffffffffffffffffffffffffffff168473ffffffffffffffffffffffffffffffffffffffff16148061204c575061204b8484611213565b5b8061208a57508273ffffffffffffffffffffffffffffffffffffffff16612072836113bf565b73ffffffffffffffffffffffffffffffffffffffff16145b5b90509392505050565b5080546120a090612998565b6000825580601f106120b257506120d1565b601f0160209004906000526020600020908101906120d091906120d4565b5b50565b5b808211156120ed5760008160009055506001016120d5565b5090565b6000604051905090565b600080fd5b600080fd5b600080fd5b600080fd5b6000601f19601f8301169050919050565b7f4e487b7100000000000000000000000000000000000000000000000000000000600052604160045260246000fd5b6121588261210f565b810181811067ffffffffffffffff8211171561217757612176612120565b5b80604052505050565b600061218a6120f1565b9050612196828261214f565b919050565b600067ffffffffffffffff8211156121b6576121b5612120565b5b6121bf8261210f565b9050602081019050919050565b82818337600083830152505050565b60006121ee6121e98461219b565b612180565b90508281526020810184848401111561220a5761220961210a565b5b6122158482856121cc565b509392505050565b600082601f83011261223257612231612105565b5b81356122428482602086016121db565b91505092915050565b600060208284031215612261576122606120fb565b5b600082013567ffffffffffffffff81111561227f5761227e612100565b5b61228b8482850161221d565b91505092915050565b60007fffffffff0000000000000000000000000000000000000000000000000000000082169050919050565b6122c981612294565b81146122d457600080fd5b50565b6000813590506122e6816122c0565b92915050565b600060208284031215612302576123016120fb565b5b6000612310848285016122d7565b91505092915050565b60008115159050919050565b61232e81612319565b82525050565b60006020820190506123496000830184612325565b92915050565b600081519050919050565b600082825260208201905092915050565b60005b8381101561238957808201518184015260208101905061236e565b60008484015250505050565b60006123a08261234f565b6123aa818561235a565b93506123ba81856020860161236b565b6123c38161210f565b840191505092915050565b600060208201905081810360008301526123e88184612395565b905092915050565b6000819050919050565b612403816123f0565b811461240e57600080fd5b50565b600081359050612420816123fa565b92915050565b60006020828403121561243c5761243b6120fb565b5b600061244a84828501612411565b91505092915050565b600073ffffffffffffffffffffffffffffffffffffffff82169050919050565b600061247e82612453565b9050919050565b61248e81612473565b82525050565b60006020820190506124a96000830184612485565b92915050565b6124b881612473565b81146124c357600080fd5b50565b6000813590506124d5816124af565b92915050565b600080604083850312156124f2576124f16120fb565b5b6000612500858286016124c6565b925050602061251185828601612411565b9150509250929050565b600080600060608486031215612534576125336120fb565b5b600084013567ffffffffffffffff81111561255257612551612100565b5b61255e8682870161221d565b935050602061256f86828701612411565b925050604061258086828701612411565b9150509250925092565b6000806000606084860312156125a3576125a26120fb565b5b60006125b1868287016124c6565b93505060206125c2868287016124c6565b92505060406125d386828701612411565b9150509250925092565b6125e6816123f0565b82525050565b600060c08201905081810360008301526126068189612395565b905061261560208301886125dd565b61262260408301876125dd565b61262f6060830186612325565b61263c60808301856125dd565b61264960a08301846125dd565b979650505050505050565b60006020828403121561266a576126696120fb565b5b6000612678848285016124c6565b91505092915050565b600061268c82612453565b9050919050565b61269c81612681565b82525050565b60006040820190506126b76000830185612693565b81810360208301526126c98184612395565b90509392505050565b6126db81612319565b81146126e657600080fd5b50565b6000813590506126f8816126d2565b92915050565b60008060408385031215612715576127146120fb565b5b600061272385828601612411565b9250506020612734858286016126e9565b9150509250929050565b600060208201905061275360008301846125dd565b92915050565b600080604083850312156127705761276f6120fb565b5b600061277e858286016124c6565b925050602061278f858286016126e9565b9150509250929050565b600067ffffffffffffffff8211156127b4576127b3612120565b5b6127bd8261210f565b9050602081019050919050565b60006127dd6127d884612799565b612180565b9050828152602081018484840111156127f9576127f861210a565b5b6128048482856121cc565b509392505050565b600082601f83011261282157612820612105565b5b81356128318482602086016127ca565b91505092915050565b60008060008060808587031215612854576128536120fb565b5b6000612862878288016124c6565b9450506020612873878288016124c6565b935050604061288487828801612411565b925050606085013567ffffffffffffffff8111156128a5576128a4612100565b5b6128b18782880161280c565b91505092959194509250565b600080604083850312156128d4576128d36120fb565b5b60006128e2858286016124c6565b92505060206128f3858286016124c6565b9150509250929050565b7f436f6d70616e7920616c72656164792072656769737465726564000000000000600082015250565b6000612933601a8361235a565b915061293e826128fd565b602082019050919050565b6000602082019050818103600083015261296281612926565b9050919050565b7f4e487b7100000000000000000000000000000000000000000000000000000000600052602260045260246000fd5b600060028204905060018216806129b057607f821691505b6020821081036129c3576129c2612969565b5b50919050565b60008190508160005260206000209050919050565b60006020601f8301049050919050565b600082821b905092915050565b600060088302612a2b7fffffffffffffffffffffffffffffffffffffffffffffffffffffffffffffffff826129ee565b612a3586836129ee565b95508019841693508086168417925050509392505050565b6000819050919050565b6000612a72612a6d612a68846123f0565b612a4d565b6123f0565b9050919050565b6000819050919050565b612a8c83612a57565b612aa0612a9882612a79565b8484546129fb565b825550505050565b600090565b612ab5612aa8565b612ac0818484612a83565b505050565b5b81811015612ae457612ad9600082612aad565b600181019050612ac6565b5050565b601f821115612b2957612afa816129c9565b612b03846129de565b81016020851015612b12578190505b612b26612b1e856129de565b830182612ac5565b50505b505050565b600082821c905092915050565b6000612b4c60001984600802612b2e565b1980831691505092915050565b6000612b658383612b3b565b9150826002028217905092915050565b612b7e8261234f565b67ffffffffffffffff811115612b9757612b96612120565b5b612ba18254612998565b612bac828285612ae8565b600060209050601f831160018114612bdf5760008415612bcd578287015190505b612bd78582612b59565b865550612c3f565b601f198416612bed866129c9565b60005b82811015612c1557848901518255600182019150602085019450602081019050612bf0565b86831015612c325784890151612c2e601f891682612b3b565b8355505b6001600288020188555050505b505050505050565b6000604082019050612c5c6000830185612485565b8181036020830152612c6e8184612395565b90509392505050565b7f436f6d70616e79206e6f74207265676973746572656400000000000000000000600082015250565b6000612cad60168361235a565b9150612cb882612c77565b602082019050919050565b60006020820190508181036000830152612cdc81612ca0565b9050919050565b7f4e487b7100000000000000000000000000000000000000000000000000000000600052601160045260246000fd5b6000612d1d826123f0565b91507fffffffffffffffffffffffffffffffffffffffffffffffffffffffffffffffff8203612d4f57612d4e612ce3565b5b600182019050919050565b6000608082019050612d6f6000830187612485565b612d7c60208301866125dd565b8181036040830152612d8e8185612395565b9050612d9d60608301846125dd565b95945050505050565b6000606082019050612dbb6000830186612485565b612dc860208301856125dd565b612dd56040830184612485565b949350505050565b7f4e6f7420746865206f776e657200000000000000000000000000000000000000600082015250565b6000612e13600d8361235a565b9150612e1e82612ddd565b602082019050919050565b60006020820190508181036000830152612e4281612e06565b9050919050565b7f556e617574686f72697a65640000000000000000000000000000000000000000600082015250565b6000612e7f600c8361235a565b9150612e8a82612e49565b602082019050919050565b60006020820190508181036000830152612eae81612e72565b9050919050565b7f4e465420646f6573206e6f742065786973740000000000000000000000000000600082015250565b6000612eeb60128361235a565b9150612ef682612eb5565b602082019050919050565b60006020820190508181036000830152612f1a81612ede565b9050919050565b6000604082019050612f366000830185612485565b612f4360208301846125dd565b9392505050565b600081905092915050565b6000612f608261234f565b612f6a8185612f4a565b9350612f7a81856020860161236b565b80840191505092915050565b6000612f928285612f55565b9150612f9e8284612f55565b91508190509392505050565b600081519050919050565b600082825260208201905092915050565b6000612fd182612faa565b612fdb8185612fb5565b9350612feb81856020860161236b565b612ff48161210f565b840191505092915050565b60006080820190506130146000830187612485565b6130216020830186612485565b61302e60408301856125dd565b81810360608301526130408184612fc6565b905095945050505050565b60008151905061305a816122c0565b92915050565b600060208284031215613076576130756120fb565b5b60006130848482850161304b565b91505092915050565b7f4e487b7100000000000000000000000000000000000000000000000000000000600052601260045260246000fdfea2646970667358221220e3b1c122f58c73ae7b80dbb22c21043001d5d4c6ac2fb07745bd77a840b1d24964736f6c634300081a0033",
  "immutableReferences": {},
  "source": "// SPDX-License-Identifier: MIT\r\npragma solidity >=0.8.19 <0.9.0;\r\n\r\nimport \"@openzeppelin/contracts/token/ERC721/ERC721.sol\";\r\n\r\ncontract CompanyNFT is ERC721 {\r\n    struct Company {\r\n        address payable companyAddress;\r\n        string name;\r\n    }\r\n\r\n    mapping(address => Company) public companies;\r\n    mapping(uint256 => CompanyNFT.NFTInfo) public nfts;\r\n    mapping(address => uint256) public popularityIndex;\r\n    address public tradeContract;\r\n    uint256 public nextTokenId;\r\n\r\n    event CompanyRegistered(address companyAddress, string name);\r\n    event NFTReleased(address companyAddress, uint256 tokenId, string name, uint256 duration);\r\n    event NFTBurned(uint256 tokenId);\r\n    event ImpressionIncreased(address companyAddress, uint256 tokenId);\r\n\r\n    struct NFTInfo {\r\n        string name;\r\n        uint256 duration;\r\n        uint256 price;\r\n        bool isOwned;\r\n        uint256 popularityIndex;\r\n        uint256 creationTime;\r\n    }\r\n\r\n    constructor(address _tradeContract) ERC721(\"CompanyName\", \"CNM\") {\r\n        tradeContract = _tradeContract;\r\n        nextTokenId = 0;\r\n    }\r\n\r\n    function registerCompany(string memory _name) public {\r\n        require(companies[msg.sender].companyAddress == address(0), \"Company already registered\");\r\n        companies[msg.sender] = Company(payable(msg.sender), _name);\r\n        emit CompanyRegistered(msg.sender, _name);\r\n    }\r\n\r\n    function releaseNFT(string memory _name, uint256 _duration, uint256 _price) public {\r\n        require(companies[msg.sender].companyAddress != address(0), \"Company not registered\");\r\n        uint256 tokenId = nextTokenId; // Use the current value of nextTokenId\r\n        nextTokenId++;\r\n        _mint(tradeContract, tokenId);\r\n\r\n        nfts[tokenId] = NFTInfo(_name, _duration, _price, false, 0,block.timestamp);\r\n        emit NFTReleased(msg.sender, tokenId, _name, _duration);\r\n    }\r\n\r\n    function burnNFT(uint256 tokenId) external {\r\n        require(ownerOf(tokenId) == msg.sender, \"Not the owner\");\r\n\r\n        _burn(tokenId);\r\n        delete nfts[tokenId];\r\n        emit NFTBurned(tokenId);\r\n    }\r\n\r\n    function impression(uint256 tokenId) external {\r\n        require(ownerOf(tokenId) != address(0), \"NFT does not exist\");\r\n        address companyAddress = companies[ownerOf(tokenId)].companyAddress;\r\n        nfts[tokenId].popularityIndex++;\r\n        emit ImpressionIncreased(companyAddress, tokenId);\r\n    }\r\n    function updateNFTStatus(uint256 tokenId, bool isOwned) external {\r\n    require(msg.sender == tradeContract, \"Unauthorized\");\r\n    nfts[tokenId].isOwned = isOwned;\r\n}\r\n}\r\n",
  "sourcePath": "E:\\Blockchain\\defi-staking-app-starter\\src\\contracts\\CompanyNFThandle.sol",
  "compiler": {
    "name": "solc",
    "version": "0.8.26+commit.8a97fa7a.Emscripten.clang"
  },
  "schemaVersion": "3.4.16",
  "updatedAt": "2024-05-31T18:19:30.797Z",
  "networkType": "ethereum",
  "devdoc": {
    "errors": {
      "ERC721IncorrectOwner(address,uint256,address)": [
        {
          "details": "Indicates an error related to the ownership over a particular token. Used in transfers.",
          "params": {
            "owner": "Address of the current owner of a token.",
            "sender": "Address whose tokens are being transferred.",
            "tokenId": "Identifier number of a token."
          }
        }
      ],
      "ERC721InsufficientApproval(address,uint256)": [
        {
          "details": "Indicates a failure with the `operator`s approval. Used in transfers.",
          "params": {
            "operator": "Address that may be allowed to operate on tokens without being their owner.",
            "tokenId": "Identifier number of a token."
          }
        }
      ],
      "ERC721InvalidApprover(address)": [
        {
          "details": "Indicates a failure with the `approver` of a token to be approved. Used in approvals.",
          "params": {
            "approver": "Address initiating an approval operation."
          }
        }
      ],
      "ERC721InvalidOperator(address)": [
        {
          "details": "Indicates a failure with the `operator` to be approved. Used in approvals.",
          "params": {
            "operator": "Address that may be allowed to operate on tokens without being their owner."
          }
        }
      ],
      "ERC721InvalidOwner(address)": [
        {
          "details": "Indicates that an address can't be an owner. For example, `address(0)` is a forbidden owner in EIP-20. Used in balance queries.",
          "params": {
            "owner": "Address of the current owner of a token."
          }
        }
      ],
      "ERC721InvalidReceiver(address)": [
        {
          "details": "Indicates a failure with the token `receiver`. Used in transfers.",
          "params": {
            "receiver": "Address to which tokens are being transferred."
          }
        }
      ],
      "ERC721InvalidSender(address)": [
        {
          "details": "Indicates a failure with the token `sender`. Used in transfers.",
          "params": {
            "sender": "Address whose tokens are being transferred."
          }
        }
      ],
      "ERC721NonexistentToken(uint256)": [
        {
          "details": "Indicates a `tokenId` whose `owner` is the zero address.",
          "params": {
            "tokenId": "Identifier number of a token."
          }
        }
      ]
    },
    "events": {
      "Approval(address,address,uint256)": {
        "details": "Emitted when `owner` enables `approved` to manage the `tokenId` token."
      },
      "ApprovalForAll(address,address,bool)": {
        "details": "Emitted when `owner` enables or disables (`approved`) `operator` to manage all of its assets."
      },
      "Transfer(address,address,uint256)": {
        "details": "Emitted when `tokenId` token is transferred from `from` to `to`."
      }
    },
    "kind": "dev",
    "methods": {
      "approve(address,uint256)": {
        "details": "See {IERC721-approve}."
      },
      "balanceOf(address)": {
        "details": "See {IERC721-balanceOf}."
      },
      "getApproved(uint256)": {
        "details": "See {IERC721-getApproved}."
      },
      "isApprovedForAll(address,address)": {
        "details": "See {IERC721-isApprovedForAll}."
      },
      "name()": {
        "details": "See {IERC721Metadata-name}."
      },
      "ownerOf(uint256)": {
        "details": "See {IERC721-ownerOf}."
      },
      "safeTransferFrom(address,address,uint256)": {
        "details": "See {IERC721-safeTransferFrom}."
      },
      "safeTransferFrom(address,address,uint256,bytes)": {
        "details": "See {IERC721-safeTransferFrom}."
      },
      "setApprovalForAll(address,bool)": {
        "details": "See {IERC721-setApprovalForAll}."
      },
      "supportsInterface(bytes4)": {
        "details": "See {IERC165-supportsInterface}."
      },
      "symbol()": {
        "details": "See {IERC721Metadata-symbol}."
      },
      "tokenURI(uint256)": {
        "details": "See {IERC721Metadata-tokenURI}."
      },
      "transferFrom(address,address,uint256)": {
        "details": "See {IERC721-transferFrom}."
      }
    },
    "version": 1
  },
  "userdoc": {
    "kind": "user",
    "methods": {},
    "version": 1
  }
}