{
  "contractName": "DecentralBank",
  "abi": [
    {
      "inputs": [
        {
          "internalType": "contract RWD",
          "name": "_rwd",
          "type": "address"
        },
        {
          "internalType": "contract Tether",
          "name": "_tether",
          "type": "address"
        }
      ],
      "stateMutability": "nonpayable",
      "type": "constructor"
    },
    {
      "inputs": [
        {
          "internalType": "address",
          "name": "",
          "type": "address"
        }
      ],
      "name": "hasStacked",
      "outputs": [
        {
          "internalType": "bool",
          "name": "",
          "type": "bool"
        }
      ],
      "stateMutability": "view",
      "type": "function"
    },
    {
      "inputs": [
        {
          "internalType": "address",
          "name": "",
          "type": "address"
        }
      ],
      "name": "isStacked",
      "outputs": [
        {
          "internalType": "bool",
          "name": "",
          "type": "bool"
        }
      ],
      "stateMutability": "view",
      "type": "function"
    },
    {
      "inputs": [],
      "name": "name",
      "outputs": [
        {
          "internalType": "string",
          "name": "",
          "type": "string"
        }
      ],
      "stateMutability": "view",
      "type": "function"
    },
    {
      "inputs": [],
      "name": "owner",
      "outputs": [
        {
          "internalType": "address",
          "name": "",
          "type": "address"
        }
      ],
      "stateMutability": "view",
      "type": "function"
    },
    {
      "inputs": [],
      "name": "rwd",
      "outputs": [
        {
          "internalType": "contract RWD",
          "name": "",
          "type": "address"
        }
      ],
      "stateMutability": "view",
      "type": "function"
    },
    {
      "inputs": [
        {
          "internalType": "uint256",
          "name": "",
          "type": "uint256"
        }
      ],
      "name": "stakers",
      "outputs": [
        {
          "internalType": "address",
          "name": "",
          "type": "address"
        }
      ],
      "stateMutability": "view",
      "type": "function"
    },
    {
      "inputs": [
        {
          "internalType": "address",
          "name": "",
          "type": "address"
        }
      ],
      "name": "stakingBalance",
      "outputs": [
        {
          "internalType": "uint256",
          "name": "",
          "type": "uint256"
        }
      ],
      "stateMutability": "view",
      "type": "function"
    },
    {
      "inputs": [],
      "name": "tether",
      "outputs": [
        {
          "internalType": "contract Tether",
          "name": "",
          "type": "address"
        }
      ],
      "stateMutability": "view",
      "type": "function"
    },
    {
      "inputs": [
        {
          "internalType": "uint256",
          "name": "_amount",
          "type": "uint256"
        }
      ],
      "name": "depositTokens",
      "outputs": [],
      "stateMutability": "nonpayable",
      "type": "function"
    }
  ],
  "bytecode": "0x60806040526040518060400160405280600e81526020017f446563656e7472616c2042616e6b000000000000000000000000000000000000815250600090816100489190610391565b5034801561005557600080fd5b5060405161106638038061106683398181016040528101906100779190610516565b81600360006101000a81548173ffffffffffffffffffffffffffffffffffffffff021916908373ffffffffffffffffffffffffffffffffffffffff16021790555080600260006101000a81548173ffffffffffffffffffffffffffffffffffffffff021916908373ffffffffffffffffffffffffffffffffffffffff16021790555033600160006101000a81548173ffffffffffffffffffffffffffffffffffffffff021916908373ffffffffffffffffffffffffffffffffffffffff1602179055505050610556565b600081519050919050565b7f4e487b7100000000000000000000000000000000000000000000000000000000600052604160045260246000fd5b7f4e487b7100000000000000000000000000000000000000000000000000000000600052602260045260246000fd5b600060028204905060018216806101c257607f821691505b6020821081036101d5576101d461017b565b5b50919050565b60008190508160005260206000209050919050565b60006020601f8301049050919050565b600082821b905092915050565b60006008830261023d7fffffffffffffffffffffffffffffffffffffffffffffffffffffffffffffffff82610200565b6102478683610200565b95508019841693508086168417925050509392505050565b6000819050919050565b6000819050919050565b600061028e6102896102848461025f565b610269565b61025f565b9050919050565b6000819050919050565b6102a883610273565b6102bc6102b482610295565b84845461020d565b825550505050565b600090565b6102d16102c4565b6102dc81848461029f565b505050565b5b81811015610300576102f56000826102c9565b6001810190506102e2565b5050565b601f82111561034557610316816101db565b61031f846101f0565b8101602085101561032e578190505b61034261033a856101f0565b8301826102e1565b50505b505050565b600082821c905092915050565b60006103686000198460080261034a565b1980831691505092915050565b60006103818383610357565b9150826002028217905092915050565b61039a82610141565b67ffffffffffffffff8111156103b3576103b261014c565b5b6103bd82546101aa565b6103c8828285610304565b600060209050601f8311600181146103fb57600084156103e9578287015190505b6103f38582610375565b86555061045b565b601f198416610409866101db565b60005b828110156104315784890151825560018201915060208501945060208101905061040c565b8683101561044e578489015161044a601f891682610357565b8355505b6001600288020188555050505b505050505050565b600080fd5b600073ffffffffffffffffffffffffffffffffffffffff82169050919050565b600061049382610468565b9050919050565b60006104a582610488565b9050919050565b6104b58161049a565b81146104c057600080fd5b50565b6000815190506104d2816104ac565b92915050565b60006104e382610488565b9050919050565b6104f3816104d8565b81146104fe57600080fd5b50565b600081519050610510816104ea565b92915050565b6000806040838503121561052d5761052c610463565b5b600061053b858286016104c3565b925050602061054c85828601610501565b9150509250929050565b610b01806105656000396000f3fe608060405234801561001057600080fd5b50600436106100935760003560e01c80635efc071a116100665780635efc071a146101345780638da5cb5b14610152578063c03a033e14610170578063dd49756e146101a0578063fd5e6dd1146101bc57610093565b806306fdde03146100985780631a8972d3146100b657806332ac90cf146100d457806345bc78ab14610104575b600080fd5b6100a06101ec565b6040516100ad91906106b7565b60405180910390f35b6100be61027a565b6040516100cb9190610758565b60405180910390f35b6100ee60048036038101906100e991906107b6565b6102a0565b6040516100fb91906107fe565b60405180910390f35b61011e600480360381019061011991906107b6565b6102c0565b60405161012b9190610832565b60405180910390f35b61013c6102d8565b604051610149919061086e565b60405180910390f35b61015a6102fe565b6040516101679190610898565b60405180910390f35b61018a600480360381019061018591906107b6565b610324565b60405161019791906107fe565b60405180910390f35b6101ba60048036038101906101b591906108df565b610344565b005b6101d660048036038101906101d191906108df565b6105e8565b6040516101e39190610898565b60405180910390f35b600080546101f99061093b565b80601f01602080910402602001604051908101604052809291908181526020018280546102259061093b565b80156102725780601f1061024757610100808354040283529160200191610272565b820191906000526020600020905b81548152906001019060200180831161025557829003601f168201915b505050505081565b600360009054906101000a900473ffffffffffffffffffffffffffffffffffffffff1681565b60066020528060005260406000206000915054906101000a900460ff1681565b60056020528060005260406000206000915090505481565b600260009054906101000a900473ffffffffffffffffffffffffffffffffffffffff1681565b600160009054906101000a900473ffffffffffffffffffffffffffffffffffffffff1681565b60076020528060005260406000206000915054906101000a900460ff1681565b60008111610387576040517f08c379a000000000000000000000000000000000000000000000000000000000815260040161037e906109b8565b60405180910390fd5b600260009054906101000a900473ffffffffffffffffffffffffffffffffffffffff1673ffffffffffffffffffffffffffffffffffffffff166323b872dd3330846040518463ffffffff1660e01b81526004016103e6939291906109d8565b6020604051808303816000875af1158015610405573d6000803e3d6000fd5b505050506040513d601f19601f820116820180604052508101906104299190610a3b565b5080600560003373ffffffffffffffffffffffffffffffffffffffff1673ffffffffffffffffffffffffffffffffffffffff16815260200190815260200160002060008282546104799190610a97565b92505081905550600660003373ffffffffffffffffffffffffffffffffffffffff1673ffffffffffffffffffffffffffffffffffffffff16815260200190815260200160002060009054906101000a900460ff16610535576004339080600181540180825580915050600190039060005260206000200160009091909190916101000a81548173ffffffffffffffffffffffffffffffffffffffff021916908373ffffffffffffffffffffffffffffffffffffffff1602179055505b6001600760003373ffffffffffffffffffffffffffffffffffffffff1673ffffffffffffffffffffffffffffffffffffffff16815260200190815260200160002060006101000a81548160ff0219169083151502179055506001600660003373ffffffffffffffffffffffffffffffffffffffff1673ffffffffffffffffffffffffffffffffffffffff16815260200190815260200160002060006101000a81548160ff02191690831515021790555050565b600481815481106105f857600080fd5b906000526020600020016000915054906101000a900473ffffffffffffffffffffffffffffffffffffffff1681565b600081519050919050565b600082825260208201905092915050565b60005b83811015610661578082015181840152602081019050610646565b60008484015250505050565b6000601f19601f8301169050919050565b600061068982610627565b6106938185610632565b93506106a3818560208601610643565b6106ac8161066d565b840191505092915050565b600060208201905081810360008301526106d1818461067e565b905092915050565b600073ffffffffffffffffffffffffffffffffffffffff82169050919050565b6000819050919050565b600061071e610719610714846106d9565b6106f9565b6106d9565b9050919050565b600061073082610703565b9050919050565b600061074282610725565b9050919050565b61075281610737565b82525050565b600060208201905061076d6000830184610749565b92915050565b600080fd5b6000610783826106d9565b9050919050565b61079381610778565b811461079e57600080fd5b50565b6000813590506107b08161078a565b92915050565b6000602082840312156107cc576107cb610773565b5b60006107da848285016107a1565b91505092915050565b60008115159050919050565b6107f8816107e3565b82525050565b600060208201905061081360008301846107ef565b92915050565b6000819050919050565b61082c81610819565b82525050565b60006020820190506108476000830184610823565b92915050565b600061085882610725565b9050919050565b6108688161084d565b82525050565b6000602082019050610883600083018461085f565b92915050565b61089281610778565b82525050565b60006020820190506108ad6000830184610889565b92915050565b6108bc81610819565b81146108c757600080fd5b50565b6000813590506108d9816108b3565b92915050565b6000602082840312156108f5576108f4610773565b5b6000610903848285016108ca565b91505092915050565b7f4e487b7100000000000000000000000000000000000000000000000000000000600052602260045260246000fd5b6000600282049050600182168061095357607f821691505b6020821081036109665761096561090c565b5b50919050565b7f616d6f756e742063616e6e6f74206265207a65726f0000000000000000000000600082015250565b60006109a2601583610632565b91506109ad8261096c565b602082019050919050565b600060208201905081810360008301526109d181610995565b9050919050565b60006060820190506109ed6000830186610889565b6109fa6020830185610889565b610a076040830184610823565b949350505050565b610a18816107e3565b8114610a2357600080fd5b50565b600081519050610a3581610a0f565b92915050565b600060208284031215610a5157610a50610773565b5b6000610a5f84828501610a26565b91505092915050565b7f4e487b7100000000000000000000000000000000000000000000000000000000600052601160045260246000fd5b6000610aa282610819565b9150610aad83610819565b9250828201905080821115610ac557610ac4610a68565b5b9291505056fea2646970667358221220358042c23db2cb7ee1892263bfffc6fe6352ca2a5d4eacc8be02cf2b4b1c53e364736f6c634300081a0033",
  "immutableReferences": {},
  "source": "// SPDX-License-Identifier: MIT\r\npragma solidity >=0.8.19 <0.9.0;\r\n\r\nimport './RWD.sol';\r\nimport './Tether.sol';\r\n\r\ncontract DecentralBank {\r\n    string public name = 'Decentral Bank';\r\n    address public owner;\r\n\r\n    Tether public tether;\r\n    RWD public rwd;\r\n\r\n    address[] public stakers;\r\n\r\n    mapping(address => uint) public stakingBalance;\r\n    mapping(address => bool) public hasStacked;\r\n    mapping(address => bool) public isStacked;\r\n\r\n    constructor(RWD _rwd,Tether _tether) {\r\n        rwd = _rwd;\r\n        tether = _tether;\r\n        owner = msg.sender;\r\n    }\r\n\r\n    function depositTokens(uint _amount) public {\r\n        require(_amount >0 ,'amount cannot be zero');\r\n\r\n        tether.transferFrom(msg.sender, address(this), _amount);\r\n        stakingBalance[msg.sender] += _amount;\r\n\r\n        if(!hasStacked[msg.sender]){\r\n            stakers.push(msg.sender);\r\n        }\r\n\r\n        isStacked[msg.sender] = true;\r\n        hasStacked[msg.sender] = true;\r\n    }\r\n\r\n}",
  "sourcePath": "E:\\Blockchain\\defi-staking-app-starter\\src\\contracts\\DecentralBank.sol",
  "compiler": {
    "name": "solc",
    "version": "0.8.26+commit.8a97fa7a.Emscripten.clang"
  },
  "schemaVersion": "3.4.16",
  "updatedAt": "2024-06-02T11:25:47.343Z",
  "networkType": "ethereum",
  "devdoc": {
    "kind": "dev",
    "methods": {},
    "version": 1
  },
  "userdoc": {
    "kind": "user",
    "methods": {},
    "version": 1
  }
}