{
  "contractName": "DecentralBank",
  "abi": [
    {
      "inputs": [
        {
          "internalType": "contract RWD",
          "name": "_rwd",
          "type": "address"
        },
        {
          "internalType": "contract Tether",
          "name": "_tether",
          "type": "address"
        }
      ],
      "stateMutability": "nonpayable",
      "type": "constructor"
    },
    {
      "inputs": [
        {
          "internalType": "address",
          "name": "",
          "type": "address"
        }
      ],
      "name": "hasStacked",
      "outputs": [
        {
          "internalType": "bool",
          "name": "",
          "type": "bool"
        }
      ],
      "stateMutability": "view",
      "type": "function"
    },
    {
      "inputs": [
        {
          "internalType": "address",
          "name": "",
          "type": "address"
        }
      ],
      "name": "isStacked",
      "outputs": [
        {
          "internalType": "bool",
          "name": "",
          "type": "bool"
        }
      ],
      "stateMutability": "view",
      "type": "function"
    },
    {
      "inputs": [],
      "name": "name",
      "outputs": [
        {
          "internalType": "string",
          "name": "",
          "type": "string"
        }
      ],
      "stateMutability": "view",
      "type": "function"
    },
    {
      "inputs": [],
      "name": "owner",
      "outputs": [
        {
          "internalType": "address",
          "name": "",
          "type": "address"
        }
      ],
      "stateMutability": "view",
      "type": "function"
    },
    {
      "inputs": [],
      "name": "rwd",
      "outputs": [
        {
          "internalType": "contract RWD",
          "name": "",
          "type": "address"
        }
      ],
      "stateMutability": "view",
      "type": "function"
    },
    {
      "inputs": [
        {
          "internalType": "uint256",
          "name": "",
          "type": "uint256"
        }
      ],
      "name": "stakers",
      "outputs": [
        {
          "internalType": "address",
          "name": "",
          "type": "address"
        }
      ],
      "stateMutability": "view",
      "type": "function"
    },
    {
      "inputs": [
        {
          "internalType": "address",
          "name": "",
          "type": "address"
        }
      ],
      "name": "stakingBalance",
      "outputs": [
        {
          "internalType": "uint256",
          "name": "",
          "type": "uint256"
        }
      ],
      "stateMutability": "view",
      "type": "function"
    },
    {
      "inputs": [],
      "name": "tether",
      "outputs": [
        {
          "internalType": "contract Tether",
          "name": "",
          "type": "address"
        }
      ],
      "stateMutability": "view",
      "type": "function"
    },
    {
      "inputs": [
        {
          "internalType": "uint256",
          "name": "_amount",
          "type": "uint256"
        }
      ],
      "name": "depositTokens",
      "outputs": [],
      "stateMutability": "nonpayable",
      "type": "function"
    }
  ],
  "bytecode": "0x60806040526040518060400160405280600e81526020017f446563656e7472616c2042616e6b0000000000000000000000000000000000008152505f90816100479190610376565b50348015610053575f80fd5b50604051610fc3380380610fc3833981810160405281019061007591906104ef565b8160035f6101000a81548173ffffffffffffffffffffffffffffffffffffffff021916908373ffffffffffffffffffffffffffffffffffffffff1602179055508060025f6101000a81548173ffffffffffffffffffffffffffffffffffffffff021916908373ffffffffffffffffffffffffffffffffffffffff1602179055503360015f6101000a81548173ffffffffffffffffffffffffffffffffffffffff021916908373ffffffffffffffffffffffffffffffffffffffff160217905550505061052d565b5f81519050919050565b7f4e487b71000000000000000000000000000000000000000000000000000000005f52604160045260245ffd5b7f4e487b71000000000000000000000000000000000000000000000000000000005f52602260045260245ffd5b5f60028204905060018216806101b757607f821691505b6020821081036101ca576101c9610173565b5b50919050565b5f819050815f5260205f209050919050565b5f6020601f8301049050919050565b5f82821b905092915050565b5f6008830261022c7fffffffffffffffffffffffffffffffffffffffffffffffffffffffffffffffff826101f1565b61023686836101f1565b95508019841693508086168417925050509392505050565b5f819050919050565b5f819050919050565b5f61027a6102756102708461024e565b610257565b61024e565b9050919050565b5f819050919050565b61029383610260565b6102a761029f82610281565b8484546101fd565b825550505050565b5f90565b6102bb6102af565b6102c681848461028a565b505050565b5b818110156102e9576102de5f826102b3565b6001810190506102cc565b5050565b601f82111561032e576102ff816101d0565b610308846101e2565b81016020851015610317578190505b61032b610323856101e2565b8301826102cb565b50505b505050565b5f82821c905092915050565b5f61034e5f1984600802610333565b1980831691505092915050565b5f610366838361033f565b9150826002028217905092915050565b61037f8261013c565b67ffffffffffffffff81111561039857610397610146565b5b6103a282546101a0565b6103ad8282856102ed565b5f60209050601f8311600181146103de575f84156103cc578287015190505b6103d6858261035b565b86555061043d565b601f1984166103ec866101d0565b5f5b82811015610413578489015182556001820191506020850194506020810190506103ee565b86831015610430578489015161042c601f89168261033f565b8355505b6001600288020188555050505b505050505050565b5f80fd5b5f73ffffffffffffffffffffffffffffffffffffffff82169050919050565b5f61047282610449565b9050919050565b5f61048382610468565b9050919050565b61049381610479565b811461049d575f80fd5b50565b5f815190506104ae8161048a565b92915050565b5f6104be82610468565b9050919050565b6104ce816104b4565b81146104d8575f80fd5b50565b5f815190506104e9816104c5565b92915050565b5f806040838503121561050557610504610445565b5b5f610512858286016104a0565b9250506020610523858286016104db565b9150509250929050565b610a898061053a5f395ff3fe608060405234801561000f575f80fd5b5060043610610091575f3560e01c80635efc071a116100645780635efc071a146101315780638da5cb5b1461014f578063c03a033e1461016d578063dd49756e1461019d578063fd5e6dd1146101b957610091565b806306fdde03146100955780631a8972d3146100b357806332ac90cf146100d157806345bc78ab14610101575b5f80fd5b61009d6101e9565b6040516100aa919061066d565b60405180910390f35b6100bb610274565b6040516100c89190610707565b60405180910390f35b6100eb60048036038101906100e6919061075f565b610299565b6040516100f891906107a4565b60405180910390f35b61011b6004803603810190610116919061075f565b6102b6565b60405161012891906107d5565b60405180910390f35b6101396102cb565b604051610146919061080e565b60405180910390f35b6101576102f0565b6040516101649190610836565b60405180910390f35b6101876004803603810190610182919061075f565b610315565b60405161019491906107a4565b60405180910390f35b6101b760048036038101906101b29190610879565b610332565b005b6101d360048036038101906101ce9190610879565b6105c2565b6040516101e09190610836565b60405180910390f35b5f80546101f5906108d1565b80601f0160208091040260200160405190810160405280929190818152602001828054610221906108d1565b801561026c5780601f106102435761010080835404028352916020019161026c565b820191905f5260205f20905b81548152906001019060200180831161024f57829003601f168201915b505050505081565b60035f9054906101000a900473ffffffffffffffffffffffffffffffffffffffff1681565b6006602052805f5260405f205f915054906101000a900460ff1681565b6005602052805f5260405f205f915090505481565b60025f9054906101000a900473ffffffffffffffffffffffffffffffffffffffff1681565b60015f9054906101000a900473ffffffffffffffffffffffffffffffffffffffff1681565b6007602052805f5260405f205f915054906101000a900460ff1681565b5f8111610374576040517f08c379a000000000000000000000000000000000000000000000000000000000815260040161036b9061094b565b60405180910390fd5b60025f9054906101000a900473ffffffffffffffffffffffffffffffffffffffff1673ffffffffffffffffffffffffffffffffffffffff166323b872dd3330846040518463ffffffff1660e01b81526004016103d293929190610969565b6020604051808303815f875af11580156103ee573d5f803e3d5ffd5b505050506040513d601f19601f8201168201806040525081019061041291906109c8565b508060055f3373ffffffffffffffffffffffffffffffffffffffff1673ffffffffffffffffffffffffffffffffffffffff1681526020019081526020015f205f82825461045f9190610a20565b9250508190555060065f3373ffffffffffffffffffffffffffffffffffffffff1673ffffffffffffffffffffffffffffffffffffffff1681526020019081526020015f205f9054906101000a900460ff1661051557600433908060018154018082558091505060019003905f5260205f20015f9091909190916101000a81548173ffffffffffffffffffffffffffffffffffffffff021916908373ffffffffffffffffffffffffffffffffffffffff1602179055505b600160075f3373ffffffffffffffffffffffffffffffffffffffff1673ffffffffffffffffffffffffffffffffffffffff1681526020019081526020015f205f6101000a81548160ff021916908315150217905550600160065f3373ffffffffffffffffffffffffffffffffffffffff1673ffffffffffffffffffffffffffffffffffffffff1681526020019081526020015f205f6101000a81548160ff02191690831515021790555050565b600481815481106105d1575f80fd5b905f5260205f20015f915054906101000a900473ffffffffffffffffffffffffffffffffffffffff1681565b5f81519050919050565b5f82825260208201905092915050565b8281835e5f83830152505050565b5f601f19601f8301169050919050565b5f61063f826105fd565b6106498185610607565b9350610659818560208601610617565b61066281610625565b840191505092915050565b5f6020820190508181035f8301526106858184610635565b905092915050565b5f73ffffffffffffffffffffffffffffffffffffffff82169050919050565b5f819050919050565b5f6106cf6106ca6106c58461068d565b6106ac565b61068d565b9050919050565b5f6106e0826106b5565b9050919050565b5f6106f1826106d6565b9050919050565b610701816106e7565b82525050565b5f60208201905061071a5f8301846106f8565b92915050565b5f80fd5b5f61072e8261068d565b9050919050565b61073e81610724565b8114610748575f80fd5b50565b5f8135905061075981610735565b92915050565b5f6020828403121561077457610773610720565b5b5f6107818482850161074b565b91505092915050565b5f8115159050919050565b61079e8161078a565b82525050565b5f6020820190506107b75f830184610795565b92915050565b5f819050919050565b6107cf816107bd565b82525050565b5f6020820190506107e85f8301846107c6565b92915050565b5f6107f8826106d6565b9050919050565b610808816107ee565b82525050565b5f6020820190506108215f8301846107ff565b92915050565b61083081610724565b82525050565b5f6020820190506108495f830184610827565b92915050565b610858816107bd565b8114610862575f80fd5b50565b5f813590506108738161084f565b92915050565b5f6020828403121561088e5761088d610720565b5b5f61089b84828501610865565b91505092915050565b7f4e487b71000000000000000000000000000000000000000000000000000000005f52602260045260245ffd5b5f60028204905060018216806108e857607f821691505b6020821081036108fb576108fa6108a4565b5b50919050565b7f616d6f756e742063616e6e6f74206265207a65726f00000000000000000000005f82015250565b5f610935601583610607565b915061094082610901565b602082019050919050565b5f6020820190508181035f83015261096281610929565b9050919050565b5f60608201905061097c5f830186610827565b6109896020830185610827565b61099660408301846107c6565b949350505050565b6109a78161078a565b81146109b1575f80fd5b50565b5f815190506109c28161099e565b92915050565b5f602082840312156109dd576109dc610720565b5b5f6109ea848285016109b4565b91505092915050565b7f4e487b71000000000000000000000000000000000000000000000000000000005f52601160045260245ffd5b5f610a2a826107bd565b9150610a35836107bd565b9250828201905080821115610a4d57610a4c6109f3565b5b9291505056fea2646970667358221220da98c49390ce773cbd80052e16b1de86f1ef5b1ac20e909128eb452d550d786e64736f6c634300081a0033",
  "immutableReferences": {},
  "source": "// SPDX-License-Identifier: MIT\r\npragma solidity >=0.8.2 <0.9.0;\r\n\r\nimport './RWD.sol';\r\nimport './Tether.sol';\r\n\r\ncontract DecentralBank {\r\n    string public name = 'Decentral Bank';\r\n    address public owner;\r\n\r\n    Tether public tether;\r\n    RWD public rwd;\r\n\r\n    address[] public stakers;\r\n\r\n    mapping(address => uint) public stakingBalance;\r\n    mapping(address => bool) public hasStacked;\r\n    mapping(address => bool) public isStacked;\r\n\r\n    constructor(RWD _rwd,Tether _tether) public{\r\n        rwd = _rwd;\r\n        tether = _tether;\r\n        owner = msg.sender;\r\n    }\r\n\r\n    function depositTokens(uint _amount) public {\r\n        require(_amount >0 ,'amount cannot be zero');\r\n\r\n        tether.transferFrom(msg.sender, address(this), _amount);\r\n        stakingBalance[msg.sender] += _amount;\r\n\r\n        if(!hasStacked[msg.sender]){\r\n            stakers.push(msg.sender);\r\n        }\r\n\r\n        isStacked[msg.sender] = true;\r\n        hasStacked[msg.sender] = true;\r\n    }\r\n\r\n}",
  "sourcePath": "E:\\Blockchain\\defi-staking-app-starter\\src\\contracts\\DecentralBank.sol",
  "compiler": {
    "name": "solc",
    "version": "0.8.26+commit.8a97fa7a.Emscripten.clang"
  },
  "schemaVersion": "3.4.16",
  "updatedAt": "2024-05-30T11:30:14.799Z",
  "devdoc": {
    "kind": "dev",
    "methods": {},
    "version": 1
  },
  "userdoc": {
    "kind": "user",
    "methods": {},
    "version": 1
  }
}