{
  "contractName": "Migration",
  "abi": [
    {
      "inputs": [],
      "stateMutability": "nonpayable",
      "type": "constructor"
    },
    {
      "inputs": [],
      "name": "last_completed_migration",
      "outputs": [
        {
          "internalType": "uint256",
          "name": "",
          "type": "uint256"
        }
      ],
      "stateMutability": "view",
      "type": "function"
    },
    {
      "inputs": [],
      "name": "owner",
      "outputs": [
        {
          "internalType": "address",
          "name": "",
          "type": "address"
        }
      ],
      "stateMutability": "view",
      "type": "function"
    },
    {
      "inputs": [
        {
          "internalType": "uint256",
          "name": "completed",
          "type": "uint256"
        }
      ],
      "name": "SetCompleted",
      "outputs": [],
      "stateMutability": "nonpayable",
      "type": "function"
    },
    {
      "inputs": [
        {
          "internalType": "address",
          "name": "newAddress",
          "type": "address"
        }
      ],
      "name": "Upgrade",
      "outputs": [],
      "stateMutability": "nonpayable",
      "type": "function"
    }
  ],
  "bytecode": "0x6080604052348015600e575f80fd5b50335f806101000a81548173ffffffffffffffffffffffffffffffffffffffff021916908373ffffffffffffffffffffffffffffffffffffffff1602179055506103788061005b5f395ff3fe608060405234801561000f575f80fd5b506004361061004a575f3560e01c8063445df0ac1461004e5780638da5cb5b1461006c578063915a1f841461008a578063f7872122146100a6575b5f80fd5b6100566100c2565b6040516100639190610223565b60405180910390f35b6100746100c8565b604051610081919061027b565b60405180910390f35b6100a4600480360381019061009f91906102c2565b6100eb565b005b6100c060048036038101906100bb9190610317565b610148565b005b60015481565b5f8054906101000a900473ffffffffffffffffffffffffffffffffffffffff1681565b5f8054906101000a900473ffffffffffffffffffffffffffffffffffffffff1673ffffffffffffffffffffffffffffffffffffffff163373ffffffffffffffffffffffffffffffffffffffff160361014557806001819055505b50565b5f8054906101000a900473ffffffffffffffffffffffffffffffffffffffff1673ffffffffffffffffffffffffffffffffffffffff163373ffffffffffffffffffffffffffffffffffffffff1603610208575f8190508073ffffffffffffffffffffffffffffffffffffffff1663915a1f846001546040518263ffffffff1660e01b81526004016101d99190610223565b5f604051808303815f87803b1580156101f0575f80fd5b505af1158015610202573d5f803e3d5ffd5b50505050505b50565b5f819050919050565b61021d8161020b565b82525050565b5f6020820190506102365f830184610214565b92915050565b5f73ffffffffffffffffffffffffffffffffffffffff82169050919050565b5f6102658261023c565b9050919050565b6102758161025b565b82525050565b5f60208201905061028e5f83018461026c565b92915050565b5f80fd5b6102a18161020b565b81146102ab575f80fd5b50565b5f813590506102bc81610298565b92915050565b5f602082840312156102d7576102d6610294565b5b5f6102e4848285016102ae565b91505092915050565b6102f68161025b565b8114610300575f80fd5b50565b5f81359050610311816102ed565b92915050565b5f6020828403121561032c5761032b610294565b5b5f61033984828501610303565b9150509291505056fea2646970667358221220ef4a5d3b3df9d044d6c663b13a90c44baedf0b2efcb9aae2524ad43c2c17a9f164736f6c634300081a0033",
  "immutableReferences": {},
  "source": "// SPDX-License-Identifier: MIT\r\npragma solidity >=0.8.2 <0.9.0;\r\n\r\ncontract Migration {\r\n    address public owner;\r\n    uint public last_completed_migration;\r\n\r\n    constructor() public {\r\n        owner = msg.sender;\r\n    }\r\n\r\n    modifier restricted (){\r\n        if(msg.sender == owner){\r\n            _;\r\n        }\r\n    }\r\n\r\n    function SetCompleted(uint completed) public restricted {\r\n        last_completed_migration = completed;\r\n    }\r\n\r\n    function Upgrade(address newAddress) public restricted {\r\n        Migration Upgraded = Migration(newAddress);\r\n        Upgraded.SetCompleted(last_completed_migration);\r\n    }\r\n\r\n}",
  "sourcePath": "E:\\Blockchain\\defi-staking-app-starter\\src\\contracts\\Migration.sol",
  "compiler": {
    "name": "solc",
    "version": "0.8.26+commit.8a97fa7a.Emscripten.clang"
  },
  "schemaVersion": "3.4.16",
  "updatedAt": "2024-05-29T15:45:47.169Z",
  "devdoc": {
    "kind": "dev",
    "methods": {},
    "version": 1
  },
  "userdoc": {
    "kind": "user",
    "methods": {},
    "version": 1
  }
}