{
  "contractName": "Migration",
  "abi": [
    {
      "inputs": [],
      "stateMutability": "nonpayable",
      "type": "constructor"
    },
    {
      "inputs": [],
      "name": "last_completed_migration",
      "outputs": [
        {
          "internalType": "uint256",
          "name": "",
          "type": "uint256"
        }
      ],
      "stateMutability": "view",
      "type": "function"
    },
    {
      "inputs": [],
      "name": "owner",
      "outputs": [
        {
          "internalType": "address",
          "name": "",
          "type": "address"
        }
      ],
      "stateMutability": "view",
      "type": "function"
    },
    {
      "inputs": [
        {
          "internalType": "uint256",
          "name": "completed",
          "type": "uint256"
        }
      ],
      "name": "SetCompleted",
      "outputs": [],
      "stateMutability": "nonpayable",
      "type": "function"
    },
    {
      "inputs": [
        {
          "internalType": "address",
          "name": "newAddress",
          "type": "address"
        }
      ],
      "name": "Upgrade",
      "outputs": [],
      "stateMutability": "nonpayable",
      "type": "function"
    }
  ],
  "bytecode": "0x6080604052348015600f57600080fd5b50336000806101000a81548173ffffffffffffffffffffffffffffffffffffffff021916908373ffffffffffffffffffffffffffffffffffffffff1602179055506103948061005f6000396000f3fe608060405234801561001057600080fd5b506004361061004c5760003560e01c8063445df0ac146100515780638da5cb5b1461006f578063915a1f841461008d578063f7872122146100a9575b600080fd5b6100596100c5565b6040516100669190610230565b60405180910390f35b6100776100cb565b604051610084919061028c565b60405180910390f35b6100a760048036038101906100a291906102d8565b6100ef565b005b6100c360048036038101906100be9190610331565b61014d565b005b60015481565b60008054906101000a900473ffffffffffffffffffffffffffffffffffffffff1681565b60008054906101000a900473ffffffffffffffffffffffffffffffffffffffff1673ffffffffffffffffffffffffffffffffffffffff163373ffffffffffffffffffffffffffffffffffffffff160361014a57806001819055505b50565b60008054906101000a900473ffffffffffffffffffffffffffffffffffffffff1673ffffffffffffffffffffffffffffffffffffffff163373ffffffffffffffffffffffffffffffffffffffff16036102145760008190508073ffffffffffffffffffffffffffffffffffffffff1663915a1f846001546040518263ffffffff1660e01b81526004016101e09190610230565b600060405180830381600087803b1580156101fa57600080fd5b505af115801561020e573d6000803e3d6000fd5b50505050505b50565b6000819050919050565b61022a81610217565b82525050565b60006020820190506102456000830184610221565b92915050565b600073ffffffffffffffffffffffffffffffffffffffff82169050919050565b60006102768261024b565b9050919050565b6102868161026b565b82525050565b60006020820190506102a1600083018461027d565b92915050565b600080fd5b6102b581610217565b81146102c057600080fd5b50565b6000813590506102d2816102ac565b92915050565b6000602082840312156102ee576102ed6102a7565b5b60006102fc848285016102c3565b91505092915050565b61030e8161026b565b811461031957600080fd5b50565b60008135905061032b81610305565b92915050565b600060208284031215610347576103466102a7565b5b60006103558482850161031c565b9150509291505056fea264697066735822122049f66deb3580c5c5ffd30a27e5394a7d593089d0c48835af57c03ebe7278763264736f6c634300081a0033",
  "immutableReferences": {},
  "source": "// SPDX-License-Identifier: MIT\r\npragma solidity >=0.8.19 <0.9.0;\r\n\r\ncontract Migration {\r\n    address public owner;\r\n    uint public last_completed_migration;\r\n\r\n    constructor() {\r\n        owner = msg.sender;\r\n    }\r\n\r\n    modifier restricted (){\r\n        if(msg.sender == owner){\r\n            _;\r\n        }\r\n    }\r\n\r\n    function SetCompleted(uint completed) public restricted {\r\n        last_completed_migration = completed;\r\n    }\r\n\r\n    function Upgrade(address newAddress) public restricted {\r\n        Migration Upgraded = Migration(newAddress);\r\n        Upgraded.SetCompleted(last_completed_migration);\r\n    }\r\n\r\n}",
  "sourcePath": "E:\\Blockchain\\defi-staking-app-starter\\src\\contracts\\Migration.sol",
  "compiler": {
    "name": "solc",
    "version": "0.8.26+commit.8a97fa7a.Emscripten.clang"
  },
  "schemaVersion": "3.4.16",
  "updatedAt": "2024-06-02T18:51:20.966Z",
  "devdoc": {
    "kind": "dev",
    "methods": {},
    "version": 1
  },
  "userdoc": {
    "kind": "user",
    "methods": {},
    "version": 1
  }
}