{
  "contractName": "OnDie",
  "abi": [
    {
      "inputs": [],
      "stateMutability": "payable",
      "type": "constructor"
    },
    {
      "inputs": [
        {
          "internalType": "address payable",
          "name": "wallet",
          "type": "address"
        },
        {
          "internalType": "uint256",
          "name": "amount",
          "type": "uint256"
        }
      ],
      "name": "SetInheritance",
      "outputs": [],
      "stateMutability": "nonpayable",
      "type": "function"
    },
    {
      "inputs": [],
      "name": "died",
      "outputs": [],
      "stateMutability": "nonpayable",
      "type": "function"
    }
  ],
  "bytecode": "0x6080604052336000806101000a81548173ffffffffffffffffffffffffffffffffffffffff021916908373ffffffffffffffffffffffffffffffffffffffff160217905550346001819055506000600260006101000a81548160ff021916908315150217905550610461806100756000396000f3fe608060405234801561001057600080fd5b50600436106100365760003560e01c80631c308be81461003b578063f7a2a7c714610057575b600080fd5b610055600480360381019061005091906103bc565b610061565b005b61005f610164565b005b60008054906101000a900473ffffffffffffffffffffffffffffffffffffffff1673ffffffffffffffffffffffffffffffffffffffff163373ffffffffffffffffffffffffffffffffffffffff16146100b957600080fd5b6003829080600181540180825580915050600190039060005260206000200160009091909190916101000a81548173ffffffffffffffffffffffffffffffffffffffff021916908373ffffffffffffffffffffffffffffffffffffffff16021790555080600460008473ffffffffffffffffffffffffffffffffffffffff1673ffffffffffffffffffffffffffffffffffffffff168152602001908152602001600020819055505050565b60008054906101000a900473ffffffffffffffffffffffffffffffffffffffff1673ffffffffffffffffffffffffffffffffffffffff163373ffffffffffffffffffffffffffffffffffffffff16146101bc57600080fd5b6001600260006101000a81548160ff0219169083151502179055506101df6101e1565b565b60011515600260009054906101000a900460ff1615151461020157600080fd5b60005b6003805490508110156103205760038181548110610225576102246103fc565b5b9060005260206000200160009054906101000a900473ffffffffffffffffffffffffffffffffffffffff1673ffffffffffffffffffffffffffffffffffffffff166108fc6004600060038581548110610281576102806103fc565b5b9060005260206000200160009054906101000a900473ffffffffffffffffffffffffffffffffffffffff1673ffffffffffffffffffffffffffffffffffffffff1673ffffffffffffffffffffffffffffffffffffffff168152602001908152602001600020549081150290604051600060405180830381858888f19350505050158015610312573d6000803e3d6000fd5b508080600101915050610204565b50565b600080fd5b600073ffffffffffffffffffffffffffffffffffffffff82169050919050565b600061035382610328565b9050919050565b61036381610348565b811461036e57600080fd5b50565b6000813590506103808161035a565b92915050565b6000819050919050565b61039981610386565b81146103a457600080fd5b50565b6000813590506103b681610390565b92915050565b600080604083850312156103d3576103d2610323565b5b60006103e185828601610371565b92505060206103f2858286016103a7565b9150509250929050565b7f4e487b7100000000000000000000000000000000000000000000000000000000600052603260045260246000fdfea2646970667358221220125983df8ebb7b2116b5b05c55569950446e064f9f66484cd11e40831925865564736f6c634300081a0033",
  "immutableReferences": {},
  "source": "// SPDX-License-Identifier: MIT\r\npragma solidity >=0.8.19 <0.9.0;\r\n\r\ncontract OnDie{\r\n    address owner;\r\n    uint MyEther;\r\n    bool isDead;\r\n\r\n    constructor() payable {\r\n        owner = msg.sender;\r\n        MyEther = msg.value;\r\n        isDead = false;\r\n    }\r\n\r\n    modifier OnlyOwner {\r\n        require(msg.sender == owner);\r\n        _;\r\n    }\r\n\r\n    modifier MustBeDied {\r\n        require(isDead == true);\r\n        _;\r\n    }\r\n\r\n    address payable[] familyWallet;\r\n\r\n    mapping (address => uint) Inheritance;\r\n\r\n    function SetInheritance(address payable wallet , uint amount) public OnlyOwner {\r\n        familyWallet.push(wallet);\r\n        Inheritance[wallet] = amount;\r\n    }\r\n\r\n    function payout() private MustBeDied {\r\n        for(uint i=0;i < familyWallet.length; i++){\r\n            familyWallet[i].transfer(Inheritance[familyWallet[i]]);\r\n        }\r\n    }\r\n\r\n    function died() public OnlyOwner{\r\n        isDead = true;\r\n        payout();\r\n    }\r\n    \r\n}",
  "sourcePath": "E:\\Blockchain\\defi-staking-app-starter\\src\\contracts\\will-on-die.sol",
  "compiler": {
    "name": "solc",
    "version": "0.8.26+commit.8a97fa7a.Emscripten.clang"
  },
  "schemaVersion": "3.4.16",
  "updatedAt": "2024-05-31T12:06:29.150Z",
  "devdoc": {
    "kind": "dev",
    "methods": {},
    "version": 1
  },
  "userdoc": {
    "kind": "user",
    "methods": {},
    "version": 1
  }
}