{
  "contractName": "OnDie",
  "abi": [
    {
      "inputs": [],
      "payable": true,
      "stateMutability": "payable",
      "type": "constructor"
    },
    {
      "constant": false,
      "inputs": [
        {
          "internalType": "address payable",
          "name": "wallet",
          "type": "address"
        },
        {
          "internalType": "uint256",
          "name": "amount",
          "type": "uint256"
        }
      ],
      "name": "SetInheritance",
      "outputs": [],
      "payable": false,
      "stateMutability": "nonpayable",
      "type": "function"
    },
    {
      "constant": false,
      "inputs": [],
      "name": "died",
      "outputs": [],
      "payable": false,
      "stateMutability": "nonpayable",
      "type": "function"
    }
  ],
  "bytecode": "0x6080604052336000806101000a81548173ffffffffffffffffffffffffffffffffffffffff021916908373ffffffffffffffffffffffffffffffffffffffff160217905550346001819055506000600260006101000a81548160ff021916908315150217905550610384806100756000396000f3fe608060405234801561001057600080fd5b50600436106100365760003560e01c80631c308be81461003b578063f7a2a7c714610089575b600080fd5b6100876004803603604081101561005157600080fd5b81019080803573ffffffffffffffffffffffffffffffffffffffff16906020019092919080359060200190929190505050610093565b005b61009161019a565b005b6000809054906101000a900473ffffffffffffffffffffffffffffffffffffffff1673ffffffffffffffffffffffffffffffffffffffff163373ffffffffffffffffffffffffffffffffffffffff16146100ec57600080fd5b60038290806001815401808255809150509060018203906000526020600020016000909192909190916101000a81548173ffffffffffffffffffffffffffffffffffffffff021916908373ffffffffffffffffffffffffffffffffffffffff1602179055505080600460008473ffffffffffffffffffffffffffffffffffffffff1673ffffffffffffffffffffffffffffffffffffffff168152602001908152602001600020819055505050565b6000809054906101000a900473ffffffffffffffffffffffffffffffffffffffff1673ffffffffffffffffffffffffffffffffffffffff163373ffffffffffffffffffffffffffffffffffffffff16146101f357600080fd5b6001600260006101000a81548160ff021916908315150217905550610216610218565b565b60011515600260009054906101000a900460ff1615151461023857600080fd5b60008090505b60038054905081101561034c576003818154811061025857fe5b9060005260206000200160009054906101000a900473ffffffffffffffffffffffffffffffffffffffff1673ffffffffffffffffffffffffffffffffffffffff166108fc60046000600385815481106102ad57fe5b9060005260206000200160009054906101000a900473ffffffffffffffffffffffffffffffffffffffff1673ffffffffffffffffffffffffffffffffffffffff1673ffffffffffffffffffffffffffffffffffffffff168152602001908152602001600020549081150290604051600060405180830381858888f1935050505015801561033e573d6000803e3d6000fd5b50808060010191505061023e565b5056fea265627a7a72315820ee5ee441ab7929ef5838cfb2830dbacfab1a913507458d83ce92d4959393de8e64736f6c63430005110032",
  "source": "// SPDX-License-Identifier: MIT\r\npragma solidity ^0.5.0;\r\n\r\ncontract OnDie{\r\n    address owner;\r\n    uint MyEther;\r\n    bool isDead;\r\n\r\n    constructor() payable public {\r\n        owner = msg.sender;\r\n        MyEther = msg.value;\r\n        isDead = false;\r\n    }\r\n\r\n    modifier OnlyOwner {\r\n        require(msg.sender == owner);\r\n        _;\r\n    }\r\n\r\n    modifier MustBeDied {\r\n        require(isDead == true);\r\n        _;\r\n    }\r\n\r\n    address payable[] familyWallet;\r\n\r\n    mapping (address => uint) Inheritance;\r\n\r\n    function SetInheritance(address payable wallet , uint amount) public OnlyOwner {\r\n        familyWallet.push(wallet);\r\n        Inheritance[wallet] = amount;\r\n    }\r\n\r\n    function payout() private MustBeDied {\r\n        for(uint i=0;i < familyWallet.length; i++){\r\n            familyWallet[i].transfer(Inheritance[familyWallet[i]]);\r\n        }\r\n    }\r\n\r\n    function died() public OnlyOwner{\r\n        isDead = true;\r\n        payout();\r\n    }\r\n    \r\n}",
  "sourcePath": "E:\\Blockchain\\defi-staking-app-starter\\src\\contracts\\will-on-die.sol",
  "compiler": {
    "name": "solc",
    "version": "0.5.17+commit.d19bba13.Emscripten.clang"
  },
  "schemaVersion": "3.4.16",
  "updatedAt": "2024-05-28T08:37:25.832Z",
  "devdoc": {
    "methods": {}
  },
  "userdoc": {
    "methods": {}
  }
}