{
  "contractName": "ProofOfReserveConsumer",
  "abi": [
    {
      "inputs": [],
      "stateMutability": "nonpayable",
      "type": "constructor"
    },
    {
      "anonymous": false,
      "inputs": [
        {
          "indexed": true,
          "internalType": "bytes32",
          "name": "id",
          "type": "bytes32"
        }
      ],
      "name": "ChainlinkCancelled",
      "type": "event"
    },
    {
      "anonymous": false,
      "inputs": [
        {
          "indexed": true,
          "internalType": "bytes32",
          "name": "id",
          "type": "bytes32"
        }
      ],
      "name": "ChainlinkFulfilled",
      "type": "event"
    },
    {
      "anonymous": false,
      "inputs": [
        {
          "indexed": true,
          "internalType": "bytes32",
          "name": "id",
          "type": "bytes32"
        }
      ],
      "name": "ChainlinkRequested",
      "type": "event"
    },
    {
      "anonymous": false,
      "inputs": [
        {
          "indexed": true,
          "internalType": "address",
          "name": "from",
          "type": "address"
        },
        {
          "indexed": true,
          "internalType": "address",
          "name": "to",
          "type": "address"
        }
      ],
      "name": "OwnershipTransferRequested",
      "type": "event"
    },
    {
      "anonymous": false,
      "inputs": [
        {
          "indexed": true,
          "internalType": "address",
          "name": "from",
          "type": "address"
        },
        {
          "indexed": true,
          "internalType": "address",
          "name": "to",
          "type": "address"
        }
      ],
      "name": "OwnershipTransferred",
      "type": "event"
    },
    {
      "anonymous": false,
      "inputs": [
        {
          "indexed": true,
          "internalType": "bytes32",
          "name": "requestId",
          "type": "bytes32"
        },
        {
          "indexed": false,
          "internalType": "uint256",
          "name": "proofOfReserve",
          "type": "uint256"
        }
      ],
      "name": "RequestProofOfReserve",
      "type": "event"
    },
    {
      "inputs": [],
      "name": "acceptOwnership",
      "outputs": [],
      "stateMutability": "nonpayable",
      "type": "function"
    },
    {
      "inputs": [],
      "name": "owner",
      "outputs": [
        {
          "internalType": "address",
          "name": "",
          "type": "address"
        }
      ],
      "stateMutability": "view",
      "type": "function"
    },
    {
      "inputs": [],
      "name": "proofOfReserve",
      "outputs": [
        {
          "internalType": "uint256",
          "name": "",
          "type": "uint256"
        }
      ],
      "stateMutability": "view",
      "type": "function"
    },
    {
      "inputs": [
        {
          "internalType": "address",
          "name": "to",
          "type": "address"
        }
      ],
      "name": "transferOwnership",
      "outputs": [],
      "stateMutability": "nonpayable",
      "type": "function"
    },
    {
      "inputs": [],
      "name": "requestProofOfReserveData",
      "outputs": [
        {
          "internalType": "bytes32",
          "name": "requestId",
          "type": "bytes32"
        }
      ],
      "stateMutability": "nonpayable",
      "type": "function"
    },
    {
      "inputs": [
        {
          "internalType": "bytes32",
          "name": "_requestId",
          "type": "bytes32"
        },
        {
          "internalType": "uint256",
          "name": "_proofOfReserve",
          "type": "uint256"
        }
      ],
      "name": "fulfillProofOfReserve",
      "outputs": [],
      "stateMutability": "nonpayable",
      "type": "function"
    },
    {
      "inputs": [],
      "name": "getLatestProofOfReserve",
      "outputs": [
        {
          "internalType": "uint256",
          "name": "",
          "type": "uint256"
        }
      ],
      "stateMutability": "view",
      "type": "function"
    },
    {
      "inputs": [],
      "name": "withdrawLink",
      "outputs": [],
      "stateMutability": "nonpayable",
      "type": "function"
    }
  ],
  "bytecode": "0x60806040526001600455348015610014575f80fd5b50338060065f6101000a81548173ffffffffffffffffffffffffffffffffffffffff021916908373ffffffffffffffffffffffffffffffffffffffff1602179055505061007a73a36085f69e2889c224210f603d836748e7dc00886100d860201b60201c565b61009d737afe1118ea78c1eae84ca8fee5c65bc76ccf879e61011b60201b60201c565b7f623636303264313465343733346334396135653163653139643435613436333260098190555067016345785d8a0000600a8190555061015e565b8060025f6101000a81548173ffffffffffffffffffffffffffffffffffffffff021916908373ffffffffffffffffffffffffffffffffffffffff16021790555050565b8060035f6101000a81548173ffffffffffffffffffffffffffffffffffffffff021916908373ffffffffffffffffffffffffffffffffffffffff16021790555050565b61154d8061016b5f395ff3fe608060405234801561000f575f80fd5b5060043610610086575f3560e01c806379ba50971161005957806379ba5097146101005780638da5cb5b1461010a5780638dc654a214610128578063f2fde38b1461013257610086565b80631a5f45291461008a57806321941169146100a65780632740af7c146100c45780634cd82812146100e2575b5f80fd5b6100a4600480360381019061009f9190610d15565b61014e565b005b6100ae610291565b6040516100bb9190610d62565b60405180910390f35b6100cc6102bb565b6040516100d99190610d8a565b60405180910390f35b6100ea6102c1565b6040516100f79190610d8a565b60405180910390f35b6101086102ca565b005b61011261045b565b60405161011f9190610de2565b60405180910390f35b610130610483565b005b61014c60048036038101906101479190610e25565b610651565b005b8160055f8281526020019081526020015f205f9054906101000a900473ffffffffffffffffffffffffffffffffffffffff1673ffffffffffffffffffffffffffffffffffffffff163373ffffffffffffffffffffffffffffffffffffffff16146101ed576040517f08c379a00000000000000000000000000000000000000000000000000000000081526004016101e490610ed0565b60405180910390fd5b60055f8281526020019081526020015f205f6101000a81549073ffffffffffffffffffffffffffffffffffffffff0219169055807f7cc135e0cebb02c3480ae5d74d377283180a2601f8f644edf7987b009316c63a60405160405180910390a281600881905550827f8eefc3719a224f4ec38413f070c8a01ccf8a706ce76287229fcdc79f33defb35836040516102849190610d8a565b60405180910390a2505050565b5f806102a760095430631a5f452960e01b61080c565b90506102b581600a5461083d565b91505090565b60085481565b5f600854905090565b60075f9054906101000a900473ffffffffffffffffffffffffffffffffffffffff1673ffffffffffffffffffffffffffffffffffffffff163373ffffffffffffffffffffffffffffffffffffffff1614610359576040517f08c379a000000000000000000000000000000000000000000000000000000000815260040161035090610f38565b60405180910390fd5b5f60065f9054906101000a900473ffffffffffffffffffffffffffffffffffffffff1690503360065f6101000a81548173ffffffffffffffffffffffffffffffffffffffff021916908373ffffffffffffffffffffffffffffffffffffffff1602179055505f60075f6101000a81548173ffffffffffffffffffffffffffffffffffffffff021916908373ffffffffffffffffffffffffffffffffffffffff1602179055503373ffffffffffffffffffffffffffffffffffffffff168173ffffffffffffffffffffffffffffffffffffffff167f8be0079c531659141344cd1fd0a4f28419497f9722a3daafe3b4186f6b6457e060405160405180910390a350565b5f60065f9054906101000a900473ffffffffffffffffffffffffffffffffffffffff16905090565b60065f9054906101000a900473ffffffffffffffffffffffffffffffffffffffff1673ffffffffffffffffffffffffffffffffffffffff163373ffffffffffffffffffffffffffffffffffffffff1614610512576040517f08c379a000000000000000000000000000000000000000000000000000000000815260040161050990610fa0565b60405180910390fd5b5f61051b610872565b90508073ffffffffffffffffffffffffffffffffffffffff1663a9059cbb338373ffffffffffffffffffffffffffffffffffffffff166370a08231306040518263ffffffff1660e01b81526004016105739190610de2565b602060405180830381865afa15801561058e573d5f803e3d5ffd5b505050506040513d601f19601f820116820180604052508101906105b29190610fd2565b6040518363ffffffff1660e01b81526004016105cf929190610ffd565b6020604051808303815f875af11580156105eb573d5f803e3d5ffd5b505050506040513d601f19601f8201168201806040525081019061060f9190611059565b61064e576040517f08c379a0000000000000000000000000000000000000000000000000000000008152600401610645906110ce565b60405180910390fd5b50565b60065f9054906101000a900473ffffffffffffffffffffffffffffffffffffffff1673ffffffffffffffffffffffffffffffffffffffff163373ffffffffffffffffffffffffffffffffffffffff16146106e0576040517f08c379a00000000000000000000000000000000000000000000000000000000081526004016106d790610fa0565b60405180910390fd5b3373ffffffffffffffffffffffffffffffffffffffff168173ffffffffffffffffffffffffffffffffffffffff160361074e576040517f08c379a000000000000000000000000000000000000000000000000000000000815260040161074590611136565b60405180910390fd5b8060075f6101000a81548173ffffffffffffffffffffffffffffffffffffffff021916908373ffffffffffffffffffffffffffffffffffffffff1602179055508073ffffffffffffffffffffffffffffffffffffffff1660065f9054906101000a900473ffffffffffffffffffffffffffffffffffffffff1673ffffffffffffffffffffffffffffffffffffffff167fed8889f560326eb138920d842192f0eb3dd22b4f139c87a2c57538e05bae127860405160405180910390a350565b610814610c29565b61081c610c29565b6108338585858461089a909392919063ffffffff16565b9150509392505050565b5f61086a60035f9054906101000a900473ffffffffffffffffffffffffffffffffffffffff168484610949565b905092915050565b5f60025f9054906101000a900473ffffffffffffffffffffffffffffffffffffffff16905090565b6108a2610c29565b6108b28560800151610100610975565b5083855f01818152505082856020019073ffffffffffffffffffffffffffffffffffffffff16908173ffffffffffffffffffffffffffffffffffffffff16815250508185604001907bffffffffffffffffffffffffffffffffffffffffffffffffffffffff191690817bffffffffffffffffffffffffffffffffffffffffffffffffffffffff191681525050849050949350505050565b5f61096c848484600160035f9054906101000a905050634042994660e01b6109dd565b90509392505050565b61097d610c92565b5f60208361098b9190611181565b146109b75760208261099d9190611181565b60206109a991906111de565b826109b49190611211565b91505b818360200181815250506040518084525f81528281016020016040525082905092915050565b5f306004546040516020016109f39291906112f5565b6040516020818303038152906040528051906020012090506004548560600181815250508560055f8381526020019081526020015f205f6101000a81548173ffffffffffffffffffffffffffffffffffffffff021916908373ffffffffffffffffffffffffffffffffffffffff160217905550807fb5e6e01e79f91267dc17b4e6314d5d4d03593d2ceee0fbb452b750bd70ea5af960405160405180910390a25f825f80885f015189602001518a604001518b606001518a8d608001515f0151604051602401610aca9897969594939291906113ca565b604051602081830303815290604052907bffffffffffffffffffffffffffffffffffffffffffffffffffffffff19166020820180517bffffffffffffffffffffffffffffffffffffffffffffffffffffffff8381831617835250505050905060025f9054906101000a900473ffffffffffffffffffffffffffffffffffffffff1673ffffffffffffffffffffffffffffffffffffffff16634000aea08887846040518463ffffffff1660e01b8152600401610b879392919061144d565b6020604051808303815f875af1158015610ba3573d5f803e3d5ffd5b505050506040513d601f19601f82011682018060405250810190610bc79190611059565b610c06576040517f08c379a0000000000000000000000000000000000000000000000000000000008152600401610bfd906114f9565b60405180910390fd5b600160045f828254610c189190611211565b925050819055505095945050505050565b6040518060a001604052805f80191681526020015f73ffffffffffffffffffffffffffffffffffffffff1681526020015f7bffffffffffffffffffffffffffffffffffffffffffffffffffffffff191681526020015f8152602001610c8c610c92565b81525090565b6040518060400160405280606081526020015f81525090565b5f80fd5b5f819050919050565b610cc181610caf565b8114610ccb575f80fd5b50565b5f81359050610cdc81610cb8565b92915050565b5f819050919050565b610cf481610ce2565b8114610cfe575f80fd5b50565b5f81359050610d0f81610ceb565b92915050565b5f8060408385031215610d2b57610d2a610cab565b5b5f610d3885828601610cce565b9250506020610d4985828601610d01565b9150509250929050565b610d5c81610caf565b82525050565b5f602082019050610d755f830184610d53565b92915050565b610d8481610ce2565b82525050565b5f602082019050610d9d5f830184610d7b565b92915050565b5f73ffffffffffffffffffffffffffffffffffffffff82169050919050565b5f610dcc82610da3565b9050919050565b610ddc81610dc2565b82525050565b5f602082019050610df55f830184610dd3565b92915050565b610e0481610dc2565b8114610e0e575f80fd5b50565b5f81359050610e1f81610dfb565b92915050565b5f60208284031215610e3a57610e39610cab565b5b5f610e4784828501610e11565b91505092915050565b5f82825260208201905092915050565b7f536f75726365206d75737420626520746865206f7261636c65206f66207468655f8201527f2072657175657374000000000000000000000000000000000000000000000000602082015250565b5f610eba602883610e50565b9150610ec582610e60565b604082019050919050565b5f6020820190508181035f830152610ee781610eae565b9050919050565b7f4d7573742062652070726f706f736564206f776e6572000000000000000000005f82015250565b5f610f22601683610e50565b9150610f2d82610eee565b602082019050919050565b5f6020820190508181035f830152610f4f81610f16565b9050919050565b7f4f6e6c792063616c6c61626c65206279206f776e6572000000000000000000005f82015250565b5f610f8a601683610e50565b9150610f9582610f56565b602082019050919050565b5f6020820190508181035f830152610fb781610f7e565b9050919050565b5f81519050610fcc81610ceb565b92915050565b5f60208284031215610fe757610fe6610cab565b5b5f610ff484828501610fbe565b91505092915050565b5f6040820190506110105f830185610dd3565b61101d6020830184610d7b565b9392505050565b5f8115159050919050565b61103881611024565b8114611042575f80fd5b50565b5f815190506110538161102f565b92915050565b5f6020828403121561106e5761106d610cab565b5b5f61107b84828501611045565b91505092915050565b7f556e61626c6520746f207472616e7366657200000000000000000000000000005f82015250565b5f6110b8601283610e50565b91506110c382611084565b602082019050919050565b5f6020820190508181035f8301526110e5816110ac565b9050919050565b7f43616e6e6f74207472616e7366657220746f2073656c660000000000000000005f82015250565b5f611120601783610e50565b915061112b826110ec565b602082019050919050565b5f6020820190508181035f83015261114d81611114565b9050919050565b7f4e487b71000000000000000000000000000000000000000000000000000000005f52601260045260245ffd5b5f61118b82610ce2565b915061119683610ce2565b9250826111a6576111a5611154565b5b828206905092915050565b7f4e487b71000000000000000000000000000000000000000000000000000000005f52601160045260245ffd5b5f6111e882610ce2565b91506111f383610ce2565b925082820390508181111561120b5761120a6111b1565b5b92915050565b5f61121b82610ce2565b915061122683610ce2565b925082820190508082111561123e5761123d6111b1565b5b92915050565b5f819050919050565b5f61126761126261125d84610da3565b611244565b610da3565b9050919050565b5f6112788261124d565b9050919050565b5f6112898261126e565b9050919050565b5f8160601b9050919050565b5f6112a682611290565b9050919050565b5f6112b78261129c565b9050919050565b6112cf6112ca8261127f565b6112ad565b82525050565b5f819050919050565b6112ef6112ea82610ce2565b6112d5565b82525050565b5f61130082856112be565b60148201915061131082846112de565b6020820191508190509392505050565b5f7fffffffff0000000000000000000000000000000000000000000000000000000082169050919050565b61135481611320565b82525050565b5f81519050919050565b5f82825260208201905092915050565b8281835e5f83830152505050565b5f601f19601f8301169050919050565b5f61139c8261135a565b6113a68185611364565b93506113b6818560208601611374565b6113bf81611382565b840191505092915050565b5f610100820190506113de5f83018b610dd3565b6113eb602083018a610d7b565b6113f86040830189610d53565b6114056060830188610dd3565b611412608083018761134b565b61141f60a0830186610d7b565b61142c60c0830185610d7b565b81810360e083015261143e8184611392565b90509998505050505050505050565b5f6060820190506114605f830186610dd3565b61146d6020830185610d7b565b818103604083015261147f8184611392565b9050949350505050565b7f756e61626c6520746f207472616e73666572416e6443616c6c20746f206f72615f8201527f636c650000000000000000000000000000000000000000000000000000000000602082015250565b5f6114e3602383610e50565b91506114ee82611489565b604082019050919050565b5f6020820190508181035f830152611510816114d7565b905091905056fea26469706673582212202b0cf4428d93b275a700839e1f083ae0e57d1ab1bb4d54f6cb1d1b71c003d1d064736f6c634300081a0033",
  "immutableReferences": {},
  "source": "// SPDX-License-Identifier: MIT\r\npragma solidity ^0.8.2;\r\n\r\nimport \"@chainlink/contracts/src/v0.8/interfaces/AggregatorV3Interface.sol\";\r\nimport \"@chainlink/contracts/src/v0.8/dev/ChainlinkClient.sol\";\r\nimport \"@chainlink/contracts/src/v0.8/dev/ConfirmedOwner.sol\";\r\n\r\ncontract ProofOfReserveConsumer is ChainlinkClient, ConfirmedOwner {\r\n    using Chainlink for Chainlink.Request;\r\n\r\n    uint256 public proofOfReserve;\r\n    bytes32 private jobId;\r\n    uint256 private fee;\r\n\r\n    event RequestProofOfReserve(bytes32 indexed requestId, uint256 proofOfReserve);\r\n\r\n    /**\r\n     * Network: Kovan\r\n     * Oracle: 0x7AFe1118Ea78C1eae84ca8feE5C65Bc76CcF879e (Example Oracle)\r\n     * Job ID: b6602d14e4734c49a5e1ce19d45a4632 (Example Job ID)\r\n     * Fee: 0.1 LINK\r\n     */\r\n    constructor() ConfirmedOwner(msg.sender) {\r\n        setChainlinkToken(0xa36085F69e2889c224210F603D836748e7dC0088);\r\n        setChainlinkOracle(0x7AFe1118Ea78C1eae84ca8feE5C65Bc76CcF879e);\r\n        jobId = \"b6602d14e4734c49a5e1ce19d45a4632\";\r\n        fee = 0.1 * 10 ** 18; // 0.1 LINK\r\n    }\r\n\r\n    function requestProofOfReserveData() public returns (bytes32 requestId) {\r\n        Chainlink.Request memory request = buildChainlinkRequest(jobId, address(this), this.fulfillProofOfReserve.selector);\r\n        // Send the request\r\n        return sendChainlinkRequest(request, fee);\r\n    }\r\n\r\n    function fulfillProofOfReserve(bytes32 _requestId, uint256 _proofOfReserve) public recordChainlinkFulfillment(_requestId) {\r\n        proofOfReserve = _proofOfReserve;\r\n        emit RequestProofOfReserve(_requestId, _proofOfReserve);\r\n    }\r\n\r\n    function getLatestProofOfReserve() public view returns (uint256) {\r\n        return proofOfReserve;\r\n    }\r\n\r\n    // Function to withdraw LINK from the contract\r\n    function withdrawLink() external onlyOwner {\r\n        LinkTokenInterface link = LinkTokenInterface(chainlinkTokenAddress());\r\n        require(link.transfer(msg.sender, link.balanceOf(address(this))), \"Unable to transfer\");\r\n    }\r\n}\r\n",
  "sourcePath": "E:\\Blockchain\\defi-staking-app-starter\\src\\contracts\\ProofOfReserve.sol",
  "compiler": {
    "name": "solc",
    "version": "0.8.26+commit.8a97fa7a.Emscripten.clang"
  },
  "schemaVersion": "3.4.16",
  "updatedAt": "2024-05-30T11:30:14.808Z",
  "devdoc": {
    "kind": "dev",
    "methods": {},
    "version": 1
  },
  "userdoc": {
    "kind": "user",
    "methods": {
      "acceptOwnership()": {
        "notice": "Allows an ownership transfer to be completed by the recipient."
      },
      "constructor": {
        "notice": "Network: Kovan Oracle: 0x7AFe1118Ea78C1eae84ca8feE5C65Bc76CcF879e (Example Oracle) Job ID: b6602d14e4734c49a5e1ce19d45a4632 (Example Job ID) Fee: 0.1 LINK"
      },
      "owner()": {
        "notice": "Get the current owner"
      },
      "transferOwnership(address)": {
        "notice": "Allows an owner to begin transferring ownership to a new address, pending."
      }
    },
    "version": 1
  }
}