{
  "contractName": "ProofOfReserve",
  "abi": [
    {
      "inputs": [
        {
          "internalType": "address",
          "name": "_link",
          "type": "address"
        },
        {
          "internalType": "address",
          "name": "_oracle",
          "type": "address"
        },
        {
          "internalType": "string",
          "name": "_jobId",
          "type": "string"
        },
        {
          "internalType": "uint256",
          "name": "_fee",
          "type": "uint256"
        },
        {
          "internalType": "string",
          "name": "_apiUrl",
          "type": "string"
        },
        {
          "internalType": "string",
          "name": "_apiPath",
          "type": "string"
        }
      ],
      "payable": false,
      "stateMutability": "nonpayable",
      "type": "constructor"
    },
    {
      "anonymous": false,
      "inputs": [
        {
          "indexed": true,
          "internalType": "bytes32",
          "name": "id",
          "type": "bytes32"
        }
      ],
      "name": "ChainlinkCancelled",
      "type": "event"
    },
    {
      "anonymous": false,
      "inputs": [
        {
          "indexed": true,
          "internalType": "bytes32",
          "name": "id",
          "type": "bytes32"
        }
      ],
      "name": "ChainlinkFulfilled",
      "type": "event"
    },
    {
      "anonymous": false,
      "inputs": [
        {
          "indexed": true,
          "internalType": "bytes32",
          "name": "id",
          "type": "bytes32"
        }
      ],
      "name": "ChainlinkRequested",
      "type": "event"
    },
    {
      "anonymous": false,
      "inputs": [
        {
          "indexed": true,
          "internalType": "address",
          "name": "previousOwner",
          "type": "address"
        },
        {
          "indexed": true,
          "internalType": "address",
          "name": "newOwner",
          "type": "address"
        }
      ],
      "name": "OwnershipTransferred",
      "type": "event"
    },
    {
      "anonymous": false,
      "inputs": [
        {
          "indexed": false,
          "internalType": "uint256",
          "name": "reserveAmount",
          "type": "uint256"
        }
      ],
      "name": "ReserveVerified",
      "type": "event"
    },
    {
      "constant": true,
      "inputs": [],
      "name": "owner",
      "outputs": [
        {
          "internalType": "address",
          "name": "",
          "type": "address"
        }
      ],
      "payable": false,
      "stateMutability": "view",
      "type": "function"
    },
    {
      "constant": true,
      "inputs": [],
      "name": "reserveAmount",
      "outputs": [
        {
          "internalType": "uint256",
          "name": "",
          "type": "uint256"
        }
      ],
      "payable": false,
      "stateMutability": "view",
      "type": "function"
    },
    {
      "constant": false,
      "inputs": [],
      "name": "requestReserveData",
      "outputs": [
        {
          "internalType": "bytes32",
          "name": "requestId",
          "type": "bytes32"
        }
      ],
      "payable": false,
      "stateMutability": "nonpayable",
      "type": "function"
    },
    {
      "constant": false,
      "inputs": [
        {
          "internalType": "bytes32",
          "name": "_requestId",
          "type": "bytes32"
        },
        {
          "internalType": "uint256",
          "name": "_reserveAmount",
          "type": "uint256"
        }
      ],
      "name": "fulfill",
      "outputs": [],
      "payable": false,
      "stateMutability": "nonpayable",
      "type": "function"
    },
    {
      "constant": false,
      "inputs": [
        {
          "internalType": "address",
          "name": "newOwner",
          "type": "address"
        }
      ],
      "name": "transferOwnership",
      "outputs": [],
      "payable": false,
      "stateMutability": "nonpayable",
      "type": "function"
    }
  ],
  "bytecode": "0x608060405260016004553480156200001657600080fd5b506040516200178538038062001785833981810160405260c08110156200003c57600080fd5b810190808051906020019092919080519060200190929190805160405193929190846401000000008211156200007157600080fd5b838201915060208201858111156200008857600080fd5b8251866001820283011164010000000082111715620000a657600080fd5b8083526020830192505050908051906020019080838360005b83811015620000dc578082015181840152602081019050620000bf565b50505050905090810190601f1680156200010a5780820380516001836020036101000a031916815260200191505b5060405260200180519060200190929190805160405193929190846401000000008211156200013857600080fd5b838201915060208201858111156200014f57600080fd5b82518660018202830111640100000000821117156200016d57600080fd5b8083526020830192505050908051906020019080838360005b83811015620001a357808201518184015260208101905062000186565b50505050905090810190601f168015620001d15780820380516001836020036101000a031916815260200191505b5060405260200180516040519392919084640100000000821115620001f557600080fd5b838201915060208201858111156200020c57600080fd5b82518660018202830111640100000000821117156200022a57600080fd5b8083526020830192505050908051906020019080838360005b838110156200026057808201518184015260208101905062000243565b50505050905090810190601f1680156200028e5780820380516001836020036101000a031916815260200191505b50604052505050620002a6866200035460201b60201c565b620002b7856200039860201b60201c565b620002c884620003dc60201b60201c565b600781905550826008819055508160099080519060200190620002ed92919062000409565b5080600a90805190602001906200030692919062000409565b5033600b60006101000a81548173ffffffffffffffffffffffffffffffffffffffff021916908373ffffffffffffffffffffffffffffffffffffffff160217905550505050505050620004b8565b80600260006101000a81548173ffffffffffffffffffffffffffffffffffffffff021916908373ffffffffffffffffffffffffffffffffffffffff16021790555050565b80600360006101000a81548173ffffffffffffffffffffffffffffffffffffffff021916908373ffffffffffffffffffffffffffffffffffffffff16021790555050565b60006060829050600081511415620003fb576000801b91505062000404565b60208301519150505b919050565b828054600181600116156101000203166002900490600052602060002090601f016020900481019282601f106200044c57805160ff19168380011785556200047d565b828001600101855582156200047d579182015b828111156200047c5782518255916020019190600101906200045f565b5b5090506200048c919062000490565b5090565b620004b591905b80821115620004b157600081600090555060010162000497565b5090565b90565b6112bd80620004c86000396000f3fe608060405234801561001057600080fd5b50600436106100575760003560e01c806305350d561461005c5780634357855e1461007a5780634b09b72a146100b25780638da5cb5b146100d0578063f2fde38b1461011a575b600080fd5b61006461015e565b6040518082815260200191505060405180910390f35b6100b06004803603604081101561009057600080fd5b810190808035906020019092919080359060200190929190505050610423565b005b6100ba610583565b6040518082815260200191505060405180910390f35b6100d8610589565b604051808273ffffffffffffffffffffffffffffffffffffffff1673ffffffffffffffffffffffffffffffffffffffff16815260200191505060405180910390f35b61015c6004803603602081101561013057600080fd5b81019080803573ffffffffffffffffffffffffffffffffffffffff1690602001909291905050506105af565b005b6000600b60009054906101000a900473ffffffffffffffffffffffffffffffffffffffff1673ffffffffffffffffffffffffffffffffffffffff163373ffffffffffffffffffffffffffffffffffffffff1614610223576040517f08c379a00000000000000000000000000000000000000000000000000000000081526004018080602001828103825260178152602001807f43616c6c6572206973206e6f7420746865206f776e657200000000000000000081525060200191505060405180910390fd5b61022b61119c565b61023f60075430634357855e60e01b6107d5565b90506103256040518060400160405280600381526020017f676574000000000000000000000000000000000000000000000000000000000081525060098054600181600116156101000203166002900480601f0160208091040260200160405190810160405280929190818152602001828054600181600116156101000203166002900480156103105780601f106102e557610100808354040283529160200191610310565b820191906000526020600020905b8154815290600101906020018083116102f357829003601f168201915b5050505050836108069092919063ffffffff16565b6104096040518060400160405280600481526020017f7061746800000000000000000000000000000000000000000000000000000000815250600a8054600181600116156101000203166002900480601f0160208091040260200160405190810160405280929190818152602001828054600181600116156101000203166002900480156103f45780601f106103c9576101008083540402835291602001916103f4565b820191906000526020600020905b8154815290600101906020018083116103d757829003601f168201915b5050505050836108069092919063ffffffff16565b61041d610414610839565b82600854610863565b91505090565b816005600082815260200190815260200160002060009054906101000a900473ffffffffffffffffffffffffffffffffffffffff1673ffffffffffffffffffffffffffffffffffffffff163373ffffffffffffffffffffffffffffffffffffffff16146104db576040517f08c379a00000000000000000000000000000000000000000000000000000000081526004018080602001828103825260288152602001806112616028913960400191505060405180910390fd5b6005600082815260200190815260200160002060006101000a81549073ffffffffffffffffffffffffffffffffffffffff0219169055807f7cc135e0cebb02c3480ae5d74d377283180a2601f8f644edf7987b009316c63a60405160405180910390a2816006819055507f78232366506e0a6951f875cfa9bc9699f569775145a895ada92d94bb716d2c686006546040518082815260200191505060405180910390a1505050565b60065481565b600b60009054906101000a900473ffffffffffffffffffffffffffffffffffffffff1681565b600b60009054906101000a900473ffffffffffffffffffffffffffffffffffffffff1673ffffffffffffffffffffffffffffffffffffffff163373ffffffffffffffffffffffffffffffffffffffff1614610672576040517f08c379a00000000000000000000000000000000000000000000000000000000081526004018080602001828103825260178152602001807f43616c6c6572206973206e6f7420746865206f776e657200000000000000000081525060200191505060405180910390fd5b600073ffffffffffffffffffffffffffffffffffffffff168173ffffffffffffffffffffffffffffffffffffffff161415610715576040517f08c379a000000000000000000000000000000000000000000000000000000000815260040180806020018281038252601d8152602001807f4e6577206f776e657220697320746865207a65726f206164647265737300000081525060200191505060405180910390fd5b8073ffffffffffffffffffffffffffffffffffffffff16600b60009054906101000a900473ffffffffffffffffffffffffffffffffffffffff1673ffffffffffffffffffffffffffffffffffffffff167f8be0079c531659141344cd1fd0a4f28419497f9722a3daafe3b4186f6b6457e060405160405180910390a380600b60006101000a81548173ffffffffffffffffffffffffffffffffffffffff021916908373ffffffffffffffffffffffffffffffffffffffff16021790555050565b6107dd61119c565b6107e561119c565b6107fc85858584610b1b909392919063ffffffff16565b9150509392505050565b61081d828460800151610bcb90919063ffffffff16565b610834818460800151610bcb90919063ffffffff16565b505050565b6000600360009054906101000a900473ffffffffffffffffffffffffffffffffffffffff16905090565b600030600454604051602001808373ffffffffffffffffffffffffffffffffffffffff1673ffffffffffffffffffffffffffffffffffffffff1660601b815260140182815260200192505050604051602081830303815290604052805190602001209050600454836060018181525050836005600083815260200190815260200160002060006101000a81548173ffffffffffffffffffffffffffffffffffffffff021916908373ffffffffffffffffffffffffffffffffffffffff160217905550807fb5e6e01e79f91267dc17b4e6314d5d4d03593d2ceee0fbb452b750bd70ea5af960405160405180910390a2600260009054906101000a900473ffffffffffffffffffffffffffffffffffffffff1673ffffffffffffffffffffffffffffffffffffffff16634000aea0858461099b87610bf0565b6040518463ffffffff1660e01b8152600401808473ffffffffffffffffffffffffffffffffffffffff1673ffffffffffffffffffffffffffffffffffffffff16815260200183815260200180602001828103825283818151815260200191508051906020019080838360005b83811015610a22578082015181840152602081019050610a07565b50505050905090810190601f168015610a4f5780820380516001836020036101000a031916815260200191505b50945050505050602060405180830381600087803b158015610a7057600080fd5b505af1158015610a84573d6000803e3d6000fd5b505050506040513d6020811015610a9a57600080fd5b8101908080519060200190929190505050610b00576040517f08c379a000000000000000000000000000000000000000000000000000000000815260040180806020018281038252602381526020018061123e6023913960400191505060405180910390fd5b60016004600082825401925050819055508090509392505050565b610b2361119c565b610b338560800151610100610df7565b508385600001818152505082856020019073ffffffffffffffffffffffffffffffffffffffff16908173ffffffffffffffffffffffffffffffffffffffff16815250508185604001907bffffffffffffffffffffffffffffffffffffffffffffffffffffffff191690817bffffffffffffffffffffffffffffffffffffffffffffffffffffffff191681525050849050949350505050565b610bd88260038351610e4b565b610beb8183610f9090919063ffffffff16565b505050565b6060600360009054906101000a900473ffffffffffffffffffffffffffffffffffffffff1673ffffffffffffffffffffffffffffffffffffffff166340429946905060e01b60008084600001518560200151866040015187606001516001896080015160000151604051602401808973ffffffffffffffffffffffffffffffffffffffff1673ffffffffffffffffffffffffffffffffffffffff1681526020018881526020018781526020018673ffffffffffffffffffffffffffffffffffffffff1673ffffffffffffffffffffffffffffffffffffffff168152602001857bffffffffffffffffffffffffffffffffffffffffffffffffffffffff19167bffffffffffffffffffffffffffffffffffffffffffffffffffffffff1916815260200184815260200183815260200180602001828103825283818151815260200191508051906020019080838360005b83811015610d5a578082015181840152602081019050610d3f565b50505050905090810190601f168015610d875780820380516001836020036101000a031916815260200191505b509950505050505050505050604051602081830303815290604052907bffffffffffffffffffffffffffffffffffffffffffffffffffffffff19166020820180517bffffffffffffffffffffffffffffffffffffffffffffffffffffffff83818316178352505050509050919050565b610dff611209565b600060208381610e0b57fe5b0614610e245760208281610e1b57fe5b06602003820191505b81836020018181525050604051808452600081528281016020016040525082905092915050565b60178111610e7857610e728160058460ff16901b60ff161784610fb290919063ffffffff16565b50610f8b565b60ff8111610eba57610e9d601860058460ff16901b1784610fb290919063ffffffff16565b50610eb481600185610fd29092919063ffffffff16565b50610f8a565b61ffff8111610efd57610ee0601960058460ff16901b1784610fb290919063ffffffff16565b50610ef781600285610fd29092919063ffffffff16565b50610f89565b63ffffffff8111610f4257610f25601a60058460ff16901b1784610fb290919063ffffffff16565b50610f3c81600485610fd29092919063ffffffff16565b50610f88565b67ffffffffffffffff8111610f8757610f6e601b60058460ff16901b1784610fb290919063ffffffff16565b50610f8581600885610fd29092919063ffffffff16565b505b5b5b5b5b505050565b610f98611209565b610faa83846000015151848551610ff4565b905092915050565b610fba611209565b610fca83846000015151846110ad565b905092915050565b610fda611209565b610feb8485600001515185856110fb565b90509392505050565b610ffc611209565b825182111561100a57600080fd5b846020015182850111156110355761103485600261102e886020015188870161115c565b02611178565b5b6000808651805187602083010193508088870111156110545787860182525b60208701925050505b60208410611080578051825260208201915060208101905060208403935061105d565b60006001856020036101000a03905080198251168184511681811785525050879350505050949350505050565b6110b5611209565b836020015183106110d2576110d1846002866020015102611178565b5b83518051602085830101848153818614156110ee576001820183525b5050508390509392505050565b611103611209565b846020015184830111156111215761112085600286850102611178565b5b60006001836101000a039050855183868201018583198251161781528151858801111561114e5784870182525b505085915050949350505050565b60008183111561116e57829050611172565b8190505b92915050565b60608260000151905061118b8383610df7565b506111968382610f90565b50505050565b6040518060a0016040528060008019168152602001600073ffffffffffffffffffffffffffffffffffffffff16815260200160007bffffffffffffffffffffffffffffffffffffffffffffffffffffffff1916815260200160008152602001611203611223565b81525090565b604051806040016040528060608152602001600081525090565b60405180604001604052806060815260200160008152509056fe756e61626c6520746f207472616e73666572416e6443616c6c20746f206f7261636c65536f75726365206d75737420626520746865206f7261636c65206f66207468652072657175657374a265627a7a72315820c697f20b1b4cf1f578d4a07bf85d1e2e5ccfd8084185265ef9c6668a78bd65d664736f6c63430005110032",
  "source": "pragma solidity ^0.5.0;\r\n\r\nimport \"@chainlink/contracts/src/v0.5/ChainlinkClient.sol\";\r\n\r\ncontract ProofOfReserve is ChainlinkClient {\r\n    using Chainlink for Chainlink.Request;\r\n\r\n    uint256 public reserveAmount;\r\n    bytes32 private jobId;\r\n    uint256 private fee;\r\n    string private apiUrl;\r\n    string private apiPath;\r\n    address public owner;\r\n\r\n    event ReserveVerified(uint256 reserveAmount);\r\n    event OwnershipTransferred(address indexed previousOwner, address indexed newOwner);\r\n\r\n    modifier onlyOwner() {\r\n        require(msg.sender == owner, \"Caller is not the owner\");\r\n        _;\r\n    }\r\n\r\n    constructor(\r\n        address _link,\r\n        address _oracle,\r\n        string memory _jobId,\r\n        uint256 _fee,\r\n        string memory _apiUrl,\r\n        string memory _apiPath\r\n    ) public {\r\n        setChainlinkToken(_link);\r\n        setChainlinkOracle(_oracle);\r\n        jobId = stringToBytes32(_jobId);\r\n        fee = _fee;\r\n        apiUrl = _apiUrl;\r\n        apiPath = _apiPath;\r\n        owner = msg.sender;\r\n    }\r\n\r\n    function requestReserveData() public onlyOwner returns (bytes32 requestId) {\r\n        Chainlink.Request memory request = buildChainlinkRequest(\r\n            jobId,\r\n            address(this),\r\n            this.fulfill.selector\r\n        );\r\n\r\n        // Set the URL to perform the GET request on\r\n        request.add(\"get\", apiUrl);\r\n\r\n        // Define the path to find the data we want\r\n        request.add(\"path\", apiPath);\r\n\r\n        // Sends the request\r\n        return sendChainlinkRequestTo(chainlinkOracleAddress(), request, fee);\r\n    }\r\n\r\n    function fulfill(bytes32 _requestId, uint256 _reserveAmount)\r\n        public\r\n        recordChainlinkFulfillment(_requestId)\r\n    {\r\n        reserveAmount = _reserveAmount;\r\n        emit ReserveVerified(reserveAmount);\r\n    }\r\n\r\n    function transferOwnership(address newOwner) public onlyOwner {\r\n        require(newOwner != address(0), \"New owner is the zero address\");\r\n        emit OwnershipTransferred(owner, newOwner);\r\n        owner = newOwner;\r\n    }\r\n\r\n    function stringToBytes32(string memory source) internal pure returns (bytes32 result) {\r\n        bytes memory tempEmptyStringTest = bytes(source);\r\n        if (tempEmptyStringTest.length == 0) {\r\n            return 0x0;\r\n        }\r\n\r\n        assembly {\r\n            result := mload(add(source, 32))\r\n        }\r\n    }\r\n}\r\n",
  "sourcePath": "E:\\Blockchain\\defi-staking-app-starter\\src\\contracts\\ProofOfReserve.sol",
  "compiler": {
    "name": "solc",
    "version": "0.5.17+commit.d19bba13.Emscripten.clang"
  },
  "schemaVersion": "3.4.16",
  "updatedAt": "2024-05-28T08:37:25.816Z",
  "devdoc": {
    "methods": {}
  },
  "userdoc": {
    "methods": {}
  }
}