{
  "contractName": "ProofOfReserveConsumer",
  "abi": [
    {
      "inputs": [],
      "stateMutability": "nonpayable",
      "type": "constructor"
    },
    {
      "anonymous": false,
      "inputs": [
        {
          "indexed": true,
          "internalType": "bytes32",
          "name": "id",
          "type": "bytes32"
        }
      ],
      "name": "ChainlinkCancelled",
      "type": "event"
    },
    {
      "anonymous": false,
      "inputs": [
        {
          "indexed": true,
          "internalType": "bytes32",
          "name": "id",
          "type": "bytes32"
        }
      ],
      "name": "ChainlinkFulfilled",
      "type": "event"
    },
    {
      "anonymous": false,
      "inputs": [
        {
          "indexed": true,
          "internalType": "bytes32",
          "name": "id",
          "type": "bytes32"
        }
      ],
      "name": "ChainlinkRequested",
      "type": "event"
    },
    {
      "anonymous": false,
      "inputs": [
        {
          "indexed": true,
          "internalType": "address",
          "name": "from",
          "type": "address"
        },
        {
          "indexed": true,
          "internalType": "address",
          "name": "to",
          "type": "address"
        }
      ],
      "name": "OwnershipTransferRequested",
      "type": "event"
    },
    {
      "anonymous": false,
      "inputs": [
        {
          "indexed": true,
          "internalType": "address",
          "name": "from",
          "type": "address"
        },
        {
          "indexed": true,
          "internalType": "address",
          "name": "to",
          "type": "address"
        }
      ],
      "name": "OwnershipTransferred",
      "type": "event"
    },
    {
      "anonymous": false,
      "inputs": [
        {
          "indexed": true,
          "internalType": "bytes32",
          "name": "requestId",
          "type": "bytes32"
        },
        {
          "indexed": false,
          "internalType": "uint256",
          "name": "proofOfReserve",
          "type": "uint256"
        }
      ],
      "name": "RequestProofOfReserve",
      "type": "event"
    },
    {
      "inputs": [],
      "name": "acceptOwnership",
      "outputs": [],
      "stateMutability": "nonpayable",
      "type": "function"
    },
    {
      "inputs": [],
      "name": "owner",
      "outputs": [
        {
          "internalType": "address",
          "name": "",
          "type": "address"
        }
      ],
      "stateMutability": "view",
      "type": "function"
    },
    {
      "inputs": [],
      "name": "proofOfReserve",
      "outputs": [
        {
          "internalType": "uint256",
          "name": "",
          "type": "uint256"
        }
      ],
      "stateMutability": "view",
      "type": "function"
    },
    {
      "inputs": [
        {
          "internalType": "address",
          "name": "to",
          "type": "address"
        }
      ],
      "name": "transferOwnership",
      "outputs": [],
      "stateMutability": "nonpayable",
      "type": "function"
    },
    {
      "inputs": [],
      "name": "requestProofOfReserveData",
      "outputs": [
        {
          "internalType": "bytes32",
          "name": "requestId",
          "type": "bytes32"
        }
      ],
      "stateMutability": "nonpayable",
      "type": "function"
    },
    {
      "inputs": [
        {
          "internalType": "bytes32",
          "name": "_requestId",
          "type": "bytes32"
        },
        {
          "internalType": "uint256",
          "name": "_proofOfReserve",
          "type": "uint256"
        }
      ],
      "name": "fulfillProofOfReserve",
      "outputs": [],
      "stateMutability": "nonpayable",
      "type": "function"
    },
    {
      "inputs": [],
      "name": "getLatestProofOfReserve",
      "outputs": [
        {
          "internalType": "uint256",
          "name": "",
          "type": "uint256"
        }
      ],
      "stateMutability": "view",
      "type": "function"
    },
    {
      "inputs": [],
      "name": "withdrawLink",
      "outputs": [],
      "stateMutability": "nonpayable",
      "type": "function"
    }
  ],
  "bytecode": "0x6080604052600160045534801561001557600080fd5b503380600660006101000a81548173ffffffffffffffffffffffffffffffffffffffff021916908373ffffffffffffffffffffffffffffffffffffffff1602179055505061007c73a36085f69e2889c224210f603d836748e7dc00886100da60201b60201c565b61009f737afe1118ea78c1eae84ca8fee5c65bc76ccf879e61011e60201b60201c565b7f623636303264313465343733346334396135653163653139643435613436333260098190555067016345785d8a0000600a81905550610162565b80600260006101000a81548173ffffffffffffffffffffffffffffffffffffffff021916908373ffffffffffffffffffffffffffffffffffffffff16021790555050565b80600360006101000a81548173ffffffffffffffffffffffffffffffffffffffff021916908373ffffffffffffffffffffffffffffffffffffffff16021790555050565b6115f2806101716000396000f3fe608060405234801561001057600080fd5b50600436106100885760003560e01c806379ba50971161005b57806379ba5097146101035780638da5cb5b1461010d5780638dc654a21461012b578063f2fde38b1461013557610088565b80631a5f45291461008d57806321941169146100a95780632740af7c146100c75780634cd82812146100e5575b600080fd5b6100a760048036038101906100a29190610d54565b610151565b005b6100b161029a565b6040516100be9190610da3565b60405180910390f35b6100cf6102c5565b6040516100dc9190610dcd565b60405180910390f35b6100ed6102cb565b6040516100fa9190610dcd565b60405180910390f35b61010b6102d5565b005b61011561046c565b6040516101229190610e29565b60405180910390f35b610133610496565b005b61014f600480360381019061014a9190610e70565b61066b565b005b816005600082815260200190815260200160002060009054906101000a900473ffffffffffffffffffffffffffffffffffffffff1673ffffffffffffffffffffffffffffffffffffffff163373ffffffffffffffffffffffffffffffffffffffff16146101f3576040517f08c379a00000000000000000000000000000000000000000000000000000000081526004016101ea90610f20565b60405180910390fd5b6005600082815260200190815260200160002060006101000a81549073ffffffffffffffffffffffffffffffffffffffff0219169055807f7cc135e0cebb02c3480ae5d74d377283180a2601f8f644edf7987b009316c63a60405160405180910390a281600881905550827f8eefc3719a224f4ec38413f070c8a01ccf8a706ce76287229fcdc79f33defb358360405161028d9190610dcd565b60405180910390a2505050565b6000806102b160095430631a5f452960e01b610829565b90506102bf81600a5461085a565b91505090565b60085481565b6000600854905090565b600760009054906101000a900473ffffffffffffffffffffffffffffffffffffffff1673ffffffffffffffffffffffffffffffffffffffff163373ffffffffffffffffffffffffffffffffffffffff1614610365576040517f08c379a000000000000000000000000000000000000000000000000000000000815260040161035c90610f8c565b60405180910390fd5b6000600660009054906101000a900473ffffffffffffffffffffffffffffffffffffffff16905033600660006101000a81548173ffffffffffffffffffffffffffffffffffffffff021916908373ffffffffffffffffffffffffffffffffffffffff1602179055506000600760006101000a81548173ffffffffffffffffffffffffffffffffffffffff021916908373ffffffffffffffffffffffffffffffffffffffff1602179055503373ffffffffffffffffffffffffffffffffffffffff168173ffffffffffffffffffffffffffffffffffffffff167f8be0079c531659141344cd1fd0a4f28419497f9722a3daafe3b4186f6b6457e060405160405180910390a350565b6000600660009054906101000a900473ffffffffffffffffffffffffffffffffffffffff16905090565b600660009054906101000a900473ffffffffffffffffffffffffffffffffffffffff1673ffffffffffffffffffffffffffffffffffffffff163373ffffffffffffffffffffffffffffffffffffffff1614610526576040517f08c379a000000000000000000000000000000000000000000000000000000000815260040161051d90610ff8565b60405180910390fd5b6000610530610891565b90508073ffffffffffffffffffffffffffffffffffffffff1663a9059cbb338373ffffffffffffffffffffffffffffffffffffffff166370a08231306040518263ffffffff1660e01b81526004016105889190610e29565b602060405180830381865afa1580156105a5573d6000803e3d6000fd5b505050506040513d601f19601f820116820180604052508101906105c9919061102d565b6040518363ffffffff1660e01b81526004016105e692919061105a565b6020604051808303816000875af1158015610605573d6000803e3d6000fd5b505050506040513d601f19601f8201168201806040525081019061062991906110bb565b610668576040517f08c379a000000000000000000000000000000000000000000000000000000000815260040161065f90611134565b60405180910390fd5b50565b600660009054906101000a900473ffffffffffffffffffffffffffffffffffffffff1673ffffffffffffffffffffffffffffffffffffffff163373ffffffffffffffffffffffffffffffffffffffff16146106fb576040517f08c379a00000000000000000000000000000000000000000000000000000000081526004016106f290610ff8565b60405180910390fd5b3373ffffffffffffffffffffffffffffffffffffffff168173ffffffffffffffffffffffffffffffffffffffff1603610769576040517f08c379a0000000000000000000000000000000000000000000000000000000008152600401610760906111a0565b60405180910390fd5b80600760006101000a81548173ffffffffffffffffffffffffffffffffffffffff021916908373ffffffffffffffffffffffffffffffffffffffff1602179055508073ffffffffffffffffffffffffffffffffffffffff16600660009054906101000a900473ffffffffffffffffffffffffffffffffffffffff1673ffffffffffffffffffffffffffffffffffffffff167fed8889f560326eb138920d842192f0eb3dd22b4f139c87a2c57538e05bae127860405160405180910390a350565b610831610c5c565b610839610c5c565b610850858585846108bb909392919063ffffffff16565b9150509392505050565b6000610889600360009054906101000a900473ffffffffffffffffffffffffffffffffffffffff16848461096b565b905092915050565b6000600260009054906101000a900473ffffffffffffffffffffffffffffffffffffffff16905090565b6108c3610c5c565b6108d38560800151610100610999565b508385600001818152505082856020019073ffffffffffffffffffffffffffffffffffffffff16908173ffffffffffffffffffffffffffffffffffffffff16815250508185604001907bffffffffffffffffffffffffffffffffffffffffffffffffffffffff191690817bffffffffffffffffffffffffffffffffffffffffffffffffffffffff191681525050849050949350505050565b60006109908484846001600360009054906101000a905050634042994660e01b610a03565b90509392505050565b6109a1610cc9565b60006020836109b091906111ef565b146109dc576020826109c291906111ef565b60206109ce919061124f565b826109d99190611283565b91505b81836020018181525050604051808452600081528281016020016040525082905092915050565b600030600454604051602001610a1a929190611370565b604051602081830303815290604052805190602001209050600454856060018181525050856005600083815260200190815260200160002060006101000a81548173ffffffffffffffffffffffffffffffffffffffff021916908373ffffffffffffffffffffffffffffffffffffffff160217905550807fb5e6e01e79f91267dc17b4e6314d5d4d03593d2ceee0fbb452b750bd70ea5af960405160405180910390a2600082600080886000015189602001518a604001518b606001518a8d6080015160000151604051602401610af8989796959493929190611467565b604051602081830303815290604052907bffffffffffffffffffffffffffffffffffffffffffffffffffffffff19166020820180517bffffffffffffffffffffffffffffffffffffffffffffffffffffffff83818316178352505050509050600260009054906101000a900473ffffffffffffffffffffffffffffffffffffffff1673ffffffffffffffffffffffffffffffffffffffff16634000aea08887846040518463ffffffff1660e01b8152600401610bb6939291906114ec565b6020604051808303816000875af1158015610bd5573d6000803e3d6000fd5b505050506040513d601f19601f82011682018060405250810190610bf991906110bb565b610c38576040517f08c379a0000000000000000000000000000000000000000000000000000000008152600401610c2f9061159c565b60405180910390fd5b600160046000828254610c4b9190611283565b925050819055505095945050505050565b6040518060a0016040528060008019168152602001600073ffffffffffffffffffffffffffffffffffffffff16815260200160007bffffffffffffffffffffffffffffffffffffffffffffffffffffffff1916815260200160008152602001610cc3610cc9565b81525090565b604051806040016040528060608152602001600081525090565b600080fd5b6000819050919050565b610cfb81610ce8565b8114610d0657600080fd5b50565b600081359050610d1881610cf2565b92915050565b6000819050919050565b610d3181610d1e565b8114610d3c57600080fd5b50565b600081359050610d4e81610d28565b92915050565b60008060408385031215610d6b57610d6a610ce3565b5b6000610d7985828601610d09565b9250506020610d8a85828601610d3f565b9150509250929050565b610d9d81610ce8565b82525050565b6000602082019050610db86000830184610d94565b92915050565b610dc781610d1e565b82525050565b6000602082019050610de26000830184610dbe565b92915050565b600073ffffffffffffffffffffffffffffffffffffffff82169050919050565b6000610e1382610de8565b9050919050565b610e2381610e08565b82525050565b6000602082019050610e3e6000830184610e1a565b92915050565b610e4d81610e08565b8114610e5857600080fd5b50565b600081359050610e6a81610e44565b92915050565b600060208284031215610e8657610e85610ce3565b5b6000610e9484828501610e5b565b91505092915050565b600082825260208201905092915050565b7f536f75726365206d75737420626520746865206f7261636c65206f662074686560008201527f2072657175657374000000000000000000000000000000000000000000000000602082015250565b6000610f0a602883610e9d565b9150610f1582610eae565b604082019050919050565b60006020820190508181036000830152610f3981610efd565b9050919050565b7f4d7573742062652070726f706f736564206f776e657200000000000000000000600082015250565b6000610f76601683610e9d565b9150610f8182610f40565b602082019050919050565b60006020820190508181036000830152610fa581610f69565b9050919050565b7f4f6e6c792063616c6c61626c65206279206f776e657200000000000000000000600082015250565b6000610fe2601683610e9d565b9150610fed82610fac565b602082019050919050565b6000602082019050818103600083015261101181610fd5565b9050919050565b60008151905061102781610d28565b92915050565b60006020828403121561104357611042610ce3565b5b600061105184828501611018565b91505092915050565b600060408201905061106f6000830185610e1a565b61107c6020830184610dbe565b9392505050565b60008115159050919050565b61109881611083565b81146110a357600080fd5b50565b6000815190506110b58161108f565b92915050565b6000602082840312156110d1576110d0610ce3565b5b60006110df848285016110a6565b91505092915050565b7f556e61626c6520746f207472616e736665720000000000000000000000000000600082015250565b600061111e601283610e9d565b9150611129826110e8565b602082019050919050565b6000602082019050818103600083015261114d81611111565b9050919050565b7f43616e6e6f74207472616e7366657220746f2073656c66000000000000000000600082015250565b600061118a601783610e9d565b915061119582611154565b602082019050919050565b600060208201905081810360008301526111b98161117d565b9050919050565b7f4e487b7100000000000000000000000000000000000000000000000000000000600052601260045260246000fd5b60006111fa82610d1e565b915061120583610d1e565b925082611215576112146111c0565b5b828206905092915050565b7f4e487b7100000000000000000000000000000000000000000000000000000000600052601160045260246000fd5b600061125a82610d1e565b915061126583610d1e565b925082820390508181111561127d5761127c611220565b5b92915050565b600061128e82610d1e565b915061129983610d1e565b92508282019050808211156112b1576112b0611220565b5b92915050565b6000819050919050565b60006112dc6112d76112d284610de8565b6112b7565b610de8565b9050919050565b60006112ee826112c1565b9050919050565b6000611300826112e3565b9050919050565b60008160601b9050919050565b600061131f82611307565b9050919050565b600061133182611314565b9050919050565b611349611344826112f5565b611326565b82525050565b6000819050919050565b61136a61136582610d1e565b61134f565b82525050565b600061137c8285611338565b60148201915061138c8284611359565b6020820191508190509392505050565b60007fffffffff0000000000000000000000000000000000000000000000000000000082169050919050565b6113d18161139c565b82525050565b600081519050919050565b600082825260208201905092915050565b60005b838110156114115780820151818401526020810190506113f6565b60008484015250505050565b6000601f19601f8301169050919050565b6000611439826113d7565b61144381856113e2565b93506114538185602086016113f3565b61145c8161141d565b840191505092915050565b60006101008201905061147d600083018b610e1a565b61148a602083018a610dbe565b6114976040830189610d94565b6114a46060830188610e1a565b6114b160808301876113c8565b6114be60a0830186610dbe565b6114cb60c0830185610dbe565b81810360e08301526114dd818461142e565b90509998505050505050505050565b60006060820190506115016000830186610e1a565b61150e6020830185610dbe565b8181036040830152611520818461142e565b9050949350505050565b7f756e61626c6520746f207472616e73666572416e6443616c6c20746f206f726160008201527f636c650000000000000000000000000000000000000000000000000000000000602082015250565b6000611586602383610e9d565b91506115918261152a565b604082019050919050565b600060208201905081810360008301526115b581611579565b905091905056fea2646970667358221220fca2572ce5d00d61876337af64f101da0c5673bb5c01d14035bd6b41b44b90b464736f6c634300081a0033",
  "immutableReferences": {},
  "source": "// SPDX-License-Identifier: MIT\r\npragma solidity ^0.8.19;\r\n\r\nimport \"@chainlink/contracts/src/v0.8/interfaces/AggregatorV3Interface.sol\";\r\nimport \"@chainlink/contracts/src/v0.8/dev/ChainlinkClient.sol\";\r\nimport \"@chainlink/contracts/src/v0.8/dev/ConfirmedOwner.sol\";\r\n\r\ncontract ProofOfReserveConsumer is ChainlinkClient, ConfirmedOwner {\r\n    using Chainlink for Chainlink.Request;\r\n\r\n    uint256 public proofOfReserve;\r\n    bytes32 private jobId;\r\n    uint256 private fee;\r\n\r\n    event RequestProofOfReserve(bytes32 indexed requestId, uint256 proofOfReserve);\r\n\r\n    /**\r\n     * Network: Kovan\r\n     * Oracle: 0x7AFe1118Ea78C1eae84ca8feE5C65Bc76CcF879e (Example Oracle)\r\n     * Job ID: b6602d14e4734c49a5e1ce19d45a4632 (Example Job ID)\r\n     * Fee: 0.1 LINK\r\n     */\r\n    constructor() ConfirmedOwner(msg.sender) {\r\n        setChainlinkToken(0xa36085F69e2889c224210F603D836748e7dC0088);\r\n        setChainlinkOracle(0x7AFe1118Ea78C1eae84ca8feE5C65Bc76CcF879e);\r\n        jobId = \"b6602d14e4734c49a5e1ce19d45a4632\";\r\n        fee = 0.1 * 10 ** 18; // 0.1 LINK\r\n    }\r\n\r\n    function requestProofOfReserveData() public returns (bytes32 requestId) {\r\n        Chainlink.Request memory request = buildChainlinkRequest(jobId, address(this), this.fulfillProofOfReserve.selector);\r\n        // Send the request\r\n        return sendChainlinkRequest(request, fee);\r\n    }\r\n\r\n    function fulfillProofOfReserve(bytes32 _requestId, uint256 _proofOfReserve) public recordChainlinkFulfillment(_requestId) {\r\n        proofOfReserve = _proofOfReserve;\r\n        emit RequestProofOfReserve(_requestId, _proofOfReserve);\r\n    }\r\n\r\n    function getLatestProofOfReserve() public view returns (uint256) {\r\n        return proofOfReserve;\r\n    }\r\n\r\n    // Function to withdraw LINK from the contract\r\n    function withdrawLink() external onlyOwner {\r\n        LinkTokenInterface link = LinkTokenInterface(chainlinkTokenAddress());\r\n        require(link.transfer(msg.sender, link.balanceOf(address(this))), \"Unable to transfer\");\r\n    }\r\n}\r\n",
  "sourcePath": "E:\\Blockchain\\defi-staking-app-starter\\src\\contracts\\ProofOfReserve.sol",
  "compiler": {
    "name": "solc",
    "version": "0.8.26+commit.8a97fa7a.Emscripten.clang"
  },
  "schemaVersion": "3.4.16",
  "updatedAt": "2024-06-02T11:25:12.245Z",
  "devdoc": {
    "kind": "dev",
    "methods": {},
    "version": 1
  },
  "userdoc": {
    "kind": "user",
    "methods": {
      "acceptOwnership()": {
        "notice": "Allows an ownership transfer to be completed by the recipient."
      },
      "constructor": {
        "notice": "Network: Kovan Oracle: 0x7AFe1118Ea78C1eae84ca8feE5C65Bc76CcF879e (Example Oracle) Job ID: b6602d14e4734c49a5e1ce19d45a4632 (Example Job ID) Fee: 0.1 LINK"
      },
      "owner()": {
        "notice": "Get the current owner"
      },
      "transferOwnership(address)": {
        "notice": "Allows an owner to begin transferring ownership to a new address, pending."
      }
    },
    "version": 1
  }
}