{
  "contractName": "RandomNumberConsumer",
  "abi": [
    {
      "inputs": [],
      "stateMutability": "nonpayable",
      "type": "constructor"
    },
    {
      "inputs": [],
      "name": "randomResult",
      "outputs": [
        {
          "internalType": "uint256",
          "name": "",
          "type": "uint256"
        }
      ],
      "stateMutability": "view",
      "type": "function"
    },
    {
      "inputs": [
        {
          "internalType": "bytes32",
          "name": "requestId",
          "type": "bytes32"
        },
        {
          "internalType": "uint256",
          "name": "randomness",
          "type": "uint256"
        }
      ],
      "name": "rawFulfillRandomness",
      "outputs": [],
      "stateMutability": "nonpayable",
      "type": "function"
    },
    {
      "inputs": [],
      "name": "getRandomNumber",
      "outputs": [
        {
          "internalType": "bytes32",
          "name": "requestId",
          "type": "bytes32"
        }
      ],
      "stateMutability": "nonpayable",
      "type": "function"
    }
  ],
  "bytecode": "0x60c060405234801561001057600080fd5b5073514910771af9ca656af840dff83e8264ecf986ca73326c977e6efc84e512bb9c30f76e30c160ed06fb8173ffffffffffffffffffffffffffffffffffffffff1660a08173ffffffffffffffffffffffffffffffffffffffff16815250508073ffffffffffffffffffffffffffffffffffffffff1660808173ffffffffffffffffffffffffffffffffffffffff168152505050507faa77729d3466ca35ae8d28c29b4ac14cda734dcc9bb9c55fe4e5f7bae7f8230460001b60018190555067016345785d8a000060028190555060805160a0516109576101106000396000818160a6015261027e015260008181610147015261024201526109576000f3fe608060405234801561001057600080fd5b50600436106100415760003560e01c806342619f661461004657806394985ddd14610064578063dbdff2c114610080575b600080fd5b61004e61009e565b60405161005b9190610416565b60405180910390f35b61007e60048036038101906100799190610498565b6100a4565b005b610088610140565b60405161009591906104e7565b60405180910390f35b60035481565b7f000000000000000000000000000000000000000000000000000000000000000073ffffffffffffffffffffffffffffffffffffffff163373ffffffffffffffffffffffffffffffffffffffff1614610132576040517f08c379a00000000000000000000000000000000000000000000000000000000081526004016101299061055f565b60405180910390fd5b61013c8282610233565b5050565b60006002547f000000000000000000000000000000000000000000000000000000000000000073ffffffffffffffffffffffffffffffffffffffff166370a08231306040518263ffffffff1660e01b815260040161019e91906105c0565b602060405180830381865afa1580156101bb573d6000803e3d6000fd5b505050506040513d601f19601f820116820180604052508101906101df91906105f0565b1015610220576040517f08c379a00000000000000000000000000000000000000000000000000000000081526004016102179061068f565b60405180910390fd5b61022e60015460025461023e565b905090565b806003819055505050565b60007f000000000000000000000000000000000000000000000000000000000000000073ffffffffffffffffffffffffffffffffffffffff16634000aea07f0000000000000000000000000000000000000000000000000000000000000000848660006040516020016102b29291906106af565b6040516020818303038152906040526040518463ffffffff1660e01b81526004016102df93929190610768565b6020604051808303816000875af11580156102fe573d6000803e3d6000fd5b505050506040513d601f19601f8201168201806040525081019061032291906107de565b506000610344846000306000808981526020019081526020016000205461038e565b9050600160008086815260200190815260200160002054610365919061083a565b6000808681526020019081526020016000208190555061038584826103ca565b91505092915050565b6000848484846040516020016103a7949392919061086e565b6040516020818303038152906040528051906020012060001c9050949350505050565b600082826040516020016103df9291906108f5565b60405160208183030381529060405280519060200120905092915050565b6000819050919050565b610410816103fd565b82525050565b600060208201905061042b6000830184610407565b92915050565b600080fd5b6000819050919050565b61044981610436565b811461045457600080fd5b50565b60008135905061046681610440565b92915050565b610475816103fd565b811461048057600080fd5b50565b6000813590506104928161046c565b92915050565b600080604083850312156104af576104ae610431565b5b60006104bd85828601610457565b92505060206104ce85828601610483565b9150509250929050565b6104e181610436565b82525050565b60006020820190506104fc60008301846104d8565b92915050565b600082825260208201905092915050565b7f4f6e6c7920565246436f6f7264696e61746f722063616e2066756c66696c6c00600082015250565b6000610549601f83610502565b915061055482610513565b602082019050919050565b600060208201905081810360008301526105788161053c565b9050919050565b600073ffffffffffffffffffffffffffffffffffffffff82169050919050565b60006105aa8261057f565b9050919050565b6105ba8161059f565b82525050565b60006020820190506105d560008301846105b1565b92915050565b6000815190506105ea8161046c565b92915050565b60006020828403121561060657610605610431565b5b6000610614848285016105db565b91505092915050565b7f4e6f7420656e6f756768204c494e4b202d2066696c6c20636f6e74726163742060008201527f7769746820666175636574000000000000000000000000000000000000000000602082015250565b6000610679602b83610502565b91506106848261061d565b604082019050919050565b600060208201905081810360008301526106a88161066c565b9050919050565b60006040820190506106c460008301856104d8565b6106d16020830184610407565b9392505050565b600081519050919050565b600082825260208201905092915050565b60005b838110156107125780820151818401526020810190506106f7565b60008484015250505050565b6000601f19601f8301169050919050565b600061073a826106d8565b61074481856106e3565b93506107548185602086016106f4565b61075d8161071e565b840191505092915050565b600060608201905061077d60008301866105b1565b61078a6020830185610407565b818103604083015261079c818461072f565b9050949350505050565b60008115159050919050565b6107bb816107a6565b81146107c657600080fd5b50565b6000815190506107d8816107b2565b92915050565b6000602082840312156107f4576107f3610431565b5b6000610802848285016107c9565b91505092915050565b7f4e487b7100000000000000000000000000000000000000000000000000000000600052601160045260246000fd5b6000610845826103fd565b9150610850836103fd565b92508282019050808211156108685761086761080b565b5b92915050565b600060808201905061088360008301876104d8565b6108906020830186610407565b61089d60408301856105b1565b6108aa6060830184610407565b95945050505050565b6000819050919050565b6108ce6108c982610436565b6108b3565b82525050565b6000819050919050565b6108ef6108ea826103fd565b6108d4565b82525050565b600061090182856108bd565b60208201915061091182846108de565b602082019150819050939250505056fea264697066735822122033081afbc2a607a34be7f525a3ff8f10c542a59ff3777b6444d959b1d6f1b8e064736f6c634300081a0033",
  "immutableReferences": {
    "2035": [
      {
        "length": 32,
        "start": 327
      },
      {
        "length": 32,
        "start": 578
      }
    ],
    "2037": [
      {
        "length": 32,
        "start": 166
      },
      {
        "length": 32,
        "start": 638
      }
    ]
  },
  "source": "// SPDX-License-Identifier: MIT\r\npragma solidity ^0.8.0;\r\n\r\nimport \"@chainlink/contracts/src/v0.8/dev/VRFConsumerBase.sol\";\r\n\r\ncontract RandomNumberConsumer is VRFConsumerBase {\r\n    bytes32 internal keyHash;\r\n    uint256 internal fee;\r\n    uint256 public randomResult;\r\n\r\n    constructor() \r\n        VRFConsumerBase(\r\n            0x514910771AF9Ca656af840dff83E8264EcF986CA, // VRF Coordinator\r\n            0x326C977E6efc84E512bB9C30f76E30c160eD06FB  // LINK Token\r\n        )\r\n    {\r\n        keyHash = 0xAA77729D3466CA35AE8D28C29B4AC14CDA734DCC9BB9C55FE4E5F7BAE7F82304;\r\n        fee = 0.1 * 10 ** 18; // 0.1 LINK\r\n    }\r\n\r\n    function getRandomNumber() public returns (bytes32 requestId) {\r\n        require(LINK.balanceOf(address(this)) >= fee, \"Not enough LINK - fill contract with faucet\");\r\n        return requestRandomness(keyHash, fee);\r\n    }\r\n\r\n    function fulfillRandomness(bytes32 requestId, uint256 randomness) internal override {\r\n        randomResult = randomness;\r\n    }\r\n}\r\n",
  "sourcePath": "E:\\Blockchain\\defi-staking-app-starter\\src\\contracts\\vrf.sol",
  "compiler": {
    "name": "solc",
    "version": "0.8.26+commit.8a97fa7a.Emscripten.clang"
  },
  "schemaVersion": "3.4.16",
  "updatedAt": "2024-06-02T20:12:44.045Z",
  "devdoc": {
    "kind": "dev",
    "methods": {},
    "version": 1
  },
  "userdoc": {
    "kind": "user",
    "methods": {},
    "version": 1
  }
}