{
  "contractName": "TokenTransferor",
  "abi": [
    {
      "inputs": [
        {
          "internalType": "address",
          "name": "_router",
          "type": "address"
        },
        {
          "internalType": "address",
          "name": "_link",
          "type": "address"
        }
      ],
      "stateMutability": "nonpayable",
      "type": "constructor"
    },
    {
      "inputs": [
        {
          "internalType": "uint64",
          "name": "destinationChainSelector",
          "type": "uint64"
        }
      ],
      "name": "DestinationChainNotAllowlisted",
      "type": "error"
    },
    {
      "inputs": [
        {
          "internalType": "address",
          "name": "owner",
          "type": "address"
        },
        {
          "internalType": "address",
          "name": "target",
          "type": "address"
        },
        {
          "internalType": "uint256",
          "name": "value",
          "type": "uint256"
        }
      ],
      "name": "FailedToWithdrawEth",
      "type": "error"
    },
    {
      "inputs": [],
      "name": "InvalidReceiverAddress",
      "type": "error"
    },
    {
      "inputs": [
        {
          "internalType": "uint256",
          "name": "currentBalance",
          "type": "uint256"
        },
        {
          "internalType": "uint256",
          "name": "calculatedFees",
          "type": "uint256"
        }
      ],
      "name": "NotEnoughBalance",
      "type": "error"
    },
    {
      "inputs": [],
      "name": "NothingToWithdraw",
      "type": "error"
    },
    {
      "anonymous": false,
      "inputs": [
        {
          "indexed": true,
          "internalType": "address",
          "name": "from",
          "type": "address"
        },
        {
          "indexed": true,
          "internalType": "address",
          "name": "to",
          "type": "address"
        }
      ],
      "name": "OwnershipTransferRequested",
      "type": "event"
    },
    {
      "anonymous": false,
      "inputs": [
        {
          "indexed": true,
          "internalType": "address",
          "name": "from",
          "type": "address"
        },
        {
          "indexed": true,
          "internalType": "address",
          "name": "to",
          "type": "address"
        }
      ],
      "name": "OwnershipTransferred",
      "type": "event"
    },
    {
      "anonymous": false,
      "inputs": [
        {
          "indexed": true,
          "internalType": "bytes32",
          "name": "messageId",
          "type": "bytes32"
        },
        {
          "indexed": true,
          "internalType": "uint64",
          "name": "destinationChainSelector",
          "type": "uint64"
        },
        {
          "indexed": false,
          "internalType": "address",
          "name": "receiver",
          "type": "address"
        },
        {
          "indexed": false,
          "internalType": "address",
          "name": "token",
          "type": "address"
        },
        {
          "indexed": false,
          "internalType": "uint256",
          "name": "tokenAmount",
          "type": "uint256"
        },
        {
          "indexed": false,
          "internalType": "address",
          "name": "feeToken",
          "type": "address"
        },
        {
          "indexed": false,
          "internalType": "uint256",
          "name": "fees",
          "type": "uint256"
        }
      ],
      "name": "TokensTransferred",
      "type": "event"
    },
    {
      "inputs": [],
      "name": "acceptOwnership",
      "outputs": [],
      "stateMutability": "nonpayable",
      "type": "function"
    },
    {
      "inputs": [
        {
          "internalType": "uint64",
          "name": "",
          "type": "uint64"
        }
      ],
      "name": "allowlistedChains",
      "outputs": [
        {
          "internalType": "bool",
          "name": "",
          "type": "bool"
        }
      ],
      "stateMutability": "view",
      "type": "function"
    },
    {
      "inputs": [],
      "name": "owner",
      "outputs": [
        {
          "internalType": "address",
          "name": "",
          "type": "address"
        }
      ],
      "stateMutability": "view",
      "type": "function"
    },
    {
      "inputs": [
        {
          "internalType": "address",
          "name": "to",
          "type": "address"
        }
      ],
      "name": "transferOwnership",
      "outputs": [],
      "stateMutability": "nonpayable",
      "type": "function"
    },
    {
      "stateMutability": "payable",
      "type": "receive"
    },
    {
      "inputs": [
        {
          "internalType": "uint64",
          "name": "_destinationChainSelector",
          "type": "uint64"
        },
        {
          "internalType": "bool",
          "name": "allowed",
          "type": "bool"
        }
      ],
      "name": "allowlistDestinationChain",
      "outputs": [],
      "stateMutability": "nonpayable",
      "type": "function"
    },
    {
      "inputs": [
        {
          "internalType": "uint64",
          "name": "_destinationChainSelector",
          "type": "uint64"
        },
        {
          "internalType": "address",
          "name": "_receiver",
          "type": "address"
        },
        {
          "internalType": "address",
          "name": "_token",
          "type": "address"
        },
        {
          "internalType": "uint256",
          "name": "_amount",
          "type": "uint256"
        }
      ],
      "name": "transferTokensPayLINK",
      "outputs": [
        {
          "internalType": "bytes32",
          "name": "messageId",
          "type": "bytes32"
        }
      ],
      "stateMutability": "nonpayable",
      "type": "function"
    },
    {
      "inputs": [
        {
          "internalType": "uint64",
          "name": "_destinationChainSelector",
          "type": "uint64"
        },
        {
          "internalType": "address",
          "name": "_receiver",
          "type": "address"
        },
        {
          "internalType": "address",
          "name": "_token",
          "type": "address"
        },
        {
          "internalType": "uint256",
          "name": "_amount",
          "type": "uint256"
        }
      ],
      "name": "transferTokensPayNative",
      "outputs": [
        {
          "internalType": "bytes32",
          "name": "messageId",
          "type": "bytes32"
        }
      ],
      "stateMutability": "nonpayable",
      "type": "function"
    },
    {
      "inputs": [
        {
          "internalType": "address",
          "name": "_beneficiary",
          "type": "address"
        }
      ],
      "name": "withdraw",
      "outputs": [],
      "stateMutability": "nonpayable",
      "type": "function"
    },
    {
      "inputs": [
        {
          "internalType": "address",
          "name": "_beneficiary",
          "type": "address"
        },
        {
          "internalType": "address",
          "name": "_token",
          "type": "address"
        }
      ],
      "name": "withdrawToken",
      "outputs": [],
      "stateMutability": "nonpayable",
      "type": "function"
    }
  ],
  "bytecode": "0x608060405234801561001057600080fd5b506040516126c83803806126c883398181016040528101906100329190610343565b338060008073ffffffffffffffffffffffffffffffffffffffff168273ffffffffffffffffffffffffffffffffffffffff16036100a4576040517f08c379a000000000000000000000000000000000000000000000000000000000815260040161009b906103e0565b60405180910390fd5b816000806101000a81548173ffffffffffffffffffffffffffffffffffffffff021916908373ffffffffffffffffffffffffffffffffffffffff160217905550600073ffffffffffffffffffffffffffffffffffffffff168173ffffffffffffffffffffffffffffffffffffffff161461012857610127816101b460201b60201c565b5b50505081600360006101000a81548173ffffffffffffffffffffffffffffffffffffffff021916908373ffffffffffffffffffffffffffffffffffffffff16021790555080600460006101000a81548173ffffffffffffffffffffffffffffffffffffffff021916908373ffffffffffffffffffffffffffffffffffffffff160217905550505061046c565b3373ffffffffffffffffffffffffffffffffffffffff168173ffffffffffffffffffffffffffffffffffffffff1603610222576040517f08c379a00000000000000000000000000000000000000000000000000000000081526004016102199061044c565b60405180910390fd5b80600160006101000a81548173ffffffffffffffffffffffffffffffffffffffff021916908373ffffffffffffffffffffffffffffffffffffffff1602179055508073ffffffffffffffffffffffffffffffffffffffff1660008054906101000a900473ffffffffffffffffffffffffffffffffffffffff1673ffffffffffffffffffffffffffffffffffffffff167fed8889f560326eb138920d842192f0eb3dd22b4f139c87a2c57538e05bae127860405160405180910390a350565b600080fd5b600073ffffffffffffffffffffffffffffffffffffffff82169050919050565b6000610310826102e5565b9050919050565b61032081610305565b811461032b57600080fd5b50565b60008151905061033d81610317565b92915050565b6000806040838503121561035a576103596102e0565b5b60006103688582860161032e565b92505060206103798582860161032e565b9150509250929050565b600082825260208201905092915050565b7f43616e6e6f7420736574206f776e657220746f207a65726f0000000000000000600082015250565b60006103ca601883610383565b91506103d582610394565b602082019050919050565b600060208201905081810360008301526103f9816103bd565b9050919050565b7f43616e6e6f74207472616e7366657220746f2073656c66000000000000000000600082015250565b6000610436601783610383565b915061044182610400565b602082019050919050565b6000602082019050818103600083015261046581610429565b9050919050565b61224d8061047b6000396000f3fe60806040526004361061008a5760003560e01c806379ba50971161005957806379ba5097146101625780638da5cb5b1461017957806395e1402c146101a457806396d3b83d146101e1578063f2fde38b1461020a57610091565b80630bb106eb146100965780633aeac4e1146100d357806351419b4b146100fc57806351cff8d91461013957610091565b3661009157005b600080fd5b3480156100a257600080fd5b506100bd60048036038101906100b891906116db565b610233565b6040516100ca9190611723565b60405180910390f35b3480156100df57600080fd5b506100fa60048036038101906100f5919061179c565b610253565b005b34801561010857600080fd5b50610123600480360381019061011e9190611812565b610343565b6040516101309190611892565b60405180910390f35b34801561014557600080fd5b50610160600480360381019061015b91906118ad565b6106c1565b005b34801561016e57600080fd5b506101776107bf565b005b34801561018557600080fd5b5061018e610954565b60405161019b91906118e9565b60405180910390f35b3480156101b057600080fd5b506101cb60048036038101906101c69190611812565b61097d565b6040516101d89190611892565b60405180910390f35b3480156101ed57600080fd5b5061020860048036038101906102039190611930565b610f35565b005b34801561021657600080fd5b50610231600480360381019061022c91906118ad565b610f80565b005b60026020528060005260406000206000915054906101000a900460ff1681565b61025b610f94565b60008173ffffffffffffffffffffffffffffffffffffffff166370a08231306040518263ffffffff1660e01b815260040161029691906118e9565b602060405180830381865afa1580156102b3573d6000803e3d6000fd5b505050506040513d601f19601f820116820180604052508101906102d79190611985565b905060008103610313576040517fd0d04f6000000000000000000000000000000000000000000000000000000000815260040160405180910390fd5b61033e83828473ffffffffffffffffffffffffffffffffffffffff166110249092919063ffffffff16565b505050565b600061034d610f94565b84600260008267ffffffffffffffff1667ffffffffffffffff16815260200190815260200160002060009054906101000a900460ff166103c457806040517f0a503cdb0000000000000000000000000000000000000000000000000000000081526004016103bb91906119c1565b60405180910390fd5b84600073ffffffffffffffffffffffffffffffffffffffff168173ffffffffffffffffffffffffffffffffffffffff160361042b576040517fa05ff47e00000000000000000000000000000000000000000000000000000000815260040160405180910390fd5b600061043a87878760006110aa565b90506000600360009054906101000a900473ffffffffffffffffffffffffffffffffffffffff1673ffffffffffffffffffffffffffffffffffffffff166320487ded8a846040518363ffffffff1660e01b815260040161049b929190611bf3565b602060405180830381865afa1580156104b8573d6000803e3d6000fd5b505050506040513d601f19601f820116820180604052508101906104dc9190611985565b9050478111156105255747816040517f8f0f420600000000000000000000000000000000000000000000000000000000815260040161051c929190611c32565b60405180910390fd5b8673ffffffffffffffffffffffffffffffffffffffff1663095ea7b3600360009054906101000a900473ffffffffffffffffffffffffffffffffffffffff16886040518363ffffffff1660e01b8152600401610582929190611c5b565b6020604051808303816000875af11580156105a1573d6000803e3d6000fd5b505050506040513d601f19601f820116820180604052508101906105c59190611c99565b50600360009054906101000a900473ffffffffffffffffffffffffffffffffffffffff1673ffffffffffffffffffffffffffffffffffffffff166396f4e9f9828b856040518463ffffffff1660e01b8152600401610624929190611bf3565b60206040518083038185885af1158015610642573d6000803e3d6000fd5b50505050506040513d601f19601f820116820180604052508101906106679190611cf2565b94508867ffffffffffffffff16857fc15fb748c32ba4eb29c1c311e78533f93b4425eab49ea87c6fe4279ecadca0438a8a8a6000876040516106ad959493929190611d1f565b60405180910390a350505050949350505050565b6106c9610f94565b600047905060008103610708576040517fd0d04f6000000000000000000000000000000000000000000000000000000000815260040160405180910390fd5b60008273ffffffffffffffffffffffffffffffffffffffff168260405161072e90611da3565b60006040518083038185875af1925050503d806000811461076b576040519150601f19603f3d011682016040523d82523d6000602084013e610770565b606091505b50509050806107ba573383836040517f9d11f5630000000000000000000000000000000000000000000000000000000081526004016107b193929190611db8565b60405180910390fd5b505050565b600160009054906101000a900473ffffffffffffffffffffffffffffffffffffffff1673ffffffffffffffffffffffffffffffffffffffff163373ffffffffffffffffffffffffffffffffffffffff161461084f576040517f08c379a000000000000000000000000000000000000000000000000000000000815260040161084690611e4c565b60405180910390fd5b60008060009054906101000a900473ffffffffffffffffffffffffffffffffffffffff169050336000806101000a81548173ffffffffffffffffffffffffffffffffffffffff021916908373ffffffffffffffffffffffffffffffffffffffff1602179055506000600160006101000a81548173ffffffffffffffffffffffffffffffffffffffff021916908373ffffffffffffffffffffffffffffffffffffffff1602179055503373ffffffffffffffffffffffffffffffffffffffff168173ffffffffffffffffffffffffffffffffffffffff167f8be0079c531659141344cd1fd0a4f28419497f9722a3daafe3b4186f6b6457e060405160405180910390a350565b60008060009054906101000a900473ffffffffffffffffffffffffffffffffffffffff16905090565b6000610987610f94565b84600260008267ffffffffffffffff1667ffffffffffffffff16815260200190815260200160002060009054906101000a900460ff166109fe57806040517f0a503cdb0000000000000000000000000000000000000000000000000000000081526004016109f591906119c1565b60405180910390fd5b84600073ffffffffffffffffffffffffffffffffffffffff168173ffffffffffffffffffffffffffffffffffffffff1603610a65576040517fa05ff47e00000000000000000000000000000000000000000000000000000000815260040160405180910390fd5b6000610a95878787600460009054906101000a900473ffffffffffffffffffffffffffffffffffffffff166110aa565b90506000600360009054906101000a900473ffffffffffffffffffffffffffffffffffffffff1673ffffffffffffffffffffffffffffffffffffffff166320487ded8a846040518363ffffffff1660e01b8152600401610af6929190611bf3565b602060405180830381865afa158015610b13573d6000803e3d6000fd5b505050506040513d601f19601f82011682018060405250810190610b379190611985565b9050600460009054906101000a900473ffffffffffffffffffffffffffffffffffffffff1673ffffffffffffffffffffffffffffffffffffffff166370a08231306040518263ffffffff1660e01b8152600401610b9491906118e9565b602060405180830381865afa158015610bb1573d6000803e3d6000fd5b505050506040513d601f19601f82011682018060405250810190610bd59190611985565b811115610cb657600460009054906101000a900473ffffffffffffffffffffffffffffffffffffffff1673ffffffffffffffffffffffffffffffffffffffff166370a08231306040518263ffffffff1660e01b8152600401610c3791906118e9565b602060405180830381865afa158015610c54573d6000803e3d6000fd5b505050506040513d601f19601f82011682018060405250810190610c789190611985565b816040517f8f0f4206000000000000000000000000000000000000000000000000000000008152600401610cad929190611c32565b60405180910390fd5b600460009054906101000a900473ffffffffffffffffffffffffffffffffffffffff1673ffffffffffffffffffffffffffffffffffffffff1663095ea7b3600360009054906101000a900473ffffffffffffffffffffffffffffffffffffffff16836040518363ffffffff1660e01b8152600401610d35929190611c5b565b6020604051808303816000875af1158015610d54573d6000803e3d6000fd5b505050506040513d601f19601f82011682018060405250810190610d789190611c99565b508673ffffffffffffffffffffffffffffffffffffffff1663095ea7b3600360009054906101000a900473ffffffffffffffffffffffffffffffffffffffff16886040518363ffffffff1660e01b8152600401610dd6929190611c5b565b6020604051808303816000875af1158015610df5573d6000803e3d6000fd5b505050506040513d601f19601f82011682018060405250810190610e199190611c99565b50600360009054906101000a900473ffffffffffffffffffffffffffffffffffffffff1673ffffffffffffffffffffffffffffffffffffffff166396f4e9f98a846040518363ffffffff1660e01b8152600401610e77929190611bf3565b6020604051808303816000875af1158015610e96573d6000803e3d6000fd5b505050506040513d601f19601f82011682018060405250810190610eba9190611cf2565b94508867ffffffffffffffff16857fc15fb748c32ba4eb29c1c311e78533f93b4425eab49ea87c6fe4279ecadca0438a8a8a600460009054906101000a900473ffffffffffffffffffffffffffffffffffffffff1687604051610f21959493929190611d1f565b60405180910390a350505050949350505050565b610f3d610f94565b80600260008467ffffffffffffffff1667ffffffffffffffff16815260200190815260200160002060006101000a81548160ff0219169083151502179055505050565b610f88610f94565b610f91816111e2565b50565b60008054906101000a900473ffffffffffffffffffffffffffffffffffffffff1673ffffffffffffffffffffffffffffffffffffffff163373ffffffffffffffffffffffffffffffffffffffff1614611022576040517f08c379a000000000000000000000000000000000000000000000000000000000815260040161101990611eb8565b60405180910390fd5b565b6110a58363a9059cbb60e01b8484604051602401611043929190611c5b565b604051602081830303815290604052907bffffffffffffffffffffffffffffffffffffffffffffffffffffffff19166020820180517bffffffffffffffffffffffffffffffffffffffffffffffffffffffff838183161783525050505061130e565b505050565b6110b2611621565b6000600167ffffffffffffffff8111156110cf576110ce611ed8565b5b60405190808252806020026020018201604052801561110857816020015b6110f5611666565b8152602001906001900390816110ed5790505b50905060405180604001604052808673ffffffffffffffffffffffffffffffffffffffff168152602001858152508160008151811061114a57611149611f07565b5b60200260200101819052506040518060a001604052808760405160200161117191906118e9565b60405160208183030381529060405281526020016040518060200160405280600081525081526020018281526020018473ffffffffffffffffffffffffffffffffffffffff1681526020016111d4604051806020016040528060008152506113d5565b815250915050949350505050565b3373ffffffffffffffffffffffffffffffffffffffff168173ffffffffffffffffffffffffffffffffffffffff1603611250576040517f08c379a000000000000000000000000000000000000000000000000000000000815260040161124790611f82565b60405180910390fd5b80600160006101000a81548173ffffffffffffffffffffffffffffffffffffffff021916908373ffffffffffffffffffffffffffffffffffffffff1602179055508073ffffffffffffffffffffffffffffffffffffffff1660008054906101000a900473ffffffffffffffffffffffffffffffffffffffff1673ffffffffffffffffffffffffffffffffffffffff167fed8889f560326eb138920d842192f0eb3dd22b4f139c87a2c57538e05bae127860405160405180910390a350565b6000611370826040518060400160405280602081526020017f5361666545524332303a206c6f772d6c6576656c2063616c6c206661696c65648152508573ffffffffffffffffffffffffffffffffffffffff166114549092919063ffffffff16565b90506000815111156113d057808060200190518101906113909190611c99565b6113cf576040517f08c379a00000000000000000000000000000000000000000000000000000000081526004016113c690612014565b60405180910390fd5b5b505050565b60606397a657c960e01b826040516024016113f09190612050565b604051602081830303815290604052907bffffffffffffffffffffffffffffffffffffffffffffffffffffffff19166020820180517bffffffffffffffffffffffffffffffffffffffffffffffffffffffff83818316178352505050509050919050565b6060611463848460008561146c565b90509392505050565b6060824710156114b1576040517f08c379a00000000000000000000000000000000000000000000000000000000081526004016114a8906120dd565b60405180910390fd5b6000808673ffffffffffffffffffffffffffffffffffffffff1685876040516114da919061212e565b60006040518083038185875af1925050503d8060008114611517576040519150601f19603f3d011682016040523d82523d6000602084013e61151c565b606091505b509150915061152d87838387611539565b92505050949350505050565b6060831561159b57600083510361159357611553856115ae565b611592576040517f08c379a000000000000000000000000000000000000000000000000000000000815260040161158990612191565b60405180910390fd5b5b8290506115a6565b6115a583836115d1565b5b949350505050565b6000808273ffffffffffffffffffffffffffffffffffffffff163b119050919050565b6000825111156115e45781518083602001fd5b806040517f08c379a000000000000000000000000000000000000000000000000000000000815260040161161891906121f5565b60405180910390fd5b6040518060a00160405280606081526020016060815260200160608152602001600073ffffffffffffffffffffffffffffffffffffffff168152602001606081525090565b6040518060400160405280600073ffffffffffffffffffffffffffffffffffffffff168152602001600081525090565b600080fd5b600067ffffffffffffffff82169050919050565b6116b88161169b565b81146116c357600080fd5b50565b6000813590506116d5816116af565b92915050565b6000602082840312156116f1576116f0611696565b5b60006116ff848285016116c6565b91505092915050565b60008115159050919050565b61171d81611708565b82525050565b60006020820190506117386000830184611714565b92915050565b600073ffffffffffffffffffffffffffffffffffffffff82169050919050565b60006117698261173e565b9050919050565b6117798161175e565b811461178457600080fd5b50565b60008135905061179681611770565b92915050565b600080604083850312156117b3576117b2611696565b5b60006117c185828601611787565b92505060206117d285828601611787565b9150509250929050565b6000819050919050565b6117ef816117dc565b81146117fa57600080fd5b50565b60008135905061180c816117e6565b92915050565b6000806000806080858703121561182c5761182b611696565b5b600061183a878288016116c6565b945050602061184b87828801611787565b935050604061185c87828801611787565b925050606061186d878288016117fd565b91505092959194509250565b6000819050919050565b61188c81611879565b82525050565b60006020820190506118a76000830184611883565b92915050565b6000602082840312156118c3576118c2611696565b5b60006118d184828501611787565b91505092915050565b6118e38161175e565b82525050565b60006020820190506118fe60008301846118da565b92915050565b61190d81611708565b811461191857600080fd5b50565b60008135905061192a81611904565b92915050565b6000806040838503121561194757611946611696565b5b6000611955858286016116c6565b92505060206119668582860161191b565b9150509250929050565b60008151905061197f816117e6565b92915050565b60006020828403121561199b5761199a611696565b5b60006119a984828501611970565b91505092915050565b6119bb8161169b565b82525050565b60006020820190506119d660008301846119b2565b92915050565b600081519050919050565b600082825260208201905092915050565b60005b83811015611a165780820151818401526020810190506119fb565b60008484015250505050565b6000601f19601f8301169050919050565b6000611a3e826119dc565b611a4881856119e7565b9350611a588185602086016119f8565b611a6181611a22565b840191505092915050565b600081519050919050565b600082825260208201905092915050565b6000819050602082019050919050565b611aa18161175e565b82525050565b611ab0816117dc565b82525050565b604082016000820151611acc6000850182611a98565b506020820151611adf6020850182611aa7565b50505050565b6000611af18383611ab6565b60408301905092915050565b6000602082019050919050565b6000611b1582611a6c565b611b1f8185611a77565b9350611b2a83611a88565b8060005b83811015611b5b578151611b428882611ae5565b9750611b4d83611afd565b925050600181019050611b2e565b5085935050505092915050565b600060a0830160008301518482036000860152611b858282611a33565b91505060208301518482036020860152611b9f8282611a33565b91505060408301518482036040860152611bb98282611b0a565b9150506060830151611bce6060860182611a98565b5060808301518482036080860152611be68282611a33565b9150508091505092915050565b6000604082019050611c0860008301856119b2565b8181036020830152611c1a8184611b68565b90509392505050565b611c2c816117dc565b82525050565b6000604082019050611c476000830185611c23565b611c546020830184611c23565b9392505050565b6000604082019050611c7060008301856118da565b611c7d6020830184611c23565b9392505050565b600081519050611c9381611904565b92915050565b600060208284031215611caf57611cae611696565b5b6000611cbd84828501611c84565b91505092915050565b611ccf81611879565b8114611cda57600080fd5b50565b600081519050611cec81611cc6565b92915050565b600060208284031215611d0857611d07611696565b5b6000611d1684828501611cdd565b91505092915050565b600060a082019050611d3460008301886118da565b611d4160208301876118da565b611d4e6040830186611c23565b611d5b60608301856118da565b611d686080830184611c23565b9695505050505050565b600081905092915050565b50565b6000611d8d600083611d72565b9150611d9882611d7d565b600082019050919050565b6000611dae82611d80565b9150819050919050565b6000606082019050611dcd60008301866118da565b611dda60208301856118da565b611de76040830184611c23565b949350505050565b600082825260208201905092915050565b7f4d7573742062652070726f706f736564206f776e657200000000000000000000600082015250565b6000611e36601683611def565b9150611e4182611e00565b602082019050919050565b60006020820190508181036000830152611e6581611e29565b9050919050565b7f4f6e6c792063616c6c61626c65206279206f776e657200000000000000000000600082015250565b6000611ea2601683611def565b9150611ead82611e6c565b602082019050919050565b60006020820190508181036000830152611ed181611e95565b9050919050565b7f4e487b7100000000000000000000000000000000000000000000000000000000600052604160045260246000fd5b7f4e487b7100000000000000000000000000000000000000000000000000000000600052603260045260246000fd5b7f43616e6e6f74207472616e7366657220746f2073656c66000000000000000000600082015250565b6000611f6c601783611def565b9150611f7782611f36565b602082019050919050565b60006020820190508181036000830152611f9b81611f5f565b9050919050565b7f5361666545524332303a204552433230206f7065726174696f6e20646964206e60008201527f6f74207375636365656400000000000000000000000000000000000000000000602082015250565b6000611ffe602a83611def565b915061200982611fa2565b604082019050919050565b6000602082019050818103600083015261202d81611ff1565b9050919050565b60208201600082015161204a6000850182611aa7565b50505050565b60006020820190506120656000830184612034565b92915050565b7f416464726573733a20696e73756666696369656e742062616c616e636520666f60008201527f722063616c6c0000000000000000000000000000000000000000000000000000602082015250565b60006120c7602683611def565b91506120d28261206b565b604082019050919050565b600060208201905081810360008301526120f6816120ba565b9050919050565b6000612108826119dc565b6121128185611d72565b93506121228185602086016119f8565b80840191505092915050565b600061213a82846120fd565b915081905092915050565b7f416464726573733a2063616c6c20746f206e6f6e2d636f6e7472616374000000600082015250565b600061217b601d83611def565b915061218682612145565b602082019050919050565b600060208201905081810360008301526121aa8161216e565b9050919050565b600081519050919050565b60006121c7826121b1565b6121d18185611def565b93506121e18185602086016119f8565b6121ea81611a22565b840191505092915050565b6000602082019050818103600083015261220f81846121bc565b90509291505056fea2646970667358221220d319c075d25305e158f366c3699dbd9a5da893bdd8542fa5833ec77226a5cf3764736f6c634300081a0033",
  "immutableReferences": {},
  "source": "// SPDX-License-Identifier: MIT\r\npragma solidity >=0.8.19 <0.9.0;\r\n\r\nimport {IRouterClient} from \"@chainlink/contracts-ccip/src/v0.8/ccip/interfaces/IRouterClient.sol\";\r\nimport {OwnerIsCreator} from \"@chainlink/contracts-ccip/src/v0.8/shared/access/OwnerIsCreator.sol\";\r\nimport {Client} from \"@chainlink/contracts-ccip/src/v0.8/ccip/libraries/Client.sol\";\r\nimport {IERC20} from \"@chainlink/contracts-ccip/src/v0.8/vendor/openzeppelin-solidity/v4.8.3/contracts/token/ERC20/IERC20.sol\";\r\nimport {SafeERC20} from \"@chainlink/contracts-ccip/src/v0.8/vendor/openzeppelin-solidity/v4.8.3/contracts/token/ERC20/utils/SafeERC20.sol\";\r\n\r\n// Contract deploy details\r\n// Ethereum Router = 0x80226fc0Ee2b096224EeAc085Bb9a8cba1146f7D  {https://docs.chain.link/ccip/supported-networks/v1_2_0/mainnet#ethereum-mainnet}\r\n// LINK for ETH = 0x514910771AF9Ca656af840dff83E8264EcF986CA     {https://docs.chain.link/resources/link-token-contracts}\r\n// For guidance: {https://docs.chain.link/ccip/tutorials/cross-chain-tokens}\r\n\r\n/// @title - A simple contract for transferring tokens across chains.\r\ncontract TokenTransferor is OwnerIsCreator {\r\n    using SafeERC20 for IERC20;\r\n\r\n    // Custom errors to provide more descriptive revert messages.\r\n    error NotEnoughBalance(uint256 currentBalance, uint256 calculatedFees); // Used to make sure contract has enough balance to cover the fees.\r\n    error NothingToWithdraw(); // Used when trying to withdraw Ether but there's nothing to withdraw.\r\n    error FailedToWithdrawEth(address owner, address target, uint256 value); // Used when the withdrawal of Ether fails.\r\n    error DestinationChainNotAllowlisted(uint64 destinationChainSelector); // Used when the destination chain has not been allowlisted by the contract owner.\r\n    error InvalidReceiverAddress(); // Used when the receiver address is 0.\r\n    // Event emitted when the tokens are transferred to an account on another chain.\r\n    event TokensTransferred(\r\n        bytes32 indexed messageId, // The unique ID of the message.\r\n        uint64 indexed destinationChainSelector, // The chain selector of the destination chain.\r\n        address receiver, // The address of the receiver on the destination chain.\r\n        address token, // The token address that was transferred.\r\n        uint256 tokenAmount, // The token amount that was transferred.\r\n        address feeToken, // the token address used to pay CCIP fees.\r\n        uint256 fees // The fees paid for sending the message.\r\n    );\r\n\r\n    // Mapping to keep track of allowlisted destination chains.\r\n    mapping(uint64 => bool) public allowlistedChains;\r\n\r\n    IRouterClient private s_router;\r\n\r\n    IERC20 private s_linkToken;\r\n\r\n    /// @notice Constructor initializes the contract with the router address.\r\n    /// @param _router The address of the router contract.\r\n    /// @param _link The address of the link contract.\r\n    constructor(address _router, address _link) {\r\n        s_router = IRouterClient(_router);\r\n        s_linkToken = IERC20(_link);\r\n    }\r\n\r\n    /// @dev Modifier that checks if the chain with the given destinationChainSelector is allowlisted.\r\n    /// @param _destinationChainSelector The selector of the destination chain.\r\n    modifier onlyAllowlistedChain(uint64 _destinationChainSelector) {\r\n        if (!allowlistedChains[_destinationChainSelector])\r\n            revert DestinationChainNotAllowlisted(_destinationChainSelector);\r\n        _;\r\n    }\r\n\r\n    /// @dev Modifier that checks the receiver address is not 0.\r\n    /// @param _receiver The receiver address.\r\n    modifier validateReceiver(address _receiver) {\r\n        if (_receiver == address(0)) revert InvalidReceiverAddress();\r\n        _;\r\n    }\r\n\r\n    /// @dev Updates the allowlist status of a destination chain for transactions.\r\n    /// @notice This function can only be called by the owner.\r\n    /// @param _destinationChainSelector The selector of the destination chain to be updated.\r\n    /// @param allowed The allowlist status to be set for the destination chain.\r\n    function allowlistDestinationChain(\r\n        uint64 _destinationChainSelector,\r\n        bool allowed\r\n    ) external onlyOwner {\r\n        allowlistedChains[_destinationChainSelector] = allowed;\r\n    }\r\n\r\n    /// @notice Transfer tokens to receiver on the destination chain.\r\n    /// @notice pay in LINK.\r\n    /// @notice the token must be in the list of supported tokens.\r\n    /// @notice This function can only be called by the owner.\r\n    /// @dev Assumes your contract has sufficient LINK tokens to pay for the fees.\r\n    /// @param _destinationChainSelector The identifier (aka selector) for the destination blockchain.\r\n    /// @param _receiver The address of the recipient on the destination blockchain.\r\n    /// @param _token token address.\r\n    /// @param _amount token amount.\r\n    /// @return messageId The ID of the message that was sent.\r\n    function transferTokensPayLINK(\r\n        uint64 _destinationChainSelector,\r\n        address _receiver,\r\n        address _token,\r\n        uint256 _amount\r\n    )\r\n        external\r\n        onlyOwner\r\n        onlyAllowlistedChain(_destinationChainSelector)\r\n        validateReceiver(_receiver)\r\n        returns (bytes32 messageId)\r\n    {\r\n        // Create an EVM2AnyMessage struct in memory with necessary information for sending a cross-chain message\r\n        //  address(linkToken) means fees are paid in LINK\r\n        Client.EVM2AnyMessage memory evm2AnyMessage = _buildCCIPMessage(\r\n            _receiver,\r\n            _token,\r\n            _amount,\r\n            address(s_linkToken)\r\n        );\r\n\r\n        // Get the fee required to send the message\r\n        uint256 fees = s_router.getFee(\r\n            _destinationChainSelector,\r\n            evm2AnyMessage\r\n        );\r\n\r\n        if (fees > s_linkToken.balanceOf(address(this)))\r\n            revert NotEnoughBalance(s_linkToken.balanceOf(address(this)), fees);\r\n\r\n        // approve the Router to transfer LINK tokens on contract's behalf. It will spend the fees in LINK\r\n        s_linkToken.approve(address(s_router), fees);\r\n\r\n        // approve the Router to spend tokens on contract's behalf. It will spend the amount of the given token\r\n        IERC20(_token).approve(address(s_router), _amount);\r\n\r\n        // Send the message through the router and store the returned message ID\r\n        messageId = s_router.ccipSend(\r\n            _destinationChainSelector,\r\n            evm2AnyMessage\r\n        );\r\n\r\n        // Emit an event with message details\r\n        emit TokensTransferred(\r\n            messageId,\r\n            _destinationChainSelector,\r\n            _receiver,\r\n            _token,\r\n            _amount,\r\n            address(s_linkToken),\r\n            fees\r\n        );\r\n\r\n        // Return the message ID\r\n        return messageId;\r\n    }\r\n\r\n    /// @notice Transfer tokens to receiver on the destination chain.\r\n    /// @notice Pay in native gas such as ETH on Ethereum or MATIC on Polgon.\r\n    /// @notice the token must be in the list of supported tokens.\r\n    /// @notice This function can only be called by the owner.\r\n    /// @dev Assumes your contract has sufficient native gas like ETH on Ethereum or MATIC on Polygon.\r\n    /// @param _destinationChainSelector The identifier (aka selector) for the destination blockchain.\r\n    /// @param _receiver The address of the recipient on the destination blockchain.\r\n    /// @param _token token address.\r\n    /// @param _amount token amount.\r\n    /// @return messageId The ID of the message that was sent.\r\n    function transferTokensPayNative(\r\n        uint64 _destinationChainSelector,\r\n        address _receiver,\r\n        address _token,\r\n        uint256 _amount\r\n    )\r\n        external\r\n        onlyOwner\r\n        onlyAllowlistedChain(_destinationChainSelector)\r\n        validateReceiver(_receiver)\r\n        returns (bytes32 messageId)\r\n    {\r\n        // Create an EVM2AnyMessage struct in memory with necessary information for sending a cross-chain message\r\n        // address(0) means fees are paid in native gas\r\n        Client.EVM2AnyMessage memory evm2AnyMessage = _buildCCIPMessage(\r\n            _receiver,\r\n            _token,\r\n            _amount,\r\n            address(0)\r\n        );\r\n\r\n        // Get the fee required to send the message\r\n        uint256 fees = s_router.getFee(\r\n            _destinationChainSelector,\r\n            evm2AnyMessage\r\n        );\r\n\r\n        if (fees > address(this).balance)\r\n            revert NotEnoughBalance(address(this).balance, fees);\r\n\r\n        // approve the Router to spend tokens on contract's behalf. It will spend the amount of the given token\r\n        IERC20(_token).approve(address(s_router), _amount);\r\n\r\n        // Send the message through the router and store the returned message ID\r\n        messageId = s_router.ccipSend{value: fees}(\r\n            _destinationChainSelector,\r\n            evm2AnyMessage\r\n        );\r\n\r\n        // Emit an event with message details\r\n        emit TokensTransferred(\r\n            messageId,\r\n            _destinationChainSelector,\r\n            _receiver,\r\n            _token,\r\n            _amount,\r\n            address(0),\r\n            fees\r\n        );\r\n\r\n        // Return the message ID\r\n        return messageId;\r\n    }\r\n\r\n    /// @notice Construct a CCIP message.\r\n    /// @dev This function will create an EVM2AnyMessage struct with all the necessary information for tokens transfer.\r\n    /// @param _receiver The address of the receiver.\r\n    /// @param _token The token to be transferred.\r\n    /// @param _amount The amount of the token to be transferred.\r\n    /// @param _feeTokenAddress The address of the token used for fees. Set address(0) for native gas.\r\n    /// @return Client.EVM2AnyMessage Returns an EVM2AnyMessage struct which contains information for sending a CCIP message.\r\n    function _buildCCIPMessage(\r\n        address _receiver,\r\n        address _token,\r\n        uint256 _amount,\r\n        address _feeTokenAddress\r\n    ) private pure returns (Client.EVM2AnyMessage memory) {\r\n        // Set the token amounts\r\n        Client.EVMTokenAmount[]\r\n            memory tokenAmounts = new Client.EVMTokenAmount[](1);\r\n        tokenAmounts[0] = Client.EVMTokenAmount({\r\n            token: _token,\r\n            amount: _amount\r\n        });\r\n\r\n        // Create an EVM2AnyMessage struct in memory with necessary information for sending a cross-chain message\r\n        return\r\n            Client.EVM2AnyMessage({\r\n                receiver: abi.encode(_receiver), // ABI-encoded receiver address\r\n                data: \"\", // No data\r\n                tokenAmounts: tokenAmounts, // The amount and type of token being transferred\r\n                extraArgs: Client._argsToBytes(\r\n                    // Additional arguments, setting gas limit to 0 as we are not sending any data\r\n                    Client.EVMExtraArgsV1({gasLimit: 0})\r\n                ),\r\n                // Set the feeToken to a feeTokenAddress, indicating specific asset will be used for fees\r\n                feeToken: _feeTokenAddress\r\n            });\r\n    }\r\n\r\n    /// @notice Fallback function to allow the contract to receive Ether.\r\n    /// @dev This function has no function body, making it a default function for receiving Ether.\r\n    /// It is automatically called when Ether is transferred to the contract without any data.\r\n    receive() external payable {}\r\n\r\n    /// @notice Allows the contract owner to withdraw the entire balance of Ether from the contract.\r\n    /// @dev This function reverts if there are no funds to withdraw or if the transfer fails.\r\n    /// It should only be callable by the owner of the contract.\r\n    /// @param _beneficiary The address to which the Ether should be transferred.\r\n    function withdraw(address _beneficiary) public onlyOwner {\r\n        // Retrieve the balance of this contract\r\n        uint256 amount = address(this).balance;\r\n\r\n        // Revert if there is nothing to withdraw\r\n        if (amount == 0) revert NothingToWithdraw();\r\n\r\n        // Attempt to send the funds, capturing the success status and discarding any return data\r\n        (bool sent, ) = _beneficiary.call{value: amount}(\"\");\r\n\r\n        // Revert if the send failed, with information about the attempted transfer\r\n        if (!sent) revert FailedToWithdrawEth(msg.sender, _beneficiary, amount);\r\n    }\r\n\r\n    /// @notice Allows the owner of the contract to withdraw all tokens of a specific ERC20 token.\r\n    /// @dev This function reverts with a 'NothingToWithdraw' error if there are no tokens to withdraw.\r\n    /// @param _beneficiary The address to which the tokens will be sent.\r\n    /// @param _token The contract address of the ERC20 token to be withdrawn.\r\n    function withdrawToken(\r\n        address _beneficiary,\r\n        address _token\r\n    ) public onlyOwner {\r\n        // Retrieve the balance of this contract\r\n        uint256 amount = IERC20(_token).balanceOf(address(this));\r\n\r\n        // Revert if there is nothing to withdraw\r\n        if (amount == 0) revert NothingToWithdraw();\r\n\r\n        IERC20(_token).safeTransfer(_beneficiary, amount);\r\n    }\r\n}\r\n",
  "sourcePath": "E:\\Blockchain\\defi-staking-app-starter\\src\\contracts\\CrossChainFunc.sol",
  "compiler": {
    "name": "solc",
    "version": "0.8.26+commit.8a97fa7a.Emscripten.clang"
  },
  "schemaVersion": "3.4.16",
  "updatedAt": "2024-06-01T07:38:56.513Z",
  "devdoc": {
    "kind": "dev",
    "methods": {
      "allowlistDestinationChain(uint64,bool)": {
        "details": "Updates the allowlist status of a destination chain for transactions.",
        "params": {
          "_destinationChainSelector": "The selector of the destination chain to be updated.",
          "allowed": "The allowlist status to be set for the destination chain."
        }
      },
      "constructor": {
        "params": {
          "_link": "The address of the link contract.",
          "_router": "The address of the router contract."
        }
      },
      "transferTokensPayLINK(uint64,address,address,uint256)": {
        "details": "Assumes your contract has sufficient LINK tokens to pay for the fees.",
        "params": {
          "_amount": "token amount.",
          "_destinationChainSelector": "The identifier (aka selector) for the destination blockchain.",
          "_receiver": "The address of the recipient on the destination blockchain.",
          "_token": "token address."
        },
        "returns": {
          "messageId": "The ID of the message that was sent."
        }
      },
      "transferTokensPayNative(uint64,address,address,uint256)": {
        "details": "Assumes your contract has sufficient native gas like ETH on Ethereum or MATIC on Polygon.",
        "params": {
          "_amount": "token amount.",
          "_destinationChainSelector": "The identifier (aka selector) for the destination blockchain.",
          "_receiver": "The address of the recipient on the destination blockchain.",
          "_token": "token address."
        },
        "returns": {
          "messageId": "The ID of the message that was sent."
        }
      },
      "withdraw(address)": {
        "details": "This function reverts if there are no funds to withdraw or if the transfer fails. It should only be callable by the owner of the contract.",
        "params": {
          "_beneficiary": "The address to which the Ether should be transferred."
        }
      },
      "withdrawToken(address,address)": {
        "details": "This function reverts with a 'NothingToWithdraw' error if there are no tokens to withdraw.",
        "params": {
          "_beneficiary": "The address to which the tokens will be sent.",
          "_token": "The contract address of the ERC20 token to be withdrawn."
        }
      }
    },
    "title": "- A simple contract for transferring tokens across chains.",
    "version": 1
  },
  "userdoc": {
    "kind": "user",
    "methods": {
      "acceptOwnership()": {
        "notice": "Allows an ownership transfer to be completed by the recipient."
      },
      "allowlistDestinationChain(uint64,bool)": {
        "notice": "This function can only be called by the owner."
      },
      "constructor": {
        "notice": "Constructor initializes the contract with the router address."
      },
      "owner()": {
        "notice": "Get the current owner"
      },
      "transferOwnership(address)": {
        "notice": "Allows an owner to begin transferring ownership to a new address."
      },
      "transferTokensPayLINK(uint64,address,address,uint256)": {
        "notice": "Transfer tokens to receiver on the destination chain.pay in LINK.the token must be in the list of supported tokens.This function can only be called by the owner."
      },
      "transferTokensPayNative(uint64,address,address,uint256)": {
        "notice": "Transfer tokens to receiver on the destination chain.Pay in native gas such as ETH on Ethereum or MATIC on Polgon.the token must be in the list of supported tokens.This function can only be called by the owner."
      },
      "withdraw(address)": {
        "notice": "Allows the contract owner to withdraw the entire balance of Ether from the contract."
      },
      "withdrawToken(address,address)": {
        "notice": "Allows the owner of the contract to withdraw all tokens of a specific ERC20 token."
      }
    },
    "version": 1
  }
}