{
  "contractName": "Trade",
  "abi": [
    {
      "inputs": [
        {
          "internalType": "address",
          "name": "_companyNFT",
          "type": "address"
        },
        {
          "internalType": "address",
          "name": "_rewardToken",
          "type": "address"
        }
      ],
      "stateMutability": "nonpayable",
      "type": "constructor"
    },
    {
      "inputs": [],
      "name": "companyNFT",
      "outputs": [
        {
          "internalType": "contract CompanyNFT",
          "name": "",
          "type": "address"
        }
      ],
      "stateMutability": "view",
      "type": "function"
    },
    {
      "inputs": [
        {
          "internalType": "uint256",
          "name": "",
          "type": "uint256"
        }
      ],
      "name": "nftOwners",
      "outputs": [
        {
          "internalType": "address",
          "name": "",
          "type": "address"
        }
      ],
      "stateMutability": "view",
      "type": "function"
    },
    {
      "inputs": [],
      "name": "rewardToken",
      "outputs": [
        {
          "internalType": "contract IERC20",
          "name": "",
          "type": "address"
        }
      ],
      "stateMutability": "view",
      "type": "function"
    },
    {
      "inputs": [
        {
          "internalType": "uint256",
          "name": "tokenId",
          "type": "uint256"
        },
        {
          "internalType": "uint256",
          "name": "price",
          "type": "uint256"
        }
      ],
      "name": "buyNFT",
      "outputs": [],
      "stateMutability": "nonpayable",
      "type": "function"
    },
    {
      "inputs": [
        {
          "internalType": "uint256",
          "name": "tokenId",
          "type": "uint256"
        }
      ],
      "name": "refundNFT",
      "outputs": [],
      "stateMutability": "nonpayable",
      "type": "function"
    },
    {
      "inputs": [
        {
          "internalType": "uint256",
          "name": "tokenId",
          "type": "uint256"
        }
      ],
      "name": "impression",
      "outputs": [],
      "stateMutability": "nonpayable",
      "type": "function"
    },
    {
      "inputs": [
        {
          "internalType": "uint256",
          "name": "tokenId",
          "type": "uint256"
        }
      ],
      "name": "calculatePrice",
      "outputs": [
        {
          "internalType": "uint256",
          "name": "",
          "type": "uint256"
        }
      ],
      "stateMutability": "view",
      "type": "function"
    }
  ],
  "bytecode": "0x608060405234801561001057600080fd5b506040516116d83803806116d88339818101604052810190610032919061011d565b816000806101000a81548173ffffffffffffffffffffffffffffffffffffffff021916908373ffffffffffffffffffffffffffffffffffffffff16021790555080600160006101000a81548173ffffffffffffffffffffffffffffffffffffffff021916908373ffffffffffffffffffffffffffffffffffffffff160217905550505061015d565b600080fd5b600073ffffffffffffffffffffffffffffffffffffffff82169050919050565b60006100ea826100bf565b9050919050565b6100fa816100df565b811461010557600080fd5b50565b600081519050610117816100f1565b92915050565b60008060408385031215610134576101336100ba565b5b600061014285828601610108565b925050602061015385828601610108565b9150509250929050565b61156c8061016c6000396000f3fe608060405234801561001057600080fd5b506004361061007d5760003560e01c80639108ad881161005b5780639108ad88146100d6578063ae104265146100f4578063bbd94c2f14610124578063f7c618c1146101545761007d565b80631d85bf03146100825780634827c7a51461009e5780635db6984e146100ba575b600080fd5b61009c60048036038101906100979190610c36565b610172565b005b6100b860048036038101906100b39190610c76565b6106e1565b005b6100d460048036038101906100cf9190610c76565b61076f565b005b6100de610a87565b6040516100eb9190610d22565b60405180910390f35b61010e60048036038101906101099190610c76565b610aab565b60405161011b9190610d4c565b60405180910390f35b61013e60048036038101906101399190610c76565b610b93565b60405161014b9190610d88565b60405180910390f35b61015c610bc6565b6040516101699190610dc4565b60405180910390f35b60008054906101000a900473ffffffffffffffffffffffffffffffffffffffff1673ffffffffffffffffffffffffffffffffffffffff1660008054906101000a900473ffffffffffffffffffffffffffffffffffffffff1673ffffffffffffffffffffffffffffffffffffffff16636352211e846040518263ffffffff1660e01b81526004016102029190610d4c565b602060405180830381865afa15801561021f573d6000803e3d6000fd5b505050506040513d601f19601f820116820180604052508101906102439190610e0b565b73ffffffffffffffffffffffffffffffffffffffff1614610299576040517f08c379a000000000000000000000000000000000000000000000000000000000815260040161029090610e95565b60405180910390fd5b600073ffffffffffffffffffffffffffffffffffffffff166002600084815260200190815260200160002060009054906101000a900473ffffffffffffffffffffffffffffffffffffffff1673ffffffffffffffffffffffffffffffffffffffff161461033b576040517f08c379a000000000000000000000000000000000000000000000000000000000815260040161033290610f01565b60405180910390fd5b80600160009054906101000a900473ffffffffffffffffffffffffffffffffffffffff1673ffffffffffffffffffffffffffffffffffffffff166370a08231336040518263ffffffff1660e01b81526004016103979190610d88565b602060405180830381865afa1580156103b4573d6000803e3d6000fd5b505050506040513d601f19601f820116820180604052508101906103d89190610f36565b1015610419576040517f08c379a000000000000000000000000000000000000000000000000000000000815260040161041090610faf565b60405180910390fd5b60008060008054906101000a900473ffffffffffffffffffffffffffffffffffffffff1673ffffffffffffffffffffffffffffffffffffffff1663355e6ce860008054906101000a900473ffffffffffffffffffffffffffffffffffffffff1673ffffffffffffffffffffffffffffffffffffffff16636352211e876040518263ffffffff1660e01b81526004016104b19190610d4c565b602060405180830381865afa1580156104ce573d6000803e3d6000fd5b505050506040513d601f19601f820116820180604052508101906104f29190610e0b565b6040518263ffffffff1660e01b815260040161050e9190610d88565b600060405180830381865afa15801561052b573d6000803e3d6000fd5b505050506040513d6000823e3d601f19601f82011682018060405250810190610554919061116e565b91509150600160009054906101000a900473ffffffffffffffffffffffffffffffffffffffff1673ffffffffffffffffffffffffffffffffffffffff166323b872dd3384866040518463ffffffff1660e01b81526004016105b7939291906111eb565b6020604051808303816000875af11580156105d6573d6000803e3d6000fd5b505050506040513d601f19601f820116820180604052508101906105fa919061125a565b50336002600086815260200190815260200160002060006101000a81548173ffffffffffffffffffffffffffffffffffffffff021916908373ffffffffffffffffffffffffffffffffffffffff16021790555060008054906101000a900473ffffffffffffffffffffffffffffffffffffffff1673ffffffffffffffffffffffffffffffffffffffff166347282a2a8560016040518363ffffffff1660e01b81526004016106a9929190611296565b600060405180830381600087803b1580156106c357600080fd5b505af11580156106d7573d6000803e3d6000fd5b5050505050505050565b60008054906101000a900473ffffffffffffffffffffffffffffffffffffffff1673ffffffffffffffffffffffffffffffffffffffff16634827c7a5826040518263ffffffff1660e01b815260040161073a9190610d4c565b600060405180830381600087803b15801561075457600080fd5b505af1158015610768573d6000803e3d6000fd5b5050505050565b3373ffffffffffffffffffffffffffffffffffffffff166002600083815260200190815260200160002060009054906101000a900473ffffffffffffffffffffffffffffffffffffffff1673ffffffffffffffffffffffffffffffffffffffff1614610810576040517f08c379a00000000000000000000000000000000000000000000000000000000081526004016108079061130b565b60405180910390fd5b60008060008060008060008054906101000a900473ffffffffffffffffffffffffffffffffffffffff1673ffffffffffffffffffffffffffffffffffffffff1663265aa621886040518263ffffffff1660e01b81526004016108729190610d4c565b600060405180830381865afa15801561088f573d6000803e3d6000fd5b505050506040513d6000823e3d601f19601f820116820180604052508101906108b8919061132b565b955095509550955095509550600081426108d29190611403565b905060008682886108e39190611403565b876108ee9190611437565b6108f891906114a8565b9050600160009054906101000a900473ffffffffffffffffffffffffffffffffffffffff1673ffffffffffffffffffffffffffffffffffffffff1663a9059cbb33836040518363ffffffff1660e01b81526004016109579291906114d9565b6020604051808303816000875af1158015610976573d6000803e3d6000fd5b505050506040513d601f19601f8201168201806040525081019061099a919061125a565b506000600260008b815260200190815260200160002060006101000a81548173ffffffffffffffffffffffffffffffffffffffff021916908373ffffffffffffffffffffffffffffffffffffffff16021790555060008054906101000a900473ffffffffffffffffffffffffffffffffffffffff1673ffffffffffffffffffffffffffffffffffffffff166347282a2a8a60006040518363ffffffff1660e01b8152600401610a4a929190611296565b600060405180830381600087803b158015610a6457600080fd5b505af1158015610a78573d6000803e3d6000fd5b50505050505050505050505050565b60008054906101000a900473ffffffffffffffffffffffffffffffffffffffff1681565b60008060008060008060008060009054906101000a900473ffffffffffffffffffffffffffffffffffffffff1673ffffffffffffffffffffffffffffffffffffffff1663265aa621896040518263ffffffff1660e01b8152600401610b109190610d4c565b600060405180830381865afa158015610b2d573d6000803e3d6000fd5b505050506040513d6000823e3d601f19601f82011682018060405250810190610b56919061132b565b955095509550955095509550600066038d7ea4c6800083610b779190611437565b85610b829190611502565b905080975050505050505050919050565b60026020528060005260406000206000915054906101000a900473ffffffffffffffffffffffffffffffffffffffff1681565b600160009054906101000a900473ffffffffffffffffffffffffffffffffffffffff1681565b6000604051905090565b600080fd5b600080fd5b6000819050919050565b610c1381610c00565b8114610c1e57600080fd5b50565b600081359050610c3081610c0a565b92915050565b60008060408385031215610c4d57610c4c610bf6565b5b6000610c5b85828601610c21565b9250506020610c6c85828601610c21565b9150509250929050565b600060208284031215610c8c57610c8b610bf6565b5b6000610c9a84828501610c21565b91505092915050565b600073ffffffffffffffffffffffffffffffffffffffff82169050919050565b6000819050919050565b6000610ce8610ce3610cde84610ca3565b610cc3565b610ca3565b9050919050565b6000610cfa82610ccd565b9050919050565b6000610d0c82610cef565b9050919050565b610d1c81610d01565b82525050565b6000602082019050610d376000830184610d13565b92915050565b610d4681610c00565b82525050565b6000602082019050610d616000830184610d3d565b92915050565b6000610d7282610ca3565b9050919050565b610d8281610d67565b82525050565b6000602082019050610d9d6000830184610d79565b92915050565b6000610dae82610cef565b9050919050565b610dbe81610da3565b82525050565b6000602082019050610dd96000830184610db5565b92915050565b610de881610d67565b8114610df357600080fd5b50565b600081519050610e0581610ddf565b92915050565b600060208284031215610e2157610e20610bf6565b5b6000610e2f84828501610df6565b91505092915050565b600082825260208201905092915050565b7f4e4654206e6f742072656c656173656420796574000000000000000000000000600082015250565b6000610e7f601483610e38565b9150610e8a82610e49565b602082019050919050565b60006020820190508181036000830152610eae81610e72565b9050919050565b7f4e465420616c726561647920626f756768740000000000000000000000000000600082015250565b6000610eeb601283610e38565b9150610ef682610eb5565b602082019050919050565b60006020820190508181036000830152610f1a81610ede565b9050919050565b600081519050610f3081610c0a565b92915050565b600060208284031215610f4c57610f4b610bf6565b5b6000610f5a84828501610f21565b91505092915050565b7f496e73756666696369656e742066756e64730000000000000000000000000000600082015250565b6000610f99601283610e38565b9150610fa482610f63565b602082019050919050565b60006020820190508181036000830152610fc881610f8c565b9050919050565b6000610fda82610ca3565b9050919050565b610fea81610fcf565b8114610ff557600080fd5b50565b60008151905061100781610fe1565b92915050565b600080fd5b600080fd5b6000601f19601f8301169050919050565b7f4e487b7100000000000000000000000000000000000000000000000000000000600052604160045260246000fd5b61106082611017565b810181811067ffffffffffffffff8211171561107f5761107e611028565b5b80604052505050565b6000611092610bec565b905061109e8282611057565b919050565b600067ffffffffffffffff8211156110be576110bd611028565b5b6110c782611017565b9050602081019050919050565b60005b838110156110f25780820151818401526020810190506110d7565b60008484015250505050565b600061111161110c846110a3565b611088565b90508281526020810184848401111561112d5761112c611012565b5b6111388482856110d4565b509392505050565b600082601f8301126111555761115461100d565b5b81516111658482602086016110fe565b91505092915050565b6000806040838503121561118557611184610bf6565b5b600061119385828601610ff8565b925050602083015167ffffffffffffffff8111156111b4576111b3610bfb565b5b6111c085828601611140565b9150509250929050565b60006111d582610cef565b9050919050565b6111e5816111ca565b82525050565b60006060820190506112006000830186610d79565b61120d60208301856111dc565b61121a6040830184610d3d565b949350505050565b60008115159050919050565b61123781611222565b811461124257600080fd5b50565b6000815190506112548161122e565b92915050565b6000602082840312156112705761126f610bf6565b5b600061127e84828501611245565b91505092915050565b61129081611222565b82525050565b60006040820190506112ab6000830185610d3d565b6112b86020830184611287565b9392505050565b7f4e6f7420746865206f776e657200000000000000000000000000000000000000600082015250565b60006112f5600d83610e38565b9150611300826112bf565b602082019050919050565b60006020820190508181036000830152611324816112e8565b9050919050565b60008060008060008060c0878903121561134857611347610bf6565b5b600087015167ffffffffffffffff81111561136657611365610bfb565b5b61137289828a01611140565b965050602061138389828a01610f21565b955050604061139489828a01610f21565b94505060606113a589828a01611245565b93505060806113b689828a01610f21565b92505060a06113c789828a01610f21565b9150509295509295509295565b7f4e487b7100000000000000000000000000000000000000000000000000000000600052601160045260246000fd5b600061140e82610c00565b915061141983610c00565b9250828203905081811115611431576114306113d4565b5b92915050565b600061144282610c00565b915061144d83610c00565b925082820261145b81610c00565b91508282048414831517611472576114716113d4565b5b5092915050565b7f4e487b7100000000000000000000000000000000000000000000000000000000600052601260045260246000fd5b60006114b382610c00565b91506114be83610c00565b9250826114ce576114cd611479565b5b828204905092915050565b60006040820190506114ee6000830185610d79565b6114fb6020830184610d3d565b9392505050565b600061150d82610c00565b915061151883610c00565b92508282019050808211156115305761152f6113d4565b5b9291505056fea26469706673582212203eccdda69f6f7bcafbb482cfc934b782c754ba50aeffc56b1a2760fd71c9c97864736f6c634300081a0033",
  "immutableReferences": {},
  "source": "// SPDX-License-Identifier: MIT\r\npragma solidity >=0.8.19 <0.9.0;\r\n\r\nimport \"@openzeppelin/contracts/token/ERC20/IERC20.sol\";\r\nimport \"./CompanyNFThandle.sol\";\r\n\r\ncontract Trade {\r\n  CompanyNFT public companyNFT;\r\n  IERC20 public rewardToken; // Replace with your reward token contract address\r\n\r\n  // Mapping to store NFT owner addresses\r\n  mapping(uint256 => address) public nftOwners;\r\n\r\n  constructor(address _companyNFT, address _rewardToken) {\r\n    companyNFT = CompanyNFT(_companyNFT);\r\n    rewardToken = IERC20(_rewardToken);\r\n  }\r\n\r\n  // Function to buy an NFT\r\n  function buyNFT(uint256 tokenId, uint256 price) public {\r\n    require(companyNFT.ownerOf(tokenId) == address(companyNFT), \"NFT not released yet\");\r\n    require(nftOwners[tokenId] == address(0), \"NFT already bought\");\r\n    require(rewardToken.balanceOf(msg.sender) >= price, \"Insufficient funds\");\r\n\r\n    // Transfer reward tokens to company that released the NFT\r\n    (address payable companyAddress, string memory name) = companyNFT.companies(companyNFT.ownerOf(tokenId));\r\n    rewardToken.transferFrom(msg.sender, companyAddress, price);\r\n\r\n    nftOwners[tokenId] = msg.sender;\r\n    companyNFT.updateNFTStatus(tokenId, true); // Update NFT ownership status\r\n  }\r\n\r\n  // Function to un-buy (refund) an NFT\r\n  function refundNFT(uint256 tokenId) public {\r\n    require(nftOwners[tokenId] == msg.sender, \"Not the owner\");\r\n\r\n    (string memory name, uint256 duration, uint256 price, bool isOwned, uint256 popularityIndex, uint256 creationTime) = companyNFT.nfts(tokenId);\r\n    uint256 elapsedTime = block.timestamp - creationTime; // Assuming creationTime is set during releaseNFT\r\n\r\n    // Calculate refund based on remaining duration (pro-rated)\r\n    uint256 refundAmount = price * (duration - elapsedTime) / duration;\r\n\r\n    // Transfer reward tokens back to user (minus potential fees)\r\n    rewardToken.transfer(msg.sender, refundAmount);\r\n\r\n    nftOwners[tokenId] = address(0);\r\n    companyNFT.updateNFTStatus(tokenId, false); // Update NFT ownership status\r\n  }\r\n\r\n  // Function to increase popularity index from CompanyNFT contract\r\n  function impression(uint256 tokenId) public {\r\n    companyNFT.impression(tokenId);\r\n  }\r\n\r\n  // Function to calculate dynamic price based on popularity index (example)\r\n  function calculatePrice(uint256 tokenId) public view returns (uint256) {\r\n    (string memory name, uint256 duration, uint256 price, bool isOwned, uint256 popularityIndex, uint256 creationTime) = companyNFT.nfts(tokenId);\r\n    uint256 dynamicPrice = price + (popularityIndex * 10**15); // Adjust coefficient (10^15) as needed\r\n    return dynamicPrice;\r\n  }\r\n}\r\n",
  "sourcePath": "E:\\Blockchain\\defi-staking-app-starter\\src\\contracts\\trade.sol",
  "compiler": {
    "name": "solc",
    "version": "0.8.26+commit.8a97fa7a.Emscripten.clang"
  },
  "schemaVersion": "3.4.16",
  "updatedAt": "2024-05-31T12:06:29.118Z",
  "devdoc": {
    "kind": "dev",
    "methods": {},
    "version": 1
  },
  "userdoc": {
    "kind": "user",
    "methods": {},
    "version": 1
  }
}