{
  "contractName": "Trade",
  "abi": [
    {
      "inputs": [
        {
          "internalType": "address",
          "name": "_companyNFT",
          "type": "address"
        },
        {
          "internalType": "address",
          "name": "_rewardToken",
          "type": "address"
        }
      ],
      "stateMutability": "nonpayable",
      "type": "constructor"
    },
    {
      "inputs": [],
      "name": "companyNFT",
      "outputs": [
        {
          "internalType": "contract CompanyNFT",
          "name": "",
          "type": "address"
        }
      ],
      "stateMutability": "view",
      "type": "function"
    },
    {
      "inputs": [
        {
          "internalType": "uint256",
          "name": "",
          "type": "uint256"
        }
      ],
      "name": "nftOwners",
      "outputs": [
        {
          "internalType": "address",
          "name": "",
          "type": "address"
        }
      ],
      "stateMutability": "view",
      "type": "function"
    },
    {
      "inputs": [],
      "name": "rewardToken",
      "outputs": [
        {
          "internalType": "contract IERC20",
          "name": "",
          "type": "address"
        }
      ],
      "stateMutability": "view",
      "type": "function"
    },
    {
      "inputs": [
        {
          "internalType": "uint256",
          "name": "tokenId",
          "type": "uint256"
        },
        {
          "internalType": "uint256",
          "name": "price",
          "type": "uint256"
        }
      ],
      "name": "buyNFT",
      "outputs": [],
      "stateMutability": "nonpayable",
      "type": "function"
    },
    {
      "inputs": [
        {
          "internalType": "uint256",
          "name": "tokenId",
          "type": "uint256"
        }
      ],
      "name": "refundNFT",
      "outputs": [],
      "stateMutability": "nonpayable",
      "type": "function"
    },
    {
      "inputs": [
        {
          "internalType": "uint256",
          "name": "tokenId",
          "type": "uint256"
        }
      ],
      "name": "impression",
      "outputs": [],
      "stateMutability": "nonpayable",
      "type": "function"
    },
    {
      "inputs": [
        {
          "internalType": "uint256",
          "name": "tokenId",
          "type": "uint256"
        }
      ],
      "name": "calculatePrice",
      "outputs": [
        {
          "internalType": "uint256",
          "name": "",
          "type": "uint256"
        }
      ],
      "stateMutability": "view",
      "type": "function"
    }
  ],
  "bytecode": "0x608060405234801561000f575f80fd5b5060405161160438038061160483398181016040528101906100319190610115565b815f806101000a81548173ffffffffffffffffffffffffffffffffffffffff021916908373ffffffffffffffffffffffffffffffffffffffff1602179055508060015f6101000a81548173ffffffffffffffffffffffffffffffffffffffff021916908373ffffffffffffffffffffffffffffffffffffffff1602179055505050610153565b5f80fd5b5f73ffffffffffffffffffffffffffffffffffffffff82169050919050565b5f6100e4826100bb565b9050919050565b6100f4816100da565b81146100fe575f80fd5b50565b5f8151905061010f816100eb565b92915050565b5f806040838503121561012b5761012a6100b7565b5b5f61013885828601610101565b925050602061014985828601610101565b9150509250929050565b6114a4806101605f395ff3fe608060405234801561000f575f80fd5b506004361061007b575f3560e01c80639108ad88116100595780639108ad88146100d3578063ae104265146100f1578063bbd94c2f14610121578063f7c618c1146101515761007b565b80631d85bf031461007f5780634827c7a51461009b5780635db6984e146100b7575b5f80fd5b61009960048036038101906100949190610bdb565b61016f565b005b6100b560048036038101906100b09190610c19565b6106bd565b005b6100d160048036038101906100cc9190610c19565b610745565b005b6100db610a41565b6040516100e89190610cbe565b60405180910390f35b61010b60048036038101906101069190610c19565b610a64565b6040516101189190610ce6565b60405180910390f35b61013b60048036038101906101369190610c19565b610b42565b6040516101489190610d1f565b60405180910390f35b610159610b72565b6040516101669190610d58565b60405180910390f35b5f8054906101000a900473ffffffffffffffffffffffffffffffffffffffff1673ffffffffffffffffffffffffffffffffffffffff165f8054906101000a900473ffffffffffffffffffffffffffffffffffffffff1673ffffffffffffffffffffffffffffffffffffffff16636352211e846040518263ffffffff1660e01b81526004016101fd9190610ce6565b602060405180830381865afa158015610218573d5f803e3d5ffd5b505050506040513d601f19601f8201168201806040525081019061023c9190610d9b565b73ffffffffffffffffffffffffffffffffffffffff1614610292576040517f08c379a000000000000000000000000000000000000000000000000000000000815260040161028990610e20565b60405180910390fd5b5f73ffffffffffffffffffffffffffffffffffffffff1660025f8481526020019081526020015f205f9054906101000a900473ffffffffffffffffffffffffffffffffffffffff1673ffffffffffffffffffffffffffffffffffffffff1614610330576040517f08c379a000000000000000000000000000000000000000000000000000000000815260040161032790610e88565b60405180910390fd5b8060015f9054906101000a900473ffffffffffffffffffffffffffffffffffffffff1673ffffffffffffffffffffffffffffffffffffffff166370a08231336040518263ffffffff1660e01b815260040161038b9190610d1f565b602060405180830381865afa1580156103a6573d5f803e3d5ffd5b505050506040513d601f19601f820116820180604052508101906103ca9190610eba565b101561040b576040517f08c379a000000000000000000000000000000000000000000000000000000000815260040161040290610f2f565b60405180910390fd5b5f805f8054906101000a900473ffffffffffffffffffffffffffffffffffffffff1673ffffffffffffffffffffffffffffffffffffffff1663355e6ce85f8054906101000a900473ffffffffffffffffffffffffffffffffffffffff1673ffffffffffffffffffffffffffffffffffffffff16636352211e876040518263ffffffff1660e01b81526004016104a09190610ce6565b602060405180830381865afa1580156104bb573d5f803e3d5ffd5b505050506040513d601f19601f820116820180604052508101906104df9190610d9b565b6040518263ffffffff1660e01b81526004016104fb9190610d1f565b5f60405180830381865afa158015610515573d5f803e3d5ffd5b505050506040513d5f823e3d601f19601f8201168201806040525081019061053d91906110c4565b9150915060015f9054906101000a900473ffffffffffffffffffffffffffffffffffffffff1673ffffffffffffffffffffffffffffffffffffffff166323b872dd3384866040518463ffffffff1660e01b815260040161059f9392919061113e565b6020604051808303815f875af11580156105bb573d5f803e3d5ffd5b505050506040513d601f19601f820116820180604052508101906105df91906111a8565b503360025f8681526020019081526020015f205f6101000a81548173ffffffffffffffffffffffffffffffffffffffff021916908373ffffffffffffffffffffffffffffffffffffffff1602179055505f8054906101000a900473ffffffffffffffffffffffffffffffffffffffff1673ffffffffffffffffffffffffffffffffffffffff166347282a2a8560016040518363ffffffff1660e01b815260040161068a9291906111e2565b5f604051808303815f87803b1580156106a1575f80fd5b505af11580156106b3573d5f803e3d5ffd5b5050505050505050565b5f8054906101000a900473ffffffffffffffffffffffffffffffffffffffff1673ffffffffffffffffffffffffffffffffffffffff16634827c7a5826040518263ffffffff1660e01b81526004016107159190610ce6565b5f604051808303815f87803b15801561072c575f80fd5b505af115801561073e573d5f803e3d5ffd5b5050505050565b3373ffffffffffffffffffffffffffffffffffffffff1660025f8381526020019081526020015f205f9054906101000a900473ffffffffffffffffffffffffffffffffffffffff1673ffffffffffffffffffffffffffffffffffffffff16146107e3576040517f08c379a00000000000000000000000000000000000000000000000000000000081526004016107da90611253565b60405180910390fd5b5f805f805f805f8054906101000a900473ffffffffffffffffffffffffffffffffffffffff1673ffffffffffffffffffffffffffffffffffffffff1663265aa621886040518263ffffffff1660e01b81526004016108419190610ce6565b5f60405180830381865afa15801561085b573d5f803e3d5ffd5b505050506040513d5f823e3d601f19601f820116820180604052508101906108839190611271565b9550955095509550955095505f814261089c9190611343565b90505f8682886108ac9190611343565b876108b79190611376565b6108c191906113e4565b905060015f9054906101000a900473ffffffffffffffffffffffffffffffffffffffff1673ffffffffffffffffffffffffffffffffffffffff1663a9059cbb33836040518363ffffffff1660e01b815260040161091f929190611414565b6020604051808303815f875af115801561093b573d5f803e3d5ffd5b505050506040513d601f19601f8201168201806040525081019061095f91906111a8565b505f60025f8b81526020019081526020015f205f6101000a81548173ffffffffffffffffffffffffffffffffffffffff021916908373ffffffffffffffffffffffffffffffffffffffff1602179055505f8054906101000a900473ffffffffffffffffffffffffffffffffffffffff1673ffffffffffffffffffffffffffffffffffffffff166347282a2a8a5f6040518363ffffffff1660e01b8152600401610a099291906111e2565b5f604051808303815f87803b158015610a20575f80fd5b505af1158015610a32573d5f803e3d5ffd5b50505050505050505050505050565b5f8054906101000a900473ffffffffffffffffffffffffffffffffffffffff1681565b5f805f805f805f805f9054906101000a900473ffffffffffffffffffffffffffffffffffffffff1673ffffffffffffffffffffffffffffffffffffffff1663265aa621896040518263ffffffff1660e01b8152600401610ac49190610ce6565b5f60405180830381865afa158015610ade573d5f803e3d5ffd5b505050506040513d5f823e3d601f19601f82011682018060405250810190610b069190611271565b9550955095509550955095505f66038d7ea4c6800083610b269190611376565b85610b31919061143b565b905080975050505050505050919050565b6002602052805f5260405f205f915054906101000a900473ffffffffffffffffffffffffffffffffffffffff1681565b60015f9054906101000a900473ffffffffffffffffffffffffffffffffffffffff1681565b5f604051905090565b5f80fd5b5f80fd5b5f819050919050565b610bba81610ba8565b8114610bc4575f80fd5b50565b5f81359050610bd581610bb1565b92915050565b5f8060408385031215610bf157610bf0610ba0565b5b5f610bfe85828601610bc7565b9250506020610c0f85828601610bc7565b9150509250929050565b5f60208284031215610c2e57610c2d610ba0565b5b5f610c3b84828501610bc7565b91505092915050565b5f73ffffffffffffffffffffffffffffffffffffffff82169050919050565b5f819050919050565b5f610c86610c81610c7c84610c44565b610c63565b610c44565b9050919050565b5f610c9782610c6c565b9050919050565b5f610ca882610c8d565b9050919050565b610cb881610c9e565b82525050565b5f602082019050610cd15f830184610caf565b92915050565b610ce081610ba8565b82525050565b5f602082019050610cf95f830184610cd7565b92915050565b5f610d0982610c44565b9050919050565b610d1981610cff565b82525050565b5f602082019050610d325f830184610d10565b92915050565b5f610d4282610c8d565b9050919050565b610d5281610d38565b82525050565b5f602082019050610d6b5f830184610d49565b92915050565b610d7a81610cff565b8114610d84575f80fd5b50565b5f81519050610d9581610d71565b92915050565b5f60208284031215610db057610daf610ba0565b5b5f610dbd84828501610d87565b91505092915050565b5f82825260208201905092915050565b7f4e4654206e6f742072656c6561736564207965740000000000000000000000005f82015250565b5f610e0a601483610dc6565b9150610e1582610dd6565b602082019050919050565b5f6020820190508181035f830152610e3781610dfe565b9050919050565b7f4e465420616c726561647920626f7567687400000000000000000000000000005f82015250565b5f610e72601283610dc6565b9150610e7d82610e3e565b602082019050919050565b5f6020820190508181035f830152610e9f81610e66565b9050919050565b5f81519050610eb481610bb1565b92915050565b5f60208284031215610ecf57610ece610ba0565b5b5f610edc84828501610ea6565b91505092915050565b7f496e73756666696369656e742066756e647300000000000000000000000000005f82015250565b5f610f19601283610dc6565b9150610f2482610ee5565b602082019050919050565b5f6020820190508181035f830152610f4681610f0d565b9050919050565b5f610f5782610c44565b9050919050565b610f6781610f4d565b8114610f71575f80fd5b50565b5f81519050610f8281610f5e565b92915050565b5f80fd5b5f80fd5b5f601f19601f8301169050919050565b7f4e487b71000000000000000000000000000000000000000000000000000000005f52604160045260245ffd5b610fd682610f90565b810181811067ffffffffffffffff82111715610ff557610ff4610fa0565b5b80604052505050565b5f611007610b97565b90506110138282610fcd565b919050565b5f67ffffffffffffffff82111561103257611031610fa0565b5b61103b82610f90565b9050602081019050919050565b8281835e5f83830152505050565b5f61106861106384611018565b610ffe565b90508281526020810184848401111561108457611083610f8c565b5b61108f848285611048565b509392505050565b5f82601f8301126110ab576110aa610f88565b5b81516110bb848260208601611056565b91505092915050565b5f80604083850312156110da576110d9610ba0565b5b5f6110e785828601610f74565b925050602083015167ffffffffffffffff81111561110857611107610ba4565b5b61111485828601611097565b9150509250929050565b5f61112882610c8d565b9050919050565b6111388161111e565b82525050565b5f6060820190506111515f830186610d10565b61115e602083018561112f565b61116b6040830184610cd7565b949350505050565b5f8115159050919050565b61118781611173565b8114611191575f80fd5b50565b5f815190506111a28161117e565b92915050565b5f602082840312156111bd576111bc610ba0565b5b5f6111ca84828501611194565b91505092915050565b6111dc81611173565b82525050565b5f6040820190506111f55f830185610cd7565b61120260208301846111d3565b9392505050565b7f4e6f7420746865206f776e6572000000000000000000000000000000000000005f82015250565b5f61123d600d83610dc6565b915061124882611209565b602082019050919050565b5f6020820190508181035f83015261126a81611231565b9050919050565b5f805f805f8060c0878903121561128b5761128a610ba0565b5b5f87015167ffffffffffffffff8111156112a8576112a7610ba4565b5b6112b489828a01611097565b96505060206112c589828a01610ea6565b95505060406112d689828a01610ea6565b94505060606112e789828a01611194565b93505060806112f889828a01610ea6565b92505060a061130989828a01610ea6565b9150509295509295509295565b7f4e487b71000000000000000000000000000000000000000000000000000000005f52601160045260245ffd5b5f61134d82610ba8565b915061135883610ba8565b92508282039050818111156113705761136f611316565b5b92915050565b5f61138082610ba8565b915061138b83610ba8565b925082820261139981610ba8565b915082820484148315176113b0576113af611316565b5b5092915050565b7f4e487b71000000000000000000000000000000000000000000000000000000005f52601260045260245ffd5b5f6113ee82610ba8565b91506113f983610ba8565b925082611409576114086113b7565b5b828204905092915050565b5f6040820190506114275f830185610d10565b6114346020830184610cd7565b9392505050565b5f61144582610ba8565b915061145083610ba8565b925082820190508082111561146857611467611316565b5b9291505056fea2646970667358221220be3ad565a53492456ccd2e7a423f91d8d8e38dbdf7b7e1d4ecb4867a3e00cd2364736f6c634300081a0033",
  "immutableReferences": {},
  "source": "// SPDX-License-Identifier: MIT\r\npragma solidity >=0.8.2 <0.9.0;\r\n\r\nimport \"@openzeppelin/contracts/token/ERC20/IERC20.sol\";\r\nimport \"./CompanyNFThandle.sol\";\r\n\r\ncontract Trade {\r\n  CompanyNFT public companyNFT;\r\n  IERC20 public rewardToken; // Replace with your reward token contract address\r\n\r\n  // Mapping to store NFT owner addresses\r\n  mapping(uint256 => address) public nftOwners;\r\n\r\n  constructor(address _companyNFT, address _rewardToken) {\r\n    companyNFT = CompanyNFT(_companyNFT);\r\n    rewardToken = IERC20(_rewardToken);\r\n  }\r\n\r\n  // Function to buy an NFT\r\n  function buyNFT(uint256 tokenId, uint256 price) public {\r\n    require(companyNFT.ownerOf(tokenId) == address(companyNFT), \"NFT not released yet\");\r\n    require(nftOwners[tokenId] == address(0), \"NFT already bought\");\r\n    require(rewardToken.balanceOf(msg.sender) >= price, \"Insufficient funds\");\r\n\r\n    // Transfer reward tokens to company that released the NFT\r\n    (address payable companyAddress, string memory name) = companyNFT.companies(companyNFT.ownerOf(tokenId));\r\n    rewardToken.transferFrom(msg.sender, companyAddress, price);\r\n\r\n    nftOwners[tokenId] = msg.sender;\r\n    companyNFT.updateNFTStatus(tokenId, true); // Update NFT ownership status\r\n  }\r\n\r\n  // Function to un-buy (refund) an NFT\r\n  function refundNFT(uint256 tokenId) public {\r\n    require(nftOwners[tokenId] == msg.sender, \"Not the owner\");\r\n\r\n    (string memory name, uint256 duration, uint256 price, bool isOwned, uint256 popularityIndex, uint256 creationTime) = companyNFT.nfts(tokenId);\r\n    uint256 elapsedTime = block.timestamp - creationTime; // Assuming creationTime is set during releaseNFT\r\n\r\n    // Calculate refund based on remaining duration (pro-rated)\r\n    uint256 refundAmount = price * (duration - elapsedTime) / duration;\r\n\r\n    // Transfer reward tokens back to user (minus potential fees)\r\n    rewardToken.transfer(msg.sender, refundAmount);\r\n\r\n    nftOwners[tokenId] = address(0);\r\n    companyNFT.updateNFTStatus(tokenId, false); // Update NFT ownership status\r\n  }\r\n\r\n  // Function to increase popularity index from CompanyNFT contract\r\n  function impression(uint256 tokenId) public {\r\n    companyNFT.impression(tokenId);\r\n  }\r\n\r\n  // Function to calculate dynamic price based on popularity index (example)\r\n  function calculatePrice(uint256 tokenId) public view returns (uint256) {\r\n    (string memory name, uint256 duration, uint256 price, bool isOwned, uint256 popularityIndex, uint256 creationTime) = companyNFT.nfts(tokenId);\r\n    uint256 dynamicPrice = price + (popularityIndex * 10**15); // Adjust coefficient (10^15) as needed\r\n    return dynamicPrice;\r\n  }\r\n}\r\n",
  "sourcePath": "E:\\Blockchain\\defi-staking-app-starter\\src\\contracts\\trade.sol",
  "compiler": {
    "name": "solc",
    "version": "0.8.26+commit.8a97fa7a.Emscripten.clang"
  },
  "schemaVersion": "3.4.16",
  "updatedAt": "2024-05-30T11:30:14.825Z",
  "devdoc": {
    "kind": "dev",
    "methods": {},
    "version": 1
  },
  "userdoc": {
    "kind": "user",
    "methods": {},
    "version": 1
  }
}