{
  "contractName": "Upload",
  "abi": [
    {
      "inputs": [
        {
          "internalType": "contract IERC20",
          "name": "_rwdToken",
          "type": "address"
        },
        {
          "internalType": "address",
          "name": "_rwdTokenDeployer",
          "type": "address"
        }
      ],
      "stateMutability": "nonpayable",
      "type": "constructor"
    },
    {
      "inputs": [
        {
          "internalType": "address",
          "name": "owner",
          "type": "address"
        }
      ],
      "name": "OwnableInvalidOwner",
      "type": "error"
    },
    {
      "inputs": [
        {
          "internalType": "address",
          "name": "account",
          "type": "address"
        }
      ],
      "name": "OwnableUnauthorizedAccount",
      "type": "error"
    },
    {
      "anonymous": false,
      "inputs": [
        {
          "indexed": true,
          "internalType": "address",
          "name": "user",
          "type": "address"
        },
        {
          "indexed": false,
          "internalType": "uint256",
          "name": "bmi",
          "type": "uint256"
        }
      ],
      "name": "BMIRecorded",
      "type": "event"
    },
    {
      "anonymous": false,
      "inputs": [
        {
          "indexed": true,
          "internalType": "address",
          "name": "previousOwner",
          "type": "address"
        },
        {
          "indexed": true,
          "internalType": "address",
          "name": "newOwner",
          "type": "address"
        }
      ],
      "name": "OwnershipTransferred",
      "type": "event"
    },
    {
      "anonymous": false,
      "inputs": [
        {
          "indexed": true,
          "internalType": "address",
          "name": "user",
          "type": "address"
        },
        {
          "indexed": false,
          "internalType": "uint256",
          "name": "amount",
          "type": "uint256"
        }
      ],
      "name": "RewardGiven",
      "type": "event"
    },
    {
      "anonymous": false,
      "inputs": [
        {
          "indexed": true,
          "internalType": "address",
          "name": "user",
          "type": "address"
        },
        {
          "indexed": false,
          "internalType": "uint256",
          "name": "date",
          "type": "uint256"
        },
        {
          "indexed": false,
          "internalType": "uint256",
          "name": "month",
          "type": "uint256"
        },
        {
          "indexed": false,
          "internalType": "uint256",
          "name": "year",
          "type": "uint256"
        },
        {
          "indexed": false,
          "internalType": "string",
          "name": "gender",
          "type": "string"
        }
      ],
      "name": "UserRegistered",
      "type": "event"
    },
    {
      "inputs": [],
      "name": "owner",
      "outputs": [
        {
          "internalType": "address",
          "name": "",
          "type": "address"
        }
      ],
      "stateMutability": "view",
      "type": "function"
    },
    {
      "inputs": [
        {
          "internalType": "address",
          "name": "",
          "type": "address"
        }
      ],
      "name": "registeredUsers",
      "outputs": [
        {
          "internalType": "bool",
          "name": "",
          "type": "bool"
        }
      ],
      "stateMutability": "view",
      "type": "function"
    },
    {
      "inputs": [],
      "name": "renounceOwnership",
      "outputs": [],
      "stateMutability": "nonpayable",
      "type": "function"
    },
    {
      "inputs": [],
      "name": "rwdToken",
      "outputs": [
        {
          "internalType": "contract IERC20",
          "name": "",
          "type": "address"
        }
      ],
      "stateMutability": "view",
      "type": "function"
    },
    {
      "inputs": [],
      "name": "rwdTokenDeployer",
      "outputs": [
        {
          "internalType": "address",
          "name": "",
          "type": "address"
        }
      ],
      "stateMutability": "view",
      "type": "function"
    },
    {
      "inputs": [
        {
          "internalType": "address",
          "name": "newOwner",
          "type": "address"
        }
      ],
      "name": "transferOwnership",
      "outputs": [],
      "stateMutability": "nonpayable",
      "type": "function"
    },
    {
      "inputs": [
        {
          "internalType": "address",
          "name": "",
          "type": "address"
        }
      ],
      "name": "users",
      "outputs": [
        {
          "internalType": "uint256",
          "name": "dateOfBirth",
          "type": "uint256"
        },
        {
          "internalType": "uint256",
          "name": "monthOfBirth",
          "type": "uint256"
        },
        {
          "internalType": "uint256",
          "name": "yearOfBirth",
          "type": "uint256"
        },
        {
          "internalType": "string",
          "name": "gender",
          "type": "string"
        }
      ],
      "stateMutability": "view",
      "type": "function"
    },
    {
      "inputs": [
        {
          "internalType": "uint256",
          "name": "date",
          "type": "uint256"
        },
        {
          "internalType": "uint256",
          "name": "month",
          "type": "uint256"
        },
        {
          "internalType": "uint256",
          "name": "year",
          "type": "uint256"
        },
        {
          "internalType": "string",
          "name": "gender",
          "type": "string"
        }
      ],
      "name": "login",
      "outputs": [],
      "stateMutability": "nonpayable",
      "type": "function"
    },
    {
      "inputs": [
        {
          "internalType": "uint256",
          "name": "bmi",
          "type": "uint256"
        }
      ],
      "name": "recordBMI",
      "outputs": [],
      "stateMutability": "nonpayable",
      "type": "function"
    },
    {
      "inputs": [
        {
          "internalType": "address",
          "name": "user",
          "type": "address"
        }
      ],
      "name": "getBMIs",
      "outputs": [
        {
          "internalType": "uint256[]",
          "name": "",
          "type": "uint256[]"
        }
      ],
      "stateMutability": "view",
      "type": "function"
    }
  ],
  "bytecode": "0x608060405234801561001057600080fd5b50604051611ab3380380611ab3833981810160405281019061003291906102a3565b33600073ffffffffffffffffffffffffffffffffffffffff168173ffffffffffffffffffffffffffffffffffffffff16036100a55760006040517f1e4fbdf700000000000000000000000000000000000000000000000000000000815260040161009c91906102f2565b60405180910390fd5b6100b48161013e60201b60201c565b5081600160006101000a81548173ffffffffffffffffffffffffffffffffffffffff021916908373ffffffffffffffffffffffffffffffffffffffff16021790555080600260006101000a81548173ffffffffffffffffffffffffffffffffffffffff021916908373ffffffffffffffffffffffffffffffffffffffff160217905550505061030d565b60008060009054906101000a900473ffffffffffffffffffffffffffffffffffffffff169050816000806101000a81548173ffffffffffffffffffffffffffffffffffffffff021916908373ffffffffffffffffffffffffffffffffffffffff1602179055508173ffffffffffffffffffffffffffffffffffffffff168173ffffffffffffffffffffffffffffffffffffffff167f8be0079c531659141344cd1fd0a4f28419497f9722a3daafe3b4186f6b6457e060405160405180910390a35050565b600080fd5b600073ffffffffffffffffffffffffffffffffffffffff82169050919050565b600061023282610207565b9050919050565b600061024482610227565b9050919050565b61025481610239565b811461025f57600080fd5b50565b6000815190506102718161024b565b92915050565b61028081610227565b811461028b57600080fd5b50565b60008151905061029d81610277565b92915050565b600080604083850312156102ba576102b9610202565b5b60006102c885828601610262565b92505060206102d98582860161028e565b9150509250929050565b6102ec81610227565b82525050565b600060208201905061030760008301846102e3565b92915050565b6117978061031c6000396000f3fe608060405234801561001057600080fd5b506004361061009e5760003560e01c80637d787a24116100665780637d787a24146101455780638da5cb5b14610163578063a87430ba14610181578063e724e0cf146101b4578063f2fde38b146101d25761009e565b80630e50cee5146100a357806329cae7b6146100d35780633c44876d146100ef5780635e620c351461011f578063715018a61461013b575b600080fd5b6100bd60048036038101906100b89190610ca9565b6101ee565b6040516100ca9190610cf1565b60405180910390f35b6100ed60048036038101906100e89190610e88565b61020e565b005b61010960048036038101906101049190610ca9565b610472565b6040516101169190610fc9565b60405180910390f35b61013960048036038101906101349190610feb565b61050c565b005b6101436107c8565b005b61014d6107dc565b60405161015a9190611077565b60405180910390f35b61016b610802565b60405161017891906110a1565b60405180910390f35b61019b60048036038101906101969190610ca9565b61082b565b6040516101ab949392919061114a565b60405180910390f35b6101bc6108e3565b6040516101c991906110a1565b60405180910390f35b6101ec60048036038101906101e79190610ca9565b610909565b005b60046020528060005260406000206000915054906101000a900460ff1681565b600460003373ffffffffffffffffffffffffffffffffffffffff1673ffffffffffffffffffffffffffffffffffffffff16815260200190815260200160002060009054906101000a900460ff161561029b576040517f08c379a0000000000000000000000000000000000000000000000000000000008152600401610292906111e2565b60405180910390fd5b83600360003373ffffffffffffffffffffffffffffffffffffffff1673ffffffffffffffffffffffffffffffffffffffff1681526020019081526020016000206000018190555082600360003373ffffffffffffffffffffffffffffffffffffffff1673ffffffffffffffffffffffffffffffffffffffff1681526020019081526020016000206001018190555081600360003373ffffffffffffffffffffffffffffffffffffffff1673ffffffffffffffffffffffffffffffffffffffff1681526020019081526020016000206002018190555080600360003373ffffffffffffffffffffffffffffffffffffffff1673ffffffffffffffffffffffffffffffffffffffff16815260200190815260200160002060030190816103bf9190611404565b506001600460003373ffffffffffffffffffffffffffffffffffffffff1673ffffffffffffffffffffffffffffffffffffffff16815260200190815260200160002060006101000a81548160ff0219169083151502179055503373ffffffffffffffffffffffffffffffffffffffff167f5b9bc78b12184cb147f4e8a6900423e638fb226f8f735050d0cbd29fb4a3a10b85858585604051610464949392919061114a565b60405180910390a250505050565b6060600360008373ffffffffffffffffffffffffffffffffffffffff1673ffffffffffffffffffffffffffffffffffffffff16815260200190815260200160002060040180548060200260200160405190810160405280929190818152602001828054801561050057602002820191906000526020600020905b8154815260200190600101908083116104ec575b50505050509050919050565b600460003373ffffffffffffffffffffffffffffffffffffffff1673ffffffffffffffffffffffffffffffffffffffff16815260200190815260200160002060009054906101000a900460ff16610598576040517f08c379a000000000000000000000000000000000000000000000000000000000815260040161058f90611522565b60405180910390fd5b6000600360003373ffffffffffffffffffffffffffffffffffffffff1673ffffffffffffffffffffffffffffffffffffffff1681526020019081526020016000209050806004018290806001815401808255809150506001900390600052602060002001600090919091909150553373ffffffffffffffffffffffffffffffffffffffff167f423d094827a00d73e9894994edd714372d862b1f954475c157ef76dbe4e7e7188360405161064c9190611542565b60405180910390a26001816004018054905011156107c4576000816004016002836004018054905061067e919061158c565b8154811061068f5761068e6115c0565b5b9060005260206000200154905061484483101580156106b057506161448311155b1561070e57614844811115806106c857506161448110155b156106f65760006002670de0b6b3a76400006106e491906115ef565b90506106f0338261098f565b50610709565b61070833670de0b6b3a764000061098f565b5b6107c2565b808311801561071f57506148448311155b15610769576000670de0b6b3a764000066038d7ea4c680008386610743919061158c565b61074d91906115ef565b6107579190611631565b9050610763338261098f565b506107c1565b808310801561077a57506161448310155b156107c0576000670de0b6b3a764000066038d7ea4c68000858461079e919061158c565b6107a891906115ef565b6107b29190611631565b90506107be338261098f565b505b5b5b505b5050565b6107d0610ae4565b6107da6000610b6b565b565b600160009054906101000a900473ffffffffffffffffffffffffffffffffffffffff1681565b60008060009054906101000a900473ffffffffffffffffffffffffffffffffffffffff16905090565b600360205280600052604060002060009150905080600001549080600101549080600201549080600301805461086090611231565b80601f016020809104026020016040519081016040528092919081815260200182805461088c90611231565b80156108d95780601f106108ae576101008083540402835291602001916108d9565b820191906000526020600020905b8154815290600101906020018083116108bc57829003601f168201915b5050505050905084565b600260009054906101000a900473ffffffffffffffffffffffffffffffffffffffff1681565b610911610ae4565b600073ffffffffffffffffffffffffffffffffffffffff168173ffffffffffffffffffffffffffffffffffffffff16036109835760006040517f1e4fbdf700000000000000000000000000000000000000000000000000000000815260040161097a91906110a1565b60405180910390fd5b61098c81610b6b565b50565b600160009054906101000a900473ffffffffffffffffffffffffffffffffffffffff1673ffffffffffffffffffffffffffffffffffffffff166323b872dd600260009054906101000a900473ffffffffffffffffffffffffffffffffffffffff1684846040518463ffffffff1660e01b8152600401610a1093929190611665565b6020604051808303816000875af1158015610a2f573d6000803e3d6000fd5b505050506040513d601f19601f82011682018060405250810190610a5391906116c8565b610a92576040517f08c379a0000000000000000000000000000000000000000000000000000000008152600401610a8990611741565b60405180910390fd5b8173ffffffffffffffffffffffffffffffffffffffff167f3ad0c8d1bbd63d54c5f14180eae95cab7c2420b2dbb90603a6e5d206668f52ec82604051610ad89190611542565b60405180910390a25050565b610aec610c2f565b73ffffffffffffffffffffffffffffffffffffffff16610b0a610802565b73ffffffffffffffffffffffffffffffffffffffff1614610b6957610b2d610c2f565b6040517f118cdaa7000000000000000000000000000000000000000000000000000000008152600401610b6091906110a1565b60405180910390fd5b565b60008060009054906101000a900473ffffffffffffffffffffffffffffffffffffffff169050816000806101000a81548173ffffffffffffffffffffffffffffffffffffffff021916908373ffffffffffffffffffffffffffffffffffffffff1602179055508173ffffffffffffffffffffffffffffffffffffffff168173ffffffffffffffffffffffffffffffffffffffff167f8be0079c531659141344cd1fd0a4f28419497f9722a3daafe3b4186f6b6457e060405160405180910390a35050565b600033905090565b6000604051905090565b600080fd5b600080fd5b600073ffffffffffffffffffffffffffffffffffffffff82169050919050565b6000610c7682610c4b565b9050919050565b610c8681610c6b565b8114610c9157600080fd5b50565b600081359050610ca381610c7d565b92915050565b600060208284031215610cbf57610cbe610c41565b5b6000610ccd84828501610c94565b91505092915050565b60008115159050919050565b610ceb81610cd6565b82525050565b6000602082019050610d066000830184610ce2565b92915050565b6000819050919050565b610d1f81610d0c565b8114610d2a57600080fd5b50565b600081359050610d3c81610d16565b92915050565b600080fd5b600080fd5b6000601f19601f8301169050919050565b7f4e487b7100000000000000000000000000000000000000000000000000000000600052604160045260246000fd5b610d9582610d4c565b810181811067ffffffffffffffff82111715610db457610db3610d5d565b5b80604052505050565b6000610dc7610c37565b9050610dd38282610d8c565b919050565b600067ffffffffffffffff821115610df357610df2610d5d565b5b610dfc82610d4c565b9050602081019050919050565b82818337600083830152505050565b6000610e2b610e2684610dd8565b610dbd565b905082815260208101848484011115610e4757610e46610d47565b5b610e52848285610e09565b509392505050565b600082601f830112610e6f57610e6e610d42565b5b8135610e7f848260208601610e18565b91505092915050565b60008060008060808587031215610ea257610ea1610c41565b5b6000610eb087828801610d2d565b9450506020610ec187828801610d2d565b9350506040610ed287828801610d2d565b925050606085013567ffffffffffffffff811115610ef357610ef2610c46565b5b610eff87828801610e5a565b91505092959194509250565b600081519050919050565b600082825260208201905092915050565b6000819050602082019050919050565b610f4081610d0c565b82525050565b6000610f528383610f37565b60208301905092915050565b6000602082019050919050565b6000610f7682610f0b565b610f808185610f16565b9350610f8b83610f27565b8060005b83811015610fbc578151610fa38882610f46565b9750610fae83610f5e565b925050600181019050610f8f565b5085935050505092915050565b60006020820190508181036000830152610fe38184610f6b565b905092915050565b60006020828403121561100157611000610c41565b5b600061100f84828501610d2d565b91505092915050565b6000819050919050565b600061103d61103861103384610c4b565b611018565b610c4b565b9050919050565b600061104f82611022565b9050919050565b600061106182611044565b9050919050565b61107181611056565b82525050565b600060208201905061108c6000830184611068565b92915050565b61109b81610c6b565b82525050565b60006020820190506110b66000830184611092565b92915050565b6110c581610d0c565b82525050565b600081519050919050565b600082825260208201905092915050565b60005b838110156111055780820151818401526020810190506110ea565b60008484015250505050565b600061111c826110cb565b61112681856110d6565b93506111368185602086016110e7565b61113f81610d4c565b840191505092915050565b600060808201905061115f60008301876110bc565b61116c60208301866110bc565b61117960408301856110bc565b818103606083015261118b8184611111565b905095945050505050565b7f5573657220616c72656164792072656769737465726564000000000000000000600082015250565b60006111cc6017836110d6565b91506111d782611196565b602082019050919050565b600060208201905081810360008301526111fb816111bf565b9050919050565b7f4e487b7100000000000000000000000000000000000000000000000000000000600052602260045260246000fd5b6000600282049050600182168061124957607f821691505b60208210810361125c5761125b611202565b5b50919050565b60008190508160005260206000209050919050565b60006020601f8301049050919050565b600082821b905092915050565b6000600883026112c47fffffffffffffffffffffffffffffffffffffffffffffffffffffffffffffffff82611287565b6112ce8683611287565b95508019841693508086168417925050509392505050565b60006113016112fc6112f784610d0c565b611018565b610d0c565b9050919050565b6000819050919050565b61131b836112e6565b61132f61132782611308565b848454611294565b825550505050565b600090565b611344611337565b61134f818484611312565b505050565b5b818110156113735761136860008261133c565b600181019050611355565b5050565b601f8211156113b85761138981611262565b61139284611277565b810160208510156113a1578190505b6113b56113ad85611277565b830182611354565b50505b505050565b600082821c905092915050565b60006113db600019846008026113bd565b1980831691505092915050565b60006113f483836113ca565b9150826002028217905092915050565b61140d826110cb565b67ffffffffffffffff81111561142657611425610d5d565b5b6114308254611231565b61143b828285611377565b600060209050601f83116001811461146e576000841561145c578287015190505b61146685826113e8565b8655506114ce565b601f19841661147c86611262565b60005b828110156114a45784890151825560018201915060208501945060208101905061147f565b868310156114c157848901516114bd601f8916826113ca565b8355505b6001600288020188555050505b505050505050565b7f55736572206e6f74207265676973746572656400000000000000000000000000600082015250565b600061150c6013836110d6565b9150611517826114d6565b602082019050919050565b6000602082019050818103600083015261153b816114ff565b9050919050565b600060208201905061155760008301846110bc565b92915050565b7f4e487b7100000000000000000000000000000000000000000000000000000000600052601160045260246000fd5b600061159782610d0c565b91506115a283610d0c565b92508282039050818111156115ba576115b961155d565b5b92915050565b7f4e487b7100000000000000000000000000000000000000000000000000000000600052603260045260246000fd5b60006115fa82610d0c565b915061160583610d0c565b925082820261161381610d0c565b9150828204841483151761162a5761162961155d565b5b5092915050565b600061163c82610d0c565b915061164783610d0c565b925082820190508082111561165f5761165e61155d565b5b92915050565b600060608201905061167a6000830186611092565b6116876020830185611092565b61169460408301846110bc565b949350505050565b6116a581610cd6565b81146116b057600080fd5b50565b6000815190506116c28161169c565b92915050565b6000602082840312156116de576116dd610c41565b5b60006116ec848285016116b3565b91505092915050565b7f526577617264207472616e73666572206661696c656400000000000000000000600082015250565b600061172b6016836110d6565b9150611736826116f5565b602082019050919050565b6000602082019050818103600083015261175a8161171e565b905091905056fea264697066735822122067d94c5b47a6ddcf48c36ca7c8bc98b75abfa1c43a1aa05f19c059c1d22c036964736f6c634300081a0033",
  "immutableReferences": {},
  "source": "// SPDX-License-Identifier: MIT\r\npragma solidity >=0.8.19 <0.9.0;\r\n\r\nimport \"@openzeppelin/contracts/token/ERC20/IERC20.sol\";\r\nimport \"@openzeppelin/contracts/access/Ownable.sol\";\r\n\r\ncontract Upload is Ownable {\r\n    IERC20 public rwdToken;\r\n    address public rwdTokenDeployer;\r\n\r\n    struct User {\r\n        uint dateOfBirth;\r\n        uint monthOfBirth;\r\n        uint yearOfBirth;\r\n        string gender;\r\n        uint256[] bmiHistory;\r\n    }\r\n\r\n    mapping(address => User) public users;\r\n    mapping(address => bool) public registeredUsers;\r\n\r\n    uint256 constant HEALTHY_BMI_MIN = 18500;\r\n    uint256 constant HEALTHY_BMI_MAX = 24900;\r\n    uint256 constant REWARD_AMOUNT = 1 * (10 ** 18); // 1 RWD token\r\n\r\n    event UserRegistered(address indexed user, uint date, uint month, uint year, string gender);\r\n    event BMIRecorded(address indexed user, uint bmi);\r\n    event RewardGiven(address indexed user, uint amount);\r\n\r\n    constructor(IERC20 _rwdToken, address _rwdTokenDeployer) Ownable(msg.sender) {\r\n        rwdToken = _rwdToken;\r\n        rwdTokenDeployer = _rwdTokenDeployer;\r\n    }\r\n\r\n    function login(uint date, uint month, uint year, string memory gender) public {\r\n        require(!registeredUsers[msg.sender], \"User already registered\");\r\n\r\n        users[msg.sender].dateOfBirth = date;\r\n        users[msg.sender].monthOfBirth = month;\r\n        users[msg.sender].yearOfBirth = year;\r\n        users[msg.sender].gender = gender;\r\n        registeredUsers[msg.sender] = true;\r\n\r\n        emit UserRegistered(msg.sender, date, month, year, gender);\r\n    }\r\n\r\n    // BMI is a multiple of 10^3\r\n    function recordBMI(uint256 bmi) public {\r\n        require(registeredUsers[msg.sender], \"User not registered\");\r\n\r\n        User storage user = users[msg.sender];\r\n        user.bmiHistory.push(bmi);\r\n\r\n        emit BMIRecorded(msg.sender, bmi);\r\n\r\n        if (user.bmiHistory.length > 1) {\r\n            uint previousBMI = user.bmiHistory[user.bmiHistory.length - 2];\r\n            if (bmi >= HEALTHY_BMI_MIN && bmi <= HEALTHY_BMI_MAX) {\r\n                if (previousBMI <= HEALTHY_BMI_MIN || previousBMI >= HEALTHY_BMI_MAX) {\r\n                    uint256 amount = REWARD_AMOUNT * 2;\r\n                    _rewardUser(msg.sender, amount);\r\n                } else {\r\n                    _rewardUser(msg.sender, REWARD_AMOUNT);\r\n                }\r\n            } else if (bmi > previousBMI && bmi <= HEALTHY_BMI_MIN) {\r\n                uint256 amount = (bmi - previousBMI) * (10 ** 15) + REWARD_AMOUNT;\r\n                _rewardUser(msg.sender, amount);\r\n            } else if (bmi < previousBMI && bmi >= HEALTHY_BMI_MAX) {\r\n                uint256 amount = (previousBMI - bmi) * (10 ** 15) + REWARD_AMOUNT;\r\n                _rewardUser(msg.sender, amount);\r\n            }\r\n        }\r\n    }\r\n\r\n    function _rewardUser(address user, uint256 _amount) internal {\r\n        require(rwdToken.transferFrom(rwdTokenDeployer, user, _amount), \"Reward transfer failed\");\r\n        emit RewardGiven(user, _amount);\r\n    }\r\n\r\n    function getBMIs(address user) public view returns (uint[] memory) {\r\n        return users[user].bmiHistory;\r\n    }\r\n}\r\n",
  "sourcePath": "E:\\Blockchain\\defi-staking-app-starter\\src\\contracts\\upload.sol",
  "compiler": {
    "name": "solc",
    "version": "0.8.26+commit.8a97fa7a.Emscripten.clang"
  },
  "schemaVersion": "3.4.16",
  "updatedAt": "2024-06-02T18:51:21.003Z",
  "devdoc": {
    "errors": {
      "OwnableInvalidOwner(address)": [
        {
          "details": "The owner is not a valid owner account. (eg. `address(0)`)"
        }
      ],
      "OwnableUnauthorizedAccount(address)": [
        {
          "details": "The caller account is not authorized to perform an operation."
        }
      ]
    },
    "kind": "dev",
    "methods": {
      "owner()": {
        "details": "Returns the address of the current owner."
      },
      "renounceOwnership()": {
        "details": "Leaves the contract without owner. It will not be possible to call `onlyOwner` functions. Can only be called by the current owner. NOTE: Renouncing ownership will leave the contract without an owner, thereby disabling any functionality that is only available to the owner."
      },
      "transferOwnership(address)": {
        "details": "Transfers ownership of the contract to a new account (`newOwner`). Can only be called by the current owner."
      }
    },
    "version": 1
  },
  "userdoc": {
    "kind": "user",
    "methods": {},
    "version": 1
  }
}