{
  "contractName": "Upload",
  "abi": [
    {
      "inputs": [
        {
          "internalType": "address",
          "name": "_rwdTokenAddress",
          "type": "address"
        }
      ],
      "stateMutability": "nonpayable",
      "type": "constructor"
    },
    {
      "anonymous": false,
      "inputs": [
        {
          "indexed": true,
          "internalType": "address",
          "name": "user",
          "type": "address"
        },
        {
          "indexed": false,
          "internalType": "uint256",
          "name": "bmi",
          "type": "uint256"
        }
      ],
      "name": "BMIRecorded",
      "type": "event"
    },
    {
      "anonymous": false,
      "inputs": [
        {
          "indexed": true,
          "internalType": "address",
          "name": "user",
          "type": "address"
        },
        {
          "indexed": false,
          "internalType": "uint256",
          "name": "amount",
          "type": "uint256"
        }
      ],
      "name": "RewardGiven",
      "type": "event"
    },
    {
      "anonymous": false,
      "inputs": [
        {
          "indexed": true,
          "internalType": "address",
          "name": "user",
          "type": "address"
        },
        {
          "indexed": false,
          "internalType": "uint256",
          "name": "date",
          "type": "uint256"
        },
        {
          "indexed": false,
          "internalType": "uint256",
          "name": "month",
          "type": "uint256"
        },
        {
          "indexed": false,
          "internalType": "uint256",
          "name": "year",
          "type": "uint256"
        },
        {
          "indexed": false,
          "internalType": "string",
          "name": "gender",
          "type": "string"
        }
      ],
      "name": "UserRegistered",
      "type": "event"
    },
    {
      "inputs": [
        {
          "internalType": "address",
          "name": "",
          "type": "address"
        }
      ],
      "name": "registeredUsers",
      "outputs": [
        {
          "internalType": "bool",
          "name": "",
          "type": "bool"
        }
      ],
      "stateMutability": "view",
      "type": "function"
    },
    {
      "inputs": [],
      "name": "rwdToken",
      "outputs": [
        {
          "internalType": "contract RWD",
          "name": "",
          "type": "address"
        }
      ],
      "stateMutability": "view",
      "type": "function"
    },
    {
      "inputs": [
        {
          "internalType": "address",
          "name": "",
          "type": "address"
        }
      ],
      "name": "users",
      "outputs": [
        {
          "internalType": "uint256",
          "name": "dateOfBirth",
          "type": "uint256"
        },
        {
          "internalType": "uint256",
          "name": "monthOfBirth",
          "type": "uint256"
        },
        {
          "internalType": "uint256",
          "name": "yearOfBirth",
          "type": "uint256"
        },
        {
          "internalType": "string",
          "name": "gender",
          "type": "string"
        }
      ],
      "stateMutability": "view",
      "type": "function"
    },
    {
      "inputs": [
        {
          "internalType": "uint256",
          "name": "date",
          "type": "uint256"
        },
        {
          "internalType": "uint256",
          "name": "month",
          "type": "uint256"
        },
        {
          "internalType": "uint256",
          "name": "year",
          "type": "uint256"
        },
        {
          "internalType": "string",
          "name": "gender",
          "type": "string"
        }
      ],
      "name": "login",
      "outputs": [],
      "stateMutability": "nonpayable",
      "type": "function"
    },
    {
      "inputs": [
        {
          "internalType": "uint256",
          "name": "bmi",
          "type": "uint256"
        }
      ],
      "name": "recordBMI",
      "outputs": [],
      "stateMutability": "nonpayable",
      "type": "function"
    },
    {
      "inputs": [
        {
          "internalType": "address",
          "name": "user",
          "type": "address"
        }
      ],
      "name": "getBMIs",
      "outputs": [
        {
          "internalType": "uint256[]",
          "name": "",
          "type": "uint256[]"
        }
      ],
      "stateMutability": "view",
      "type": "function"
    }
  ],
  "bytecode": "0x608060405234801561000f575f80fd5b506040516114c83803806114c8833981810160405281019061003191906100d4565b805f806101000a81548173ffffffffffffffffffffffffffffffffffffffff021916908373ffffffffffffffffffffffffffffffffffffffff160217905550506100ff565b5f80fd5b5f73ffffffffffffffffffffffffffffffffffffffff82169050919050565b5f6100a38261007a565b9050919050565b6100b381610099565b81146100bd575f80fd5b50565b5f815190506100ce816100aa565b92915050565b5f602082840312156100e9576100e8610076565b5b5f6100f6848285016100c0565b91505092915050565b6113bc8061010c5f395ff3fe608060405234801561000f575f80fd5b5060043610610060575f3560e01c80630e50cee51461006457806329cae7b6146100945780633c44876d146100b05780635e620c35146100e05780637d787a24146100fc578063a87430ba1461011a575b5f80fd5b61007e6004803603810190610079919061096d565b61014d565b60405161008b91906109b2565b60405180910390f35b6100ae60048036038101906100a99190610b3a565b61016a565b005b6100ca60048036038101906100c5919061096d565b6103bf565b6040516100d79190610c71565b60405180910390f35b6100fa60048036038101906100f59190610c91565b610455565b005b610104610702565b6040516101119190610d17565b60405180910390f35b610134600480360381019061012f919061096d565b610725565b6040516101449493929190610d9f565b60405180910390f35b6002602052805f5260405f205f915054906101000a900460ff1681565b60025f3373ffffffffffffffffffffffffffffffffffffffff1673ffffffffffffffffffffffffffffffffffffffff1681526020019081526020015f205f9054906101000a900460ff16156101f4576040517f08c379a00000000000000000000000000000000000000000000000000000000081526004016101eb90610e33565b60405180910390fd5b8360015f3373ffffffffffffffffffffffffffffffffffffffff1673ffffffffffffffffffffffffffffffffffffffff1681526020019081526020015f205f01819055508260015f3373ffffffffffffffffffffffffffffffffffffffff1673ffffffffffffffffffffffffffffffffffffffff1681526020019081526020015f20600101819055508160015f3373ffffffffffffffffffffffffffffffffffffffff1673ffffffffffffffffffffffffffffffffffffffff1681526020019081526020015f20600201819055508060015f3373ffffffffffffffffffffffffffffffffffffffff1673ffffffffffffffffffffffffffffffffffffffff1681526020019081526020015f20600301908161030f9190611042565b50600160025f3373ffffffffffffffffffffffffffffffffffffffff1673ffffffffffffffffffffffffffffffffffffffff1681526020019081526020015f205f6101000a81548160ff0219169083151502179055503373ffffffffffffffffffffffffffffffffffffffff167f5b9bc78b12184cb147f4e8a6900423e638fb226f8f735050d0cbd29fb4a3a10b858585856040516103b19493929190610d9f565b60405180910390a250505050565b606060015f8373ffffffffffffffffffffffffffffffffffffffff1673ffffffffffffffffffffffffffffffffffffffff1681526020019081526020015f2060040180548060200260200160405190810160405280929190818152602001828054801561044957602002820191905f5260205f20905b815481526020019060010190808311610435575b50505050509050919050565b60025f3373ffffffffffffffffffffffffffffffffffffffff1673ffffffffffffffffffffffffffffffffffffffff1681526020019081526020015f205f9054906101000a900460ff166104de576040517f08c379a00000000000000000000000000000000000000000000000000000000081526004016104d59061115b565b60405180910390fd5b5f60015f3373ffffffffffffffffffffffffffffffffffffffff1673ffffffffffffffffffffffffffffffffffffffff1681526020019081526020015f2090508060040182908060018154018082558091505060019003905f5260205f20015f90919091909150553373ffffffffffffffffffffffffffffffffffffffff167f423d094827a00d73e9894994edd714372d862b1f954475c157ef76dbe4e7e7188360405161058c9190611179565b60405180910390a26001816004018054905011156106fe575f81600401600283600401805490506105bd91906111bf565b815481106105ce576105cd6111f2565b5b905f5260205f200154905061484483101580156105ed57506161448311155b1561064a576148448111158061060557506161448110155b15610632575f6002670de0b6b3a7640000610620919061121f565b905061062c33826107d7565b50610645565b61064433670de0b6b3a76400006107d7565b5b6106fc565b808311801561065b57506148448311155b156106a4575f670de0b6b3a764000066038d7ea4c68000838661067e91906111bf565b610688919061121f565b6106929190611260565b905061069e33826107d7565b506106fb565b80831080156106b557506161448310155b156106fa575f670de0b6b3a764000066038d7ea4c6800085846106d891906111bf565b6106e2919061121f565b6106ec9190611260565b90506106f833826107d7565b505b5b5b505b5050565b5f8054906101000a900473ffffffffffffffffffffffffffffffffffffffff1681565b6001602052805f5260405f205f91509050805f01549080600101549080600201549080600301805461075690610e7e565b80601f016020809104026020016040519081016040528092919081815260200182805461078290610e7e565b80156107cd5780601f106107a4576101008083540402835291602001916107cd565b820191905f5260205f20905b8154815290600101906020018083116107b057829003601f168201915b5050505050905084565b5f8054906101000a900473ffffffffffffffffffffffffffffffffffffffff1673ffffffffffffffffffffffffffffffffffffffff1663a9059cbb83836040518363ffffffff1660e01b81526004016108319291906112a2565b6020604051808303815f875af115801561084d573d5f803e3d5ffd5b505050506040513d601f19601f8201168201806040525081019061087191906112f3565b6108b0576040517f08c379a00000000000000000000000000000000000000000000000000000000081526004016108a790611368565b60405180910390fd5b8173ffffffffffffffffffffffffffffffffffffffff167f3ad0c8d1bbd63d54c5f14180eae95cab7c2420b2dbb90603a6e5d206668f52ec826040516108f69190611179565b60405180910390a25050565b5f604051905090565b5f80fd5b5f80fd5b5f73ffffffffffffffffffffffffffffffffffffffff82169050919050565b5f61093c82610913565b9050919050565b61094c81610932565b8114610956575f80fd5b50565b5f8135905061096781610943565b92915050565b5f602082840312156109825761098161090b565b5b5f61098f84828501610959565b91505092915050565b5f8115159050919050565b6109ac81610998565b82525050565b5f6020820190506109c55f8301846109a3565b92915050565b5f819050919050565b6109dd816109cb565b81146109e7575f80fd5b50565b5f813590506109f8816109d4565b92915050565b5f80fd5b5f80fd5b5f601f19601f8301169050919050565b7f4e487b71000000000000000000000000000000000000000000000000000000005f52604160045260245ffd5b610a4c82610a06565b810181811067ffffffffffffffff82111715610a6b57610a6a610a16565b5b80604052505050565b5f610a7d610902565b9050610a898282610a43565b919050565b5f67ffffffffffffffff821115610aa857610aa7610a16565b5b610ab182610a06565b9050602081019050919050565b828183375f83830152505050565b5f610ade610ad984610a8e565b610a74565b905082815260208101848484011115610afa57610af9610a02565b5b610b05848285610abe565b509392505050565b5f82601f830112610b2157610b206109fe565b5b8135610b31848260208601610acc565b91505092915050565b5f805f8060808587031215610b5257610b5161090b565b5b5f610b5f878288016109ea565b9450506020610b70878288016109ea565b9350506040610b81878288016109ea565b925050606085013567ffffffffffffffff811115610ba257610ba161090f565b5b610bae87828801610b0d565b91505092959194509250565b5f81519050919050565b5f82825260208201905092915050565b5f819050602082019050919050565b610bec816109cb565b82525050565b5f610bfd8383610be3565b60208301905092915050565b5f602082019050919050565b5f610c1f82610bba565b610c298185610bc4565b9350610c3483610bd4565b805f5b83811015610c64578151610c4b8882610bf2565b9750610c5683610c09565b925050600181019050610c37565b5085935050505092915050565b5f6020820190508181035f830152610c898184610c15565b905092915050565b5f60208284031215610ca657610ca561090b565b5b5f610cb3848285016109ea565b91505092915050565b5f819050919050565b5f610cdf610cda610cd584610913565b610cbc565b610913565b9050919050565b5f610cf082610cc5565b9050919050565b5f610d0182610ce6565b9050919050565b610d1181610cf7565b82525050565b5f602082019050610d2a5f830184610d08565b92915050565b610d39816109cb565b82525050565b5f81519050919050565b5f82825260208201905092915050565b8281835e5f83830152505050565b5f610d7182610d3f565b610d7b8185610d49565b9350610d8b818560208601610d59565b610d9481610a06565b840191505092915050565b5f608082019050610db25f830187610d30565b610dbf6020830186610d30565b610dcc6040830185610d30565b8181036060830152610dde8184610d67565b905095945050505050565b7f5573657220616c726561647920726567697374657265640000000000000000005f82015250565b5f610e1d601783610d49565b9150610e2882610de9565b602082019050919050565b5f6020820190508181035f830152610e4a81610e11565b9050919050565b7f4e487b71000000000000000000000000000000000000000000000000000000005f52602260045260245ffd5b5f6002820490506001821680610e9557607f821691505b602082108103610ea857610ea7610e51565b5b50919050565b5f819050815f5260205f209050919050565b5f6020601f8301049050919050565b5f82821b905092915050565b5f60088302610f0a7fffffffffffffffffffffffffffffffffffffffffffffffffffffffffffffffff82610ecf565b610f148683610ecf565b95508019841693508086168417925050509392505050565b5f610f46610f41610f3c846109cb565b610cbc565b6109cb565b9050919050565b5f819050919050565b610f5f83610f2c565b610f73610f6b82610f4d565b848454610edb565b825550505050565b5f90565b610f87610f7b565b610f92818484610f56565b505050565b5b81811015610fb557610faa5f82610f7f565b600181019050610f98565b5050565b601f821115610ffa57610fcb81610eae565b610fd484610ec0565b81016020851015610fe3578190505b610ff7610fef85610ec0565b830182610f97565b50505b505050565b5f82821c905092915050565b5f61101a5f1984600802610fff565b1980831691505092915050565b5f611032838361100b565b9150826002028217905092915050565b61104b82610d3f565b67ffffffffffffffff81111561106457611063610a16565b5b61106e8254610e7e565b611079828285610fb9565b5f60209050601f8311600181146110aa575f8415611098578287015190505b6110a28582611027565b865550611109565b601f1984166110b886610eae565b5f5b828110156110df578489015182556001820191506020850194506020810190506110ba565b868310156110fc57848901516110f8601f89168261100b565b8355505b6001600288020188555050505b505050505050565b7f55736572206e6f742072656769737465726564000000000000000000000000005f82015250565b5f611145601383610d49565b915061115082611111565b602082019050919050565b5f6020820190508181035f83015261117281611139565b9050919050565b5f60208201905061118c5f830184610d30565b92915050565b7f4e487b71000000000000000000000000000000000000000000000000000000005f52601160045260245ffd5b5f6111c9826109cb565b91506111d4836109cb565b92508282039050818111156111ec576111eb611192565b5b92915050565b7f4e487b71000000000000000000000000000000000000000000000000000000005f52603260045260245ffd5b5f611229826109cb565b9150611234836109cb565b9250828202611242816109cb565b9150828204841483151761125957611258611192565b5b5092915050565b5f61126a826109cb565b9150611275836109cb565b925082820190508082111561128d5761128c611192565b5b92915050565b61129c81610932565b82525050565b5f6040820190506112b55f830185611293565b6112c26020830184610d30565b9392505050565b6112d281610998565b81146112dc575f80fd5b50565b5f815190506112ed816112c9565b92915050565b5f602082840312156113085761130761090b565b5b5f611315848285016112df565b91505092915050565b7f526577617264207472616e73666572206661696c6564000000000000000000005f82015250565b5f611352601683610d49565b915061135d8261131e565b602082019050919050565b5f6020820190508181035f83015261137f81611346565b905091905056fea26469706673582212204e9c5ef9d04cce2d5f1a017dfb8df8c28fb41de0f76c79235d72998aa3319dd864736f6c634300081a0033",
  "immutableReferences": {},
  "source": "// SPDX-License-Identifier: MIT\r\npragma solidity >=0.8.2 <0.9.0;\r\n\r\nimport \"./RWD.sol\";\r\n\r\ncontract Upload {\r\n    RWD public rwdToken;\r\n    \r\n    struct User {\r\n        uint dateOfBirth;\r\n        uint monthOfBirth;\r\n        uint yearOfBirth;\r\n        string gender;\r\n        uint256[] bmiHistory;\r\n    }\r\n    \r\n    mapping(address => User) public users;\r\n    mapping(address => bool) public registeredUsers;\r\n    \r\n    uint256 constant HEALTHY_BMI_MIN = 18500;\r\n    uint256 constant HEALTHY_BMI_MAX = 24900;\r\n    uint256 constant REWARD_AMOUNT = 1 * (10 ** 18); // 10 RWD tokens\r\n\r\n    event UserRegistered(address indexed user, uint date, uint month, uint year, string gender);\r\n    event BMIRecorded(address indexed user, uint bmi);\r\n    event RewardGiven(address indexed user, uint amount);\r\n\r\n    constructor(address _rwdTokenAddress) {\r\n        rwdToken = RWD(_rwdTokenAddress);\r\n    }\r\n\r\n    function login(uint date, uint month, uint year, string memory gender) public {\r\n        require(!registeredUsers[msg.sender], \"User already registered\");\r\n\r\n        users[msg.sender].dateOfBirth = date;\r\n        users[msg.sender].monthOfBirth = month;\r\n        users[msg.sender].yearOfBirth = year;\r\n        users[msg.sender].gender = gender;\r\n        registeredUsers[msg.sender] = true;\r\n\r\n        emit UserRegistered(msg.sender, date, month, year, gender);\r\n    }\r\n    \r\n    // BMI is mmultiple of 10^3\r\n    function recordBMI(uint256 bmi) public {\r\n        require(registeredUsers[msg.sender], \"User not registered\");\r\n\r\n        User storage user = users[msg.sender];\r\n        user.bmiHistory.push(bmi);\r\n\r\n        emit BMIRecorded(msg.sender, bmi);\r\n\r\n        if (user.bmiHistory.length > 1) {\r\n            uint previousBMI = user.bmiHistory[user.bmiHistory.length - 2];\r\n            if(bmi >= HEALTHY_BMI_MIN && bmi <= HEALTHY_BMI_MAX){\r\n                if(previousBMI <=HEALTHY_BMI_MIN || previousBMI >= HEALTHY_BMI_MAX){\r\n                    uint256 amount = REWARD_AMOUNT * 2;\r\n                    _rewardUser(msg.sender,amount);\r\n                }\r\n                else{\r\n                _rewardUser(msg.sender,REWARD_AMOUNT);\r\n                }\r\n            }\r\n            else if (bmi > previousBMI && bmi <= HEALTHY_BMI_MIN) {\r\n                uint256 amount = (bmi - previousBMI) * (10 ** 15) + REWARD_AMOUNT;\r\n                _rewardUser(msg.sender,amount);\r\n            }\r\n            else if(bmi < previousBMI && bmi >= HEALTHY_BMI_MAX) {\r\n                uint256 amount = (previousBMI - bmi) * (10 ** 15) + REWARD_AMOUNT;\r\n                _rewardUser(msg.sender,amount);\r\n            }\r\n        }\r\n    }\r\n\r\n    function _rewardUser(address user , uint256 _amount) internal {\r\n        require(rwdToken.transfer(user, _amount), \"Reward transfer failed\");\r\n        emit RewardGiven(user, _amount);\r\n    }\r\n\r\n    function getBMIs(address user) public view returns (uint[] memory) {\r\n        return users[user].bmiHistory;\r\n    }\r\n}\r\n",
  "sourcePath": "E:\\Blockchain\\defi-staking-app-starter\\src\\contracts\\upload.sol",
  "compiler": {
    "name": "solc",
    "version": "0.8.26+commit.8a97fa7a.Emscripten.clang"
  },
  "schemaVersion": "3.4.16",
  "updatedAt": "2024-05-30T11:30:14.833Z",
  "devdoc": {
    "kind": "dev",
    "methods": {},
    "version": 1
  },
  "userdoc": {
    "kind": "user",
    "methods": {},
    "version": 1
  }
}