{
  "contractName": "Upload",
  "abi": [
    {
      "inputs": [
        {
          "internalType": "contract IERC20",
          "name": "_rwdToken",
          "type": "address"
        },
        {
          "internalType": "address",
          "name": "_rwdTokenDeployer",
          "type": "address"
        }
      ],
      "stateMutability": "nonpayable",
      "type": "constructor"
    },
    {
      "inputs": [
        {
          "internalType": "address",
          "name": "owner",
          "type": "address"
        }
      ],
      "name": "OwnableInvalidOwner",
      "type": "error"
    },
    {
      "inputs": [
        {
          "internalType": "address",
          "name": "account",
          "type": "address"
        }
      ],
      "name": "OwnableUnauthorizedAccount",
      "type": "error"
    },
    {
      "anonymous": false,
      "inputs": [
        {
          "indexed": true,
          "internalType": "address",
          "name": "user",
          "type": "address"
        },
        {
          "indexed": false,
          "internalType": "uint256",
          "name": "bmi",
          "type": "uint256"
        }
      ],
      "name": "BMIRecorded",
      "type": "event"
    },
    {
      "anonymous": false,
      "inputs": [
        {
          "indexed": true,
          "internalType": "address",
          "name": "previousOwner",
          "type": "address"
        },
        {
          "indexed": true,
          "internalType": "address",
          "name": "newOwner",
          "type": "address"
        }
      ],
      "name": "OwnershipTransferred",
      "type": "event"
    },
    {
      "anonymous": false,
      "inputs": [
        {
          "indexed": true,
          "internalType": "address",
          "name": "user",
          "type": "address"
        },
        {
          "indexed": false,
          "internalType": "uint256",
          "name": "amount",
          "type": "uint256"
        }
      ],
      "name": "RewardGiven",
      "type": "event"
    },
    {
      "anonymous": false,
      "inputs": [
        {
          "indexed": true,
          "internalType": "address",
          "name": "user",
          "type": "address"
        },
        {
          "indexed": false,
          "internalType": "uint256",
          "name": "date",
          "type": "uint256"
        },
        {
          "indexed": false,
          "internalType": "uint256",
          "name": "month",
          "type": "uint256"
        },
        {
          "indexed": false,
          "internalType": "uint256",
          "name": "year",
          "type": "uint256"
        },
        {
          "indexed": false,
          "internalType": "string",
          "name": "gender",
          "type": "string"
        }
      ],
      "name": "UserRegistered",
      "type": "event"
    },
    {
      "inputs": [],
      "name": "owner",
      "outputs": [
        {
          "internalType": "address",
          "name": "",
          "type": "address"
        }
      ],
      "stateMutability": "view",
      "type": "function",
      "constant": true
    },
    {
      "inputs": [
        {
          "internalType": "address",
          "name": "",
          "type": "address"
        }
      ],
      "name": "registeredUsers",
      "outputs": [
        {
          "internalType": "bool",
          "name": "",
          "type": "bool"
        }
      ],
      "stateMutability": "view",
      "type": "function",
      "constant": true
    },
    {
      "inputs": [],
      "name": "renounceOwnership",
      "outputs": [],
      "stateMutability": "nonpayable",
      "type": "function"
    },
    {
      "inputs": [],
      "name": "rwdToken",
      "outputs": [
        {
          "internalType": "contract IERC20",
          "name": "",
          "type": "address"
        }
      ],
      "stateMutability": "view",
      "type": "function",
      "constant": true
    },
    {
      "inputs": [],
      "name": "rwdTokenDeployer",
      "outputs": [
        {
          "internalType": "address",
          "name": "",
          "type": "address"
        }
      ],
      "stateMutability": "view",
      "type": "function",
      "constant": true
    },
    {
      "inputs": [
        {
          "internalType": "address",
          "name": "newOwner",
          "type": "address"
        }
      ],
      "name": "transferOwnership",
      "outputs": [],
      "stateMutability": "nonpayable",
      "type": "function"
    },
    {
      "inputs": [
        {
          "internalType": "address",
          "name": "",
          "type": "address"
        }
      ],
      "name": "users",
      "outputs": [
        {
          "internalType": "uint256",
          "name": "dateOfBirth",
          "type": "uint256"
        },
        {
          "internalType": "uint256",
          "name": "monthOfBirth",
          "type": "uint256"
        },
        {
          "internalType": "uint256",
          "name": "yearOfBirth",
          "type": "uint256"
        },
        {
          "internalType": "string",
          "name": "gender",
          "type": "string"
        }
      ],
      "stateMutability": "view",
      "type": "function",
      "constant": true
    },
    {
      "inputs": [
        {
          "internalType": "uint256",
          "name": "date",
          "type": "uint256"
        },
        {
          "internalType": "uint256",
          "name": "month",
          "type": "uint256"
        },
        {
          "internalType": "uint256",
          "name": "year",
          "type": "uint256"
        },
        {
          "internalType": "string",
          "name": "gender",
          "type": "string"
        }
      ],
      "name": "login",
      "outputs": [],
      "stateMutability": "nonpayable",
      "type": "function"
    },
    {
      "inputs": [
        {
          "internalType": "uint256",
          "name": "bmi",
          "type": "uint256"
        }
      ],
      "name": "recordBMI",
      "outputs": [],
      "stateMutability": "nonpayable",
      "type": "function"
    },
    {
      "inputs": [
        {
          "internalType": "address",
          "name": "user",
          "type": "address"
        }
      ],
      "name": "getBMIs",
      "outputs": [
        {
          "internalType": "uint256[]",
          "name": "",
          "type": "uint256[]"
        }
      ],
      "stateMutability": "view",
      "type": "function",
      "constant": true
    }
  ],
  "bytecode": "0x608060405234801561001057600080fd5b506040516119bb3803806119bb833981810160405281019061003291906102a3565b33600073ffffffffffffffffffffffffffffffffffffffff168173ffffffffffffffffffffffffffffffffffffffff16036100a55760006040517f1e4fbdf700000000000000000000000000000000000000000000000000000000815260040161009c91906102f2565b60405180910390fd5b6100b48161013e60201b60201c565b5081600160006101000a81548173ffffffffffffffffffffffffffffffffffffffff021916908373ffffffffffffffffffffffffffffffffffffffff16021790555080600260006101000a81548173ffffffffffffffffffffffffffffffffffffffff021916908373ffffffffffffffffffffffffffffffffffffffff160217905550505061030d565b60008060009054906101000a900473ffffffffffffffffffffffffffffffffffffffff169050816000806101000a81548173ffffffffffffffffffffffffffffffffffffffff021916908373ffffffffffffffffffffffffffffffffffffffff1602179055508173ffffffffffffffffffffffffffffffffffffffff168173ffffffffffffffffffffffffffffffffffffffff167f8be0079c531659141344cd1fd0a4f28419497f9722a3daafe3b4186f6b6457e060405160405180910390a35050565b600080fd5b600073ffffffffffffffffffffffffffffffffffffffff82169050919050565b600061023282610207565b9050919050565b600061024482610227565b9050919050565b61025481610239565b811461025f57600080fd5b50565b6000815190506102718161024b565b92915050565b61028081610227565b811461028b57600080fd5b50565b60008151905061029d81610277565b92915050565b600080604083850312156102ba576102b9610202565b5b60006102c885828601610262565b92505060206102d98582860161028e565b9150509250929050565b6102ec81610227565b82525050565b600060208201905061030760008301846102e3565b92915050565b61169f8061031c6000396000f3fe608060405234801561001057600080fd5b506004361061009e5760003560e01c80637d787a24116100665780637d787a24146101455780638da5cb5b14610163578063a87430ba14610181578063e724e0cf146101b4578063f2fde38b146101d25761009e565b80630e50cee5146100a357806329cae7b6146100d35780633c44876d146100ef5780635e620c351461011f578063715018a61461013b575b600080fd5b6100bd60048036038101906100b89190610c1d565b6101ee565b6040516100ca9190610c65565b60405180910390f35b6100ed60048036038101906100e89190610dfc565b61020e565b005b61010960048036038101906101049190610c1d565b610472565b6040516101169190610f3d565b60405180910390f35b61013960048036038101906101349190610f5f565b61050c565b005b61014361073c565b005b61014d610750565b60405161015a9190610feb565b60405180910390f35b61016b610776565b6040516101789190611015565b60405180910390f35b61019b60048036038101906101969190610c1d565b61079f565b6040516101ab94939291906110be565b60405180910390f35b6101bc610857565b6040516101c99190611015565b60405180910390f35b6101ec60048036038101906101e79190610c1d565b61087d565b005b60046020528060005260406000206000915054906101000a900460ff1681565b600460003373ffffffffffffffffffffffffffffffffffffffff1673ffffffffffffffffffffffffffffffffffffffff16815260200190815260200160002060009054906101000a900460ff161561029b576040517f08c379a000000000000000000000000000000000000000000000000000000000815260040161029290611156565b60405180910390fd5b83600360003373ffffffffffffffffffffffffffffffffffffffff1673ffffffffffffffffffffffffffffffffffffffff1681526020019081526020016000206000018190555082600360003373ffffffffffffffffffffffffffffffffffffffff1673ffffffffffffffffffffffffffffffffffffffff1681526020019081526020016000206001018190555081600360003373ffffffffffffffffffffffffffffffffffffffff1673ffffffffffffffffffffffffffffffffffffffff1681526020019081526020016000206002018190555080600360003373ffffffffffffffffffffffffffffffffffffffff1673ffffffffffffffffffffffffffffffffffffffff16815260200190815260200160002060030190816103bf9190611378565b506001600460003373ffffffffffffffffffffffffffffffffffffffff1673ffffffffffffffffffffffffffffffffffffffff16815260200190815260200160002060006101000a81548160ff0219169083151502179055503373ffffffffffffffffffffffffffffffffffffffff167f5b9bc78b12184cb147f4e8a6900423e638fb226f8f735050d0cbd29fb4a3a10b8585858560405161046494939291906110be565b60405180910390a250505050565b6060600360008373ffffffffffffffffffffffffffffffffffffffff1673ffffffffffffffffffffffffffffffffffffffff16815260200190815260200160002060040180548060200260200160405190810160405280929190818152602001828054801561050057602002820191906000526020600020905b8154815260200190600101908083116104ec575b50505050509050919050565b6000600360003373ffffffffffffffffffffffffffffffffffffffff1673ffffffffffffffffffffffffffffffffffffffff1681526020019081526020016000209050806004018290806001815401808255809150506001900390600052602060002001600090919091909150553373ffffffffffffffffffffffffffffffffffffffff167f423d094827a00d73e9894994edd714372d862b1f954475c157ef76dbe4e7e718836040516105c0919061144a565b60405180910390a260018160040180549050111561073857600081600401600283600401805490506105f29190611494565b81548110610603576106026114c8565b5b90600052602060002001549050614844831015801561062457506161448311155b15610682576148448111158061063c57506161448110155b1561066a5760006002670de0b6b3a764000061065891906114f7565b90506106643382610903565b5061067d565b61067c33670de0b6b3a7640000610903565b5b610736565b808311801561069357506148448311155b156106dd576000670de0b6b3a764000066038d7ea4c6800083866106b79190611494565b6106c191906114f7565b6106cb9190611539565b90506106d73382610903565b50610735565b80831080156106ee57506161448310155b15610734576000670de0b6b3a764000066038d7ea4c6800085846107129190611494565b61071c91906114f7565b6107269190611539565b90506107323382610903565b505b5b5b505b5050565b610744610a58565b61074e6000610adf565b565b600160009054906101000a900473ffffffffffffffffffffffffffffffffffffffff1681565b60008060009054906101000a900473ffffffffffffffffffffffffffffffffffffffff16905090565b60036020528060005260406000206000915090508060000154908060010154908060020154908060030180546107d4906111a5565b80601f0160208091040260200160405190810160405280929190818152602001828054610800906111a5565b801561084d5780601f106108225761010080835404028352916020019161084d565b820191906000526020600020905b81548152906001019060200180831161083057829003601f168201915b5050505050905084565b600260009054906101000a900473ffffffffffffffffffffffffffffffffffffffff1681565b610885610a58565b600073ffffffffffffffffffffffffffffffffffffffff168173ffffffffffffffffffffffffffffffffffffffff16036108f75760006040517f1e4fbdf70000000000000000000000000000000000000000000000000000000081526004016108ee9190611015565b60405180910390fd5b61090081610adf565b50565b600160009054906101000a900473ffffffffffffffffffffffffffffffffffffffff1673ffffffffffffffffffffffffffffffffffffffff166323b872dd600260009054906101000a900473ffffffffffffffffffffffffffffffffffffffff1684846040518463ffffffff1660e01b81526004016109849392919061156d565b6020604051808303816000875af11580156109a3573d6000803e3d6000fd5b505050506040513d601f19601f820116820180604052508101906109c791906115d0565b610a06576040517f08c379a00000000000000000000000000000000000000000000000000000000081526004016109fd90611649565b60405180910390fd5b8173ffffffffffffffffffffffffffffffffffffffff167f3ad0c8d1bbd63d54c5f14180eae95cab7c2420b2dbb90603a6e5d206668f52ec82604051610a4c919061144a565b60405180910390a25050565b610a60610ba3565b73ffffffffffffffffffffffffffffffffffffffff16610a7e610776565b73ffffffffffffffffffffffffffffffffffffffff1614610add57610aa1610ba3565b6040517f118cdaa7000000000000000000000000000000000000000000000000000000008152600401610ad49190611015565b60405180910390fd5b565b60008060009054906101000a900473ffffffffffffffffffffffffffffffffffffffff169050816000806101000a81548173ffffffffffffffffffffffffffffffffffffffff021916908373ffffffffffffffffffffffffffffffffffffffff1602179055508173ffffffffffffffffffffffffffffffffffffffff168173ffffffffffffffffffffffffffffffffffffffff167f8be0079c531659141344cd1fd0a4f28419497f9722a3daafe3b4186f6b6457e060405160405180910390a35050565b600033905090565b6000604051905090565b600080fd5b600080fd5b600073ffffffffffffffffffffffffffffffffffffffff82169050919050565b6000610bea82610bbf565b9050919050565b610bfa81610bdf565b8114610c0557600080fd5b50565b600081359050610c1781610bf1565b92915050565b600060208284031215610c3357610c32610bb5565b5b6000610c4184828501610c08565b91505092915050565b60008115159050919050565b610c5f81610c4a565b82525050565b6000602082019050610c7a6000830184610c56565b92915050565b6000819050919050565b610c9381610c80565b8114610c9e57600080fd5b50565b600081359050610cb081610c8a565b92915050565b600080fd5b600080fd5b6000601f19601f8301169050919050565b7f4e487b7100000000000000000000000000000000000000000000000000000000600052604160045260246000fd5b610d0982610cc0565b810181811067ffffffffffffffff82111715610d2857610d27610cd1565b5b80604052505050565b6000610d3b610bab565b9050610d478282610d00565b919050565b600067ffffffffffffffff821115610d6757610d66610cd1565b5b610d7082610cc0565b9050602081019050919050565b82818337600083830152505050565b6000610d9f610d9a84610d4c565b610d31565b905082815260208101848484011115610dbb57610dba610cbb565b5b610dc6848285610d7d565b509392505050565b600082601f830112610de357610de2610cb6565b5b8135610df3848260208601610d8c565b91505092915050565b60008060008060808587031215610e1657610e15610bb5565b5b6000610e2487828801610ca1565b9450506020610e3587828801610ca1565b9350506040610e4687828801610ca1565b925050606085013567ffffffffffffffff811115610e6757610e66610bba565b5b610e7387828801610dce565b91505092959194509250565b600081519050919050565b600082825260208201905092915050565b6000819050602082019050919050565b610eb481610c80565b82525050565b6000610ec68383610eab565b60208301905092915050565b6000602082019050919050565b6000610eea82610e7f565b610ef48185610e8a565b9350610eff83610e9b565b8060005b83811015610f30578151610f178882610eba565b9750610f2283610ed2565b925050600181019050610f03565b5085935050505092915050565b60006020820190508181036000830152610f578184610edf565b905092915050565b600060208284031215610f7557610f74610bb5565b5b6000610f8384828501610ca1565b91505092915050565b6000819050919050565b6000610fb1610fac610fa784610bbf565b610f8c565b610bbf565b9050919050565b6000610fc382610f96565b9050919050565b6000610fd582610fb8565b9050919050565b610fe581610fca565b82525050565b60006020820190506110006000830184610fdc565b92915050565b61100f81610bdf565b82525050565b600060208201905061102a6000830184611006565b92915050565b61103981610c80565b82525050565b600081519050919050565b600082825260208201905092915050565b60005b8381101561107957808201518184015260208101905061105e565b60008484015250505050565b60006110908261103f565b61109a818561104a565b93506110aa81856020860161105b565b6110b381610cc0565b840191505092915050565b60006080820190506110d36000830187611030565b6110e06020830186611030565b6110ed6040830185611030565b81810360608301526110ff8184611085565b905095945050505050565b7f5573657220616c72656164792072656769737465726564000000000000000000600082015250565b600061114060178361104a565b915061114b8261110a565b602082019050919050565b6000602082019050818103600083015261116f81611133565b9050919050565b7f4e487b7100000000000000000000000000000000000000000000000000000000600052602260045260246000fd5b600060028204905060018216806111bd57607f821691505b6020821081036111d0576111cf611176565b5b50919050565b60008190508160005260206000209050919050565b60006020601f8301049050919050565b600082821b905092915050565b6000600883026112387fffffffffffffffffffffffffffffffffffffffffffffffffffffffffffffffff826111fb565b61124286836111fb565b95508019841693508086168417925050509392505050565b600061127561127061126b84610c80565b610f8c565b610c80565b9050919050565b6000819050919050565b61128f8361125a565b6112a361129b8261127c565b848454611208565b825550505050565b600090565b6112b86112ab565b6112c3818484611286565b505050565b5b818110156112e7576112dc6000826112b0565b6001810190506112c9565b5050565b601f82111561132c576112fd816111d6565b611306846111eb565b81016020851015611315578190505b611329611321856111eb565b8301826112c8565b50505b505050565b600082821c905092915050565b600061134f60001984600802611331565b1980831691505092915050565b6000611368838361133e565b9150826002028217905092915050565b6113818261103f565b67ffffffffffffffff81111561139a57611399610cd1565b5b6113a482546111a5565b6113af8282856112eb565b600060209050601f8311600181146113e257600084156113d0578287015190505b6113da858261135c565b865550611442565b601f1984166113f0866111d6565b60005b82811015611418578489015182556001820191506020850194506020810190506113f3565b868310156114355784890151611431601f89168261133e565b8355505b6001600288020188555050505b505050505050565b600060208201905061145f6000830184611030565b92915050565b7f4e487b7100000000000000000000000000000000000000000000000000000000600052601160045260246000fd5b600061149f82610c80565b91506114aa83610c80565b92508282039050818111156114c2576114c1611465565b5b92915050565b7f4e487b7100000000000000000000000000000000000000000000000000000000600052603260045260246000fd5b600061150282610c80565b915061150d83610c80565b925082820261151b81610c80565b9150828204841483151761153257611531611465565b5b5092915050565b600061154482610c80565b915061154f83610c80565b925082820190508082111561156757611566611465565b5b92915050565b60006060820190506115826000830186611006565b61158f6020830185611006565b61159c6040830184611030565b949350505050565b6115ad81610c4a565b81146115b857600080fd5b50565b6000815190506115ca816115a4565b92915050565b6000602082840312156115e6576115e5610bb5565b5b60006115f4848285016115bb565b91505092915050565b7f526577617264207472616e73666572206661696c656400000000000000000000600082015250565b600061163360168361104a565b915061163e826115fd565b602082019050919050565b6000602082019050818103600083015261166281611626565b905091905056fea2646970667358221220d174942fc2d747090c26e005b2adfbc12d68000c9e03d2bb745c4932d5ed956164736f6c634300081a0033",
  "immutableReferences": {},
  "source": "// SPDX-License-Identifier: MIT\r\npragma solidity >=0.8.19 <0.9.0;\r\n\r\nimport \"@openzeppelin/contracts/token/ERC20/IERC20.sol\";\r\nimport \"@openzeppelin/contracts/access/Ownable.sol\";\r\n\r\ncontract Upload is Ownable {\r\n    IERC20 public rwdToken;\r\n    address public rwdTokenDeployer;\r\n\r\n    struct User {\r\n        uint dateOfBirth;\r\n        uint monthOfBirth;\r\n        uint yearOfBirth;\r\n        string gender;\r\n        uint256[] bmiHistory;\r\n    }\r\n\r\n    mapping(address => User) public users;\r\n    mapping(address => bool) public registeredUsers;\r\n\r\n    uint256 constant HEALTHY_BMI_MIN = 18500;\r\n    uint256 constant HEALTHY_BMI_MAX = 24900;\r\n    uint256 constant REWARD_AMOUNT = 1 * (10 ** 18); // 1 RWD token\r\n\r\n    event UserRegistered(address indexed user, uint date, uint month, uint year, string gender);\r\n    event BMIRecorded(address indexed user, uint bmi);\r\n    event RewardGiven(address indexed user, uint amount);\r\n\r\n    constructor(IERC20 _rwdToken, address _rwdTokenDeployer) Ownable(msg.sender) {\r\n        rwdToken = _rwdToken;\r\n        rwdTokenDeployer = _rwdTokenDeployer;\r\n    }\r\n\r\n    function login(uint date, uint month, uint year, string memory gender) public {\r\n        require(!registeredUsers[msg.sender], \"User already registered\");\r\n\r\n        users[msg.sender].dateOfBirth = date;\r\n        users[msg.sender].monthOfBirth = month;\r\n        users[msg.sender].yearOfBirth = year;\r\n        users[msg.sender].gender = gender;\r\n        registeredUsers[msg.sender] = true;\r\n\r\n        emit UserRegistered(msg.sender, date, month, year, gender);\r\n    }\r\n\r\n    // BMI is a multiple of 10^3\r\n    function recordBMI(uint256 bmi) public {\r\n        //require(registeredUsers[msg.sender], \"User not registered\");\r\n\r\n        User storage user = users[msg.sender];\r\n        user.bmiHistory.push(bmi);\r\n\r\n        emit BMIRecorded(msg.sender, bmi);\r\n\r\n        if (user.bmiHistory.length > 1) {\r\n            uint previousBMI = user.bmiHistory[user.bmiHistory.length - 2];\r\n            if (bmi >= HEALTHY_BMI_MIN && bmi <= HEALTHY_BMI_MAX) {\r\n                if (previousBMI <= HEALTHY_BMI_MIN || previousBMI >= HEALTHY_BMI_MAX) {\r\n                    uint256 amount = REWARD_AMOUNT * 2;\r\n                    _rewardUser(msg.sender, amount);\r\n                } else {\r\n                    _rewardUser(msg.sender, REWARD_AMOUNT);\r\n                }\r\n            } else if (bmi > previousBMI && bmi <= HEALTHY_BMI_MIN) {\r\n                uint256 amount = (bmi - previousBMI) * (10 ** 15) + REWARD_AMOUNT;\r\n                _rewardUser(msg.sender, amount);\r\n            } else if (bmi < previousBMI && bmi >= HEALTHY_BMI_MAX) {\r\n                uint256 amount = (previousBMI - bmi) * (10 ** 15) + REWARD_AMOUNT;\r\n                _rewardUser(msg.sender, amount);\r\n            }\r\n        }\r\n    }\r\n\r\n    function _rewardUser(address user, uint256 _amount) internal {\r\n        require(rwdToken.transferFrom(rwdTokenDeployer, user, _amount), \"Reward transfer failed\");\r\n        emit RewardGiven(user, _amount);\r\n    }\r\n\r\n    function getBMIs(address user) public view returns (uint[] memory) {\r\n        return users[user].bmiHistory;\r\n    }\r\n}\r\n",
  "sourcePath": "E:\\Blockchain\\defi-staking-app-starter\\src\\contracts\\upload.sol",
  "compiler": {
    "name": "solc",
    "version": "0.8.26+commit.8a97fa7a.Emscripten.clang"
  },
  "schemaVersion": "3.4.16",
  "updatedAt": "2024-06-02T20:12:49.301Z",
  "networkType": "ethereum",
  "devdoc": {
    "errors": {
      "OwnableInvalidOwner(address)": [
        {
          "details": "The owner is not a valid owner account. (eg. `address(0)`)"
        }
      ],
      "OwnableUnauthorizedAccount(address)": [
        {
          "details": "The caller account is not authorized to perform an operation."
        }
      ]
    },
    "kind": "dev",
    "methods": {
      "owner()": {
        "details": "Returns the address of the current owner."
      },
      "renounceOwnership()": {
        "details": "Leaves the contract without owner. It will not be possible to call `onlyOwner` functions. Can only be called by the current owner. NOTE: Renouncing ownership will leave the contract without an owner, thereby disabling any functionality that is only available to the owner."
      },
      "transferOwnership(address)": {
        "details": "Transfers ownership of the contract to a new account (`newOwner`). Can only be called by the current owner."
      }
    },
    "version": 1
  },
  "userdoc": {
    "kind": "user",
    "methods": {},
    "version": 1
  }
}