{
  "contractName": "Upload",
  "abi": [
    {
      "inputs": [
        {
          "internalType": "address",
          "name": "_rwdTokenAddress",
          "type": "address"
        }
      ],
      "stateMutability": "nonpayable",
      "type": "constructor"
    },
    {
      "anonymous": false,
      "inputs": [
        {
          "indexed": true,
          "internalType": "address",
          "name": "user",
          "type": "address"
        },
        {
          "indexed": false,
          "internalType": "uint256",
          "name": "bmi",
          "type": "uint256"
        }
      ],
      "name": "BMIRecorded",
      "type": "event"
    },
    {
      "anonymous": false,
      "inputs": [
        {
          "indexed": true,
          "internalType": "address",
          "name": "user",
          "type": "address"
        },
        {
          "indexed": false,
          "internalType": "uint256",
          "name": "amount",
          "type": "uint256"
        }
      ],
      "name": "RewardGiven",
      "type": "event"
    },
    {
      "anonymous": false,
      "inputs": [
        {
          "indexed": true,
          "internalType": "address",
          "name": "user",
          "type": "address"
        },
        {
          "indexed": false,
          "internalType": "uint256",
          "name": "date",
          "type": "uint256"
        },
        {
          "indexed": false,
          "internalType": "uint256",
          "name": "month",
          "type": "uint256"
        },
        {
          "indexed": false,
          "internalType": "uint256",
          "name": "year",
          "type": "uint256"
        },
        {
          "indexed": false,
          "internalType": "string",
          "name": "gender",
          "type": "string"
        }
      ],
      "name": "UserRegistered",
      "type": "event"
    },
    {
      "inputs": [
        {
          "internalType": "address",
          "name": "",
          "type": "address"
        }
      ],
      "name": "registeredUsers",
      "outputs": [
        {
          "internalType": "bool",
          "name": "",
          "type": "bool"
        }
      ],
      "stateMutability": "view",
      "type": "function"
    },
    {
      "inputs": [],
      "name": "rwdToken",
      "outputs": [
        {
          "internalType": "contract RWD",
          "name": "",
          "type": "address"
        }
      ],
      "stateMutability": "view",
      "type": "function"
    },
    {
      "inputs": [
        {
          "internalType": "address",
          "name": "",
          "type": "address"
        }
      ],
      "name": "users",
      "outputs": [
        {
          "internalType": "uint256",
          "name": "dateOfBirth",
          "type": "uint256"
        },
        {
          "internalType": "uint256",
          "name": "monthOfBirth",
          "type": "uint256"
        },
        {
          "internalType": "uint256",
          "name": "yearOfBirth",
          "type": "uint256"
        },
        {
          "internalType": "string",
          "name": "gender",
          "type": "string"
        }
      ],
      "stateMutability": "view",
      "type": "function"
    },
    {
      "inputs": [
        {
          "internalType": "uint256",
          "name": "date",
          "type": "uint256"
        },
        {
          "internalType": "uint256",
          "name": "month",
          "type": "uint256"
        },
        {
          "internalType": "uint256",
          "name": "year",
          "type": "uint256"
        },
        {
          "internalType": "string",
          "name": "gender",
          "type": "string"
        }
      ],
      "name": "login",
      "outputs": [],
      "stateMutability": "nonpayable",
      "type": "function"
    },
    {
      "inputs": [
        {
          "internalType": "uint256",
          "name": "bmi",
          "type": "uint256"
        }
      ],
      "name": "recordBMI",
      "outputs": [],
      "stateMutability": "nonpayable",
      "type": "function"
    },
    {
      "inputs": [
        {
          "internalType": "address",
          "name": "user",
          "type": "address"
        }
      ],
      "name": "getBMIs",
      "outputs": [
        {
          "internalType": "uint256[]",
          "name": "",
          "type": "uint256[]"
        }
      ],
      "stateMutability": "view",
      "type": "function"
    }
  ],
  "bytecode": "0x608060405234801561001057600080fd5b50604051611583380380611583833981810160405281019061003291906100db565b806000806101000a81548173ffffffffffffffffffffffffffffffffffffffff021916908373ffffffffffffffffffffffffffffffffffffffff16021790555050610108565b600080fd5b600073ffffffffffffffffffffffffffffffffffffffff82169050919050565b60006100a88261007d565b9050919050565b6100b88161009d565b81146100c357600080fd5b50565b6000815190506100d5816100af565b92915050565b6000602082840312156100f1576100f0610078565b5b60006100ff848285016100c6565b91505092915050565b61146c806101176000396000f3fe608060405234801561001057600080fd5b50600436106100625760003560e01c80630e50cee51461006757806329cae7b6146100975780633c44876d146100b35780635e620c35146100e35780637d787a24146100ff578063a87430ba1461011d575b600080fd5b610081600480360381019061007c91906109a7565b610150565b60405161008e91906109ef565b60405180910390f35b6100b160048036038101906100ac9190610b86565b610170565b005b6100cd60048036038101906100c891906109a7565b6103d4565b6040516100da9190610cc7565b60405180910390f35b6100fd60048036038101906100f89190610ce9565b61046e565b005b61010761072a565b6040516101149190610d75565b60405180910390f35b610137600480360381019061013291906109a7565b61074e565b6040516101479493929190610e1e565b60405180910390f35b60026020528060005260406000206000915054906101000a900460ff1681565b600260003373ffffffffffffffffffffffffffffffffffffffff1673ffffffffffffffffffffffffffffffffffffffff16815260200190815260200160002060009054906101000a900460ff16156101fd576040517f08c379a00000000000000000000000000000000000000000000000000000000081526004016101f490610eb6565b60405180910390fd5b83600160003373ffffffffffffffffffffffffffffffffffffffff1673ffffffffffffffffffffffffffffffffffffffff1681526020019081526020016000206000018190555082600160003373ffffffffffffffffffffffffffffffffffffffff1673ffffffffffffffffffffffffffffffffffffffff1681526020019081526020016000206001018190555081600160003373ffffffffffffffffffffffffffffffffffffffff1673ffffffffffffffffffffffffffffffffffffffff1681526020019081526020016000206002018190555080600160003373ffffffffffffffffffffffffffffffffffffffff1673ffffffffffffffffffffffffffffffffffffffff168152602001908152602001600020600301908161032191906110d8565b506001600260003373ffffffffffffffffffffffffffffffffffffffff1673ffffffffffffffffffffffffffffffffffffffff16815260200190815260200160002060006101000a81548160ff0219169083151502179055503373ffffffffffffffffffffffffffffffffffffffff167f5b9bc78b12184cb147f4e8a6900423e638fb226f8f735050d0cbd29fb4a3a10b858585856040516103c69493929190610e1e565b60405180910390a250505050565b6060600160008373ffffffffffffffffffffffffffffffffffffffff1673ffffffffffffffffffffffffffffffffffffffff16815260200190815260200160002060040180548060200260200160405190810160405280929190818152602001828054801561046257602002820191906000526020600020905b81548152602001906001019080831161044e575b50505050509050919050565b600260003373ffffffffffffffffffffffffffffffffffffffff1673ffffffffffffffffffffffffffffffffffffffff16815260200190815260200160002060009054906101000a900460ff166104fa576040517f08c379a00000000000000000000000000000000000000000000000000000000081526004016104f1906111f6565b60405180910390fd5b6000600160003373ffffffffffffffffffffffffffffffffffffffff1673ffffffffffffffffffffffffffffffffffffffff1681526020019081526020016000209050806004018290806001815401808255809150506001900390600052602060002001600090919091909150553373ffffffffffffffffffffffffffffffffffffffff167f423d094827a00d73e9894994edd714372d862b1f954475c157ef76dbe4e7e718836040516105ae9190611216565b60405180910390a260018160040180549050111561072657600081600401600283600401805490506105e09190611260565b815481106105f1576105f0611294565b5b90600052602060002001549050614844831015801561061257506161448311155b15610670576148448111158061062a57506161448110155b156106585760006002670de0b6b3a764000061064691906112c3565b90506106523382610806565b5061066b565b61066a33670de0b6b3a7640000610806565b5b610724565b808311801561068157506148448311155b156106cb576000670de0b6b3a764000066038d7ea4c6800083866106a59190611260565b6106af91906112c3565b6106b99190611305565b90506106c53382610806565b50610723565b80831080156106dc57506161448310155b15610722576000670de0b6b3a764000066038d7ea4c6800085846107009190611260565b61070a91906112c3565b6107149190611305565b90506107203382610806565b505b5b5b505b5050565b60008054906101000a900473ffffffffffffffffffffffffffffffffffffffff1681565b600160205280600052604060002060009150905080600001549080600101549080600201549080600301805461078390610f05565b80601f01602080910402602001604051908101604052809291908181526020018280546107af90610f05565b80156107fc5780601f106107d1576101008083540402835291602001916107fc565b820191906000526020600020905b8154815290600101906020018083116107df57829003601f168201915b5050505050905084565b60008054906101000a900473ffffffffffffffffffffffffffffffffffffffff1673ffffffffffffffffffffffffffffffffffffffff1663a9059cbb83836040518363ffffffff1660e01b8152600401610861929190611348565b6020604051808303816000875af1158015610880573d6000803e3d6000fd5b505050506040513d601f19601f820116820180604052508101906108a4919061139d565b6108e3576040517f08c379a00000000000000000000000000000000000000000000000000000000081526004016108da90611416565b60405180910390fd5b8173ffffffffffffffffffffffffffffffffffffffff167f3ad0c8d1bbd63d54c5f14180eae95cab7c2420b2dbb90603a6e5d206668f52ec826040516109299190611216565b60405180910390a25050565b6000604051905090565b600080fd5b600080fd5b600073ffffffffffffffffffffffffffffffffffffffff82169050919050565b600061097482610949565b9050919050565b61098481610969565b811461098f57600080fd5b50565b6000813590506109a18161097b565b92915050565b6000602082840312156109bd576109bc61093f565b5b60006109cb84828501610992565b91505092915050565b60008115159050919050565b6109e9816109d4565b82525050565b6000602082019050610a0460008301846109e0565b92915050565b6000819050919050565b610a1d81610a0a565b8114610a2857600080fd5b50565b600081359050610a3a81610a14565b92915050565b600080fd5b600080fd5b6000601f19601f8301169050919050565b7f4e487b7100000000000000000000000000000000000000000000000000000000600052604160045260246000fd5b610a9382610a4a565b810181811067ffffffffffffffff82111715610ab257610ab1610a5b565b5b80604052505050565b6000610ac5610935565b9050610ad18282610a8a565b919050565b600067ffffffffffffffff821115610af157610af0610a5b565b5b610afa82610a4a565b9050602081019050919050565b82818337600083830152505050565b6000610b29610b2484610ad6565b610abb565b905082815260208101848484011115610b4557610b44610a45565b5b610b50848285610b07565b509392505050565b600082601f830112610b6d57610b6c610a40565b5b8135610b7d848260208601610b16565b91505092915050565b60008060008060808587031215610ba057610b9f61093f565b5b6000610bae87828801610a2b565b9450506020610bbf87828801610a2b565b9350506040610bd087828801610a2b565b925050606085013567ffffffffffffffff811115610bf157610bf0610944565b5b610bfd87828801610b58565b91505092959194509250565b600081519050919050565b600082825260208201905092915050565b6000819050602082019050919050565b610c3e81610a0a565b82525050565b6000610c508383610c35565b60208301905092915050565b6000602082019050919050565b6000610c7482610c09565b610c7e8185610c14565b9350610c8983610c25565b8060005b83811015610cba578151610ca18882610c44565b9750610cac83610c5c565b925050600181019050610c8d565b5085935050505092915050565b60006020820190508181036000830152610ce18184610c69565b905092915050565b600060208284031215610cff57610cfe61093f565b5b6000610d0d84828501610a2b565b91505092915050565b6000819050919050565b6000610d3b610d36610d3184610949565b610d16565b610949565b9050919050565b6000610d4d82610d20565b9050919050565b6000610d5f82610d42565b9050919050565b610d6f81610d54565b82525050565b6000602082019050610d8a6000830184610d66565b92915050565b610d9981610a0a565b82525050565b600081519050919050565b600082825260208201905092915050565b60005b83811015610dd9578082015181840152602081019050610dbe565b60008484015250505050565b6000610df082610d9f565b610dfa8185610daa565b9350610e0a818560208601610dbb565b610e1381610a4a565b840191505092915050565b6000608082019050610e336000830187610d90565b610e406020830186610d90565b610e4d6040830185610d90565b8181036060830152610e5f8184610de5565b905095945050505050565b7f5573657220616c72656164792072656769737465726564000000000000000000600082015250565b6000610ea0601783610daa565b9150610eab82610e6a565b602082019050919050565b60006020820190508181036000830152610ecf81610e93565b9050919050565b7f4e487b7100000000000000000000000000000000000000000000000000000000600052602260045260246000fd5b60006002820490506001821680610f1d57607f821691505b602082108103610f3057610f2f610ed6565b5b50919050565b60008190508160005260206000209050919050565b60006020601f8301049050919050565b600082821b905092915050565b600060088302610f987fffffffffffffffffffffffffffffffffffffffffffffffffffffffffffffffff82610f5b565b610fa28683610f5b565b95508019841693508086168417925050509392505050565b6000610fd5610fd0610fcb84610a0a565b610d16565b610a0a565b9050919050565b6000819050919050565b610fef83610fba565b611003610ffb82610fdc565b848454610f68565b825550505050565b600090565b61101861100b565b611023818484610fe6565b505050565b5b818110156110475761103c600082611010565b600181019050611029565b5050565b601f82111561108c5761105d81610f36565b61106684610f4b565b81016020851015611075578190505b61108961108185610f4b565b830182611028565b50505b505050565b600082821c905092915050565b60006110af60001984600802611091565b1980831691505092915050565b60006110c8838361109e565b9150826002028217905092915050565b6110e182610d9f565b67ffffffffffffffff8111156110fa576110f9610a5b565b5b6111048254610f05565b61110f82828561104b565b600060209050601f8311600181146111425760008415611130578287015190505b61113a85826110bc565b8655506111a2565b601f19841661115086610f36565b60005b8281101561117857848901518255600182019150602085019450602081019050611153565b868310156111955784890151611191601f89168261109e565b8355505b6001600288020188555050505b505050505050565b7f55736572206e6f74207265676973746572656400000000000000000000000000600082015250565b60006111e0601383610daa565b91506111eb826111aa565b602082019050919050565b6000602082019050818103600083015261120f816111d3565b9050919050565b600060208201905061122b6000830184610d90565b92915050565b7f4e487b7100000000000000000000000000000000000000000000000000000000600052601160045260246000fd5b600061126b82610a0a565b915061127683610a0a565b925082820390508181111561128e5761128d611231565b5b92915050565b7f4e487b7100000000000000000000000000000000000000000000000000000000600052603260045260246000fd5b60006112ce82610a0a565b91506112d983610a0a565b92508282026112e781610a0a565b915082820484148315176112fe576112fd611231565b5b5092915050565b600061131082610a0a565b915061131b83610a0a565b925082820190508082111561133357611332611231565b5b92915050565b61134281610969565b82525050565b600060408201905061135d6000830185611339565b61136a6020830184610d90565b9392505050565b61137a816109d4565b811461138557600080fd5b50565b60008151905061139781611371565b92915050565b6000602082840312156113b3576113b261093f565b5b60006113c184828501611388565b91505092915050565b7f526577617264207472616e73666572206661696c656400000000000000000000600082015250565b6000611400601683610daa565b915061140b826113ca565b602082019050919050565b6000602082019050818103600083015261142f816113f3565b905091905056fea264697066735822122019345c331c13986772ee3fc77800f9efb8a5444388b890e5136004f1304843ec64736f6c634300081a0033",
  "immutableReferences": {},
  "source": "// SPDX-License-Identifier: MIT\r\npragma solidity >=0.8.19 <0.9.0;\r\n\r\nimport \"./RWD.sol\";\r\n\r\ncontract Upload {\r\n    RWD public rwdToken;\r\n    \r\n    struct User {\r\n        uint dateOfBirth;\r\n        uint monthOfBirth;\r\n        uint yearOfBirth;\r\n        string gender;\r\n        uint256[] bmiHistory;\r\n    }\r\n    \r\n    mapping(address => User) public users;\r\n    mapping(address => bool) public registeredUsers;\r\n    \r\n    uint256 constant HEALTHY_BMI_MIN = 18500;\r\n    uint256 constant HEALTHY_BMI_MAX = 24900;\r\n    uint256 constant REWARD_AMOUNT = 1 * (10 ** 18); // 10 RWD tokens\r\n\r\n    event UserRegistered(address indexed user, uint date, uint month, uint year, string gender);\r\n    event BMIRecorded(address indexed user, uint bmi);\r\n    event RewardGiven(address indexed user, uint amount);\r\n\r\n    constructor(address _rwdTokenAddress) {\r\n        rwdToken = RWD(_rwdTokenAddress);\r\n    }\r\n\r\n    function login(uint date, uint month, uint year, string memory gender) public {\r\n        require(!registeredUsers[msg.sender], \"User already registered\");\r\n\r\n        users[msg.sender].dateOfBirth = date;\r\n        users[msg.sender].monthOfBirth = month;\r\n        users[msg.sender].yearOfBirth = year;\r\n        users[msg.sender].gender = gender;\r\n        registeredUsers[msg.sender] = true;\r\n\r\n        emit UserRegistered(msg.sender, date, month, year, gender);\r\n    }\r\n    \r\n    // BMI is mmultiple of 10^3\r\n    function recordBMI(uint256 bmi) public {\r\n        require(registeredUsers[msg.sender], \"User not registered\");\r\n\r\n        User storage user = users[msg.sender];\r\n        user.bmiHistory.push(bmi);\r\n\r\n        emit BMIRecorded(msg.sender, bmi);\r\n\r\n        if (user.bmiHistory.length > 1) {\r\n            uint previousBMI = user.bmiHistory[user.bmiHistory.length - 2];\r\n            if(bmi >= HEALTHY_BMI_MIN && bmi <= HEALTHY_BMI_MAX){\r\n                if(previousBMI <=HEALTHY_BMI_MIN || previousBMI >= HEALTHY_BMI_MAX){\r\n                    uint256 amount = REWARD_AMOUNT * 2;\r\n                    _rewardUser(msg.sender,amount);\r\n                }\r\n                else{\r\n                _rewardUser(msg.sender,REWARD_AMOUNT);\r\n                }\r\n            }\r\n            else if (bmi > previousBMI && bmi <= HEALTHY_BMI_MIN) {\r\n                uint256 amount = (bmi - previousBMI) * (10 ** 15) + REWARD_AMOUNT;\r\n                _rewardUser(msg.sender,amount);\r\n            }\r\n            else if(bmi < previousBMI && bmi >= HEALTHY_BMI_MAX) {\r\n                uint256 amount = (previousBMI - bmi) * (10 ** 15) + REWARD_AMOUNT;\r\n                _rewardUser(msg.sender,amount);\r\n            }\r\n        }\r\n    }\r\n\r\n    function _rewardUser(address user , uint256 _amount) internal {\r\n        require(rwdToken.transfer(user, _amount), \"Reward transfer failed\");\r\n        emit RewardGiven(user, _amount);\r\n    }\r\n\r\n    function getBMIs(address user) public view returns (uint[] memory) {\r\n        return users[user].bmiHistory;\r\n    }\r\n}\r\n",
  "sourcePath": "E:\\Blockchain\\defi-staking-app-starter\\src\\contracts\\upload.sol",
  "compiler": {
    "name": "solc",
    "version": "0.8.26+commit.8a97fa7a.Emscripten.clang"
  },
  "schemaVersion": "3.4.16",
  "updatedAt": "2024-05-31T12:06:29.137Z",
  "devdoc": {
    "kind": "dev",
    "methods": {},
    "version": 1
  },
  "userdoc": {
    "kind": "user",
    "methods": {},
    "version": 1
  }
}